:0400000007EF00F016
:100008005F8282ED14F0CCEF1AF0C20E0001D86FB7
:10001800000ED96FDDEF05F0250EED19D8B40AD022
:10002800BEC0D9FFBFC0DAFFEDC0DFFFBE4BBF2B9C
:10003800DDEF05F0000EEA6F000EE96F000EEC6FC1
:10004800000EEB6F04D00001EB85C04BC12BC0C084
:10005800F6FFC1C0F7FF0800F550300AD8B4F3D74F
:10006800C0C0F6FFC1C0F7FF0800F55064EC22F0ED
:10007800D8A0A4D0000E0001EA6F000EE96FE9C015
:100088006EF0EAC06FF0000E0001716F0A0E706F1B
:10009800E0EC21F06EC0E9F06FC0EAF0D00E00018C
:1000A800CA6FFF0ECB6FC0C0F6FFC1C0F7FF0800D4
:1000B800F550CC6FCD6BCA51CC27CB51CD23CC5149
:1000C800E927CD51EA23C04BC12BC0C0F6FFC1C000
:1000D800F7FF0800F55064EC22F0D8A06FD0CFD716
:1000E8000001EB896BD0EC8592D0EB8F90D0D8C013
:1000F800D9FFD9C0DAFFDECFD4F0DDCFD5F0020EBC
:10010800D827000ED923D451D511D8A404D0CB0EAA
:10011800D46F7F0ED56F000ED76F000ED66F02D04A
:10012800D64BD72BD651D425CA6FD751D521CB6FF3
:10013800CAC0F6FFCBC0F7FF0800F5500009D8A4E5
:10014800EFD7E951D65DEA51D759D8B005D0D65185
:10015800E95FD751EA5B0DD0000EEA6F000EE96F38
:1001680008D0BEC0D9FFBFC0DAFF200EDF6EBE4B7D
:10017800BF2BE907D8A0EA07E929F3E1EA29D8B4AF
:1001880010D0EFD7D4C0F6FFD5C0F7FFBEC0D9FF57
:10019800BFC0DAFF0800F5CFDFFFD44BD52BBE4B2D
:1001A800BF2BD607D8A0D707D629ECE1D729D8B4D2
:1001B800DDEF05F0E7D7C00EEB1329D0C0C0F6FF7E
:1001C800C1C0F7FF0001C04BC12B0800F5CFEDF00F
:1001D800ED51000AD8B4EAEF05F0580AD8B485D72B
:1001E8003C0AD8B414D0020AD8B47DD70F0AD8B4C0
:1001F8000ED0050AD8B474D71F0AD8B478D7060A1F
:10020800D8B4D9D70D0AD8B470D7DDEF05F0070EEA
:10021800EC15D8B427D3000EDB6F060EDA6FD8C002
:10022800D9FFD9C0DAFFDECFE6F0DECFE7F0DDCFC9
:10023800E8F0030ED827000ED923E8AF11D0E6C0A6
:1002480060F0E7C061F0E8C062F01AEC22F060C02C
:10025800E6F061C0E7F062C0E8F0030E0001EB13BE
:10026800000EE16F000EE06FE651E711E811D8B417
:1002780088D0820ECA6FFF0ECB6FE6C0CCF0E7C005
:10028800CDF0E8C0CEF0E9C0CFF0100E05D0D89080
:10029800CF33CE33CD33CC33E82EF9D7CC51CA2562
:1002A800E06F000ECB21E16FE007D8A0E107E0C0C6
:1002B8006EF0E1C06FF0000E716F030E706FE0EC2E
:1002C80021F06EC0E0F06FC0E1F0E0C066F0E1C080
:1002D80067F0000E0001696F0A0E686FE2EC1CF00F
:1002E80066C0E0F067C0E1F00001E1AF03D0E007CD
:1002F800D8A0E107E0510008F1EC05F08FC0DCF070
:1003080090C0DDF091C0DEF0DCC080F0DDC081F08F
:10031800DEC082F0E6C083F0E7C084F0E8C085F074
:1003280000EC16F080C0DCF081C0DDF082C0DEF0A9
:10033800DCC060F0DDC061F0DEC062F0000E0001DC
:10034800636F800E646F3F0E656F50EC1CF0000108
:10035800D8B004D0E007D8A0E10713D0DCC060F023
:10036800DDC061F0DEC062F0000E636F200E646FC6
:10037800410E656F50EC1CF00001D8A002D0E04B94
:10038800E12BDBBF06D0DB511BE10D0EDA5DD8B0E7
:1003980017D0E6C074F0E7C075F0E8C076F0DA511F
:1003A8004DEC09F08FC077F090C078F091C079F0EB
:1003B800D8EC0CF074C0E6F075C0E7F076C0E8F051
:1003C8000001E1BF06D0E1511FE10A0EE05DD8B09F
:1003D8001BD0E651E711E811D8B454D0E6C0AFF00D
:1003E800E7C0B0F0E8C0B1F084EC15F00001AF51FF
:1003F800B011B111B211D8B4E1BF44D0E15104E158
:10040800020EE05DD8A03ED0DCC060F0DDC061F037
:10041800DEC062F0700E636F890E646F400E656F08
:1004280050EC1CF00001D8B002D0F70E01D0F80E45
:10043800E027FF0EE123E051F1EC05F08FC0DCF07E
:1004480090C0DDF091C0DEF0E6C060F0E7C061F07A
:10045800E8C062F0DCC063F0DDC064F0DEC065F0C7
:10046800F1EC0EF060C0E2F061C0E3F062C0E4F0CD
:1004780063C0E5F0000E0001E66F000EE76F000EA6
:10048800E86F33D0E6C0AFF0E7C0B0F0E8C0B1F035
:1004980084EC15F0AFC0E2F0B0C0E3F0B1C0E4F016
:1004A800B2C0E5F0E6C080F0E7C081F0E8C082F0B5
:1004B800E2C068F0E3C069F0E4C06AF0E5C06BF040
:1004C800FAEC1EF068C083F069C084F06AC085F059
:1004D8006AEC20F080C0E6F081C0E7F082C0E8F066
:1004E800000E0001E16F000EE06F010EED6F0A0EC5
:1004F800ED19D8B418D0ED51040D510EF324F66E51
:100508007D0EF420F76E0900F550E25D0900F55004
:10051800E3590900F550E4590900F550E559D8A008
:1005280002D0ED2BE4D7EDC0CAF0CB6BCABFCB0726
:10053800DA51CA27DB51CB23E051CA27E151CB233B
:10054800CA51E95FCB51EA5BDA51DB11D8B403D069
:10055800E907D8A0EA07030EEB15CA6F000EEC15E1
:10056800CB6FCA51CB11D8B403D0E907D8A0EA079A
:10057800EBA531D0030EEB15CA6F000EEC15CB6F4F
:10058800CA51CB11D8B414D0BEC0D9FFBFC0DAFF4E
:100598002D0EDF6EBE4BBF2B0BD0BEC0D9FFBFC028
:1005A800DAFF300EDF6EBE4BBF2BE907D8A0EA0793
:1005B800EABF73D0EA51F1E1E905D8A06ED0EDD7D2
:1005C800BEC0D9FFBFC0DAFF200EDF6EBE4BBF2B07
:1005D800E907D8A0EA07EABF05D0EA51F1E1E90541
:1005E800D8B0EED7030EEB15CA6F000EEC15CB6F23
:1005F800CA51CB11D8B451D0BEC0D9FFBFC0DAFFA1
:100608002D0E48D0E2C060F0E3C061F0E4C062F0B3
:10061800E5C063F0ED51040D510EF324F66E7D0E26
:10062800F420F76E0900F5CF64F00900F5CF65F006
:100638000900F5CF66F00A00F5CF67F068EC1DF009
:1006480060C0DCF061C0DDF062C0DEF063C0DFF0E6
:10065800DCC06DF0DDC06EF0DEC06FF0DFC070F0A2
:100668000A0E0001716F000E726F000E736F000E9C
:10067800746F93EC1EF06DC0DCF06EC0DDF06FC0DF
:10068800DEF070C0DFF00001DC51300FBEC0D9FFD2
:10069800BFC0DAFFDF6EBE4BBF2BED07ED29D8B424
:1006A8000CD0B0D7BEC0D9FFBFC0DAFF300EDF6EA6
:1006B800BE4BBF2BE007D8A0E107E1BF05D0E15151
:1006C800F1E1E005D8B0EED7DBBF09D0DB5104E19A
:1006D800090EDA5DD8A003D0080EED6F02D0DAC09B
:1006E800EDF0ED51DA5F000EEDBFFF0EDB5BED5173
:1006F800D8B408D0BEC0D9FFBFC0DAFF2E0EDF6E57
:10070800BE4BBF2BED51F1EC05F08FC0D0F090C07F
:10071800D1F091C0D2F0E6C083F0E7C084F0E8C021
:1007280085F0D0C080F0D1C081F0D2C082F000EC5A
:1007380016F080C0AFF081C0B0F082C0B1F084EC98
:1007480015F0AFC0E2F0B0C0E3F0B1C0E4F0B2C061
:10075800E5F072D0E2C060F0E3C061F0E4C062F09E
:10076800E5C063F00001ED51040D510EF324F66E5F
:100778007D0EF420F76E0900F5CF64F00900F5CF7F
:1007880065F00900F5CF66F00A00F5CF67F068EC70
:100798001DF060C0DCF061C0DDF062C0DEF063C057
:1007A800DFF0DCC06DF0DDC06EF0DEC06FF0DFC0E2
:1007B80070F00A0E0001716F000E726F000E736FF9
:1007C800000E746F93EC1EF06DC0DCF06EC0DDF0AF
:1007D8006FC0DEF070C0DFF00001DC51300FBEC02A
:1007E800D9FFBFC0DAFFDF6EBE4BBF2BE2C06DF092
:1007F800E3C06EF0E4C06FF0E5C070F0ED51040D99
:10080800510EF324F66E7D0EF420F76E0900F5CF35
:1008180071F00900F5CF72F00900F5CF73F00A0006
:10082800F5CF74F093EC1EF06DC0E2F06EC0E3F00B
:100838006FC0E4F070C0E5F00001ED07ED29D8B411
:100848000CD088D7BEC0D9FFBFC0DAFF300EDF6E2C
:10085800BE4BBF2BDA07D8A0DB07DA51DB11D8B4BF
:10086800A8D1F0D7C00EEB15CA6F000EEC15CB6FF0
:10087800CA51CB11D8A42ED0EBA90ED0D8C0D9FF1D
:10088800D9C0DAFFDECFE2F0DECFE3F0DECFE4F06E
:10089800DECFE5F0040E0ED0D8C0D9FFD9C0DAFFFC
:1008A800DECFE2F0DDCFE3F0000EE3BFFF0EE46F32
:1008B800E56F020ED827000ED923E5AF6AD0030EE4
:1008C800EB13E51FE41FE31FE26D000EE323E423AF
:1008D800E5235FD0EBA90ED0D8C0D9FFD9C0DAFF85
:1008E800DECFE2F0DECFE3F0DECFE4F0DECFE5F0FE
:1008F800040E0FD0D8C0D9FFD9C0DAFFDECFCAF0B6
:10090800DDCFCBF0CAC0E2F0CBC0E3F0E46BE56B1F
:10091800020ED827000ED9233CD0010EED6F0A0E27
:10092800ED19D8B441D0ED51040D510EF324F66EF3
:100938007D0EF420F76E0900F550E25D0900F550D0
:10094800E3590900F550E4590900F550E559D8A0D4
:100958002BD0ED2BE4D7010EED6F080EED19D8B4AE
:1009680023D0ED51040DC70EF324F66E7D0EF4204E
:10097800F76E0900F550E25D0900F550E3590900EA
:10098800F550E4590900F550E559D8A00DD0ED2BE4
:10099800E4D7EB51C00B000AD8B4BFD7800AD8B44B
:1009A800DAD7400AD8B4B9D7E951EA11D8B40DD08A
:1009B800030EEB15CA6F000EEC15CB6FCA51CB11A5
:1009C800D8B403D0E907D8A0EA07800EEDBF7F0EA0
:1009D800CA6FE951ED5DEA51800ACA59D8B007D00B
:1009E800ED51E95F000EEDBFFF0EEA5B04D0000E8B
:1009F800EA6F000EE96FEBA522D0030EEB15CA6F64
:100A0800000EEC15CB6FCA51CB11D8B408D0BEC0BC
:100A1800D9FFBFC0DAFF2D0EDF6EBE4BBF2BE951E9
:100A2800EA11D8B431D0BEC0D9FFBFC0DAFF300E4A
:100A3800DF6EBE4BBF2BE907D8A0EA07F0D7E95114
:100A4800EA11D8B40FD0BEC0D9FFBFC0DAFF200E5C
:100A5800DF6EBE4BBF2BE907D8A0EA07E951EA11C0
:100A6800D8A4F1D7030EEB15CA6F000EEC15CB6FA7
:100A7800CA51CB11D8B408D0BEC0D9FFBFC0DAFF65
:100A88002D0EDF6EBE4BBF2BED51DA6FDB6BDABF7D
:100A9800DB0787D0DAC0CAF0DBC0CBF0D890CA3702
:100AA800CB37D890CA37CB37510ECA25F66E7D0E94
:100AB800CB21F76E0900F5CF64F00900F5CF65F09A
:100AC8000900F5CF66F00A00F5CF67F0E2C060F0E4
:100AD800E3C061F0E4C062F0E5C063F068EC1DF0CB
:100AE80060C06DF061C06EF062C06FF063C070F0FE
:100AF8000A0E0001716F000E726F000E736F000E08
:100B0800746F93EC1EF000016D51300FED6F41D002
:100B1800E2C060F0E3C061F0E4C062F0E5C063F0F9
:100B2800DAC0CAF0DBC0CBF0D890CA37CB37D89040
:100B3800CA37CB37C70ECA25F66E7D0ECB21F76EA6
:100B48000900F5CF64F00900F5CF65F00900F5CF8D
:100B580066F00A00F5CF67F068EC1DF000016051FF
:100B68000F0BD36FD351010D160EF324F66E7F0EC3
:100B7800F420F76E0800F5CFEDF00BD0EB51C00B69
:100B8800000AD8B487D7800AD8B4C2D7400AD8B4E4
:100B980081D7BEC0D9FFBFC0DAFFEDC0DFFFBE4BB3
:100BA800BF2BDA07D8A0DB07DA29E8E1DB29D8A4CC
:100BB800E5D7C0C0F6FFC1C0F7FFC04BC12B080086
:100BC800F5CFEDF0ED51D8A410EF00F0BEC0D9FF7D
:100BD800BFC0DAFF000EDF6E12000001956F000142
:100BE80095AF0CD1956D9551800A120FD8A097D06A
:100BF800000E716F030E706F000E696F0A0E686F3A
:100C0800000E636F640E626F9551606F616B60BF19
:100C1800610724EC1EF060C066F061C067F0E2EC8A
:100C28001CF0090E000166256E6F000E67216F6FBC
:100C3800E0EC21F0A00E00016E25F66E7D0E6F210E
:100C4800F76E0900F5CF83F00900F5CF84F00A00AC
:100C5800F5CF85F0000E696F640E686F9551666F69
:100C6800676B66BF6707E2EC1CF0120E0001662591
:100C78006E6F000E67216F6F000E716F030E706F3D
:100C8800E0EC21F0A00E00016E25F66E7D0E6F21BE
:100C9800F76E0900F5CF80F00900F5CF81F00A0062
:100CA800F5CF82F000EC16F080C092F081C093F08E
:100CB80082C094F092C080F093C081F094C082F01A
:100CC800000E0001716F030E706F000E636F0A0E45
:100CD800626F9551606F616B60BF610724EC1EF015
:100CE80060C06EF061C06FF0E0EC21F0A00E000172
:100CF8006E25F66E7D0E6F21F76E0900F5CF83F035
:100D08000900F5CF84F00A00F5CF85F000EC16F065
:100D180080C08FF081C090F082C091F01200000175
:100D28009551800A750FD8A056D0000E696F0A0E2B
:100D3800686F9551666F676B66BF6707E2EC1CF0DA
:100D4800090E000166256E6F000E67216F6F000E99
:100D5800716F030E706FE0EC21F0A00E00016E259C
:100D6800F66E7D0E6F21F76E0900F5CF80F0090051
:100D7800F5CF81F00A00F5CF82F0000E716F030EF7
:100D8800706F000E636F0A0E626F9551606F616B32
:100D980060BF610724EC1EF060C06EF061C06FF0A8
:100DA800E0EC21F0A00E00016E25F66E7D0E6F219D
:100DB800F76E0900F5CF83F00900F5CF84F00A003B
:100DC800F5CF85F000EC16F080C08FF081C090F070
:100DD80082C091F0120000019551030DA00EF3247A
:100DE800F66E7D0EF420F76E0900F5CF8FF009003E
:100DF800F5CF90F00A00F5CF91F012009551800AD6
:100E0800120FD8A097D0000E716F030E706F000EEE
:100E1800696F0A0E686F000E636F640E626F9551FA
:100E2800606F616B60BF610724EC1EF060C066F004
:100E380061C067F0E2EC1CF0090E000166256E6FD8
:100E4800000E67216F6FE0EC21F0790E00016E252E
:100E5800F66E7D0E6F21F76E0900F5CF83F009005D
:100E6800F5CF84F00A00F5CF85F0000E696F640EA7
:100E7800686F9551666F676B66BF6707E2EC1CF099
:100E8800120E000166256E6F000E67216F6F000E4F
:100E9800716F030E706FE0EC21F0790E00016E2582
:100EA800F66E7D0E6F21F76E0900F5CF80F0090010
:100EB800F5CF81F00A00F5CF82F000EC16F080C083
:100EC80092F081C093F082C094F092C080F093C0F9
:100ED80081F094C082F0000E0001716F030E706FF4
:100EE800000E636F0A0E626F9551606F616B60BF91
:100EF800610724EC1EF060C06EF061C06FF0E0EC9A
:100F080021F0790E00016E25F66E7D0E6F21F76EC9
:100F18000900F5CF83F00900F5CF84F00A00F5CF7A
:100F280085F000EC16F080C08FF081C090F082C090
:100F380091F0120000019551800A750FD8A056D083
:100F4800000E696F0A0E686F9551666F676B66BF12
:100F58006707E2EC1CF0090E000166256E6F000EB3
:100F680067216F6F000E716F030E706FE0EC21F058
:100F7800790E00016E25F66E7D0E6F21F76E090061
:100F8800F5CF80F00900F5CF81F00A00F5CF82F0A7
:100F9800000E716F030E706F000E636F0A0E626FA2
:100FA8009551606F616B60BF610724EC1EF060C0F3
:100FB8006EF061C06FF0E0EC21F0790E00016E2553
:100FC800F66E7D0E6F21F76E0900F5CF83F00900EC
:100FD800F5CF84F00A00F5CF85F000EC16F080C05C
:100FE8008FF081C090F082C091F0120000019551FD
:100FF800030D790EF324F66E7D0EF420F76E0900CA
:10100800F5CF8FF00900F5CF90F00A00F5CF91F0F9
:10101800120004013205D8A410D030511F0B00096A
:10102800D8A40BD00001FA8F030E04013119D8A4FB
:1010380002D0010E01D0000E556E3251D8A4120014
:1010480030511F0B020AD8A4120034510F0B0009AB
:10105800D8B4120034510F0B156E030E1560120030
:10106800200E5818D8A412000001FA8F040134BFCA
:1010780019D034510F0B156E1550020D1E0EF324A6
:10108800D96E020EF420DA6EDECF19F0DDCF1AF039
:1010980034510F0B156E1550010DEB0EF324D96E5C
:1010A800010E18D034510F0B156E1550020D3A0E63
:1010B800F324D96E000EF420DA6EDECF19F0DDCFFE
:1010C8001AF034510F0B156E1550010DEE0EF32466
:1010D800D96E010EF420DA6EDF50186E18B006D003
:1010E800FB0E1914196EFF0E1A1404D0040E1910F1
:1010F800196E1A501A6E34BF0AD034510F0B156E80
:101108001550020D1E0EF324D96E020E09D034516B
:101118000F0B156E1550020D3A0EF324D96E000E02
:10112800F420DA6E19C0DEFF1AC0DDFF030E311994
:10113800D8A42DD019C0D9FF1AC0DAFFDFAE1AD053
:1011480034BF0AD034510F0B156E1550010DEB0E3C
:10115800F324D96E010E0AD0040134510F0B156E19
:101168001550010DEE0EF324D96E010EF420DA6E3F
:101178000101DF8219C0D9FF1AC0DAFF000EDB8433
:1011880019C0D9FF1AC0DAFF000EDB8E1200040E58
:101198001918196E1A501A6E19C0D9FF1AC0DAFF39
:1011A800DFAE1BD019C0D9FF1AC0DAFF7F0EDF16D9
:1011B80019C0D9FF1AC0DAFF000EDB8C000E0E6EC4
:1011C800050E0D6E19C00FF01AC010F0000E126E49
:1011D800020E116E29EC1FF006D019C0D9FF1AC0F3
:1011E800DAFF000EDB8C040E1918196E1A501A6EED
:1011F80018B206D019C0D9FF1AC0DAFFDFAE30D056
:10120800040134BF0AD034510F0B156E1550010D6F
:10121800EB0EF324D96E010E0AD0040134510F0BE2
:10122800156E1550010DEE0EF324D96E010EF42043
:10123800DA6E0101DF9219C0D9FF1AC0DAFF3B0E3E
:10124800DF16000E0E6E050E0D6E19C00FF01AC0D7
:1012580010F0000E126E020E116E29EC1FF006D06F
:1012680019C0D9FF1AC0DAFF3B0EDF16040134514A
:101278000F0B156E1550010D700EF324166E0F0E20
:10128800F420176E16C0D9FF17C0DAFFFE0EDF165E
:1012980012000001986F6D0E00019865A6D0000E2F
:1012A800716F030E706F000E696F0A0E686F000E83
:1012B800636F640E626F98C060F0616B24EC1EF07F
:1012C80060C066F061C067F0E2EC1CF0090E000136
:1012D80066256E6F000E67216F6FE0EC21F0A00E9F
:1012E80000016E25F66E7D0E6F21F76E0900F5CFB1
:1012F80083F00900F5CF84F00A00F5CF85F0000EE1
:10130800696F640E686F98C066F0676BE2EC1CF05A
:10131800120E000166256E6F000E67216F6F000EBA
:10132800716F030E706FE0EC21F0A00E00016E25C6
:10133800F66E7D0E6F21F76E0900F5CF80F009007B
:10134800F5CF81F00A00F5CF82F000EC16F080C0EE
:1013580095F081C096F082C097F0000E0001716F81
:10136800030E706F000E636F0A0E626F98C060F014
:10137800616B24EC1EF060C06EF061C06FF0E0ECB1
:1013880021F0A00E00016E25F66E7D0E6F21F76E1E
:101398000900F5CF83F00900F5CF84F00A00F5CFF6
:1013A80085F095C080F096C081F097C082F000EC7F
:1013B80016F080C092F081C093F082C094F092C081
:1013C80080F093C081F094C082F0000E0001836F1A
:1013D800000E846F3F0E856F00EC16F080C08FF012
:1013E80081C090F082C091F012000A0E0001986549
:1013F80067D0000E716F030E706F000E636F0A0ED8
:10140800626F98C060F0616B24EC1EF060C06EF0F3
:1014180061C06FF0E0EC21F0A00E00016E25F66EC1
:101428007D0E6F21F76E0900F5CF83F00900F5CF27
:1014380084F00A00F5CF85F0000E696F0A0E686F18
:1014480098C066F0676BE2EC1CF0090E0001662597
:101458006E6F000E67216F6F000E716F030E706F55
:10146800E0EC21F0A00E00016E25F66E7D0E6F21D6
:10147800F76E0900F5CF80F00900F5CF81F00A007A
:10148800F5CF82F000EC16F080C095F081C096F0A0
:1014980082C097F095C080F096C081F097C082F026
:1014A800000E0001836F000E846F3F0E856F00EC05
:1014B80016F080C08FF081C090F082C091F01200C9
:1014C80000019851030DA00EF324F66E7D0EF42052
:1014D800F76E0900F5CF80F00900F5CF81F00A001A
:1014E800F5CF82F0000E836F000E846F3F0E856F7C
:1014F80000EC16F080C08FF081C090F082C091F0AF
:101508001200000E0101E86F969483989598000EDA
:10151800E16F000EE06FE1BF06D0E1511CE1190E4A
:10152800E05DD8B018D0010EE81BE8B102D0849471
:1015380001D084840D0E0001F46F2D0EF36FD70EC9
:10154800E82EFED7F32FFCD7F42FFAD700D00101ED
:10155800E04BE12BE0D7000E00016D6FE10E6E6FDE
:10156800000E6F6F000E706F1CEC1BF0AFEC0DF0EF
:1015780086EC22F0B4EC21F0ACEC20F056EC21F033
:10158800550EADEC22F005EC21F00101CF6F2DECEA
:1015980022F060C0D1F161C0D2F162C0D3F163C062
:1015A800D4F1010E0101E81BE8B102D0849401D006
:1015B80084846DEC12F09EC0D9F19FC0DAF1A0C00E
:1015C800DBF1000E0001836F7A0E846F440E856F85
:1015D800D9C180F0DAC181F0DBC182F000EC16F0ED
:1015E80080C0AFF081C0B0F082C0B1F084EC15F0DB
:1015F800AFC0E2F1B0C0E3F1F4EC21F060C0E4F177
:1016080061C0E5F162C0E6F163C0E7F1000E0101D7
:10161800E96F070EE96501D00AD0010E0001EE6FEF
:101628000101E9515DEC1EF00101E92BF2D7080E2A
:10163800EA6F470EEA6501D00AD0000E0001EE6F8E
:101648000101EA515DEC1EF00101EA2BF2D7010E0F
:101658000001EE6F400E5DEC1EF0010E0001EE6F12
:10166800E20EEF6F010EF06F060EF16F010EE1EC66
:1016780011F00101D06F56EC21F00009D8B40AD05E
:101688000001FE51D8A406D0000E606F060E616FEF
:10169800D9EC1FF0D1C1F3F0D2C1F4F0D3C1F5F009
:1016A800D4C1F6F00001F31FF41FF51FF61FF32B4A
:1016B800000EF423F523F6232DEC22F00001F3515C
:1016C80060250101DC6F0001F45161210101DD6F2A
:1016D8000001F55162210101DE6F0001F65163211D
:1016E8000101DF6FDF51DE1105E1300EDC5D750EA3
:1016F800DD59D8B04CD7DCC1F3F0DDC1F4F0DEC160
:10170800F5F0DFC1F6F00001F31FF41FF51FF61F17
:10171800F32B000EF423F523F623300EF3250101F5
:10172800D56F750E0001F4210101D66F000E00017E
:10173800F5210101D76F000E0001F6210101D86FD4
:10174800D5C16DF0D6C16EF0D7C16FF0D8C170F0B9
:10175800EBEC1DF01CD7106E5950010D000EF32450
:10176800D96E030EF420DA6E10C0DFFF592A0A0E74
:101778001018D8A40FD1020E59640CD15950010D7C
:10178800000EF324D96E030EF420DA6E000EDF6E1D
:10179800000E016E060E026E000E036E030E046E3E
:1017A80086EC21F0FE0E0A6EFF0E0B6E59500C6E81
:1017B8000D6A0A500C260B500D22000E0C24D96E0F
:1017C800030E0D20DA6E000EDF6E000E596E0F0E3E
:1017D8000E6E5B68000E116E1DD0000E016E030EBA
:1017E800026E1150020DC20EF324D96E020EF420BF
:1017F800DA6EDECF03F0DDCF04F001EC20F001500B
:101808000210D8A406D011C05BF0010E0001FF6FD2
:101818001200112A0E50115CD8A0DFD7E0C201F0E7
:10182800E1C202F0B0EC1FF00150126E000E016E22
:10183800030E026EE0C203F0E1C204F012C005F02C
:10184800066AAAEC1DF001500210D8A406D00F0EAB
:101858005B6E010E0001FF6F1200D6C201F0D7C205
:1018680002F0B0EC1FF00150126E000E016E030E74
:10187800026ED6C203F0D7C204F012C005F0066AA1
:10188800AAEC1DF001500210D8A484D012C013F0A5
:10189800000E0F6E27D01350010D000EF324D96EE1
:1018A800030EF420DA6E2F0EDF642BD01350010DD7
:1018B800000EF324D96E030EF420DA6E390EDF64BD
:1018C80001D01FD00A0E0F02F3500F6E1350010DF6
:1018D800000EF324D96E030EF420DA6EDF50D00F19
:1018E8000F26132A000E016E030E026EB0EC1FF0D5
:1018F80013500A6E0B6A01500A5C02500B58D8A0AC
:10190800CAD7132A38D05A50020D000EF324D96EC4
:10191800020EF420DA6E0FC0DFFF5A50020D010EDE
:10192800F326000EF422000EF324D96E020EF420E2
:10193800DA6E13500A6E0B6A010E0A26000E0B228D
:10194800000E0A24E16E030E0B20E26EE750026ED1
:101958001350010D000EF324E16E030EF420E26E25
:10196800E75025EC1DF0DF6E5A2A090E5A6401D0A3
:101978001200020E1326000E016E030E026EB0EC6A
:101988001FF013500A6E0B6A01500A5C02500B5884
:10199800D8A0B9D7640E596004D00A0E1018D8A47C
:1019A8001200000E596E120076C07AF000017B6BAF
:1019B8007C6B75357A3701E37B817A517F6F79C00B
:1019C8007AF07B6B7C6B78357A3701E37B817A51CF
:1019D8007E6F7F51D8B40BD07E517F5DD8B00ED0CA
:1019E8007F5100087E257A6F180E7A6507D077C078
:1019F80074F078C075F079C076F012007E51D8B4D2
:101A08000BD07F517E5DD8B00ED07E5100087F2567
:101A18007A6F180E7A6507D074C074F075C075F0C7
:101A280076C076F01200060E7D6F76BF7D8F79BF87
:101A38007D8D758FFF0E7417FF0E7517000E7617C4
:101A4800788FFF0E7717FF0E7817000E79177E51E3
:101A58007F5DD8B01BD0D8907737783779377E0735
:101A68007F517E19D8B40DD07D077DC07AF0070E5E
:101A78007A17D8B406D0EFD7D89076337533743345
:101A88007F2B7E517F19D8B41FD0F6D77F517E5D4A
:101A9800D8B01AD0D8907437753776377F077F510A
:101AA8007E19D8B40DD07D077DC07AF0070E7A175D
:101AB800D8B406D0EFD7D8907933783377337E2BE4
:101AC8007E517F19D8A4F7D77DAF0CD0FF0E741BB9
:101AD800FF0E751BFF0E761B010E7427000E752373
:101AE800000E76237DAD0CD0FF0E771BFF0E781B02
:101AF800FF0E791B010E7727000E7823000E79233D
:101B0800000E7D6F745177277551782376517923AC
:101B180079AF0ED0FF0E771BFF0E781BFF0E791BD7
:101B2800010E7727000E7823000E7923010E7D6FB2
:101B380077C060F078C061F079C062F07FC063F070
:101B48007DC064F073EC19F060C074F061C075F08A
:101B580062C076F01200A09A000E6A6E000E686EDF
:101B6800000E706E710E0001606F0F0E616F000E37
:101B7800636F000E626F000E656F020E646F6EEC8D
:101B880021F0160E6F6E9F0E6B6E7B0E696E000E47
:101B98000001686F0B0E686501D00ED06851040D06
:101BA800000EF324D96E040EF420DA6EDE6ADE6AC3
:101BB800DE6ADD6A682BEED76D8C000E6E6E6D984E
:101BC8006D9C6896000EFA6F000E356E000E376E2B
:101BD800000E366E68B6F5D7010E4F6E010E4E6ECA
:101BE800000E0101F76F000EF66F000E546E000E26
:101BF8000001686F020E686501D02ED06851020D91
:101C08003A0EF324D96E000EF420DA6E000EDE6E62
:101C1800000EDD6E6851020D1E0EF324D96E020E01
:101C2800F420DA6E000EDE6E000EDD6E6851010DD6
:101C3800EE0EF324D96E010EF420DA6E000EDF6E7C
:101C48006851010DEB0EF324D96E010EF420DA6E03
:101C5800000EDF6E682BCED7080E3A6E040E3B6E70
:101C6800160E706E040E0401036F300E026F080E1C
:101C7800016F040E006F008F000E5E6E000E0201F1
:101C8800286F000E296F000E2A6F000E2B6F000EB2
:101C98000101F56F000E586E1200A09A000E6A6ED0
:101CA800000E686E000E706E710E016E0F0E026EE1
:101CB800000E046E000E036E000E066E020E056E18
:101CC800CAEC21F0160E6F6E9F0E6B6E7B0E696E5E
:101CD800000E096E0B0E096401D00ED00950040DD8
:101CE800000EF324D96E040EF420DA6EDE6ADE6A82
:101CF800DE6ADD6A092AEED76D8C000E6E6E6D986D
:101D08006D9C6896000E0001FA6F000E356E000E8D
:101D1800376E000E366E68B6F4D7010E4F6E010EA0
:101D28004E6E000E0101F76F000EF66F000E546E36
:101D3800000E096E020E096401D02ED00950020D62
:101D48003A0EF324D96E000EF420DA6E000EDE6E21
:101D5800000EDD6E0950020D1E0EF324D96E020E20
:101D6800F420DA6E000EDE6E000EDD6E0950010DF5
:101D7800EE0EF324D96E010EF420DA6E000EDF6E3B
:101D88000950010DEB0EF324D96E010EF420DA6E22
:101D9800000EDF6E092ACED7080E3A6E040E3B6E8F
:101DA800160E706E040E0401036F300E026F080EDB
:101DB800016F040E006F008F000E5E6E000E0201B0
:101DC800286F000E296F000E2A6F000E2B6F000E71
:101DD8000101F56F000E586E120062C066F0000136
:101DE800676B686B6135663701E3678166516E6FB3
:101DF8006E51D8A409D0000E606F000E616F000EFE
:101E0800626F000E636F120065C066F0676B686BE7
:101E18006435663701E3678166516D6F6D51D8A4EB
:101E280009D0000E606F000E616F000E626F000E29
:101E3800636F1200618FFF0E6017FF0E6117000EAF
:101E48006217648FFF0E6317FF0E6417000E651785
:101E5800000E696F000E6A6F000E6B6F000E6C6FDC
:101E68007F0E6E5F6D51980F6E5F180E6D6FD89074
:101E780069376A376B376C376351605D64516159F4
:101E880065516259D8A007D06351605F6451615BA6
:101E98006551625B6981D8906037613762376D2F11
:101EA800E6D76EAF16D06E51800A970FD8B009D01A
:101EB800000E606F000E616F000E626F000E636FA0
:101EC8001200D8906C336B336A3369336E3FF9D79D
:101ED80015D0170E6E650FD0000E606F000E616F83
:101EE800000E626F000E636F1200D89069376A3770
:101EF8006B376C376E076E51D8A4F7D769C060F09E
:101F08006AC061F06BC062F06CC063F012005804E4
:101F1800D8B46DBA06D0000E686E69806988020E62
:101F2800586E68B469A403D068943CEC21F06DA2A3
:101F380002D0A19A120068B069A006D051EC0EF048
:101F4800A08A040E586E689068B869A802D09DEC03
:101F580021F068AC1AD069AC0ED0000E0E6E730E6C
:101F68000D6E000E0F6E000E106E000E126E010E3A
:101F7800116E29EC1FF0689C75EC22F05150D8A422
:101F880051065150D8B4B4EC18F068BA69AA02D016
:101F98008BEC20F068B269A20FD07F0E0E6E0D6830
:101FA800000E0F6E000E106E000E126E010E116EF6
:101FB80029EC1FF0000E6A6E040E586002D0A19A38
:101FC800120069A639D0000E1C6E030E1C6401D0E5
:101FD80033D068A631D06CCF5DF05D30E832E8329E
:101FE8000F0B536E68965DB407D05350010DEB0E7E
:101FF800F324D96E010E06D05350010DEE0EF324D2
:10200800D96E010EF420DA6E0101DF705350D8A4A6
:1020180003D0BBEC1BF00ED0000E0E6E720E0D6ED0
:102028005D0E0F6E000E106E000E126E000E116E19
:1020380029EC1FF01C2AC9D7A19A1200800E0401AE
:102048003019D8A41200C00E0001FA6F82D09A0E7F
:102058000001F76F7E0EF86F000EFC6F120EFB6F1B
:10206800120004013251D8A440D03251020DED0EB5
:10207800F324F66E7D0EF420F76E0900F5CFF7F025
:102088000A00F5CFF8F0020E0001F725016E000EE8
:10209800F821026E01C0F6FF02C0F7FFF86A070ECA
:1020A800F76403D00800F55005D0F6CFE9FFF7CF65
:1020B800EAFFEF500001FB6F030EF725016E000EDB
:1020C800F821026E01C0F6FF02C0F7FFF86A070E9A
:1020D800F76403D00800F55005D0F6CFE9FFF7CF35
:1020E800EAFFEF500001FC6F1200000E0001FA6FCA
:1020F8001200030E0401326124D03251020DE70EA2
:10210800F324F66E7D0EF420F76E0900F5CFF7F094
:102118000A00F5CFF8F0F7C0F6FFF8C0F7FFF86A45
:10212800070EF76403D00800F55005D0F6CFE9FF95
:10213800F7CFEAFFEF50016E01500001FB6FFC6B17
:102148001200000E0001FA6F1200000E0001FA6F73
:10215800120004013351010AD8B479D7030AD8B45C
:1021680080D7010AD8B4C5D7F0D7000162356335E6
:102178006B6F6B51D8A409D0000E606F000E616FB1
:10218800000E626F000E636F1200653566356A6F68
:102198006A51D8A409D0000E606F000E616F000E5E
:1021A800626F000E636F1200628FFF0E6017FF0EE2
:1021B8006117FF0E6217000E6317658FFF0E631716
:1021C800FF0E6417FF0E6517000E6617000E666F88
:1021D800000E676F000E686F000E696F7F0E6B5FF1
:1021E8006A51A00F6B5F200E6A6FD8906637673709
:1021F800683769376351605D645161596551625947
:1022080066516359D8A009D06351605F6451615B1E
:102218006551625B6651635B6681D8906037613750
:10222800623763376A2FE1D76BAF16D06B51800ADC
:102238009F0FD8B009D0000E606F000E616F000EBE
:10224800626F000E636F1200D8906933683367338A
:1022580066336B3FF9D715D01F0E6B650FD0000E94
:10226800606F000E616F000E626F000E636F1200E8
:10227800D89066376737683769376B076B51D8A4CA
:10228800F7D766C060F067C061F068C062F069C0E7
:1022980063F01200A09A020142514311D8B408D049
:1022A80042C2D9FF43C2DAFFDFAE02D0A08A1200D1
:1022B800030E0001FE19D8A402D0000EFE6FFE51D5
:1022C800D8A402D0A08A1200020EFE19D8A413D0F6
:1022D800010E606F000E616F000E626F000E636F7B
:1022E800020E7DEC13F060C042F261C043F2030EAF
:1022F8000001FE6F60D0FE05D8A45DD0400EFD65DC
:1023080003D0400E6C6F02D0FDC06CF06C51000819
:10231800FD25FD6F000E02013C6F050E3D6F6CC080
:102328006BF00101F451D8B412D027D03FC2D9FFC5
:1023380040C2DAFF3CC2E1FF3DC2E2FFDFCFE7FF68
:1023480002013C4B3D2B3F4B402B00016B0700012A
:102358006B51D8B416D0EAD73FC2D9FF40C2DAFFD2
:102368003CC2E1FF3DC2E2FFDFCFE7FF02013C4B89
:102378003D2B3F4B402B00016B0700016B51D8A44C
:10238800EBD7FD51D8A408D0400E6C19D8A402D0C0
:10239800020E01D0030EFE6F010E606F000E616F1A
:1023A800050E626F6CC063F0020E7DEC13F060C026
:1023B80042F261C043F2A08A12000101C86F010114
:1023C800C851D8B413D0000E0001BE6F010EBF6F04
:1023D800D20EC06F7F0EC16FCD0EC26F7E0EC36F5F
:1023E800EEC0C4F0C56B09EC00F012D0000E00017D
:1023F800BE6F010EBF6FD20EC06F7F0EC16FC40ECD
:10240800C26F7E0EC36FEEC0C4F0C56B09EC00F05E
:10241800000E0101CE6F27D0CA0E0001BE6F010E5B
:10242800BF6FF50EC06F7F0EC16F0101CE51010D58
:10243800F3500001EF25D96EF450F021DA6EDF5029
:10244800F26FF251C26FC36B09EC00F0000E00018D
:10245800606F010E616FCA0E626F010E636F25EC2B
:1024680020F00101CE2B0001F1510101CE5DD8A071
:10247800D3D7000E00017C6F010E7D6F000E7E6FBA
:1024880000EC14F00101C96F15D022EC1AF0090A0A
:10249800D8A402D0010E1200000E120005EC21F0A3
:1024A80002D007EC22F00009D8A4E3D7000E1200EE
:1024B800000E12000101C951000AD8B4E6D7020A79
:1024C800D8B4ECD7070AD8B4E9D7030AD8B4E9D7FF
:1024D800EFD7000E0001AE6F000EAD6F000EAC6FAF
:1024E800000EAB6FACBF06D0AC5119E1200EAB5D4E
:1024F800D8B015D0C28200F0C2B2FED7C4CFA9F0BE
:102508000001AA6BA951A16FC350A96FA1C0AAF07D
:10251800A951AD27AA51AE23AB4BAC2BE3D7050E7F
:10252800A16FD890AE33AD33A12FFBD7AD51AE110B
:10253800D8A407D0000EA66F000EA76F000EA86FD4
:102548004BD0000E926F440E936F440E946F000EA2
:10255800836F800E846F410E856F000E776F430E78
:10256800786FC30E796FADC068F0AEC069F0E8EC63
:1025780020F068C074F069C075F06AC076F0D8ECD5
:102588000CF074C080F075C081F076C082F000EC69
:1025980016F080C08FF081C090F082C091F0F6EC08
:1025A80016F08FC0A3F090C0A4F091C0A5F0A3C00E
:1025B80074F0A4C075F0A5C076F0000E0001776F26
:1025C800800E786F400E796FD8EC0CF074C0A6F0CE
:1025D80075C0A7F076C0A8F0A6C09EF0A7C09FF06F
:1025E800A8C0A0F0120020EE01F04A50D9264B50A6
:1025F800DA22DF50026E0250365C000E3758D8A03F
:1026080036C002F00250365E000E375A000E016ED8
:1026180011D00150010D380EF324D96E040EF420A8
:10262800DA6E32C0E1FF33C0E2FFDFCFE7FF324AA4
:10263800332A012A0250015CD8A0EBD73650371054
:10264800D8B432D020EE01F04850D9264950DA22C9
:10265800080EDF6E20EE02F04850D9264950DA22E3
:10266800380EDE6E040EDD6E4AC0D9FF4BC0DAFFAD
:10267800DFBC0DD048C0D9FF49C0DAFF480EDF6E75
:1026880048C0D9FF49C0DAFF000EDB8E120048C0EF
:10269800D9FF49C0DAFF080EDF6E48C0D9FF49C02C
:1026A800DAFF000EDB8E120020EE01F04850D9262A
:1026B8004950DA22080EDF6E20EE02F04850D92683
:1026C8004950DA22300EDE6E040EDD6E48C0D9FFA6
:1026D80049C0DAFF040EDF6E48C0D9FF49C0DAFFEF
:1026E800000EDB8E359E5050D8A41200B4EC18F0C2
:1026F80012000001686F00016051D8B407D068511A
:10270800020D3A0EF324D96E000E06D06851020D60
:102718001E0EF324D96E020EF420DA6EDECF69F0B5
:10272800DDCF6AF069516A11D8A405D0000E606F38
:10273800000E616F120020EE02F06951D9266A512D
:10274800DA2261C0DEFF62C0DDFF20EE01F06951D0
:10275800D9266A51DA2263C0DFFF69C0D9FF6AC08F
:10276800DAFF400EDF1669C0D9FF6AC0DAFF000E33
:10277800DB8669C0D9FF6AC0DAFF000EDB8E6051C4
:10278800D8B418D06851020D3A0EF324D96E000E51
:10279800F420DA6EDECF64F0DDCF65F0040E641944
:1027A800666F6551676F6851020D3A0EF324D96E52
:1027B800000E17D06851020D1E0EF324D96E020EBA
:1027C800F420DA6EDECF64F0DDCF65F0040E641914
:1027D800666F6551676F6851020D1E0EF324D96E3E
:1027E800020EF420DA6E66C0DEFF67C0DDFF69C046
:1027F80060F06AC061F0120091EC22F041D0000E46
:102808000001826F000E816F0DD0DF0E8125F66EFC
:102818007E0E8221F76E0800F550ADEC22F0000123
:10282800814B822BDF0E606F7E0E616F85EC1FF08F
:1028380000016051815D61518259D8B029D0E5D736
:10284800000E846F000E836F0DD0DA0E8325F66EAE
:102858007E0E8421F76E0800F550ADEC22F00001E1
:10286800834B842BDA0E606F7E0E616F85EC1FF050
:1028780000016051835D61518459D8B009D0E5D712
:1028880000017E51000AD8B4BAD7010AD8B4D8D703
:10289800000E866F000E856F1BD085517C257F6FDB
:1028A80086517D21806F7FC0F6FF80C0F7FFF86AF0
:1028B800070EF76403D00800F55005D0F6CFE9FFFE
:1028C800F7CFEAFFEF50ADEC22F00001854B862BE5
:1028D8007CC060F07DC061F085EC1FF000016051A4
:1028E800855D61518659D8A0D8D70D0EADEC22F080
:1028F8000A0EADEC22F022EC1AF012000600FACF14
:102908001EF0FBCF1FF0E9CF20F0EACF21F0E1CF96
:1029180022F0E2CF23F0D9CF24F0DACF25F0F3CF9D
:1029280026F0F4CF27F0F6CF28F0F7CF29F0F8CF2C
:102938002AF0F5CF2BF05FC02CF060C02DF061C0FD
:102948002EF062C02FF09EB49DA428D09E94010E54
:1029580002012C27000E2D232E232F2383A003D022
:102968001D6A1D2A01D01D6A1D50306E316A305013
:102978000201461904E131504719D8B40AD030048D
:102988003110D8A406D0010E3027000E312332238F
:10299800332330C046F231C047F20BD09DBA9EAA0D
:1029A80005D040EC22F0AFEC0BF003D0A0BA8BECD2
:1029B8000FF02FC062F02EC061F02DC060F02CC067
:1029C8005FF02BC0F5FF2AC0F8FF29C0F7FF28C029
:1029D800F6FF27C0F4FF26C0F3FF25C0DAFF24C0A6
:1029E800D9FF23C0E2FF22C0E1FF21C0EAFF20C0D7
:1029F800E9FF1FC0FBFF1EC0FAFF5F921100096EBE
:102A08000150D8B407D00950020D3A0EF324D96EFC
:102A1800000E06D00950020D1E0EF324D96E020EC8
:102A2800F420DA6EDECF0AF0DDCF0BF00A500B107F
:102A3800D8A405D0000E016E000E026E120020EE22
:102A480002F00A50D9260B50DA2202C0DEFF03C07A
:102A5800DDFF20EE01F00A50D9260B50DA2204C01F
:102A6800DFFF0AC0D9FF0BC0DAFF400EDF160AC02D
:102A7800D9FF0BC0DAFF000EDB860AC0D9FF0BC0F6
:102A8800DAFF000EDB8E0150D8B418D00950020DC1
:102A98003A0EF324D96E000EF420DA6EDECF05F07C
:102AA800DDCF06F0040E0518076E0650086E0950B3
:102AB800020D3A0EF324D96E000E17D00950020DFC
:102AC8001E0EF324D96E020EF420DA6EDECF05F066
:102AD800DDCF06F0040E0518076E0650086E095083
:102AE800020D1E0EF324D96E020EF420DA6E07C012
:102AF800DEFF08C0DDFF0AC001F00BC002F01200C3
:102B0800B1C0B3F00001B46BB56BB035B33701E3B6
:102B1800B481B351BD6FBD51D8A409D0000EAF6FB9
:102B2800000EB06F000EB16F000EB26F1200170EDC
:102B3800B36FAFC0B4F0B0C0B5F0B1C0B6F0B32950
:102B4800B76F04D0D890B633B533B433B72FFAD7AC
:102B58000001B451B86FB08FFF0EAF17FF0EB0175A
:102B6800000EB117AF51B96FB051BA6FB151BB6F09
:102B7800BC6B8E0EBD5FBDAF16D0BD51800A8F0FE6
:102B8800D8B009D0000EAF6F000EB06F000EB16F55
:102B9800000EB26F1200D890BC33BB33BA33B933CE
:102BA800BD3FF9D715D0170EBD650FD0000EAF6F1A
:102BB800000EB06F000EB16F000EB26F1200D89009
:102BC800B937BA37BB37BC37BD07BD51D8A4F7D71B
:102BD800B851D8B408D0BC1FBB1FBA1FB96D000EBE
:102BE800BA23BB23BC23B9C0AFF0BAC0B0F0BBC096
:102BF800B1F0BCC0B2F0120082C086F00001876B51
:102C0800886B8135863701E387818651896F8951C1
:102C1800D8A407D0000E806F000E816F000E826F5F
:102C2800120085C086F0876B886B8435863701E390
:102C3800878186518E6F8E51D8A407D0000E806F81
:102C4800000E816F000E826F12008E517B0F892754
:102C580082C08EF085518E1B800E8E17818F848FD7
:102C6800FF0E8317FF0E8417000E8517000E8A6F5C
:102C7800000E8B6F000E8C6F070E8D6F80A106D033
:102C880083518A2784518B2385518C23D890823392
:102C980081338033D8908337843785378D2FEED7AB
:102CA800090E8D6F80A106D083518A2784518B230A
:102CB80085518C23D890823381338033D8908C33DC
:102CC8008B338A338D2FEED78AC060F08BC061F0CA
:102CD8008CC062F089C063F08EC064F073EC19F0A8
:102CE80060C080F061C081F062C082F012006D980F
:102CF8000001FABF39D035AE0CD0020E566E010174
:102D0800F651D8B46CEC1BF0000E4E6E000E4F6EF0
:102D1800120020EE01F04850D9264950DA22080E58
:102D2800DF6E20EE02F04850D9264950DA22300EE4
:102D3800DE6E040EDD6E48C0D9FF49C0DAFF0C0E06
:102D4800DF6E48C0D9FF49C0DAFF000EDB8E3AC0FB
:102D5800D9FF3BC0DAFF040EDF6E3AC0D9FF3BC093
:102D6800DAFF000EDB8E1200040130AF11D0010E25
:102D7800566E0101F751D8B46CEC1BF0000E4E6E84
:102D8800000E4F6E5050D8A41200B4EC18F0120088
:102D9800020E566E20EE01F04850D9264950DA222C
:102DA800080EDF6E20EE02F04850D9264950DA228C
:102DB800300EDE6E040EDD6E48C0D9FF49C0DAFF62
:102DC800040EDF6E48C0D9FF49C0DAFF000EDB8E63
:102DD800000E4E6E000E4F6E5050D8A41200B4EC88
:102DE80018F0120091C095F00001966B976B903522
:102DF800953701E3968195519C6F9C51D8A407D0D3
:102E0800000E8F6F000E906F000E916F120094C02D
:102E180095F0966B976B9335953701E396819551AD
:102E28009D6F9D51D8A407D0000E8F6F000E906F34
:102E3800000E916F1200000E996F000E9A6F000E2F
:102E48009B6F9D51890F9C5F91C09DF094519D1B74
:102E5800800E9D17908FFF0E8F17FF0E9017000E94
:102E68009117938FFF0E9217FF0E9317000E94176A
:102E7800180E986FD89099379A379B3792518F5D73
:102E88009351905994519159D8A007D092518F5F7E
:102E98009351905B9451915B9981D8908F3790377B
:102EA8009137982FE7D799C060F09AC061F09BC01E
:102EB80062F09CC063F09DC064F073EC19F060C0D0
:102EC8008FF061C090F062C091F0120004013039B7
:102ED800E832030B0009D8A4120047D00001FA8F8A
:102EE800080E586E120022EC10F01200DBEC17F0FE
:102EF80012005E0E0001F76F000EF86FFA81010EE6
:102F0800FB6FFA8F120078EC1AF012000DEC08F043
:102F1800120004013451010DFD0EF3240001F76F76
:102F2800010EF420F86FFA81010EFB6FFA8F120080
:102F38000001FA8F04013451010DFD0EF324D96EFE
:102F4800010EF420DA6E32C4DFFF1200000E0E6E9E
:102F5800020E0D6E000E0F6E000E106E000E126E39
:102F6800000E116E29EC1FF0120004013151000A05
:102F7800D8B4C9D7010AD8B4C9D7020AD8B4C6D7B1
:102F8800060AD8B4ABD7030AD8B4ADD7010AD8B467
:102F9800DDD70F0AD8B4ADD7010AD8B4A7D7030A2A
:102FA800D8B4B7D7010AD8B4C3D7070A12000001AA
:102FB800FA8F710E016E0F0E026E000E046E000E77
:102FC800036E000E066E020E056ECAEC21F0000EAE
:102FD800016E040E026E000E046E000E036E000EEB
:102FE800066E300E056ECAEC21F06D8C000E156E63
:102FF800020E156401D016D01550010DEE0EF32403
:10300800D96E010EF420DA6E000EDF6E1550010D38
:10301800EB0EF324D96E010EF420DA6E000EDF6E8B
:10302800152AE6D7FD0E016E010E026E000E046E23
:10303800000E036E000E066E020E056ECAEC21F03D
:103048006D9C080E3A6E040E3B6E000E4A6E040E1E
:103058004B6E4AC048F04BC049F032C45EF05E5037
:10306800D8A403D0100E586E1200000E0E6E010E7A
:103078000D6E5E0E0F6E000E106E000E126E010EBB
:10308800116E29EC1FF0200E586E1200080E016E0A
:103098000001FC5110E1080EFB5DD8B00CD0FBC05C
:1030A80001F05750D8A402D0010E04D05704D8A478
:1030B80002D0020E576E0150FB5F000EFC5B20EE43
:1030C80001F03A50D9263B50DA2201C0DFFF380E12
:1030D8000201446F040E456F0001FAA11DD03CD0D7
:1030E800F7C0F6FFF8C0F7FFF86A44C2D9FF45C237
:1030F800DAFF070EF76403D00800F55005D0F6CFC5
:10310800E9FFF7CFEAFFEF50DF6E0001F74BF82B2E
:103118000201444B452B01060150D8B41200E0D7F8
:10312800F7C0F6FFF8C0F7FFF86A44C2D9FF45C2F6
:10313800DAFF070EF76403D00800F55005D0F6CF84
:10314800E9FFF7CFEAFFEF50DF6E0001F74BF82BEE
:103158000201444B452B01060150D8B41200E0D7B8
:103168004F50D8A41200010E4F6E4E50D8A4120032
:10317800010E4E6E020E5618D8A415D020EE01F09E
:103188003A50D9263B50DA22000EDF6E3AC0D9FFFA
:103198003BC0DAFF480EDF6E3AC0D9FF3BC0DAFF0A
:1031A800000EDB8E12005604D8A41200000E526ED8
:1031B80020EE01F04A50D9264B50DA22080EDF6E75
:1031C80020EE02F04A50D9264B50DA22300EDE6E3D
:1031D800040EDD6E4AC0D9FF4BC0DAFF040EDF6E65
:1031E8004AC0D9FF4BC0DAFF000EDB8E010E526ECB
:1031F80020EE01F04850D9264950DA22080EDF6E39
:1032080020EE02F04850D9264950DA22300EDE6E00
:10321800040EDD6E48C0D9FF49C0DAFF800EDF6EAC
:1032280012003AC0D9FF3BC0DAFF000EDFBC010E26
:10323800026E040E3A183A6E3B503B6E080E581850
:10324800D8A40BD0040132517F0B6E6E6E50D8B4E7
:1032580002D0100E01D0040E586E5604D8A43AD0ED
:1032680020EE02F03A50D9263B50DA22380EDE6EB4
:10327800040EDD6E4AEC18F0020E5718D8A40DD0D3
:103288003AC0D9FF3BC0DAFF040EDF6E3AC0D9FF5F
:103298003BC0DAFF000EDB8E12000250D8A40DD01E
:1032A8003AC0D9FF3BC0DAFF480EDF6E3AC0D9FFFB
:1032B8003BC0DAFF000EDB8E12003AC0D9FF3BC0DC
:1032C800DAFF080EDF6E3AC0D9FF3BC0DAFF000E06
:1032D800DB8E120035BE359E000E566E12000001C0
:1032E8006351D8B405D0605161116211D8A40CD0D3
:1032F800000E606F000E616F000E626F1200632B8C
:10330800D890623361336033000E6015656F000E2C
:103318006115666FFE0E6215676F6551661167115C
:10332800D8B40CD0ECD7632B010E6027000E6123B4
:10333800000E6223D890623361336033000E60154B
:10334800656F000E6115666FFF0E6215676F655138
:1033580066116711D8B406D0E6D76307D8906037EE
:103368006137623761BF03D0020E6361F6D763A18C
:10337800619FD8906333635162136451D8A4628FFC
:1033880060C060F061C061F062C062F012000401C8
:1033980030511F0BE806D8A412003039E832030B6D
:1033A800E806D8A412003451D8B436D03405D8A4CD
:1033B800120032D0B30E0001F76F020EF86F000E44
:1033C800FC6F080EFB6FFA81FA8F1200B30E000132
:1033D800F76F020EF86FFA8F120036C436F037C452
:1033E80037F0BB0E326E020E336E000E386E000ED2
:1033F800396E358E1200BB0E0001F76F020EF86FA2
:10340800000EFC6F070EFB6FC10EFA6F120032C47C
:103418004AF20001FA8F120004013151000AD8B4AF
:10342800C9D7010AD8B4D2D7210AD8B4D6D7010A45
:10343800D8B4E1D7030AD8A41200E9D700017A6901
:10344800EA0E796F600E786F000E7B6F2DEC22F01C
:1034580060C074F061C075F062C076F063C077F048
:1034680033D074C068F075C069F076C06AF077C070
:103478006BF00001681F691F6A1F6B1F682B000E25
:1034880069236A236B232DEC22F000016851602523
:103498006C6F695161216D6F6A5162216E6F6B515A
:1034A80063216F6F7851706F7951716F726B736BA5
:1034B8006C51705D6D5171596E5172596F517359DC
:1034C800D8B002D0010E7B6F00017B51D8A403D085
:1034D800FF51D8B4C6D7FF51D8B404D05BC07AF036
:1034E800000EFF6F7A511200000E0401386F000EB3
:1034F800396F38D00001FA8F5504D8A43ED00401A2
:1035080038833BD00001FA8F38D00001FA8F0401CC
:1035180034BF0AD034510F0B016E0150020D1E0E3C
:10352800F324D96E020E09D034510F0B016E0150ED
:10353800020D3A0EF324D96E000EF420DA6EDECFB7
:1035480002F0DDCF03F002C0D9FF03C0DAFFDFAE1F
:1035580014D002C0D9FF03C0DAFFDFA40ED0010ED9
:10356800386F0BD030511F0B000AD8B4C3D7010AEB
:10357800D8B4C8D7030AD8B4C8D70001FAAF120024
:10358800380EF76F040EF86FFA81020EFB6F120007
:10359800A60EF66E440EF76E000EF86E02EEC2F03E
:1035A80010EE22F00900F5CFEEFFE550E150FAE108
:1035B800680EF66E450EF76E000EF86E0900F5CF30
:1035C800FFF107EE00F0960EEE6AE806FDE106EE62
:1035D80000F0C80EEE6AE806FDE103EE00F0C80E42
:1035E800EE6AE806FDE102EE00F0C20EEE6AE806B9
:1035F800FDE101EEEBF0140EEE6AE806FDE104EEE3
:1036080040F0640EEE6AE806FDE100EEF7F0090E00
:10361800EE6AE806FDE100EE32F02D0EEE6AE806ED
:10362800FDE15F905F92000EF86E000185EF0AF0F1
:10363800828C949C828E948EAC84B886000E000195
:10364800606F0E0E616F270E626F070E636F6DC09D
:1036580064F06EC065F06FC066F070C067F068EC2B
:103668001DF0FB0E00016025716FFF0E6121726F66
:10367800FF0E6221736FFF0E6321746F71C060F0DB
:1036880072C061F073C062F074C063F00A0E646FB8
:10369800000E656F000E666F000E676F68EC1DF018
:1036A80060C071F061C072F062C073F063C074F002
:1036B80071C0AFFF72C0B0FFAC98AC96AB8EB89833
:1036C800B89AB890AC9CAB9CAB88AC8A9D8A120027
:1036D800000E0101F76F000EF66F020E5618D8A4FF
:1036E8001FD020EE01F04850D9264950DA22080EA2
:1036F800DF6E20EE02F04850D9264950DA22380E03
:10370800DE6E040EDD6E48C0D9FF49C0DAFF480EF0
:10371800DF6E48C0D9FF49C0DAFF000EDB8E120009
:103728000001FB510401365D0001FC5104013759C9
:10373800D8B004D036C4FBF037C4FCF04AEC18F01B
:1037480020EE02F03A50D9263B50DA22380EDE6ECF
:10375800040EDD6E3AC0D9FF3BC0DAFF480EDF6EBB
:103768003AC0D9FF3BC0DAFF000EDB8E12002D0EE7
:10377800516E5DC01BF0FD0E1B16D8A43BD05DC07A
:103788001BF0D8901B323F0E1B161B50040D000E69
:10379800F3244A6E040EF4204B6E4AC048F04BC026
:1037A80049F0040E4818486E4950496E4AC0D9FF7E
:1037B8004BC0DAFFDF30E8320F0B0D0AD8A417D060
:1037C800300E016E040E026E20EE02F04A50D92629
:1037D8004B50DA22DECF03F0DDCF04F0000E066E88
:1037E800080E056E48EC20F099EC1CF0120057EC1E
:1037F8001FF012005D50FD0B040AD8A4120015EC4E
:1038080019F01200066E000E076E040E086E0150C5
:10381800026E036AD890023603360650046E056AB3
:10382800D89004360536D89004360536025004265A
:1038380003500522D89004360536D890043605364C
:10384800045007260550082207C0D9FF08C0DAFF30
:10385800DF9E0150D8A407D00650020D1E0EF32497
:10386800D96E020E06D00650020D3A0EF324D96E18
:10387800000EF420DA6E07C0DEFF08C0DDFF07C0C7
:10388800D9FF08C0DAFFDF9C20EE04F00750D926E4
:103898000850DA22DF8C1200000162AF16D060C037
:1038A80066F061C067F062C068F0661F671F681F36
:1038B800662B000E67236823000E6625606F000ED6
:1038C8006721616F800E6821626F65AF16D063C093
:1038D80066F064C067F065C068F0661F671F681F00
:1038E800662B000E67236823000E6625636F000EA3
:1038F8006721646F800E6821656F000E601B000EE3
:10390800611B800E621B000E631B000E641B800E81
:10391800651B6351605D6451615965516259D8B046
:1039280002D0D8901200D8801200000E576E000EF8
:10393800506E000E0101F76F000EF66F000E526E0A
:10394800000E566E3AC0D9FF3BC0DAFF7F0EDF1675
:10395800040E3A183A6E3B503B6E3AC0D9FF3BC052
:10396800DAFF7F0EDF16040E3A183A6E3B503B6EB4
:1039780048C0D9FF49C0DAFF7F0EDF16000E0001EC
:10398800FA6F000EFC6F000EFB6F000E356E000E16
:10399800376E000E366E6AEC17F0000E0E6E030ED0
:1039A8000D6E000E0F6E000E106E000E126E000EE1
:1039B800116E29EC1FF07BEC16F01200000E0001CE
:1039C8006B6F69AF06D0686D691FD8B0692B010E9F
:1039D8006B6F67AF06D0666D671FD8B0672B010E97
:1039E8006B1B000E6D6F000E6C6F68516911D8B4B7
:1039F8001CD0010E6A6F04D0D890683769376A2BDB
:103A080069AFFAD7D8906C376D376851665D6951E0
:103A18006759D8A005D06851665F6951675B6C81AA
:103A2800D890693368336A2FEDD76B51D8B404D076
:103A38006C6D6D1FD8B06D2B6CC066F06DC067F0F3
:103A48001200066E000E046E000E056E000E036E68
:103A580006509CEC22F0066E02509CEC22F0026E9E
:103A68002F0E066406D03A0E066003D00650D00F1B
:103A780008D0400E066406D0470E066003D00650F4
:103A8800C90F046E2F0E026406D03A0E026003D0EE
:103A98000250D00F0AD0400E026406D0470E0260D2
:103AA80003D00250C90F01D0640E056E640E0518CC
:103AB800D8A403D004C003F005D00450100DF3506F
:103AC8000524036E03501200000E0001686F000EFB
:103AD800696F000E6A6F000E6B6F64516511661195
:103AE8006711D8B42AD0010E6C6F06D0D89064370D
:103AF8006537663767376C2B67AFF8D7D890683764
:103B080069376A376B376451605D65516159665131
:103B1800625967516359D8A009D06451605F6551F3
:103B2800615B6651625B6751635B6881D8906733FC
:103B38006633653364336C2FE1D768C060F069C0C1
:103B480061F06AC062F06BC063F0120033D001C04C
:103B5800D9FF02C0DAFFDF50D8B40FD001C0D9FFB7
:103B680002C0DAFFDF50076E03C0F6FF04C0F7FF9C
:103B78000800F5500718D8B419D003C0F6FF04C0E0
:103B8800F7FF0800F550076E086A071E081E074A67
:103B9800082A01C0D9FF02C0DAFFDF50096E0950B8
:103BA8000724016E000E0820026E1200014A022A44
:103BB800034A042A0506D8A006060528C8E10628EF
:103BC800D8A4C5D7000E026E000E016E12002DECAF
:103BD80022F060C079F061C07AF062C07BF063C007
:103BE8007CF002D056EC21F079C071F07AC072F006
:103BF8007BC073F07CC074F00001711F721F731FCB
:103C0800741F712B000E7223732374232DEC22F082
:103C1800000171516025756F72516121766F735182
:103C28006221776F74516321786F6D51755D6E51A4
:103C380076596F51775970517859D8B01200D2D748
:103C4800000E0001656F61AF06D0606D611FD8B0CE
:103C5800612B010E656F63AF04D0626D631FD8B02E
:103C6800632B62516311D8B418D0010E646F04D06D
:103C7800D89062376337642B63AFFAD76251605DBF
:103C880063516159D8A004D06251605F6351615B90
:103C9800D89063336233642FF1D76551D8B404D018
:103CA800606D611FD8B0612B60C060F061C061F0C9
:103CB80012000101C96F0001EE51D8B412D0000EF4
:103CC800BE6F010EBF6FAA0EC06F7F0EC16FAC0E24
:103CD800C26F7E0EC36FC9C1C4F0C56B09EC00F09A
:103CE80012D0000E0001BE6F010EBF6F960EC06F9E
:103CF8007F0EC16FAC0EC26F7E0EC36FC9C1C4F018
:103D0800C56B09EC00F0000E00017C6F010E7D6FA1
:103D1800000E7E6F00EC14F00101C86F1200000164
:103D28007151721173117411D8B424D0010E756FCA
:103D380006D0D8907137723773377437752B74AFD4
:103D4800F8D771516D5D72516E5973516F59745135
:103D58007059D8A008D071516D5F72516E5B735164
:103D68006F5B7451705BD8907433733372337133F3
:103D7800752FE7D76DC06DF06EC06EF06FC06FF035
:103D880070C070F01200000E0201BB6F4B0EBC6FCA
:103D9800000EBD6F000EBE6F000EBF6F000EC06F2D
:103DA800080EC16F000E4D6E1A0E096E010ECAEC98
:103DB80020F01E0E096E020ECAEC20F0000E016EF5
:103DC800400E026E050E036E400E046E020E03ECEA
:103DD80015F001C046F002C047F0000E0201426F24
:103DE800000E436F000E0001FE6F12008E0E0001E0
:103DF800706F06D0D8906B336A3369336833702B91
:103E0800000E68156C6F000E69156D6F000E6A154F
:103E18006E6FFF0E6B156F6F6C516D116E116F1118
:103E2800D8A4E8D768C060F069C061F06AC062F0E1
:103E380070C063F0000E646F73EC19F060C068F036
:103E480061C069F062C06AF0120006D0C7EC1EF0CB
:103E58001200CBEC19F012000DC013F00EC014F0D4
:103E68001450000AD8B404D07F0AD8A4120018D07D
:103E78001350010AD8B4EAD7030AD8B41200010AC9
:103E8800D8B4E7D7060AD8B41200770AD8B4120013
:103E9800010AD8B41200070AD8B41200010A1200A5
:103EA8001350FF0A1200020E5618D8A403D0F7ECDC
:103EB80012F01200000E566E5250D8A41FD020EEF9
:103EC80001F04850D9264950DA22080EDF6E20EE5C
:103ED80002F04850D9264950DA22300EDE6E040E20
:103EE800DD6E48C0D9FF49C0DAFF0C0EDF6E48C04E
:103EF800D9FF49C0DAFF000EDB8E1200000E526EA9
:103F0800120060C064F061C065F003D00001644B2A
:103F1800652B64C0F6FF65C0F7FFF86A070EF76403
:103F280003D00800F55005D0F6CFE9FFF7CFEAFF38
:103F3800EF500009D8A4EAD760C062F061C063F00E
:103F48000001621F631F624B632B64516225606F1F
:103F580065516321616F120001C005F002C006F0CF
:103F680002D0054A062A05C0F6FF06C0F7FFF86A20
:103F7800070EF76403D00800F55005D0F6CFE9FF27
:103F8800F7CFEAFFEF500009D8A4EBD701C003F040
:103F980002C004F0031E041E034A042A0550032429
:103FA800016E06500420026E1200A09A0001FE5114
:103FB800D8B402D0A08A1200000E646F60C062F00C
:103FC80061C063F0642B6429D8B409D062C0D9FFFA
:103FD80063C0DAFF624B632BDF50D8A4F3D760C00D
:103FE8003FF261C040F264C0FDF0010E0101F46FC0
:103FF800010E0001FE6FA08A120004D0014A022AB5
:10400800034A042A01C0D9FF02C0DAFFDF50056E57
:1040180003C0F6FF04C0F7FF0800F55000080524A8
:10402800066E0650D8A407D001C0D9FF02C0DAFF37
:10403800DF50D8A4E3D70650016E026A01BE02061B
:10404800120060C064F061C065F003D00001644BE9
:10405800652B64C0D9FF65C0DAFFDF50D8B406D03D
:10406800F5D70001644B652B624B632B62C0D9FF07
:1040780063C0DAFF64C0E1FF65C0E2FFDFCFE7FF9E
:10408800E750D8B41200EDD703C009F004C00AF015
:1040980001C007F002C008F010D009C0D9FF0AC05B
:1040A800DAFFDF500B6E094A0A2A07C0D9FF08C099
:1040B800DAFF0BC0DFFF074A082A0506D8A0060664
:1040C8000528EBE10628D8B41200E7D70001835190
:1040D80084118511D8B406D0000E831B000E841BF2
:1040E800800E851B80C074F081C075F082C076F0A8
:1040F80083C077F084C078F085C079F0D8EC0CF0F4
:1041080074C080F075C081F076C082F0120070A093
:104118001DD04AC0D9FF4BC0DAFF800EDE18D8A4E4
:1041280014D03AC0D9FF3BC0DAFF840EDE18D8A4F9
:104138000CD04AC0D9FF4BC0DAFF0C0EDF6E4AC064
:10414800D9FF4BC0DAFF000EDB8E7090689A120020
:10415800F29EB80EB16E000ECF6E000ECE6E050E3A
:10416800BF6EDC0EBE6E000E02012C6F000E2D6FAE
:10417800000E2E6F000E2F6F9E94F10ECD6E0B0E5B
:10418800BD6E9D849F84D08EF28E12000C6E09A4A1
:1041980005D0000E016E0C5006EC1CF009A205D0EB
:1041A800010E016E0C5006EC1CF00C50010D700E47
:1041B800F3240A6E0F0EF4200B6E0AC0D9FF0BC051
:1041C800DAFF09C0DFFF1200000E00016B6F69AF54
:1041D80006D0686D691FD8B0692B010E6B6F68C077
:1041E80060F069C061F0626B8E0E636F6BC064F043
:1041F80073EC19F060C068F061C069F062C06AF0E1
:104208001200BA0E00017C6F7E0E7D6F000E7E6F6D
:1042180000EC14F00001876F0BD022EC1AF00E0AA4
:10422800D8A402D0010E1200000E1200000E1200D7
:1042380000018751000AD8B4F0D7F8D75850D8A44D
:10424800120082A41200000E6D6E000E696E160E2A
:104258006F6E9F0E6B6E7B0E696ED08EA28AA08ADF
:10426800F28E01D06D866DA6FDD7010E586E120034
:10427800000E546E000E0E6E740E0D6E000E0F6E54
:10428800000E106E000E126E000E116E29EC1FF05B
:104298006D92699401D0689468B4FDD7000E01014D
:1042A800F56F12005850D8B482A403D022EC21F044
:1042B80006D05804D8B482B402D0A6EC22F01F0E5F
:1042C800586402D06DA202D0000E12004EEC11F01C
:1042D800010E120060C066F061C067F009D066C0C8
:1042E800D9FF67C0DAFF62C0DFFF0001664B672BAA
:1042F80000016407D8A065076429F1E16529D8B4ED
:104308001200EDD701C005F002C006F004D0054A3E
:10431800062A034A042A03C0D9FF04C0DAFF05C0ED
:10432800E1FF06C0E2FFDFCFE7FFE750D8B4120095
:10433800EED7698468986D82010E546E000E0101F3
:10434800F56F000E0E6E750E0D6E000E0F6E000EE0
:10435800106E000E126E000E116E29EC1FF0120086
:10436800958083A004D00001606B602B02D000010F
:10437800606B60510201466F476B000E306F000E94
:10438800316F000E326F000E336F120001C007F05C
:1043980002C008F008D007C0D9FF08C0DAFF03C080
:1043A800DFFF074A082A0506D8A006060528F3E114
:1043B8000628D8B41200EFD700016E517003F3CF6E
:1043C80072F0F4CF73F06E517103F35073276F518D
:1043D8007003F350732772C06EF073C06FF0120051
:1043E8009D9430C264F031C265F032C266F033C2C7
:1043F80067F09D8464C060F065C061F066C062F0DB
:1044080067C063F01200D40E00017C6F7E0E7D6FD2
:10441800010E7E6F00EC14F00001876F0F0E8719F4
:10442800D8A402D0010E1200000E12000001605143
:1044380061116211D8B406D0000E601B000E611B1A
:10444800800E621B60C060F061C061F062C062F003
:1044580012009D942CC264F02DC265F02EC266F045
:104468002FC267F09D8464C060F065C061F066C0CB
:1044780062F067C063F012009EBA02D0000E12000C
:10448800ABCF02F0AECF03F002C001F0060E01166A
:10449800D8B403D0AB9800F0AB8803501200A77FC4
:1044A800597F757F8B7FE07FF67EFA7F807F277F3D
:1044B800A07FB37FBB7F677FD97F497F0100000062
:1044C8000001626F000E0001616F3A0E626105D053
:1044D8002F0E626502D0010E616F61C060F060311D
:1044E8001200010E02012827000E29232A232B235C
:1044F8005450D8A412000101F52BF551D8A412008C
:10450800F5691200C2900E0EC16E000EC26EBE0E8C
:10451800C06EC2809E9C9D9C12009D9A5B68000E96
:10452800596E000E5A6E000E0001FF6F9D8A120030
:10453800016E7B0E016004D0600E016401D0019A07
:1045480001501200000E6D6E000E696E000E586E5E
:1045580012000001606F9EA8FED760C0ADFF120078
:01456800034F
:107D500000010000000A00000064000000E80300C9
:107D60000010270000A086010040420F0080969876
:107D70000000E1F50500CA9A3B00803F0020410069
:107D8000C842007A44401C4650C34724744997189F
:107D90004BBCBE4C6B6E4E03155079AD60F3497110
:107DA00000803FCDCC3DD7233C12833AB7D138C6B3
:107DB0002737388635C0D633CC2B32708930E7DB95
:107DC0002EE53C1E42A20D01000000100000000044
:107DD0000100000010000000000100000010000081
:107DE00000000100000010E47E667E327EEF7D0917
:107DF000024300020100C032090400000102020136
:107E000000052400100104240202052406000105D7
:107E10002401000107058103080002090401000292
:107E20000A00000007050202400000070582024028
:107E3000000034034300440043002000520053007C
:107E40002D00320033003200200045006D00750027
:107E50006C006100740069006F006E002000440037
:107E600065006D006F0034034D006900630072000F
:107E70006F00630068006900700020005400650016
:107E8000630068006E006F006C006F00670079008F
:107E9000200049006E0063002E0012010002020063
:107EA0000008D8040A000001010200017365742073
:107EB000636820737461747573006A6F696E206FF4
:107EC00074616100747820756E636E66007478204A
:107ED000636E660072657365740073797320006D5C
:107EE000616320000403090445454B595752434838
:107EF00049445348534C6672616D655F636F756E9C
:107F00007465725F6572725F72656A6F696E5F6ECB
:107F1000656564656400303132333435363738395D
:107F200041424344454600696E76616C69645F6412
:107F30006174615F6C656E003C3D3E804E23256C34
:107F4000642325732325642300616363657074656E
:107F500064524E323930332000696E76616C696448
:107F60005F706172616D006B6579735F6E6F745FD6
:107F7000696E6974006E6F745F6A6F696E65640024
:107F80006D61635F706175736564006E6F5F6672CB
:107F900065655F6368002573202564206F66660051
:107FA0006D61635F74785F6F6B00257320256420BB
:107FB0006F6E006D61635F727820006D61635F6555
:107FC00072720025733A256C752300286E756C6CEF
:107FD00029002573202564200064656E69656400AE
:107FE00073696C656E740025733A256623002573EA
:107FF0003A257323002530325800627573790000EA
:020000040020DA
:08000000FFFFFFFFFFFFFFFF00
:020000040030CA
:0E000000240E261EFF8181FF0FC00FE00F406F
:00000001FF
