:0400000007EF00F016
:100008005F82FBED0FF05AEF1AF0C30E01010A6F81
:10001800000E0B6F07EF07F0250E1F19D8B40BD091
:10002800BFC0D9FFC0C0DAFF1FC1DFFF0001BF4B4F
:10003800C02B07EF07F0000E01011A6F000E196FB1
:10004800000E1C6F000E1B6F05D001011B850001FF
:10005800C14BC22BC1C0F6FFC2C0F7FF0800F55064
:10006800300AD8B4F2D7C1C0F6FFC2C0F7FF080003
:10007800F550A6EC28F0D8A039D0000E01011A6F6F
:10008800000E196F19C16EF01AC16FF0000E000151
:10009800716F0A0E706F59EC28F06EC019F16FC0BD
:1000A8001AF1D00E0001EB6FFF0EEC6FC1C0F6FF26
:1000B800C2C0F7FF0800F550ED6FEE6BEB51ED276E
:1000C800EC51EE23ED51010119270001EE51010118
:1000D8001A230001C14BC22BC1C0F6FFC2C0F7FFF3
:1000E8000800F550A6EC28F0D8B0CCD7C1C0F6FF70
:1000F800C2C0F7FF0800F5502E0AD8A437D0010176
:100108001C8D0001C14BC22B000E01011E6F000E99
:100118001D6F21D01DC16EF01EC16FF0000E0001D1
:10012800716F0A0E706F59EC28F0C1C0F6FFC2C09B
:10013800F7FF0800F55000016E27000E6F23D00E60
:100148006E2501011D6FFF0E00016F2101011E6F59
:100158000001C14BC22BC1C0F6FFC2C0F7FF0800A7
:10016800F550A6EC28F0D8A0A2D0D4D7000E0101F3
:100178001E6F000E1D6F1C899AD01B8998D01C8594
:10018800C0D01B8B1B8FBDD00AC1D9FF0BC1DAFFB2
:10019800DECF06F1DDCF07F1020E0A27000E0B2392
:1001A80006510711D8A404D0AF0E066F7F0E076F53
:1001B800000E096F000E086F03D00101084B092BD0
:1001C800085106250001EB6F0101095107210001C3
:1001D800EC6FEBC0F6FFECC0F7FFF86A070EF764A8
:1001E80003D00800F55005D0F6CFE9FFF7CFEAFFB6
:1001F800EF500009D8A4E1D701011D511E11D8B450
:100208000AD008511D5D09511E59D8B004D01DC12E
:1002180008F11EC109F11951085D1A510959D8B0E0
:1002280005D00851195F09511A5B0ED0000E1A6FDC
:10023800000E196F09D0BFC0D9FFC0C0DAFF200E69
:10024800DF6E0001BF4BC02B01011907D8A01A07A8
:100258001929F1E11A29D8B41CD0EDD706C1F6FF47
:1002680007C1F7FFF86ABFC0D9FFC0C0DAFF070EA1
:10027800F76403D00800F55005D0F6CFE9FFF7CFB3
:10028800EAFFEF50DF6E0101064B072B0001BF4B61
:10029800C02B01010807D8A009070829DFE10929AF
:1002A800D8B407EF07F0DAD7C00E1B132AD0C1C0A5
:1002B800F6FFC2C0F7FF0001C14BC22B0800F5CF03
:1002C8001FF101011F51000AD8B416EF07F0580AB0
:1002D800D8B457D73C0AD8B414D0020AD8B44FD7E8
:1002E8000F0AD8B40ED0050AD8B447D71F0AD8B415
:1002F8004BD7060AD8B4D8D70D0AD8B443D707EFD6
:1003080007F0070E1C15D8B45FD31CA904D0000E43
:100318001E6F060E1D6F0AC1D9FF0BC1DAFFDECFB3
:1003280016F1DECF17F1DDCF18F1030E0A27000E04
:100338000B2318AF11D016C160F017C161F018C1B6
:1003480062F080EC28F060C016F161C017F162C05D
:1003580018F1030E01011B13000E116F000E106F30
:10036800165117111811D8B490D0820E0001EB6FF6
:10037800FF0EEC6F16C1EDF017C1EEF018C1EFF0EB
:1003880019C1F0F0100E05D0D890F033EF33EE33EA
:10039800ED33E82EF9D7ED51EB250101106F000E72
:1003A8000001EC210101116F1007D8A0110710C13D
:1003B8006EF011C16FF0000E0001716F030E706FC7
:1003C80059EC28F06EC010F16FC011F110C166F041
:1003D80011C167F0000E0001696F0A0E686FC1EC69
:1003E80021F066C010F167C011F1010111AF03D00F
:1003F8001007D8A01107105100081DEC07F08FC096
:100408000CF190C00DF191C00EF10CC180F00DC13E
:1004180081F00EC182F016C183F017C184F018C1B3
:1004280085F0F6EC18F080C00CF181C00DF182C0A7
:100438000EF10CC160F00DC161F00EC162F0000E4A
:100448000001636F800E646F3F0E656FA2EC20F0B1
:100458000001D8B005D001011007D8A0110715D0A8
:100468000CC160F00DC161F00EC162F0000E000118
:10047800636F200E646F410E656FA2EC20F00001DF
:10048800D8A003D00101104B112B01011EBF06D0CB
:100498001E511BE10D0E1D5DD8B017D016C174F0AA
:1004A80017C175F018C176F01D51ABEC0DF08FC077
:1004B80077F090C078F091C079F0D6EC10F074C065
:1004C80016F175C017F176C018F1010111BF06D0F9
:1004D800115121E10A0E105DD8B01DD01651171127
:1004E8001811D8B459D016C1B0F017C1B1F018C15D
:1004F800B2F07AEC18F00001B051B111B211B31199
:10050800D8A44AD0010111BF47D0115104E1020E0D
:10051800105DD8A041D00CC160F00DC161F00EC1D2
:1005280062F0700E0001636F890E646F400E656F94
:10053800A2EC20F00001D8B003D00101F70E02D0E0
:100548000101F80E1027FF0E112310511DEC07F0C2
:100558008FC00CF190C00DF191C00EF116C160F082
:1005680017C161F018C162F00CC163F00DC164F0ED
:100578000EC165F0EDEC12F060C012F161C013F12C
:1005880062C014F163C015F1000E0101166F000E70
:10059800176F000E186F33D016C1B0F017C1B1F045
:1005A80018C1B2F07AEC18F0B0C012F1B1C013F172
:1005B800B2C014F1B3C015F116C180F017C181F0B3
:1005C80018C182F012C168F013C169F014C16AF051
:1005D80015C16BF0DDEC23F068C083F069C084F0CE
:1005E8006AC085F066EC26F080C016F181C017F16C
:1005F80082C018F1000E0101116F000E106F010E7C
:100608001F6F0A0E1F19D8B418D01F51040DD30E2E
:10061800F324F66E7B0EF420F76E0900F550125D98
:100628000900F55013590900F55014590900F550FF
:100638001559D8A002D01F2BE4D71FC1EBF0000139
:10064800EC6BEBBFEC0701011D510001EB27010129
:100658001E510001EC23010110510001EB2701019B
:1006680011510001EC23EB510101195F0001EC511C
:1006780001011A5B1D511E11D8B403D01907D8A067
:100688001A07030E1B150001EB6F000E01011C1564
:100698000001EC6FEB51EC11D8B404D0010119073B
:1006A800D8A01A0701011BA539D0030E1B1500019C
:1006B800EB6F000E01011C150001EC6FEB51EC1102
:1006C800D8B416D0BFC0D9FFC0C0DAFF2D0EDF6E78
:1006D800BF4BC02B0DD0BFC0D9FFC0C0DAFF300E52
:1006E800DF6E0001BF4BC02B01011907D8A01A0704
:1006F80001011ABF7BD01A51EEE11905D8A076D0B6
:10070800EAD7BFC0D9FFC0C0DAFF200EDF6E0001F4
:10071800BF4BC02B01011907D8A01A071ABF05D073
:100728001A51EFE11905D8B0ECD7030E1B150001DB
:10073800EB6F000E01011C150001EC6FEB51EC1181
:10074800D8B454D0BFC0D9FFC0C0DAFF2D0EDF6EB9
:100758004BD012C160F013C161F014C162F015C131
:1007680063F001011F51040DD30EF324F66E7B0EC6
:10077800F420F76E0900F5CF64F00900F5CF65F0B5
:100788000900F5CF66F00A00F5CF67F047EC22F0D4
:1007980060C00CF161C00DF162C00EF163C00FF1D1
:1007A8000CC16EF00DC16FF00EC170F00FC171F089
:1007B8000A0E0001726F000E736F000E746F000E48
:1007C800756F76EC23F06EC00CF16FC00DF170C040
:1007D8000EF171C00FF101010C51300FBFC0D9FFEC
:1007E800C0C0DAFFDF6E0001BF4BC02B01011F073D
:1007F8001F29D8B40ED0ADD7BFC0D9FFC0C0DAFF0B
:10080800300EDF6E0001BF4BC02B01011007D8A0CE
:10081800110711BF05D01151EFE11005D8B0ECD781
:100828001EBF09D01E5104E1090E1D5DD8A003D0DA
:10083800080E1F6F02D01DC11FF11F511D5F000E52
:100848001FBFFF0E1E5B1F51D8B409D0BFC0D9FF10
:10085800C0C0DAFF2E0EDF6E0001BF4BC02B0101B6
:100868001F511DEC07F08FC000F190C001F191C03D
:1008780002F116C183F017C184F018C185F000C1D8
:1008880080F001C181F002C182F0F6EC18F080C05E
:10089800B0F081C0B1F082C0B2F07AEC18F0B0C00C
:1008A80012F1B1C013F1B2C014F1B3C015F174D094
:1008B80012C160F013C161F014C162F015C163F098
:1008C80001011F51040DD30EF324F66E7B0EF420A4
:1008D800F76E0900F5CF64F00900F5CF65F009005F
:1008E800F5CF66F00A00F5CF67F047EC22F060C05C
:1008F8000CF161C00DF162C00EF163C00FF10CC1C3
:100908006EF00DC16FF00EC170F00FC171F00A0EDC
:100918000001726F000E736F000E746F000E756F1A
:1009280076EC23F06EC00CF16FC00DF170C00EF1C3
:1009380071C00FF101010C51300FBFC0D9FFC0C009
:10094800DAFFDF6E0001BF4BC02B12C16EF013C17E
:100958006FF014C170F015C171F001011F51040D41
:10096800D30EF324F66E7B0EF420F76E0900F5CF54
:1009780072F00900F5CF73F00900F5CF74F00A00A2
:10098800F5CF75F076EC23F06EC012F16FC013F15D
:1009980070C014F171C015F101011F071F29D8B4E7
:1009A8000ED086D7BFC0D9FFC0C0DAFF300EDF6EC9
:1009B8000001BF4BC02B01011D07D8A01E071D5108
:1009C8001E11D8B420D2EED7C00E1B150001EB6F54
:1009D800000E01011C150001EC6FEB51EC11D8A4BD
:1009E8002FD001011BA90ED00AC1D9FF0BC1DAFF14
:1009F800DECF12F1DECF13F1DECF14F1DECF15F129
:100A0800040E0ED00AC1D9FF0BC1DAFFDECF12F1F6
:100A1800DDCF13F1000E13BFFF0E146F156F020E1A
:100A28000A27000E0B2315AF2ED0030E1B13151F1C
:100A3800141F131F126D000E13231423152323D024
:100A480001011BA90ED00AC1D9FF0BC1DAFFDECF05
:100A580012F1DECF13F1DECF14F1DECF15F1040E63
:100A68000FD00AC1D9FF0BC1DAFFDECFEBF0DDCF23
:100A7800ECF0EBC012F1ECC013F1146B156B020E25
:100A88000A27000E0B231D511E11D8A445D0125160
:100A9800131114111511D8A43FD01D4B1E2B3CD097
:100AA800010E1F6F0A0E1F19D8B441D01F51040D33
:100AB800D30EF324F66E7B0EF420F76E0900F55082
:100AC800125D0900F55013590900F5501459090031
:100AD800F5501559D8A02BD01F2BE4D7010E1F6F46
:100AE800080E1F19D8B423D01F51040D490EF32442
:100AF800F66E7C0EF420F76E0900F550125D0900C1
:100B0800F55013590900F55014590900F5501559B5
:100B1800D8A00DD01F2BE4D71B51C00B000AD8B4A6
:100B2800BFD7800AD8B4DAD7400AD8B4B9D7800E6C
:100B38001FBF7F0E0001EB6F01011D511F5D1E518C
:100B4800800A0001EB59D8B003D01DC11FF115D0A0
:100B580001011E51800A0001EB6F01011F511D5D4B
:100B6800800E1FBF7F0E0001EB59D8B006D00101DF
:100B78001F511D6F1E6B1DBF1E07010119511A1150
:100B8800D8B411D0030E1B150001EB6F000E010144
:100B98001C150001EC6FEB51EC11D8B404D0010125
:100BA8001907D8A01A0701011CAD18D019511D5DED
:100BB8001E51800A0001EB6F01011A51800A0001E1
:100BC800EB59D8B006D001011D51195F1E511A5BAF
:100BD80005D0000E01011A6F000E196F800E1FBF9D
:100BE8007F0E0001EB6F010119511F5D1A51800A38
:100BF8000001EB59D8B008D001011F51195F000E50
:100C08001FBFFF0E1A5B05D0000E01011A6F000E00
:100C1800196F1BA528D0030E1B150001EB6F000EE2
:100C280001011C150001EC6FEB51EC11D8B408D090
:100C3800BFC0D9FFC0C0DAFF2D0EDF6EBF4BC02B7F
:100C4800010119511A11D8B4D5D0BFC0D9FFC0C0FD
:100C5800DAFF300EDF6E0001BF4BC02B0101190710
:100C6800D8A01A07EED719511A11D8B411D0BFC09D
:100C7800D9FFC0C0DAFF200EDF6E0001BF4BC02BCA
:100C880001011907D8A01A0719511A11D8A4EFD7CA
:100C9800030E1B150001EB6F000E01011C1500016E
:100CA800EC6FEB51EC11D8B4A5D0BFC0D9FFC0C0D0
:100CB800DAFF2D0EDF6E9CD01DC1EBF01EC1ECF0EB
:100CC8000001D890EB37EC37D890EB37EC37D30EE0
:100CD800EB25F66E7B0EEC21F76E0900F5CF64F07C
:100CE8000900F5CF65F00900F5CF66F00A00F5CFE9
:100CF80067F012C160F013C161F014C162F015C150
:100D080063F047EC22F060C06EF061C06FF062C023
:100D180070F063C071F00A0E0001726F000E736FFD
:100D2800000E746F000E756F76EC23F000016E51A3
:100D3800300F01011F6F55D012C160F013C161F06F
:100D480014C162F015C163F01DC1EBF01EC1ECF0D7
:100D58000001D890EB37EC37D890EB37EC37490ED9
:100D6800EB25F66E7C0EEC21F76E0900F5CF64F0EA
:100D78000900F5CF65F00900F5CF66F00A00F5CF58
:100D880067F047EC22F0000160510F0B0101056F7D
:100D98001BBB04D0F10E036F7E0E03D0E00E036F71
:100DA8007E0E046F0551010D03C1EBF004C1ECF098
:100DB800F3500001EB27F450EC23EBC0F6FFECC036
:100DC800F7FF0800F5CF1FF10CD001011B51C00B34
:100DD800000AD8B471D7800AD8B4AED7400AD8B4BC
:100DE8006BD7BFC0D9FFC0C0DAFF1FC1DFFF00014A
:100DF800BF4BC02B01011D07D8A01E071D29E5E127
:100E08001E29D8A4E2D7C1C0F6FFC2C0F7FF00016F
:100E1800C14BC22B0800F5CF1FF101011F51D8A407
:100E280010EF00F0BFC0D9FFC0C0DAFF000EDF6EC0
:100E380012000001956F000195AF0CD1956D955189
:100E4800800A120FD8A097D0000E716F030E706F32
:100E5800000E696F0A0E686F000E636F640E626F92
:100E68009551606F616B60BF61073DEC23F060C016
:100E780066F061C067F0C1EC21F0090E000166253B
:100E88006E6F000E67216F6F59EC28F0220E00017B
:100E98006E25F66E7C0E6F21F76E0900F5CF83F094
:100EA8000900F5CF84F00A00F5CF85F0000E696FD0
:100EB800640E686F9551666F676B66BF6707C1EC14
:100EC80021F0120E000166256E6F000E67216F6F0C
:100ED800000E716F030E706F59EC28F0220E00019E
:100EE8006E25F66E7C0E6F21F76E0900F5CF80F047
:100EF8000900F5CF81F00A00F5CF82F0F6EC18F082
:100F080080C092F081C093F082C094F092C080F0CB
:100F180093C081F094C082F0000E0001716F030E3F
:100F2800706F000E636F0A0E626F9551606F616B90
:100F380060BF61073DEC23F060C06EF061C06FF0E8
:100F480059EC28F0220E00016E25F66E7C0E6F21FA
:100F5800F76E0900F5CF83F00900F5CF84F00A0099
:100F6800F5CF85F0F6EC18F080C08FF081C090F0D6
:100F780082C091F0120000019551800A750FD8A027
:100F880056D0000E696F0A0E686F9551666F676BD1
:100F980066BF6707C1EC21F0090E000166256E6F78
:100FA800000E67216F6F000E716F030E706F59ECA2
:100FB80028F0220E00016E25F66E7C0E6F21F76E6A
:100FC8000900F5CF80F00900F5CF81F00A00F5CFD0
:100FD80082F0000E716F030E706F000E636F0A0EC1
:100FE800626F9551606F616B60BF61073DEC23F0E4
:100FF80060C06EF061C06FF059EC28F0220E00015D
:101008006E25F66E7C0E6F21F76E0900F5CF83F022
:101018000900F5CF84F00A00F5CF85F0F6EC18F05A
:1010280080C08FF081C090F082C091F01200000162
:101038009551030D220EF324F66E7C0EF420F76E04
:101048000900F5CF8FF00900F5CF90F00A00F5CF31
:1010580091F012009551800A120FD8A097D0000E77
:10106800716F030E706F000E696F0A0E686F000EC5
:10107800636F640E626F9551606F616B60BF61074B
:101088003DEC23F060C066F061C067F0C1EC21F070
:10109800090E000166256E6F000E67216F6F59EC0F
:1010A80028F0FB0E00016E25F66E7B0E6F21F76EA1
:1010B8000900F5CF83F00900F5CF84F00A00F5CFD9
:1010C80085F0000E696F640E686F9551666F676BE7
:1010D80066BF6707C1EC21F0120E000166256E6F2E
:1010E800000E67216F6F000E716F030E706F59EC61
:1010F80028F0FB0E00016E25F66E7B0E6F21F76E51
:101108000900F5CF80F00900F5CF81F00A00F5CF8E
:1011180082F0F6EC18F080C092F081C093F082C0A3
:1011280094F092C080F093C081F094C082F0000ED9
:101138000001716F030E706F000E636F0A0E626F0D
:101148009551606F616B60BF61073DEC23F060C033
:101158006EF061C06FF059EC28F0FB0E00016E25AF
:10116800F66E7B0E6F21F76E0900F5CF83F009004C
:10117800F5CF84F00A00F5CF85F0F6EC18F080C0C2
:101188008FF081C090F082C091F01200000195515B
:10119800800A750FD8A056D0000E696F0A0E686FC6
:1011A8009551666F676B66BF6707C1EC21F0090E42
:1011B800000166256E6F000E67216F6F000E716F5C
:1011C800030E706F59EC28F0FB0E00016E25F66EC9
:1011D8007B0E6F21F76E0900F5CF80F00900F5CF7F
:1011E80081F00A00F5CF82F0000E716F030E706F68
:1011F800000E636F0A0E626F9551606F616B60BF7E
:1012080061073DEC23F060C06EF061C06FF059ECEF
:1012180028F0FB0E00016E25F66E7B0E6F21F76E2F
:101228000900F5CF83F00900F5CF84F00A00F5CF67
:1012380085F0F6EC18F080C08FF081C090F082C085
:1012480091F0120000019551030DFB0EF324F66E88
:101258007B0EF420F76E0900F5CF8FF00900F5CF6B
:1012680090F00A00F5CF91F01200000E0201A86F6D
:10127800969483989598839A959A839C959C839E37
:10128800959E000EA76F000EA66FA7BF06D0A751A8
:101298001CE1190EA65DD8B018D0010EA81BA8B184
:1012A80002D0849401D084840D0E0001F66F2D0EB7
:1012B800F56FD70EE82EFED7F52FFCD7F62FFAD705
:1012C80000D00201A64BA72BE0D7000E00016D6FDE
:1012D800C20E6E6F010E6F6F000E706F6EEC1FF016
:1012E800000E00016D6FC20E6E6F010E6F6F000E63
:1012F800706F6EEC1FF0ADEC11F0E7EC28F0C4EC69
:101308001EF0A8EC26F0CDEC27F0D3EC28F0F70E71
:101318000001726F020E736F97EC24F0EF0E00015C
:10132800726F020E736F85EC1CF00201D95101EC4B
:1013380026F00201EE5196EC25F0350E0001726F91
:101348007D0E736FB5EC27F06DEC28F060C097F256
:1013580061C098F262C099F263C09AF2010E02016C
:10136800A81BA8B102D0849401D08484000EB5ECE7
:1013780014F09EC0A3F29FC0A4F2A0C0A5F2000E74
:101388000001836F7A0E846F440E856FA3C280F0CC
:10139800A4C281F0A5C282F0F6EC18F080C0B0F0CB
:1013A80081C0B1F082C0B2F07AEC18F0B0C0ABF2F4
:1013B800B1C0ACF2010EB5EC14F09EC0A3F29FC010
:1013C800A4F2A0C0A5F2000E0001836F7A0E846F0C
:1013D800440E856FA3C280F0A4C281F0A5C282F03A
:1013E800F6EC18F080C0B0F081C0B1F082C0B2F065
:1013F8007AEC18F0B0C0ADF2B1C0AEF2000E000148
:10140800606F010E3CEC1BF060C0AFF261C0B0F23F
:1014180062C0B1F263C0B2F2000E0001606F020E4A
:101428003CEC1BF060C0B3F261C0B4F262C0B5F22C
:1014380063C0B6F2000E0001606F030E3CEC1BF0B7
:1014480060C0B7F261C0B8F262C0B9F263C0BAF264
:10145800000E0001606F040E3CEC1BF060C0BBF294
:1014680061C0BCF262C0BDF263C0BEF2FA0E0001F8
:10147800F16F7F0EF26FD7C2F3F027EC27F002016D
:10148800D72BE50E0001F16F7F0EF26F7B0EF36F25
:101498007B0EF46F1AEC25F08C0E00017D6F030EA5
:1014A8007E6FC80E7F6F060E806FC80E606F060EC7
:1014B800616FEFEC24F060C081F061C082F0E3EC72
:1014C8000EF00201966FCDEC27F00009D8B451D088
:1014D8000001FF51D8A44DD0000EBF6F020EC06F9F
:1014E800FC0EC16F7D0EC26FC0C2C3F0C46BC2C216
:1014F800C5F0C66BC4C2C7F0C86BC6C2C9F0CA6B18
:10150800C8C2CBF0CC6BCAC2CDF0CE6BCCC2CFF088
:10151800D06BCEC2D1F0D26BD0C2D3F0D46BD2C2D2
:10152800D5F0D66BBFC2D7F0D86BC1C2D9F0DA6B91
:10153800C3C2DBF0DC6BC5C2DDF0DE6BC7C2DFF017
:10154800E06BC9C2E1F0E26BCBC2E3F0E46BCDC261
:10155800E5F0E66BCFC2E7F0E86BD8C2E9F0EA6BDA
:1015680009EC00F0000E0001606F020E616F6EEC76
:1015780025F097C2F5F098C2F6F099C2F7F09AC232
:10158800F8F00001F51FF61FF71FF81FF52B000EE6
:10159800F623F723F8236DEC28F00001F5516025B8
:1015A80002019F6F0001F65161210201A06F000145
:1015B800F75162210201A16F0001F8516321020174
:1015C800A26FA251A11105E1300E9F5D750EA059C1
:1015D800D8B0BAD69FC2F5F0A0C2F6F0A1C2F7F013
:1015E800A2C2F8F00001F51FF61FF71FF81FF52B30
:1015F800000EF623F723F823300EF52502019B6F22
:10160800750E0001F62102019C6F000E0001F72102
:1016180002019D6F000E0001F82102019E6F9BC21E
:101628006DF09CC26EF09DC26FF09EC270F004EC2B
:1016380023F08AD6106E5A50010D400EF324D96E4D
:10164800040EF420DA6E10C0DFFF5A2A0A0E1018B2
:10165800D8A431D1020E5A642ED15A50010D400E31
:10166800F324D96E040EF420DA6E000EDF6EC80E75
:10167800016E060E026E400E036E040E046E15EC2B
:1016880028F0FE0E0A6EFF0E0B6E5A500C6E0D6A95
:101698000A500C260B500D22400E0C24D96E040E55
:1016A8000D20DA6E000EDF6E000E5A6E0F0E0E6EF3
:1016B8000101E469000E116E1CD0400E016E040E8B
:1016C800026E1150020D6E0EF324D96E030EF42033
:1016D800DA6EDECF03F0DDCF04F0BAEC25F001506E
:1016E8000210D8A405D011C0E4F1010E596E120001
:1016F800112A0E50115CD8A0E0D78CC301F08DC31D
:1017080002F045EC25F00150126E400E016E040EF9
:10171800026E8CC303F08DC304F012C005F0066A94
:1017280089EC22F001500210D8A406D00F0E010156
:10173800E46F010E596E120082C301F083C302F0F8
:1017480045EC25F00150126E400E016E040E026E3B
:1017580082C303F083C304F012C005F0066A89EC63
:1017680022F001500210D8A4A6D012C013F0000E27
:101778000F6E27D01350010D400EF324D96E040EBE
:10178800F420DA6E2F0EDF642BD01350010D400EBB
:10179800F324D96E040EF420DA6E390EDF6401D01A
:1017A8001FD00A0E0F02F3500F6E1350010D400E9A
:1017B800F324D96E040EF420DA6EDF50D00F0F2612
:1017C800132A400E016E040E026E45EC25F01350EC
:1017D8000A6E0B6A01500A5C02500B58D8A0CAD78F
:1017E800132A38D05B50020DBF0EF324D96E020EB7
:1017F800F420DA6E0FC0DFFF5B50020D010EF326F6
:10180800000EF422BF0EF324D96E020EF420DA6E15
:1018180013500A6E0B6A010E0A26000E0B22400EA8
:101828000A24E16E040E0B20E26EE750026E13509C
:10183800010D400EF324E16E040EF420E26EE75031
:1018480004EC22F0DF6E5B2A090E5B6401D0120003
:10185800020E1326400E016E040E026E45EC25F0B2
:1018680013500A6E0B6A01500A5C02500B58D8A03C
:10187800B9D7400E016E040E026E45EC25F01350E8
:101888000A6E0B6A01500A5C02500B58D8B010D08F
:1018980012D05B50020D010EF326000EF422BF0E8B
:1018A800F324D96E020EF420DA6E000EDF6E5B2A86
:1018B8000A0E5B64EED7640E5A6004D00A0E101844
:1018C800D8A41200000E5A6E120004013205D8A4E2
:1018D80011D030511F0B0009D8A40CD00001FC8F87
:1018E800030E04013119D8A402D0010E01D0000E54
:1018F8000101DA6F04013251D8A4120030511F0BD4
:10190800020AD8A4120034510F0B0009D8B41200EF
:1019180034510F0B156E030E15601200200E581867
:10192800D8A412000001FC8F040134BF19D034512F
:101938000F0B156E1550020D8C0EF324D96E010E87
:10194800F420DA6EDECF19F0DDCF1AF034510F0B28
:10195800156E1550010DB80EF324D96E010E18D06E
:1019680034510F0B156E1550020D400EF324D96E2D
:10197800000EF420DA6EDECF19F0DDCF1AF0345104
:101988000F0B156E1550010DBB0EF324D96E010E09
:10199800F420DA6EDF50186E18B006D0FB0E19145A
:1019A800196EFF0E1A1404D0040E1910196E1A506D
:1019B8001A6E34BF0AD034510F0B156E1550020D34
:1019C8008C0EF324D96E010E09D034510F0B156E0D
:1019D8001550020D400EF324D96E000EF420DA6E75
:1019E80019C0DEFF1AC0DDFF030E3119D8A42DD0AF
:1019F80019C0D9FF1AC0DAFFDFAE1AD034BF0AD037
:101A080034510F0B156E1550010DB80EF324D96E15
:101A1800010E0AD0040134510F0B156E1550010D3B
:101A2800BB0EF324D96E010EF420DA6E0101DF82B9
:101A380019C0D9FF1AC0DAFF000EDB8419C0D9FF1C
:101A48001AC0DAFF000EDB8E1200040E1918196E88
:101A58001A501A6E19C0D9FF1AC0DAFFDFAE1BD0B0
:101A680019C0D9FF1AC0DAFF7F0EDF1619C0D9FFD7
:101A78001AC0DAFF000EDB8C000E0E6E050E0D6E1E
:101A880019C00FF01AC010F0000E126E020E116E7F
:101A980069EC24F006D019C0D9FF1AC0DAFF000E8D
:101AA800DB8C040E1918196E1A501A6E18B206D06B
:101AB80019C0D9FF1AC0DAFFDFAE30D0040134BF35
:101AC8000AD034510F0B156E1550010DB80EF324C2
:101AD800D96E010E0AD0040134510F0B156E155042
:101AE800010DBB0EF324D96E010EF420DA6E01014C
:101AF800DF9219C0D9FF1AC0DAFF3B0EDF16000EBD
:101B08000E6E050E0D6E19C00FF01AC010F0000E03
:101B1800126E020E116E69EC24F006D019C0D9FFBE
:101B28001AC0DAFF3B0EDF16040134510F0B156E95
:101B38001550010D700EF324166E0F0EF420176E5B
:101B480016C0D9FF17C0DAFFFE0EDF16120000011B
:101B5800986F6D0E00019865A6D0000E716F030E88
:101B6800706F000E696F0A0E686F000E636F640E67
:101B7800626F98C060F0616B3DEC23F060C066F066
:101B880061C067F0C1EC21F0090E000166256E6F97
:101B9800000E67216F6F59EC28F0220E00016E25A8
:101BA800F66E7C0E6F21F76E0900F5CF83F0090001
:101BB800F5CF84F00A00F5CF85F0000E696F640E4A
:101BC800686F98C066F0676BC1EC21F0120E0001D7
:101BD80066256E6F000E67216F6F000E716F030E22
:101BE800706F59EC28F0220E00016E25F66E7C0EFF
:101BF8006F21F76E0900F5CF80F00900F5CF81F06D
:101C08000A00F5CF82F0F6EC18F080C095F081C09C
:101C180096F082C097F0000E0001716F030E706F8E
:101C2800000E636F0A0E626F98C060F0616B3DEC46
:101C380023F060C06EF061C06FF059EC28F0220EFE
:101C480000016E25F66E7C0E6F21F76E0900F5CF48
:101C580083F00900F5CF84F00A00F5CF85F095C030
:101C680080F096C081F097C082F0F6EC18F080C042
:101C780092F081C093F082C094F092C080F093C03B
:101C880081F094C082F0000E0001836F000E846F13
:101C98003F0E856FF6EC18F080C08FF081C090F091
:101CA80082C091F012000A0E0001986567D0000EFC
:101CB800716F030E706F000E636F0A0E626F98C02B
:101CC80060F0616B3DEC23F060C06EF061C06FF0B6
:101CD80059EC28F0220E00016E25F66E7C0E6F215D
:101CE800F76E0900F5CF83F00900F5CF84F00A00FC
:101CF800F5CF85F0000E696F0A0E686F98C066F020
:101D0800676BC1EC21F0090E000166256E6F000EAD
:101D180067216F6F000E716F030E706F59EC28F01A
:101D2800220E00016E25F66E7C0E6F21F76E0900FB
:101D3800F5CF80F00900F5CF81F00A00F5CF82F0E9
:101D4800F6EC18F080C095F081C096F082C097F04C
:101D580095C080F096C081F097C082F0000E000117
:101D6800836F000E846F3F0E856FF6EC18F080C00D
:101D78008FF081C090F082C091F01200000198515C
:101D8800030D220EF324F66E7C0EF420F76E090084
:101D9800F5CF80F00900F5CF81F00A00F5CF82F089
:101DA800000E836F000E846F3F0E856FF6EC18F0FF
:101DB80080C08FF081C090F082C091F01200EAC11B
:101DC80090F0000E0001936F000E926F19D0000E74
:101DD8000001936F490E0DD00101E651D8B405D02A
:101DE800000E0001936F500E04D0000E0001936F97
:101DF800640E926F10D0000E0001936F92690BD0A1
:101E08000101EE51030AD8B4E2D7070AD8B4E4D7DF
:101E1800020AD8B4F0D700018151925D82519359DA
:101E2800D8B004D092C081F093C082F00E0E812504
:101E38008C6F000E82218D6F000E0101BF6F000EA6
:101E4800BE6F000E0001666F7E0ECAEC22F0000E17
:101E58000001666F8D51CAEC22F0000E0001666F1A
:101E68008C51CAEC22F0010E0001666F100ECAEC0C
:101E780022F0010E0001666F010ECAEC22F0000E7E
:101E88000001946F070E946501D020D0010E666F93
:101E98009451020D010EF326000EF422F3507D2515
:101EA800D96EF4507E21DA6EDF50616F9451020DC5
:101EB800F3507D25D96EF4507E21DA6EDF5034EC74
:101EC80021F0CAEC22F00001942BDCD7010E666FDA
:101ED800FF0ECAEC22F0010E0001666FFE0ECAEC7E
:101EE80022F0010E0001666F000ECAEC22F0010E0E
:101EF8000001666F000ECAEC22F0000E00018F6F21
:101F0800000E8E6F0ED0010E666F8E517F25D96E32
:101F18008F518021DA6EDF50CAEC22F000018E4B1F
:101F28008F2B81518E5D82518F59D8A0ECD7000E2E
:101F3800666F0101CE51CAEC22F0000E0001916FCC
:101F48009151905DD8A051D045EC26F00101EC519B
:101F5800D8A402D0000E12003BEC24F000016CC0A3
:101F68006EF06DC06FF0000E6FBFFF0E706F716F77
:101F7800900E726F010E736F000E746F000E756F06
:101F880076EC23F0640E00016E25846F000E6F213D
:101F9800856F000E7021866F000E7121876F000E0D
:101FA800886F000E896F000E8A6F000E8B6F10D03D
:101FB800100E0001836F940EE82EFED7832FFCD7F6
:101FC80000F0010E00018827000E89238A238B2345
:101FD8008451885D8551895986518A5987518B5911
:101FE800D8A0E6D70001912BABD7010E120006004E
:101FF800FACF1EF0FBCF1FF0E9CF20F0EACF21F097
:10200800E1CF22F0E2CF23F0D9CF24F0DACF25F0C8
:10201800F3CF26F0F4CF27F0F6CF28F0F7CF29F04A
:10202800F8CF2AF0F5CF2BF05FC02CF060C02DF070
:1020380061C02EF062C02FF09EB49DA482D09E9401
:10204800010E01019627000E97239823992383A058
:1020580003D01D6A1D2A01D01D6A1D50306E316AD9
:1020680083A203D01D6A1D2A01D01D6A1D50326E3D
:10207800336A83A403D01D6A1D2A01D01D6A1D502E
:10208800346E356A83A603D01D6A1D2A01D01D6AE5
:102098001D50366E376A30500101CA1904E13150BB
:1020A800CB19D8B40AD030043110D8A406D0010E08
:1020B800A627000EA723A823A92330C0CAF131C040
:1020C800CBF13250C81904E13350C919D8B40AD039
:1020D80032043310D8A406D0010EA227000EA32381
:1020E800A423A52332C0C8F133C0C9F13450C6199E
:1020F80004E13550C719D8B40AD034043510D8A42F
:1021080006D0010E9E27000E9F23A023A12334C0D2
:10211800C6F135C0C7F13650C41904E13750C519A6
:10212800D8B40AD036043710D8A406D0010E9A279E
:10213800000E9B239C239D2336C0C4F137C0C5F1F4
:102148000BD09DBA9EAA05D093EC28F01EEC0BF09C
:1021580003D0A0BA87EC13F02FC062F02EC061F054
:102168002DC060F02CC05FF02BC0F5FF2AC0F8FF2F
:1021780029C0F7FF28C0F6FF27C0F4FF26C0F3FFE9
:1021880025C0DAFF24C0D9FF23C0E2FF22C0E1FF47
:1021980021C0EAFF20C0E9FF1FC0FBFF1EC0FAFFF5
:1021A8005F92110076C07AF000017B6B7C6B75350D
:1021B8007A3701E37B817A517F6F79C07AF07B6B44
:1021C8007C6B78357A3701E37B817A517E6F7F515A
:1021D800D8B40BD07E517F5DD8B00ED07F510008A7
:1021E8007E257A6F180E7A6507D077C074F078C0AC
:1021F80075F079C076F012007E51D8B40BD07F51BB
:102208007E5DD8B00ED07E5100087F257A6F180EFB
:102218007A6507D074C074F075C075F076C076F032
:102228001200060E7D6F76BF7D8F79BF7D8D758F0D
:10223800FF0E7417FF0E7517000E7617788FFF0EB6
:102248007717FF0E7817000E79177E517F5DD8B08B
:102258001BD0D8907737783779377E077F517E192A
:10226800D8B40DD07D077DC07AF0070E7A17D8B4A0
:1022780006D0EFD7D8907633753374337F2B7E51E1
:102288007F19D8B41FD0F6D77F517E5DD8B01AD049
:10229800D8907437753776377F077F517E19D8B451
:1022A8000DD07D077DC07AF0070E7A17D8B406D016
:1022B800EFD7D8907933783377337E2B7E517F19D7
:1022C800D8A4F7D77DAF0CD0FF0E741BFF0E751B7B
:1022D800FF0E761B010E7427000E7523000E762361
:1022E8007DAD0CD0FF0E771BFF0E781BFF0E791B00
:1022F800010E7727000E7823000E7923000E7D6FDC
:1023080074517727755178237651792379AF0ED098
:10231800FF0E771BFF0E781BFF0E791B010E772728
:10232800000E7823000E7923010E7D6F77C060F0D0
:1023380078C061F079C062F07FC063F07DC064F05E
:1023480015EC1EF060C074F061C075F062C076F0E4
:102358001200A09A000E6A6E000E686E000E706E73
:10236800710E0001606F0F0E616F000E636F000E3B
:10237800626F000E656F020E646FE5EC27F0160EB3
:102388006F6E9F0E6B6E7B0E696E000E0001686F9C
:102398000B0E686501D00ED06851040D000EF324B1
:1023A800D96E040EF420DA6EDE6ADE6ADE6ADD6A51
:1023B800682BEED76D8C000E6E6E6D986D9C6896CE
:1023C800000EFC6F000E3B6E000E3D6E000E3C6E64
:1023D80068B6F5D7010E0101D76F010ED66F000E52
:1023E800D56F000ED46F000ED96F000E0001686F14
:1023F800020E686501D02ED06851020D400EF324FC
:10240800D96E000EF420DA6E000EDE6E000EDD6E60
:102418006851020D8C0EF324D96E010EF420DA6E89
:10242800000EDE6E000EDD6E6851010DBB0EF3244A
:10243800D96E010EF420DA6E000EDF6E6851010DC0
:10244800B80EF324D96E010EF420DA6E000EDF6E9A
:10245800682BCED7080E406E040E416E160E706EB5
:10246800040E0401036F300E026F080E016F040E94
:10247800006F008F000E5E6E000E0101926F000E5D
:10248800936F000E946F000E956F000ED36F000EC1
:10249800586E1200A09A000E6A6E000E686E000E4A
:1024A800706E710E016E0F0E026E000E046E000E3D
:1024B800036E000E066E020E056E43EC28F0160E33
:1024C8006F6E9F0E6B6E7B0E696E000E096E0B0EA3
:1024D800096401D00ED00950040D000EF324D96E02
:1024E800040EF420DA6EDE6ADE6ADE6ADD6A092A24
:1024F800EED76D8C000E6E6E6D986D9C6896000E12
:102508000001FC6F000E3B6E000E3D6E000E3C6E2F
:1025180068B6F4D7010E0101D76F010ED66F000E11
:10252800D56F000ED46F000ED96F000E096E020E23
:10253800096401D02ED00950020D400EF324D96E43
:10254800000EF420DA6E000EDE6E000EDD6E09500D
:10255800020D8C0EF324D96E010EF420DA6E000EF3
:10256800DE6E000EDD6E0950010DBB0EF324D96E30
:10257800010EF420DA6E000EDF6E0950010DB80E60
:10258800F324D96E010EF420DA6E000EDF6E092AEC
:10259800CED7080E406E040E416E160E706E040EF5
:1025A8000401036F300E026F080E016F040E006FF6
:1025B800008F000E5E6E000E0101926F000E936F89
:1025C800000E946F000E956F000ED36F000E586EBC
:1025D800120062C066F00001676B686B6135663790
:1025E80001E3678166516E6F6E51D8A409D0000E61
:1025F800606F000E616F000E626F000E636F120055
:1026080065C066F0676B686B6435663701E36781A0
:1026180066516D6F6D51D8A409D0000E606F000E21
:10262800616F000E626F000E636F1200618FFF0E04
:102638006017FF0E6117000E6217648FFF0E631795
:10264800FF0E6417000E6517000E696F000E6A6FA3
:10265800000E6B6F000E6C6F7F0E6E5F6D51980FE2
:102668006E5F180E6D6FD89069376A376B376C37A5
:102678006351605D6451615965516259D8A007D0B2
:102688006351605F6451615B6551625B6981D89099
:102698006037613762376D2FE6D76EAF16D06E514F
:1026A800800A970FD8B009D0000E606F000E616FD6
:1026B800000E626F000E636F1200D8906C336B339C
:1026C8006A3369336E3FF9D715D0170E6E650FD090
:1026D800000E606F000E616F000E626F000E636F78
:1026E8001200D89069376A376B376C376E076E51AE
:1026F800D8A4F7D769C060F06AC061F06BC062F017
:102708006CC063F012005804D8B46DBA06D0000E3D
:10271800686E69806988020E586E68B469A403D02F
:10272800689480EC27F06DA202D0A19A120068B0DC
:1027380069A006D04EEC12F0A08A040E586E68907C
:1027480068B869A802D02CEC28F068AC1AD069AC3B
:102758000ED0000E0E6E730E0D6E000E0F6E000E74
:10276800106E000E126E010E116E69EC24F0689C5A
:10277800B7EC28F05450D8A454065450D8B455ECAB
:102788001DF068BA69AA02D087EC26F068B269A27F
:102798000FD07F0E0E6E0D68000E0F6E000E106EBD
:1027A800000E126E010E116E69EC24F0000E6A6EB6
:1027B800040E586002D0A19A120069A639D0000E02
:1027C8001C6E030E1C6401D033D068A631D06CCFC8
:1027D8005DF05D30E832E8320F0B556E68965DB4F7
:1027E80007D05550010DB80EF324D96E010E06D04E
:1027F8005550010DBB0EF324D96E010EF420DA6E8C
:102808000101DF705550D8A403D00DEC20F00ED094
:10281800000E0E6E720E0D6E5D0E0F6E000E106EB7
:10282800000E126E000E116E69EC24F01C2AC9D736
:10283800A19A1200800E04013019D8A41200C00E0B
:102848000001FC6F82D0230E0001F96F7D0EFA6F34
:10285800000EFE6F120EFD6F120004013251D8A453
:1028680040D03251020D760EF324F66E7C0EF42021
:10287800F76E0900F5CFF9F00A00F5CFFAF0020E6D
:102888000001F925016E000EFA21026E01C0F6FF63
:1028980002C0F7FFF86A070EF76403D00800F55086
:1028A80005D0F6CFE9FFF7CFEAFFEF500001FD6F43
:1028B800030EF925016E000EFA21026E01C0F6FF23
:1028C80002C0F7FFF86A070EF76403D00800F55056
:1028D80005D0F6CFE9FFF7CFEAFFEF500001FE6F12
:1028E8001200000E0001FC6F1200030E0401326199
:1028F80024D03251020D690EF324F66E7C0EF420BA
:10290800F76E0900F5CFF9F00A00F5CFFAF0F9C033
:10291800F6FFFAC0F7FFF86A070EF76403D008005D
:10292800F55005D0F6CFE9FFF7CFEAFFEF50016E7B
:1029380001500001FD6FFE6B1200000E0001FC6FDC
:102948001200000E0001FC6F120004013351010A4D
:10295800D8B479D7030AD8B480D7010AD8B4C5D770
:10296800F0D70001A96F0001A951D8A402D0010E27
:10297800C26EA905D8A402D0050EC26E000EAF6FB4
:10298800000EAE6F000EAD6F000EAC6FADBF06D07F
:10299800AD5119E1200EAC5DD8B015D0C28200F05F
:1029A800C2B2FED7C4CFAAF00001AB6BAA51A16F87
:1029B800C350AA6FA1C0ABF0AA51AE27AB51AF2349
:1029C800AC4BAD2BE3D7050EA16FD890AF33AE3328
:1029D800A12FFBD7AE51AF11D8A407D0000EA66F18
:1029E800000EA76F000EA86F4BD0000E926F440E1A
:1029F800936F440E946F000E836F800E846F410EA8
:102A0800856F000E776F430E786FC30E796FAEC077
:102A180068F0AFC069F063EC27F068C074F069C073
:102A280075F06AC076F0D6EC10F074C080F075C00E
:102A380081F076C082F0F6EC18F080C08FF081C08B
:102A480090F082C091F0E6EC19F08FC0A3F090C02E
:102A5800A4F091C0A5F0A3C074F0A4C075F0A5C0FF
:102A680076F0000E0001776F800E786F400E796F58
:102A7800D6EC10F074C0A6F075C0A7F076C0A8F028
:102A8800A6C09EF0A7C09FF0A8C0A0F01200000149
:102A9800623563356B6F6B51D8A409D0000E606F37
:102AA800000E616F000E626F000E636F12006535D5
:102AB80066356A6F6A51D8A409D0000E606F000E9F
:102AC800616F000E626F000E636F1200628FFF0E5F
:102AD8006017FF0E6117FF0E6217000E6317658FF0
:102AE800FF0E6317FF0E6417FF0E6517000E6617BB
:102AF800000E666F000E676F000E686F000E696F3C
:102B08007F0E6B5F6A51A00F6B5F200E6A6FD890C3
:102B180066376737683769376351605D6451615953
:102B28006551625966516359D8A009D06351605FF5
:102B38006451615B6551625B6651635B6681D890E5
:102B480060376137623763376A2FE1D76BAF16D0CA
:102B58006B51800A9F0FD8B009D0000E606F000E2D
:102B6800616F000E626F000E636F1200D8906933B8
:102B78006833673366336B3FF9D715D01F0E6B6523
:102B88000FD0000E606F000E616F000E626F000EB6
:102B9800636F1200D89066376737683769376B07F5
:102BA8006B51D8A4F7D766C060F067C061F068C001
:102BB80062F069C063F01200A09A0101C051C1110E
:102BC800D8B408D0C0C1D9FFC1C1DAFFDFAE02D086
:102BD800A08A1200030E0001FF19D8A402D0000E2B
:102BE800FF6FFF51D8A402D0A08A1200020EFF196D
:102BF800D8A413D0010E606F000E616F000E626FD3
:102C0800000E636F020EF8EC16F060C0C0F161C0F0
:102C1800C1F1030E0001FF6F5FD0FF05D8A45CD09F
:102C2800400E516403D0400E6C6F02D051C06CF05E
:102C38006C5100085124516E000E0101B26F050E4F
:102C4800B36F6CC06BF0D251D8B412D027D0B5C1D5
:102C5800D9FFB6C1DAFFB2C1E1FFB3C1E2FFDFCFEE
:102C6800E7FF0101B24BB32BB54BB62B00016B0745
:102C780000016B51D8B416D0EAD7B5C1D9FFB6C197
:102C8800DAFFB2C1E1FFB3C1E2FFDFCFE7FF010125
:102C9800B24BB32BB54BB62B00016B0700016B5140
:102CA800D8A4EBD75150D8A408D0400E6C19D8A49A
:102CB80002D0020E01D0030EFF6F010E606F000EEE
:102CC800616F050E626F6CC063F0020EF8EC16F0CF
:102CD80060C0C0F161C0C1F1A08A120020EE01F00D
:102CE8004E50D9264F50DA22DF50026E02503C5C1B
:102CF800000E3D58D8A03CC002F002503C5E000EC9
:102D08003D5A000E016E11D00150010D380EF3240A
:102D1800D96E040EF420DA6E38C0E1FF39C0E2FF44
:102D2800DFCFE7FF384A392A012A0250015CD8A0D0
:102D3800EBD73C503D10D8B432D020EE01F04C50C7
:102D4800D9264D50DA22080EDF6E20EE02F04C50E4
:102D5800D9264D50DA22380EDE6E040EDD6E4EC0D6
:102D6800D9FF4FC0DAFFDFBC0DD04CC0D9FF4DC032
:102D7800DAFF480EDF6E4CC0D9FF4DC0DAFF000EF7
:102D8800DB8E12004CC0D9FF4DC0DAFF080EDF6E93
:102D98004CC0D9FF4DC0DAFF000EDB8E120020EECA
:102DA80001F04C50D9264D50DA22080EDF6E20EE85
:102DB80002F04C50D9264D50DA22300EDE6E040E49
:102DC800DD6E4CC0D9FF4DC0DAFF040EDF6E4CC07B
:102DD800D9FF4DC0DAFF000EDB8E3B9E5350D8A4BE
:102DE800120055EC1DF012000001686F00016051DF
:102DF800D8B407D06851020D400EF324D96E000EE6
:102E080006D06851020D8C0EF324D96E010EF42001
:102E1800DA6EDECF69F0DDCF6AF069516A11D8A4A5
:102E280005D0000E606F000E616F120020EE02F0F8
:102E38006951D9266A51DA2261C0DEFF62C0DDFF1E
:102E480020EE01F06951D9266A51DA2263C0DFFF0A
:102E580069C0D9FF6AC0DAFF400EDF1669C0D9FF22
:102E68006AC0DAFF000EDB8669C0D9FF6AC0DAFFE4
:102E7800000EDB8E6051D8B418D06851020D400E98
:102E8800F324D96E000EF420DA6EDECF64F0DDCFC5
:102E980065F0040E6419666F6551676F6851020D1D
:102EA800400EF324D96E000E17D06851020D8C0E17
:102EB800F324D96E010EF420DA6EDECF64F0DDCF94
:102EC80065F0040E6419666F6551676F6851020DED
:102ED8008C0EF324D96E010EF420DA6E66C0DEFF84
:102EE80067C0DDFF69C060F06AC061F01200096E5A
:102EF8000150D8B407D00950020D400EF324D96E02
:102F0800000E06D00950020D8C0EF324D96E010E66
:102F1800F420DA6EDECF0AF0DDCF0BF00A500B108A
:102F2800D8A405D0000E016E000E026E120020EE2D
:102F380002F00A50D9260B50DA2202C0DEFF03C085
:102F4800DDFF20EE01F00A50D9260B50DA2204C02A
:102F5800DFFF0AC0D9FF0BC0DAFF400EDF160AC038
:102F6800D9FF0BC0DAFF000EDB860AC0D9FF0BC001
:102F7800DAFF000EDB8E0150D8B418D00950020DCC
:102F8800400EF324D96E000EF420DA6EDECF05F081
:102F9800DDCF06F0040E0518076E0650086E0950BE
:102FA800020D400EF324D96E000E17D00950020D01
:102FB8008C0EF324D96E010EF420DA6EDECF05F004
:102FC800DDCF06F0040E0518076E0650086E09508E
:102FD800020D8C0EF324D96E010EF420DA6E07C0B0
:102FE800DEFF08C0DDFF0AC001F00BC002F01200CE
:102FF8006D980001FCBF3AD03BAE0DD0020E566E64
:103008000101D451D8B4BEEC1FF0000E0101D66FF7
:10301800000ED76F120020EE01F04C50D9264D500B
:10302800DA22080EDF6E20EE02F04C50D9264D5001
:10303800DA22300EDE6E040EDD6E4CC0D9FF4DC0B4
:10304800DAFF0C0EDF6E4CC0D9FF4DC0DAFF000E60
:10305800DB8E40C0D9FF41C0DAFF040EDF6E40C0EE
:10306800D9FF41C0DAFF000EDB8E1200040130AF39
:1030780012D0010E566E0101D551D8B4BEEC1FF026
:10308800000E0101D66F000ED76F5350D8A412005E
:1030980055EC1DF01200020E566E20EE01F04C5059
:1030A800D9264D50DA22080EDF6E20EE02F04C5081
:1030B800D9264D50DA22300EDE6E040EDD6E4CC07D
:1030C800D9FF4DC0DAFF040EDF6E4CC0D9FF4DC0EA
:1030D800DAFF000EDB8E000E0101D66F000ED76FEF
:1030E8005350D8A4120055EC1DF01200B2C0B4F031
:1030F8000001B56BB66BB135B43701E3B581B45196
:10310800BE6FBE51D8A409D0000EB06F000EB16FCB
:10311800000EB26F000EB36F1200170EB46FB0C07E
:10312800B5F0B1C0B6F0B2C0B7F0B429B86F04D0EA
:10313800D890B733B633B533B82FFAD70001B551A5
:10314800B96FB18FFF0EB017FF0EB117000EB2178F
:10315800B051BA6FB151BB6FB251BC6FBD6B8E0E1F
:10316800BE5FBEAF16D0BE51800A8F0FD8B009D04F
:10317800000EB06F000EB16F000EB26F000EB36F8D
:103188001200D890BD33BC33BB33BA33BE3FF9D736
:1031980015D0170EBE650FD0000EB06F000EB16FC0
:1031A800000EB26F000EB36F1200D890BA37BB375B
:1031B800BC37BD37BE07BE51D8A4F7D7B951D8B46C
:1031C80008D0BD1FBC1FBB1FBA6D000EBB23BC239C
:1031D800BD23BAC0B0F0BBC0B1F0BCC0B2F0BDC036
:1031E800B3F0120082C086F00001876B886B8135CE
:1031F800863701E387818651896F8951D8A407D022
:10320800000E806F000E816F000E826F120085C065
:1032180086F0876B886B8435863701E38781865112
:103228008E6F8E51D8A407D0000E806F000E816F6C
:10323800000E826F12008E517B0F892782C08EF09C
:1032480085518E1B800E8E17818F848FFF0E8317FA
:10325800FF0E8417000E8517000E8A6F000E8B6F05
:10326800000E8C6F070E8D6F80A106D083518A27C0
:1032780084518B2385518C23D890823381338033BA
:10328800D8908337843785378D2FEED7090E8D6F09
:1032980080A106D083518A2784518B2385518C23A2
:1032A800D890823381338033D8908C338B338A33F0
:1032B8008D2FEED78AC060F08BC061F08CC062F0B1
:1032C80089C063F08EC064F015EC1EF060C080F019
:1032D80061C081F062C082F01200040E00016C250A
:1032E8006F6F706B000E7023000E0101BF6F000E30
:1032F800BE6F000E0001666F7E0ECAEC22F0000E53
:103308000001666F7051CAEC22F0000E0001666F72
:103318006F51CAEC22F0010E0001666F080ECAEC6C
:1033280022F0010E0001666F520ECAEC22F0010E67
:103338000001666F68C0F6FF69C0F7FF0800F55026
:10334800CAEC22F0010E0001666F010E68256D6F50
:10335800000E69216E6F6DC0F6FF6EC0F7FF0800A2
:10336800F550CAEC22F0000E0001716F20D0010E5A
:10337800666F7151010D6AC06DF06BC06EF0F3504D
:103388006D27F4506E236DC0F6FF6EC0F7FFF86A24
:10339800070EF76403D00800F55005D0F6CFE9FF13
:1033A800F7CFEAFFEF50CAEC22F00001712B6C5105
:1033B800715DD8A0DCD7000E666F0101CE51CAEC52
:1033C80022F0120091C095F00001966B976B903532
:1033D800953701E3968195519C6F9C51D8A407D0ED
:1033E800000E8F6F000E906F000E916F120094C048
:1033F80095F0966B976B9335953701E396819551C8
:103408009D6F9D51D8A407D0000E8F6F000E906F4E
:10341800000E916F1200000E996F000E9A6F000E49
:103428009B6F9D51890F9C5F91C09DF094519D1B8E
:10343800800E9D17908FFF0E8F17FF0E9017000EAE
:103448009117938FFF0E9217FF0E9317000E941784
:10345800180E986FD89099379A379B3792518F5D8D
:103468009351905994519159D8A007D092518F5F98
:103478009351905B9451915B9981D8908F37903795
:103488009137982FE7D799C060F09AC061F09BC038
:1034980062F09CC063F09DC064F015EC1EF060C043
:1034A8008FF061C090F062C091F01200FA0EF66ED3
:1034B8004F0EF76E000EF86E03EE6EF010EE2FF062
:1034C8000900F5CFEEFFE550E150FAE1FA0EF66E8D
:1034D800510EF76E000EF86E02EEEEF010EE0BF0E5
:1034E8000900F5CFEEFFE550E150FAE1050EF66E62
:1034F800520EF76E000EF86E01EEFAF010EE05F0BF
:103508000900F5CFEEFFE550E150FAE106EEC8F00C
:1035180011EE2CF0EE6AE550E150FCE1E250FAE1E0
:1035280006EE00F0C80EEE6AE806FDE103EE00F0D4
:103538006E0EEE6AE806FDE102EEBFF02F0EEE6AAF
:10354800E806FDE101EE84F0760EEE6AE806FDE19C
:1035580004EE40F0640EEE6AE806FDE100EEF9F0D4
:10356800070EEE6AE806FDE105EE80F0640EEE6AED
:10357800E806FDE100EE38F0270EEE6AE806FDE108
:103588005F905F92000EF86E000139EF09F00401B8
:103598003039E832030B0009D8A4120047D00001E3
:1035A800FC8F080E586E12001EEC14F01200ACECE2
:1035B8001BF012005E0E0001F96F000EFA6FFC811D
:1035C800010EFD6FFC8F120019EC1FF0120069EC60
:1035D8000CF0120004013451010DF80EF32400011F
:1035E800F96F010EF420FA6FFC81010EFD6FFC8F5C
:1035F80012000001FC8F04013451010DF80EF32470
:10360800D96E010EF420DA6E32C4DFFF1200000E0C
:103618000E6E020E0D6E000E0F6E000E106E000E76
:10362800126E000E116E69EC24F012000401315183
:10363800000AD8B4C9D7010AD8B4C9D7020AD8B47D
:10364800C6D7060AD8B4ABD7030AD8B4ADD7010A8F
:10365800D8B4DDD70F0AD8B4ADD7010AD8B4A7D7E4
:10366800030AD8B4B7D7010AD8B4C3D7070A1200D7
:103678000001646F9D9454D0A6C165F0A7C166F09F
:10368800A8C167F0A9C168F06051D8A457D0000E4E
:103698000101A66F000EA76F000EA86F000EA96F9C
:1036A8004DD0A2C165F0A3C166F0A4C167F0A5C161
:1036B80068F06051D8A442D0000E0101A26F000E3C
:1036C800A36F000EA46F000EA56F38D09EC165F0E1
:1036D8009FC166F0A0C167F0A1C168F06051D8A48D
:1036E8002DD0000E01019E6F000E9F6F000EA06F7F
:1036F800000EA16F23D09AC165F09BC166F09CC1F2
:1037080067F09DC168F06051D8A418D0000E01017F
:103718009A6F000E9B6F000E9C6F000E9D6F0ED06F
:1037280000016451010AD8B4A7D7030AD8B4B9D79D
:10373800010AD8B4CBD7070AD8B4DDD79D8465C0B1
:1037480060F066C061F067C062F068C063F01200A4
:103758000001FC8F710E016E0F0E026E000E046EDA
:10376800000E036E000E066E020E056E43EC28F086
:10377800000E016E040E026E000E046E000E036E43
:10378800000E066E300E056E43EC28F06D8C000EB0
:10379800156E020E156401D016D01550010DBB0E22
:1037A800F324D96E010EF420DA6E000EDF6E155088
:1037B800010DB80EF324D96E010EF420DA6E000E56
:1037C800DF6E152AE6D7F80E016E010E026E000EA6
:1037D800046E000E036E000E066E020E056E43ECBC
:1037E80028F06D9C080E406E040E416E000E4E6E61
:1037F800040E4F6E4EC04CF04FC04DF032C45EF018
:103808005E50D8A403D0100E586E1200000E0E6E33
:10381800010E0D6E5E0E0F6E000E106E000E126E13
:10382800010E116E69EC24F0200E586E1200080E7D
:10383800016E0001FE5110E1080EFD5DD8B00CD0FC
:10384800FDC001F05750D8A402D0010E04D057048F
:10385800D8A402D0020E576E0150FD5F000EFE5B29
:1038680020EE01F04050D9264150DA2201C0DFFF96
:10387800380E0101C26F040EC36F0001FCA11DD0F8
:103888003CD0F9C0F6FFFAC0F7FFF86AC2C1D9FF09
:10389800C3C1DAFF070EF76403D00800F55005D05E
:1038A800F6CFE9FFF7CFEAFFEF50DF6E0001F94BE3
:1038B800FA2B0101C24BC32B01060150D8B41200E8
:1038C800E0D7F9C0F6FFFAC0F7FFF86AC2C1D9FF1E
:1038D800C3C1DAFF070EF76403D00800F55005D01E
:1038E800F6CFE9FFF7CFEAFFEF50DF6E0001F94BA3
:1038F800FA2B0101C24BC32B01060150D8B41200A8
:10390800E0D7020E0001746F020E0101EF6FEC0E9A
:103918000001686F7D0E696F72C06AF073C06BF04A
:10392800000E6C6F71EC19F0C8EC26F00001746F92
:103938007451D8A4120072C0D9FF73C0DAFFDF50E7
:103948000101846F000120EE01F07251D9267351F4
:10395800DA22DF500101856F000120EE02F072517A
:10396800D9267351DA22DF500101866F000120EE5B
:1039780003F07251D9267351DA22DF500101876FA3
:10398800000120EE04F07251D9267351DA22DF507B
:103998000101886F000120EE05F07251D92673519C
:1039A800DA22DF500101896F000120EE06F0725122
:1039B800D9267351DA22DF5001018A6F000120EE07
:1039C80007F07251D9267351DA22DF5001018B6F4B
:1039D80012009C0E0001796F400E786F000E7A6F0E
:1039E8006DEC28F060C074F061C075F062C076F0CC
:1039F80063C077F0000E03010C6F33D074C068F019
:103A080075C069F076C06AF077C06BF00001681F76
:103A1800691F6A1F6B1F682B000E69236A236B23BB
:103A28006DEC28F00001685160256C6F69516121C7
:103A38006D6F6A5162216E6F6B5163216F6F7851A0
:103A4800706F7951716F726B736B6C51705D6D51E2
:103A580071596E5172596F517359D8B002D0010E15
:103A68007A6F00017A51D8A405D08B0E03010C1986
:103A7800D8A4C4D7010E0101EC6F8B0E03010C19F9
:103A8800D8A40CD010C3E7F112C3E8F111C3E9F1CF
:103A98000101E951D8A402D0000EEC6F0101EC51EC
:103AA80012000101D751D8A41200010ED76FD651C8
:103AB800D8A41200010ED66F020E5618D8A415D03D
:103AC80020EE01F04050D9264150DA22000EDF6E78
:103AD80040C0D9FF41C0DAFF480EDF6E40C0D9FFB1
:103AE80041C0DAFF000EDB8E12005604D8A4120083
:103AF800000ED86F20EE01F04E50D9264F50DA2232
:103B0800080EDF6E20EE02F04E50D9264F50DA2212
:103B1800300EDE6E040EDD6E4EC0D9FF4FC0DAFFE8
:103B2800040EDF6E4EC0D9FF4FC0DAFF000EDB8EE9
:103B3800010ED86F20EE01F04C50D9264D50DA22F4
:103B4800080EDF6E20EE02F04C50D9264D50DA22D6
:103B5800300EDE6E040EDD6E4CC0D9FF4DC0DAFFAC
:103B6800800EDF6E120040C0D9FF41C0DAFF000EA0
:103B7800DFBC010E026E040E4018406E4150416ECB
:103B8800080E5818D8A40BD0040132517F0B6E6E62
:103B98006E50D8B402D0100E01D0040E586E5604E0
:103BA800D8A43AD020EE02F04050D9264150DA226B
:103BB800380EDE6E040EDD6E1BEC1CF0020E57187C
:103BC800D8A40DD040C0D9FF41C0DAFF040EDF6E83
:103BD80040C0D9FF41C0DAFF000EDB8E1200025050
:103BE800D8A40DD040C0D9FF41C0DAFF480EDF6E1F
:103BF80040C0D9FF41C0DAFF000EDB8E120040C082
:103C0800D9FF41C0DAFF080EDF6E40C0D9FF41C0BE
:103C1800DAFF000EDB8E12003BBE3B9E000E566E96
:103C2800120000016351D8B405D0605161116211CE
:103C3800D8A40CD0000E606F000E616F000E626F8A
:103C48001200632BD890623361336033000E601525
:103C5800656F000E6115666FFE0E6215676F655120
:103C680066116711D8B40CD0ECD7632B010E60270E
:103C7800000E6123000E6223D890623361336033F3
:103C8800000E6015656F000E6115666FFF0E6215F8
:103C9800676F655166116711D8B406D0E6D7630718
:103CA800D89060376137623761BF03D0020E636115
:103CB800F6D763A1619FD89063336351621364514F
:103CC800D8A4628F60C060F061C061F062C062F029
:103CD8001200040130511F0BE806D8A41200303935
:103CE800E832030BE806D8A412003451D8B436D011
:103CF8003405D8A4120032D0E60E0001F96F020E86
:103D0800FA6F000EFE6F080EFD6FFC81FC8F12002B
:103D1800E60E0001F96F020EFA6FFC8F120036C42E
:103D28003CF037C43DF0F10E386E010E396E000ECE
:103D38003E6E000E3F6E3B8E1200F10E0001F96FD1
:103D4800010EFA6F000EFE6F070EFD6FC10EFC6FBD
:103D5800120032C4D1F10001FC8F1200040131516C
:103D6800000AD8B4C9D7010AD8B4D2D7210AD8B41E
:103D7800D6D7010AD8B4E1D7030AD8A41200E9D7E4
:103D8800958083A004D00001606B602B02D00001F5
:103D9800606B60510101CA6FCB6B958283A204D01E
:103DA8000001606B602B02D00001606B6051010163
:103DB800C86FC96B958483A404D00001606B602B25
:103DC80002D00001606B60510101C66FC76B958618
:103DD80083A604D00001606B602B02D00001606BE9
:103DE80060510101C46FC56B000EA66F000EA76F6E
:103DF800000EA86F000EA96F000EA26F000EA36F31
:103E0800000EA46F000EA56F000E9E6F000E9F6F30
:103E1800000EA06F000EA16F000E9A6F000E9B6F30
:103E2800000E9C6F000E9D6F1200000E0401386F8B
:103E3800000E396F39D00001FC8F0101DA05D8A4D2
:103E48003ED0040138833BD00001FC8F38D00001FC
:103E5800FC8F040134BF0AD034510F0B016E01509E
:103E6800020D8C0EF324D96E010E09D034510F0BBC
:103E7800016E0150020D400EF324D96E000EF4209D
:103E8800DA6EDECF02F0DDCF03F002C0D9FF03C047
:103E9800DAFFDFAE14D002C0D9FF03C0DAFFDFA417
:103EA8000ED0010E386F0BD030511F0B000AD8B45A
:103EB800C2D7010AD8B4C8D7030AD8B4C8D70001F2
:103EC800FCAF1200380EF96F040EFA6FFC81020E77
:103ED800FD6F1200828C949C828E948EAC84B8867E
:103EE800000E0001606F0E0E616F270E626F070EE5
:103EF800636F6DC064F06EC065F06FC066F070C02F
:103F080067F047EC22F0FB0E00016025716FFF0E91
:103F18006121726FFF0E6221736FFF0E6321746F50
:103F280071C060F072C061F073C062F074C063F079
:103F38000A0E646F000E656F000E666F000E676FE5
:103F480047EC22F060C071F061C072F062C073F09B
:103F580063C074F071C0AFFF72C0B0FFAC98AC968C
:103F6800AB8EB898B89AB890AC9CAB9CAB88AC8A2E
:103F78009D8A1200000E0101D56F000ED46F020E4B
:103F88005618D8A41FD020EE01F04C50D9264D5019
:103F9800DA22080EDF6E20EE02F04C50D9264D5082
:103FA800DA22380EDE6E040EDD6E4CC0D9FF4DC02D
:103FB800DAFF480EDF6E4CC0D9FF4DC0DAFF000EA5
:103FC800DB8E12000001FD510401365D0001FE5137
:103FD80004013759D8B004D036C4FDF037C4FEF018
:103FE8001BEC1CF020EE02F04050D9264150DA229A
:103FF800380EDE6E040EDD6E40C0D9FF41C0DAFF18
:10400800480EDF6E40C0D9FF41C0DAFF000EDB8EDC
:1040180012002D0E546E5DC01BF0FD0E1B16D8A4A9
:104028003BD05DC01BF0D8901B323F0E1B161B50B7
:10403800040D000EF3244E6E040EF4204F6E4EC095
:104048004CF04FC04DF0040E4C184C6E4D504D6E58
:104058004EC0D9FF4FC0DAFFDF30E8320F0B0D0A30
:10406800D8A417D0300E016E040E026E20EE02F0B6
:104078004E50D9264F50DA22DECF03F0DDCF04F0C0
:10408800000E066E080E056E23EC26F0EBEC20F011
:1040980012000CEC24F012005D50FD0B040AD8A4A9
:1040A8001200B7EC1DF01200066E000E076E040E2B
:1040B800086E0150026E036AD89002360336065025
:1040C800046E056AD89004360536D890043605364D
:1040D8000250042603500522D89004360536D8909D
:1040E80004360536045007260550082207C0D9FFB4
:1040F80008C0DAFFDF9E0150D8A407D00650020D91
:104108008C0EF324D96E010E06D00650020D400E17
:10411800F324D96E000EF420DA6E07C0DEFF08C063
:10412800DDFF07C0D9FF08C0DAFFDF9C20EE04F0EE
:104138000750D9260850DA22DF8C1200000162AF3E
:1041480016D060C066F061C067F062C068F0661F94
:10415800671F681F662B000E67236823000E6625FD
:10416800606F000E6721616F800E6821626F65AF16
:1041780016D063C066F064C067F065C068F0661F5B
:10418800671F681F662B000E67236823000E6625CD
:10419800636F000E6721646F800E6821656F000EE3
:1041A800601B000E611B800E621B000E631B000E5D
:1041B800641B800E651B6351605D645161596551D4
:1041C8006259D8B002D0D8901200D8801200000EE0
:1041D800576E000E536E000E0101D56F000ED46F9E
:1041E800000ED86F000E566E40C0D9FF41C0DAFFEE
:1041F8007F0EDF16040E4018406E4150416E40C0DD
:10420800D9FF41C0DAFF7F0EDF16040E4018406E5A
:104218004150416E4CC0D9FF4DC0DAFF7F0EDF160A
:10422800000E0001FC6F000EFE6F000EFD6F000E09
:104238003B6E000E3D6E000E3C6ECBEC1AF0000E8D
:104248000E6E030E0D6E000E0F6E000E106E000E39
:10425800126E000E116E69EC24F0FCEC17F01200DF
:104268000001656F000E0001636F000E646F000EA1
:10427800626F6551C7EC28F00001656F6151C7ECAA
:1042880028F00001616F2F0E656506D03A0E656152
:1042980003D06551D00F08D0400E656506D0470E93
:1042A800656103D06551C90F636F2F0E616506D034
:1042B8003A0E616103D06151D00F0AD0400E61659A
:1042C80006D0470E616103D06151C90F01D0640E59
:1042D800646F640E6419D8A403D063C062F005D07B
:1042E8006351100DF3506425626F62511200000192
:1042F8006C6F6CC068F00001696B000E6B6F0B0E81
:104308006A6FDA0E6A25D96E020E6B21DA6E000E1C
:10431800DF6E6A07D8A06B07DA0E6A25D96E020E1F
:104328006B21DA6E6CC060F0616B000E636F0A0E71
:10433800626F3DEC23F000016051300FDF6E0A0E12
:10434800606F6C5108EC27F000016C6F6C51D8A4B9
:10435800E0D769AF0BD06A07D8A06B07DA0E6A25D9
:10436800D96E020E6B21DA6E2D0EDF6EDA0E6A251B
:10437800666F020E6B21676F1200000E00016B6FF3
:1043880069AF06D0686D691FD8B0692B010E6B6FD5
:1043980067AF06D0666D671FD8B0672B010E6B1B21
:1043A800000E6D6F000E6C6F68516911D8B41CD087
:1043B800010E6A6F04D0D890683769376A2B69AFE5
:1043C800FAD7D8906C376D376851665D695167596F
:1043D800D8A005D06851665F6951675B6C81D89039
:1043E800693368336A2FEDD76B51D8B404D06C6D3C
:1043F8006D1FD8B06D2B6CC066F06DC067F01200F1
:10440800066E000E046E000E056E000E036E06505A
:10441800DDEC28F0066E0250DDEC28F0026E2F0E5F
:10442800066406D03A0E066003D00650D00F08D0B6
:10443800400E066406D0470E066003D00650C90F2A
:10444800046E2F0E026406D03A0E026003D00250AA
:10445800D00F0AD0400E026406D0470E026003D087
:104468000250C90F01D0640E056E640E0518D8A459
:1044780003D004C003F005D00450100DF3500524F8
:10448800036E03501200000E0001686F000E696F82
:10449800000E6A6F000E6B6F64516511661167112B
:1044A800D8B42AD0010E6C6F06D0D890643765371F
:1044B800663767376C2B67AFF8D7D8906837693796
:1044C8006A376B376451605D65516159665162594D
:1044D80067516359D8A009D06451605F6551615B29
:1044E8006651625B6751635B6881D8906733663356
:1044F800653364336C2FE1D768C060F069C061F040
:104508006AC062F06BC063F0120033D001C0D9FFFB
:1045180002C0DAFFDF50D8B40FD001C0D9FF02C003
:10452800DAFFDF50076E03C0F6FF04C0F7FF08008C
:10453800F5500718D8B419D003C0F6FF04C0F7FF28
:104548000800F550076E086A071E081E074A082A61
:1045580001C0D9FF02C0DAFFDF50096E09500724F5
:10456800016E000E0820026E1200014A022A034A58
:10457800042A0506D8A006060528C8E10628D8A4F6
:10458800C5D7000E026E000E016E12000001676FA3
:1045980000016651D8B403D067510101CE5F010113
:1045A800BE51BF11D8A410D01ED05C0E0101BE258B
:1045B800D96E000EBF21DA6E7D0EDF6EBE4BBF2BAB
:1045C800200E0001671B10D000016751110AD8B4F2
:1045D800ECD7020AD8B4E9D76E0AD8B4E6D7030AEA
:1045E800D8B4E3D701D0CE695C0E0101BE25D96EDF
:1045F800000EBF21DA6E67C0DFFFBE4BBF2B120073
:104608006DEC28F060C079F061C07AF062C07BF090
:1046180063C07CF002D0CDEC27F079C071F07AC08D
:1046280072F07BC073F07CC074F00001711F721FC0
:10463800731F741F712B000E7223732374236DEC88
:1046480028F0000171516025756F72516121766FF4
:1046580073516221776F74516321786F6D51755D65
:104668006E5176596F51775970517859D8B01200F8
:10467800D2D7000E0001656F61AF06D0606D611F73
:10468800D8B0612B010E656F63AF04D0626D631FF4
:10469800D8B0632B62516311D8B418D0010E646F7F
:1046A80004D0D89062376337642B63AFFAD762516E
:1046B800605D63516159D8A004D06251605F635155
:1046C800615BD89063336233642FF1D76551D8B4F6
:1046D80004D0606D611FD8B0612B60C060F061C00C
:1046E80061F0120000017251731174117511D8B480
:1046F80024D0010E766F06D0D8907237733774378E
:104708007537762B75AFF8D772516E5D73516F5947
:104718007451705975517159D8A008D072516E5F93
:1047280073516F5B7451705B7551715BD8907533C1
:10473800743373337233762FE7D76EC06EF06FC061
:104748006FF070C070F071C071F01200000E0101BE
:10475800F16F4B0EF26F000EF36F000EF46F000E48
:10476800F56F000EF66F080EF76F000E526E1A0EF8
:10477800096E010E45EC27F01E0E096E020E45EC7F
:1047880027F0000E016E400E026E050E036E400EFD
:10479800046E020E7BEC17F001C04AF002C04BF029
:1047A800000E0101C06F000EC16F000E0001FF6F07
:1047B80012008E0E0001706F06D0D8906B336A33EA
:1047C80069336833702B000E68156C6F000E69151D
:1047D8006D6F000E6A156E6FFF0E6B156F6F6C5163
:1047E8006D116E116F11D8A4E8D768C060F069C068
:1047F80061F06AC062F070C063F0000E646F15EC7F
:104808001EF060C068F061C069F062C06AF0120012
:10481800020E5618D8A403D072EC16F01200000E3F
:10482800566E0101D851D8A41FD020EE01F04C508B
:10483800D9264D50DA22080EDF6E20EE02F04C50D9
:10484800D9264D50DA22300EDE6E040EDD6E4CC0D5
:10485800D9FF4DC0DAFF0C0EDF6E4CC0D9FF4DC03A
:10486800DAFF000EDB8E1200000ED86F1200FAC1BC
:1048780060F0FBC161F0FCC162F0FDC163F06D0E38
:104888000001646F4E0E656FC60E666F410E676F4E
:10489800C3EC24F060C0FAF161C0FBF162C0FCF126
:1048A80063C0FDF1390E0101FA27300EFB23000E1B
:1048B800FC23000EFD23FF0EFC1500016C6F7F0E1C
:1048C8000101FD1500016D6F120006D0AAEC23F05E
:1048D80012006DEC1EF012000DC013F00EC014F0A3
:1048E8001450000AD8B404D07F0AD8A4120018D0F3
:1048F8001350010AD8B4EAD7030AD8B41200010A3F
:10490800D8B4E7D7060AD8B41200770AD8B4120088
:10491800010AD8B41200070AD8B41200010A12001A
:104928001350FF0A1200020E0001746F020E0101FB
:10493800EF6FF60E0001686F7D0E696F72C06AF046
:1049480073C06BF0020E6C6F71EC19F0C8EC26F0B6
:104958000001746F7451D8A4120072C0D9FF73C0DB
:10496800DAFFDF500101CC6F000120EE01F0725137
:10497800D9267351DA22DF500101CD6F1200000EE3
:104988000001686F000E696F000E6A6F000E6B6F92
:1049980060A108D0645168276551692366516A236C
:1049A80067516B23D8906437653766376737D89077
:1049B8006333623361336033605161116211631193
:1049C800D8A4E6D768C060F069C061F06AC062F038
:1049D8006BC063F0120060C064F061C065F003D082
:1049E8000001644B652B64C0F6FF65C0F7FFF86AE9
:1049F800070EF76403D00800F55005D0F6CFE9FF9D
:104A0800F7CFEAFFEF500009D8A4EAD760C062F0F8
:104A180061C063F00001621F631F624B632B645126
:104A28006225606F65516321616F1200CCC6E8FF93
:104A3800010FE8CFCCF6200E0001BF6F010EC06F4A
:104A48008E0EC16F7F0EC26FF3517BEC21F066C0F2
:104A5800C3F067C0C4F00001F4517BEC21F066C0DC
:104A6800C5F067C0C6F009EC00F0C80E0001606F21
:104A7800060E616F200E626F010E636FDEEC25F08B
:104A8800120001C005F002C006F002D0054A062A4D
:104A980005C0F6FF06C0F7FFF86A070EF76403D0F3
:104AA8000800F55005D0F6CFE9FFF7CFEAFFEF5041
:104AB8000009D8A4EBD701C003F002C004F0031E1C
:104AC800041E034A042A05500324016E06500420DC
:104AD800026E1200A09A0001FF51D8B402D0A08A39
:104AE8001200000E646F60C062F061C063F0642B56
:104AF8006429D8B409D062C0D9FF63C0DAFF624B19
:104B0800632BDF50D8A4F3D760C0B5F161C0B6F10C
:104B180064C051F0010E0101D26F010E0001FF6F58
:104B2800A08A12000001736F020E0001726F020E5C
:104B38000101EF6F00017351D8B402D0010E736FF9
:104B4800EE0E686F7D0E696F730E6A6F000E6B6FE5
:104B5800010E6C6F71EC19F0C8EC26F00001726F51
:104B68007251D8A4120073C0E6F1120004D0014AB1
:104B7800022A034A042A01C0D9FF02C0DAFFDF5023
:104B8800056E03C0F6FF04C0F7FF0800F5500008E3
:104B98000524066E0650D8A407D001C0D9FF02C06C
:104BA800DAFFDF50D8A4E3D70650016E026A01BECF
:104BB8000206120060C064F061C065F003D0000115
:104BC800644B652B64C0D9FF65C0DAFFDF50D8B4E9
:104BD80006D0F5D70001644B652B624B632B62C08E
:104BE800D9FF63C0DAFF64C0E1FF65C0E2FFDFCF31
:104BF800E7FFE750D8B41200EDD70001756F020E39
:104C08000001746F020E0101EF6FE80E0001686F7A
:104C18007D0E696F7551726F736B72C06AF073C0E5
:104C28006BF0000E6C6F71EC19F0C8EC26F0000107
:104C3800746F7451D8A4120075C0F0F1120003C04B
:104C480009F004C00AF001C007F002C008F010D053
:104C580009C0D9FF0AC0DAFFDF500B6E094A0A2AD9
:104C680007C0D9FF08C0DAFF0BC0DFFF074A082AD0
:104C78000506D8A006060528EBE10628D8B41200D8
:104C8800E7D7000E00017C6F000E7B6F0CD05C0E26
:104C98007B25D96E000E7C21DA6EDF50EFEC28F010
:104CA80000017B4B7C2B0101BE5100017B5D0101A2
:104CB800BF5100017C59D8A0EAD7EDEC1CF00101E6
:104CC800EC6F12000001835184118511D8B406D00D
:104CD800000E831B000E841B800E851B80C074F0A1
:104CE80081C075F082C076F083C077F084C078F018
:104CF80085C079F0D6EC10F074C080F075C081F0F2
:104D080076C082F0120070A01DD04EC0D9FF4FC0EF
:104D1800DAFF800EDE18D8A414D040C0D9FF41C0F5
:104D2800DAFF840EDE18D8A40CD04EC0D9FF4FC0CD
:104D3800DAFF0C0EDF6E4EC0D9FF4FC0DAFF000E4F
:104D4800DB8E7090689A1200010E0101E56FF29EE9
:104D5800B80EB16E000ECF6E000ECE6E050EBF6E91
:104D6800DC0EBE6E000E966F000E976F000E986FE9
:104D7800000E996F9E94F10ECD6E0B0EBD6E9D8444
:104D88009F84D08EF28E1200020E0001616F000E19
:104D9800636F000E626F0CD05C0E6225D96E000E38
:104DA8006321DA6EDF50EFEC28F00001624B632BD1
:104DB8000101BE510001625D0101BF51000163594B
:104DC800D8A0EAD761511200829000F09490070EA3
:104DD8000001616F170E606F6A0EE82EFED7602F14
:104DE800FCD7612FFAD700F0948000F0070E00017D
:104DF800616F170E606F6A0EE82EFED7602FFCD722
:104E0800612FFAD700F012000001616F000E000157
:104E1800636F6051D8B415D0010E626F03D0D8907B
:104E28006037622B60AFFBD7D89063376051615D04
:104E3800D8A003D06051615F6381D8906033622F3E
:104E4800F3D763511200C80E0001BF6F060EC06F82
:104E5800130EC16F7F0EC26F010EC36FE10EC46FD8
:104E6800F50EC56F050EC66FF1C0C7F0F2C0C8F0E9
:104E7800F3C0C9F0CA6B09EC00F0010EE8CFCCF61C
:104E880012000C6E09A405D0000E016E0C5058ECEF
:104E980020F009A205D0010E016E0C5058EC20F04C
:104EA8000C50010D700EF3240A6E0F0EF4200B6ED9
:104EB8000AC0D9FF0BC0DAFF09C0DFFF1200000EDD
:104EC80000016B6F69AF06D0686D691FD8B0692B98
:104ED800010E6B6F68C060F069C061F0626B8E0E86
:104EE800636F6BC064F015EC1EF060C068F061C0C1
:104EF80069F062C06AF01200000E0101D96F000E5D
:104F08000E6E740E0D6E000E0F6E000E106E000EFB
:104F1800126E000E116E69EC24F06D92699401D046
:104F2800689468B4FDD7000E0101D36F1200585081
:104F3800D8A4120082A41200000E6D6E000E696ED5
:104F4800160E6F6E9F0E6B6E7B0E696ED08EA28AE8
:104F5800A08AF28E01D06D866DA6FDD7010E586E1F
:104F68001200020E0001746F020E0101EF6FF00EC5
:104F78000001686F7D0E696F72C06AF073C06BF0D4
:104F8800100E6C6F71EC19F0C8EC26F00001746F0C
:104F980012005850D8B482A403D09BEC27F006D056
:104FA8005804D8B482B402D0F6EC28F01F0E586426
:104FB80002D06DA202D0000E1200E0EC15F0010E36
:104FC800120060C066F061C067F009D066C0D9FF02
:104FD80067C0DAFF62C0DFFF0001664B672B000184
:104FE8006407D8A065076429F1E16529D8B41200DF
:104FF800EDD7827F347F507F667FC47FC07EF57F88
:105008005B7F027F7B7F977F9F7F427FBD7F247F6F
:105018003030313341323030343130414345363924
:015028000087
:10502A0001C005F002C006F004D0054A062A034A68
:10503A00042A03C0D9FF04C0DAFF05C0E1FF06C095
:10504A00E2FFDFCFE7FFE750D8B41200EED769845A
:10505A0068986D82010E0101D96F000ED36F000EA0
:10506A000E6E750E0D6E000E0F6E000E106E000E97
:10507A00126E000E116E69EC24F0120001C007F0E6
:10508A0002C008F008D007C0D9FF08C0DAFF03C081
:10509A00DFFF074A082A0506D8A006060528F3E115
:1050AA000628D8B41200EFD700016E517003F3CF6F
:1050BA0072F0F4CF73F06E517103F35073276F518E
:1050CA007003F350732772C06EF073C06FF0120052
:1050DA009D9496C164F097C165F098C166F099C134
:1050EA0067F09D8464C060F065C061F066C062F0DC
:1050FA0067C063F012000001605161116211D8B4F7
:10510A0006D0000E601B000E611B800E621B60C081
:10511A0060F061C061F062C062F012009EBA02D013
:10512A00000E1200ABCF02F0AECF03F002C001F0C6
:10513A00060E0116D8B403D0AB9800F0AB88035022
:10514A0012000001626F000E0001616F3A0E626187
:10515A0005D02F0E626502D0010E616F61C060F04A
:10516A0060311200010E01019227000E932394234D
:10517A009523D951D8A41200D32BD351D8A4120005
:10518A00D36912000001606F7B0E0001606104D0D8
:10519A00600E606501D0609B60511200E8EC26F059
:1051AA00030E0101EE6F020EEF6F020EED6F120099
:1051BA00016E7B0E016004D0600E016401D0019A79
:1051CA0001501200C2900D0EC16EBE0EC06E9E9CA2
:1051DA009D9C12000001606F9EA8FED760C0ADFFC3
:1051EA001200000E6D6E000E696E000E586E1200EF
:1051FA0001FFFFFFFFFFF7FFC07FFF010000000173
:107BD20000010000000A00000064000000E8030049
:107BE2000010270000A086010040420F00809698F6
:107BF2000000E1F50500CA9A3B00803F00204100E9
:107C0200C842007A44401C4650C34724744997181E
:107C12004BBCBE4C6B6E4E03155079AD60F349718F
:107C220000803FCDCC3DD7233C12833AB7D138C632
:107C32002737388635C0D633CC2B32708930E7DB14
:107C42002EE53C1E42A20D010000001000000000C3
:107C52000100000010000000000100000010000000
:107C620000000100000010E27DEF7CBB7C6F6666C5
:107C7200006F6E00787C09024300020100C03209E5
:107C82000400000102020100052400100104240284
:107C920002052406000105240100010705810308ED
:107CA200000209040100020A000000070502024066
:107CB20000000705820240000034034300440043F1
:107CC200002000520053002D003200330032002009
:107CD2000045006D0075006C006100740069006F62
:107CE200006E002000440065006D006F0034034DFB
:107CF200006900630072006F006300680069007031
:107D020000200054006500630068006E006F006C84
:107D1200006F0067007900200049006E0063002EAA
:107D2200001201000202000008D8040A000001014A
:107D32000200014D366A336234353649494F544B9D
:107D420065792100726164696F20736574207366BE
:107D520020534600736574206368207374617475E0
:107D62007300726164696F207365742062770073B7
:107D72006574206170706B65790073657420617041
:107D82007065756900736574206465766575690050
:107D920067657420646E637472006A6F696E206F27
:107DA20074616100747820756E636E660067657435
:107DB200206164720073657420616472007365747B
:107DC20020647200747820636E6600726573657455
:107DD20000737973200073617665006D6163200022
:107DE2000403090448504850434D434D45454B59FF
:107DF2005752434849445348534C726573706F73EA
:107E020074613A20253258202532582025325820D4
:107E12002532582025325820253258202532582024
:107E2200253258202532582025325820202564201A
:107E3200202564202025642020256420202564201C
:107E4200202564202025642020256420202564200C
:107E52002025640A0D00257320252E3278252E3226
:107E620078252E3278252E3278252E3278252E321C
:107E720078252E3278252E3278252E3278252E320C
:107E820078252E3278252E3278252E3278252E32FC
:107E920078252E3278252E327800257320252E3231
:107EA20078252E3278252E3278252E3278252E32DC
:107EB20078252E3278252E3278252E327800667279
:107EC200616D655F636F756E7465725F6572725F17
:107ED20072656A6F696E5F6E6565646564003031F4
:107EE200323334353637383941424344454600301F
:107EF200313233343536373839616263646566004E
:107F0200696E76616C69645F646174615F6C656EF1
:107F1200003C3D3E804E23256C642325732325645B
:107F220023006163636570746564524E3239303385
:107F32002000696E76616C69645F706172616D00C8
:107F42006B6579735F6E6F745F696E6974006E6FD3
:107F5200745F6A6F696E6564006D61635F706175FD
:107F6200736564006E6F5F667265655F63680025A6
:107F720073202564206F6666006D61635F74785FAD
:107F82006F6B002573202564206F6E0025733A25E0
:107F9200733B2573006D61635F727820006D6163CE
:107FA2005F6572720025733A256C752300286E7521
:107FB2006C6C29002573202564200064656E696558
:107FC200640073696C656E740025733A256623003C
:107FD20025733A2573230025732025640025732019
:107FE2002573004E4956454C002530325800257302
:0E7FF2002564006275737900706F636F000084
:020000040020DA
:08000000FFFFFFFFFFFFFFFF00
:020000040030CA
:0E000000240E261EFF8181FF0FC00FE00F406F
:00000001FF
