:0400000007EF00F016
:100008005F82CAED11F0FBEF1FF0C30E0101086F0C
:10001800000E096F45EF06F0250E1D19D8B40BD058
:10002800BFC0D9FFC0C0DAFF1DC1DFFF0001BF4B51
:10003800C02B45EF06F0000E01011A6F000E196F74
:10004800000E1C6F000E1B6F05D001011B850001FF
:10005800C14BC22BC1C0F6FFC2C0F7FF0800F55064
:10006800300AD8B4F2D7C1C0F6FFC2C0F7FF080003
:10007800F5507AEC28F0D8A0B1D0000E01011A6F23
:10008800000E196F19C16EF01AC16FF0000E000151
:10009800716F0A0E706F1AEC28F06EC019F16FC0FC
:1000A8001AF1D00E0001EB6FFF0EEC6FC1C0F6FF26
:1000B800C2C0F7FF0800F550ED6FEE6BEB51ED276E
:1000C800EC51EE23ED51010119270001EE51010118
:1000D8001A230001C14BC22BC1C0F6FFC2C0F7FFF3
:1000E8000800F5507AEC28F0D8A078D0CBD70101D9
:1000F8001B8974D01C859CD01B8F9AD008C1D9FF4E
:1001080009C1DAFFDECF04F1DDCF05F1020E0827C1
:10011800000E092304510511D8A404D0BA0E046FA7
:100128007F0E056F000E076F000E066F03D00101EA
:10013800064B072B065104250001EB6F01010751FF
:1001480005210001EC6FEBC0F6FFECC0F7FF0800DB
:10015800F5500009D8A4EBD701011951065D1A51D1
:100168000759D8B005D00651195F07511A5B0ED050
:10017800000E1A6F000E196F09D0BFC0D9FFC0C09A
:10018800DAFF200EDF6E0001BF4BC02B01011907FB
:10019800D8A01A071929F1E11A29D8B411D0EDD736
:1001A80004C1F6FF05C1F7FFBFC0D9FFC0C0DAFF21
:1001B8000800F5CFDFFF044B052B0001BF4BC02B18
:1001C80001010607D8A007070629EAE10729D8B4DC
:1001D80045EF06F0E5D7C00E1B132AD0C1C0F6FFC5
:1001E800C2C0F7FF0001C14BC22B0800F5CF1DF1BB
:1001F80001011D51000AD8B454EF06F0580AD8B4CA
:100208007BD73C0AD8B414D0020AD8B473D70F0AE3
:10021800D8B40ED0050AD8B46AD71F0AD8B46ED796
:10022800060AD8B4D8D70D0AD8B466D745EF06F071
:10023800070E1C15D8B45DD3000E0B6F060E0A6F9F
:1002480008C1D9FF09C1DAFFDECF16F1DECF17F1F9
:10025800DDCF18F1030E0827000E092318AF11D0BF
:1002680016C160F017C161F018C162F041EC28F0C6
:1002780060C016F161C017F162C018F1030E0101E8
:100288001B13000E116F000E106F16511711181165
:10029800D8B490D0820E0001EB6FFF0EEC6F16C140
:1002A800EDF017C1EEF018C1EFF019C1F0F0100E23
:1002B80005D0D890F033EF33EE33ED33E82EF9D78D
:1002C800ED51EB250101106F000E0001EC21010139
:1002D800116F1007D8A0110710C16EF011C16FF08F
:1002E800000E0001716F030E706F1AEC28F06EC0DB
:1002F80010F16FC011F110C166F011C167F0000E66
:100308000001696F0A0E686F5DEC22F066C010F19B
:1003180067C011F1010111AF03D01007D8A0110770
:1003280010510008EDEC0BF08FC00CF190C00DF1EE
:1003380091C00EF10CC180F00DC181F00EC182F0A8
:1003480016C183F017C184F018C185F046EC1BF084
:1003580080C00CF181C00DF182C00EF10CC160F0BB
:100368000DC161F00EC162F0000E0001636F800ED6
:10037800646F3F0E656FCCEC21F00001D8B005D05A
:1003880001011007D8A0110715D00CC160F00DC1EC
:1003980061F00EC162F0000E0001636F200E646F01
:1003A800410E656FCCEC21F00001D8A003D001010B
:1003B800104B112B01010BBF06D00B511BE10D0E89
:1003C8000A5DD8B017D016C174F017C175F018C1FE
:1003D80076F00A5192EC10F08FC077F090C078F068
:1003E80091C079F0AAEC12F074C016F175C017F13B
:1003F80076C018F1010111BF06D0115121E10A0E92
:10040800105DD8B01DD0165117111811D8B459D095
:1004180016C1B0F017C1B1F018C1B2F0CAEC1AF0A9
:100428000001B051B111B211B311D8A44AD00101E1
:1004380011BF47D0115104E1020E105DD8A041D080
:100448000CC160F00DC161F00EC162F0700E0001C8
:10045800636F890E646F400E656FCCEC21F000016C
:10046800D8B003D00101F70E02D00101F80E102711
:10047800FF0E11231051EDEC0BF08FC00CF190C062
:100488000DF191C00EF116C160F017C161F018C1ED
:1004980062F00CC163F00DC164F00EC165F0C2ECEE
:1004A80014F060C012F161C013F162C014F163C0AE
:1004B80015F1000E0101166F000E176F000E186F70
:1004C80033D016C1B0F017C1B1F018C1B2F0CAEC00
:1004D8001AF0B0C012F1B1C013F1B2C014F1B3C038
:1004E80015F116C180F017C181F018C182F012C150
:1004F80068F013C169F014C16AF015C16BF0A5EC7E
:1005080024F068C083F069C084F06AC085F07DEC8F
:1005180026F080C016F181C017F182C018F1000ED4
:100528000101116F000E106F010E1D6F0A0E1D19CB
:10053800D8B418D01D51040DA30EF324F66E7C0E0A
:10054800F420F76E0900F550125D0900F5501359B3
:100558000900F55014590900F5501559D8A002D0D2
:100568001D2BE4D71DC1EBF00001EC6BEBBFEC07D2
:1005780001010A510001EB2701010B510001EC2395
:10058800010110510001EB27010111510001EC2379
:10059800EB510101195F0001EC5101011A5B0A518D
:1005A8000B11D8B403D01907D8A01A07030E1B15CE
:1005B8000001EB6F000E01011C150001EC6FEB51FF
:1005C800EC11D8B404D001011907D8A01A07010109
:1005D8001BA539D0030E1B150001EB6F000E01019E
:1005E8001C150001EC6FEB51EC11D8B416D0BFC04C
:1005F800D9FFC0C0DAFF2D0EDF6EBF4BC02B0DD068
:10060800BFC0D9FFC0C0DAFF300EDF6E0001BF4B9C
:10061800C02B01011907D8A01A0701011ABF7BD006
:100628001A51EEE11905D8A076D0EAD7BFC0D9FF94
:10063800C0C0DAFF200EDF6E0001BF4BC02B0101E6
:100648001907D8A01A071ABF05D01A51EFE11905E2
:10065800D8B0ECD7030E1B150001EB6F000E01019B
:100668001C150001EC6FEB51EC11D8B454D0BFC08D
:10067800D9FFC0C0DAFF2D0EDF6E4BD012C160F07B
:1006880013C161F014C162F015C163F001011D517D
:10069800040DA30EF324F66E7C0EF420F76E090009
:1006A800F5CF64F00900F5CF65F00900F5CF66F0E5
:1006B8000A00F5CF67F0E3EC22F060C00CF161C0EE
:1006C8000DF162C00EF163C00FF10CC16DF00DC1E8
:1006D8006EF00EC16FF00FC170F00A0E0001716F5D
:1006E800000E726F000E736F000E746F0EEC24F024
:1006F8006DC00CF16EC00DF16FC00EF170C00FF13E
:1007080001010C51300FBFC0D9FFC0C0DAFFDF6E46
:100718000001BF4BC02B01011D071D29D8B40ED005
:10072800ADD7BFC0D9FFC0C0DAFF300EDF6E000101
:10073800BF4BC02B01011007D8A0110711BF05D06E
:100748001151EFE11005D8B0ECD70BBF09D00B5110
:1007580004E1090E0A5DD8A003D0080E1D6F02D06F
:100768000AC11DF11D510A5F000E1DBFFF0E0B5B74
:100778001D51D8B409D0BFC0D9FFC0C0DAFF2E0EB2
:10078800DF6E0001BF4BC02B01011D51EDEC0BF0DA
:100798008FC000F190C001F191C002F116C183F041
:1007A80017C184F018C185F000C180F001C181F043
:1007B80002C182F046EC1BF080C0B0F081C0B1F0FD
:1007C80082C0B2F0CAEC1AF0B0C012F1B1C013F195
:1007D800B2C014F1B3C015F174D012C160F013C1E6
:1007E80061F014C162F015C163F001011D51040DDF
:1007F800A30EF324F66E7C0EF420F76E0900F5CFF5
:1008080064F00900F5CF65F00900F5CF66F00A003D
:10081800F5CF67F0E3EC22F060C00CF161C00DF198
:1008280062C00EF163C00FF10CC16DF00DC16EF026
:100838000EC16FF00FC170F00A0E0001716F000E4B
:10084800726F000E736F000E746F0EEC24F06DC0A3
:100858000CF16EC00DF16FC00EF170C00FF1010107
:100868000C51300FBFC0D9FFC0C0DAFFDF6E0001E6
:10087800BF4BC02B12C16DF013C16EF014C16FF0E5
:1008880015C170F001011D51040DA30EF324F66E7D
:100898007C0EF420F76E0900F5CF71F00900F5CF52
:1008A80072F00900F5CF73F00A00F5CF74F00EEC82
:1008B80024F06DC012F16EC013F16FC014F170C056
:1008C80015F101011D071D29D8B40ED086D7BFC068
:1008D800D9FFC0C0DAFF300EDF6E0001BF4BC02B5E
:1008E80001010A07D8A00B070A510B11D8B4C9D1C6
:1008F800EED7C00E1B150001EB6F000E01011C1591
:100908000001EC6FEB51EC11D8A42FD001011BA909
:100918000ED008C1D9FF09C1DAFFDECF12F1DECF50
:1009280013F1DECF14F1DECF15F1040E0ED008C19D
:10093800D9FF09C1DAFFDECF12F1DDCF13F1000EC6
:1009480013BFFF0E146F156F020E0827000E092340
:1009580015AF6BD0030E1B13151F141F131F126D39
:10096800000E13231423152360D001011BA90ED0F8
:1009780008C1D9FF09C1DAFFDECF12F1DECF13F1CA
:10098800DECF14F1DECF15F1040E0FD008C1D9FF68
:1009980009C1DAFFDECFEBF0DDCFECF0EBC012F1EE
:1009A800ECC013F1146B156B020E0827000E092317
:1009B8003CD0010E1D6F0A0E1D19D8B441D01D512F
:1009C800040DA30EF324F66E7C0EF420F76E0900D6
:1009D800F550125D0900F55013590900F5501459E6
:1009E8000900F5501559D8A02BD01D2BE4D7010EBE
:1009F8001D6F080E1D19D8B423D01D51040D190EF2
:100A0800F324F66E7D0EF420F76E0900F550125DA2
:100A18000900F55013590900F55014590900F5500B
:100A28001559D8A00DD01D2BE4D71B51C00B000AB7
:100A3800D8B4BFD7800AD8B4DAD7400AD8B4B9D75F
:100A480019511A11D8B411D0030E1B150001EB6F00
:100A5800000E01011C150001EC6FEB51EC11D8B42C
:100A680004D001011907D8A01A07800E01011DBF83
:100A78007F0E0001EB6F010119511D5D1A51800AAB
:100A88000001EB59D8B008D001011D51195F000EC3
:100A98001DBFFF0E1A5B05D0000E01011A6F000E74
:100AA800196F1BA528D0030E1B150001EB6F000E54
:100AB80001011C150001EC6FEB51EC11D8B408D002
:100AC800BFC0D9FFC0C0DAFF2D0EDF6EBF4BC02BF1
:100AD800010119511A11D8B438D0BFC0D9FFC0C00C
:100AE800DAFF300EDF6E0001BF4BC02B0101190782
:100AF800D8A01A07EED719511A11D8B411D0BFC00F
:100B0800D9FFC0C0DAFF200EDF6E0001BF4BC02B3B
:100B180001011907D8A01A0719511A11D8A4EFD73B
:100B2800030E1B150001EB6F000E01011C150001DF
:100B3800EC6FEB51EC11D8B408D0BFC0D9FFC0C0DE
:100B4800DAFF2D0EDF6EBF4BC02B01011D510A6F5E
:100B58000B6B0ABF0B078CD00AC1EBF00BC1ECF092
:100B68000001D890EB37EC37D890EB37EC37A30E71
:100B7800EB25F66E7C0EEC21F76E0900F5CF64F0DC
:100B88000900F5CF65F00900F5CF66F00A00F5CF4A
:100B980067F012C160F013C161F014C162F015C1B1
:100BA80063F0E3EC22F060C06DF061C06EF062C0EB
:100BB8006FF063C070F00A0E0001716F000E726F63
:100BC800000E736F000E746F0EEC24F000016D516F
:100BD800300F01011D6F43D012C160F013C161F0E5
:100BE80014C162F015C163F00AC1EBF00BC1ECF05F
:100BF8000001D890EB37EC37D890EB37EC37190E6B
:100C0800EB25F66E7D0EEC21F76E0900F5CF64F04A
:100C18000900F5CF65F00900F5CF66F00A00F5CFB9
:100C280067F0E3EC22F0000160510F0B0101036F44
:100C38000351010D050EF324F66E7F0EF420F76EB6
:100C48000800F5CF1DF10BD01B51C00B000AD8B41A
:100C580083D7800AD8B4C0D7400AD8B47DD7BFC0DC
:100C6800D9FFC0C0DAFF1DC1DFFF0001BF4BC02B99
:100C780001010A07D8A00B070A29E6E10B29D8A425
:100C8800E3D7C1C0F6FFC2C0F7FF0001C14BC22BBA
:100C98000800F5CF1DF101011D51D8A410EF00F097
:100CA800BFC0D9FFC0C0DAFF000EDF6E1200000E11
:100CB8000201AE6F969483989598839A959A839C2F
:100CC800959C839E959E000EA96F000EA86FA9BFE4
:100CD80006D0A9511CE1190EA85DD8B018D0010E94
:100CE800AE1BAEB102D0849401D084840D0E0001F5
:100CF800F76F2D0EF66FD70EE82EFED7F62FFCD71E
:100D0800F72FFAD700D00201A84BA92BE0D7000E85
:100D180000016D6FE10E6E6F000E6F6F000E706F49
:100D28004BEC20F081EC13F0C0EC28F0FDEC1EF049
:100D38005CEC26F0A6EC27F0340ECFEC28F054EC4F
:100D480028F060C097F261C098F262C099F263C05F
:100D58009AF2010E0201AE1BAEB102D0849401D00A
:100D6800848403C3AFF2000EF3EC15F09EC0A5F225
:100D78009FC0A6F2A0C0A7F2000E0001836F7A0EF2
:100D8800846F440E856FA5C280F0A6C281F0A7C209
:100D980082F046EC1BF080C0B0F081C0B1F082C098
:100DA800B2F0CAEC1AF0B0C0B0F2B1C0B1F2010EA4
:100DB800F3EC15F09EC0A5F29FC0A6F2A0C0A7F262
:100DC800000E0001836F7A0E846F440E856FA5C2F2
:100DD80080F0A6C281F0A7C282F046EC1BF080C06A
:100DE800B0F081C0B1F082C0B2F0CAEC1AF0B0C065
:100DF800B2F2B1C0B3F2000E0001606F040E75ECE0
:100E080024F00001656F010E35EC1CF065C0B4F2EA
:100E180066C0B5F267C0B6F268C0B7F2010E00014D
:100E2800606F040E75EC24F00001656F020E35EC5E
:100E38001CF065C0B8F266C0B9F267C0BAF268C003
:100E4800BBF2020E0001606F040E75EC24F0000185
:100E5800656F030E35EC1CF065C0BCF266C0BDF2D0
:100E680067C0BEF268C0BFF2030E0001606F040ED7
:100E780075EC24F00001656F040E35EC1CF065C0BC
:100E8800C0F266C0C1F267C0C2F268C0C3F2000E09
:100E98000001606F000E75EC24F00001F66FF63B60
:100EA8008C50F619EF0BF6198C6E030E606F000E5E
:100EB80075EC24F00001F66FF63BF6478C50F619F6
:100EC800DF0BF6198C6E020E606F000E75EC24F0C5
:100ED8000001F66FF63BF647F6478C50F619BF0B44
:100EE800F6198C6E010E606F000E75EC24F000018F
:100EF800F66FF633F6338C50F6197F0BF6198C6EB5
:100F0800060E606F010E75EC24F0E806D8A470D1C7
:100F1800000E0001606F060E75EC24F00001F66FFC
:100F2800010E606F060E75EC24F00001F76FD89083
:100F3800F735F86F020E606F060E75EC24F00001AD
:100F4800F96FD890F937D890F937030E606F060E0D
:100F580075EC24F00001FA6FD890FA37D890FA3778
:100F6800D890FA37040E606F060E75EC24F0000175
:100F7800FB6FFB3BF00EFB17050E606F060E75EC62
:100F880024F00001FC6F050EFD6FD890FC37FD2F93
:100F9800FCD7060E606F060E75EC24F00001FE6F9C
:100FA800060EFF6FD890FE37FF2FFCD7FE51FC11BD
:100FB800FB11FA11F911F811F61102019F6F000ED9
:100FC8000001606F070E75EC24F00001F66F010E4A
:100FD800606F070E75EC24F00001F76FD890F735B5
:100FE800F86F020E606F070E75EC24F00001F96FC0
:100FF800D890F937D890F937030E606F070E75EC63
:1010080024F00001FA6FD890FA37D890FA37D890C0
:10101800FA37040E606F070E75EC24F00001FB6FC1
:10102800FB3BF00EFB17050E606F070E75EC24F006
:101038000001FC6F050EFD6FD890FC37FD2FFCD723
:10104800060E606F070E75EC24F00001FE6F060EA9
:10105800FF6FD890FE37FF2FFCD7FE51FC11FB1114
:10106800FA11F911F811F6110201AA6F000EAB6F0F
:1010780009D0000E0001F16F0201AB51D8EC23F04A
:101088000201AB2BAA51AB5DD8A0F3D79FC2ACF23B
:1010980009D0010E0001F16F0201AC51D8EC23F028
:1010A8000201AC2BAC51AA5DD8B0F3D7010E0001F8
:1010B800606F030E75EC24F0E806D8A490D06B0E90
:1010C8000001F16F7E0EF26FDFEC26F0000E0001DA
:1010D800606F020E75EC24F00001F66F010E606F70
:1010E800020E75EC24F00001F76FD890F735F86F11
:1010F800020E606F020E75EC24F00001F96FD890B3
:10110800F937D890F937030E606F020E75EC24F0AA
:101118000001FA6FD890FA37D890FA37D890FA3594
:10112800F911F811F6110201AD6FADC2F1F000012D
:10113800F26B17EC26F0070E0001606F010E75ECDC
:1011480024F0E806D8A452D0040E0001606F020E05
:1011580075EC24F00001F66F050E606F020E75EC59
:1011680024F00001F76FD890F735F86F060E606F1E
:10117800020E75EC24F00001F96FD890F937D89079
:10118800F937070E606F020E75EC24F00001FA6F54
:10119800D890FA37D890FA37D890FA35F911F8116B
:1011A800F6110201A06FA051BFEC26F0000E00015D
:1011B800606F030E75EC24F00009D8A408D0000E67
:1011C8000001F26F7D0EF16FF4EC25F00FD0010EE7
:1011D8000001F26FF40EF16FF4EC25F007D06F0EFA
:1011E8000001F16F7E0EF26FDFEC26F056EC27F06F
:1011F800030E0001F16FAF0EF26F020EF36F150EC2
:10120800F46F010EC2EC09F00201966FA6EC27F00C
:101218000009D8B452D00201F051D8A44ED0000E23
:101228000001BF6F020EC06F880EC16F7E0EC26FC5
:1012380001C3C3F0C46B03C3C5F0C66B05C3C7F0D5
:10124800C86B07C3C9F0CA6B09C3CBF0CC6B0BC31F
:10125800CDF0CE6B0DC3CFF0D06B0FC3D1F0D26BF6
:1012680011C3D3F0D46B13C3D5F0D66B00C3D7F03A
:10127800D86B02C3D9F0DA6B04C3DBF0DC6B06C3AE
:10128800DDF0DE6B08C3DFF0E06B0AC3E1F0E26B70
:101298000CC3E3F0E46B0EC3E5F0E66B10C3E7F0B4
:1012A800E86B12C3E9F0EA6B09EC00F0000E0001EC
:1012B800606F020E616F85EC25F097C2F6F098C258
:1012C800F7F099C2F8F09AC2F9F00001F61FF71F7B
:1012D800F81FF91FF62B000EF723F823F92354EC17
:1012E80028F00001F65160250201A16F0001F751B5
:1012F80061210201A26F0001F85162210201A36F6E
:101308000001F95163210201A46FA451A31105E161
:10131800300EA15D750EA259D8B011D5A1C2F6F054
:10132800A2C2F7F0A3C2F8F0A4C2F9F00001F61FB8
:10133800F71FF81FF91FF62B000EF723F823F923E0
:10134800300EF62502019B6F750E0001F721020190
:101358009C6F000E0001F82102019D6F000E000134
:10136800F92102019E6F9BC26DF09CC26EF09DC276
:101378006FF09EC270F066EC23F0E1D40101E66FD5
:101388000101E651D8B413D01E0E0001BF6F010E43
:10139800C06FC10EC16F7F0EC26F4B0EC36F7E0E42
:1013A800C46FF1C0C5F0C66B09EC00F012D01E0E78
:1013B8000001BF6F010EC06FC10EC16F7F0EC26FFB
:1013C800330EC36F7E0EC46FF1C0C5F0C66B09EC57
:1013D80000F0000E0101EC6FC6D1EC05D8B404D0C2
:1013E800020EEC19D8A409D0000E0001606F010E9E
:1013F80075EC24F0E806D8B4B4D1030E0101EC1959
:10140800D8B404D0040EEC19D8A409D0010E0001F8
:10141800606F010E75EC24F0E806D8B4A2D1080E6E
:101428000101EC19D8A41CD0020E0001606F010E56
:1014380075EC24F0E806D8B494D1000E0001606F72
:10144800050E75EC24F0E806D8B48BD1010E000126
:10145800606F050E75EC24F0E806D8B482D15CD133
:10146800070E0101EC19D8A410D0020E0001606F1C
:10147800010E75EC24F0E806D8B473D1010E000112
:10148800606F050E75EC24F0E7D7060E0101EC1924
:10149800D8A419D0020E0001606F010E75EC24F07B
:1014A800E806D8B45ED1000E0001606F050E75EC39
:1014B80024F0E806D8A430D1010E0001606F050EB3
:1014C80075EC24F0C9D7050E0101EC19D8A409D090
:1014D800020E0001606F010E75EC24F0E806D8B426
:1014E80040D10C0E0101EC19D8A419D0030E00014B
:1014F800606F010E75EC24F0E806D8B432D1020E04
:101508000001606F050E75EC24F0E806D8B429D107
:10151800030E0001606F050E75EC24F09DD70B0ECD
:101528000101EC19D8A410D0030E0001606F010E60
:1015380075EC24F0E806D8B414D1030E0001606FEE
:10154800050E75EC24F088D70A0E0101EC19D8A411
:1015580019D0030E0001606F010E75EC24F0E80647
:10156800D8B4FFD0020E0001606F050E75EC24F0B0
:10157800E806D8A4D1D0030E0001606F050E75EC03
:1015880024F06AD7090E0101EC19D8A409D0030E7A
:101598000001606F010E75EC24F0E806D8B4E1D0C4
:1015A800100E0101EC19D8A419D0040E0001606FC7
:1015B800010E75EC24F0E806D8B4D3D0040E00016F
:1015C800606F050E75EC24F0E806D8B4CAD0050E95
:1015D8000001606F050E75EC24F03ED70F0E010177
:1015E800EC19D8A410D0040E0001606F010E75EC40
:1015F80024F0E806D8B4B5D0050E0001606F050EDA
:1016080075EC24F029D70E0E0101EC19D8A419D0D5
:10161800040E0001606F010E75EC24F0E806D8B4E2
:10162800A0D0040E0001606F050E75EC24F0E806EA
:10163800D8A472D0050E0001606F050E75EC24F079
:101648000BD70D0E0101EC19D8A409D0040E000126
:10165800606F010E75EC24F0E806D8B482D0140E41
:101668000101EC19D8A419D0050E0001606F010E14
:1016780075EC24F0E806D8B474D0060E0001606F4B
:10168800050E75EC24F0E806D8B46BD0070E0001FF
:10169800606F050E75EC24F0DFD6130E0101EC190E
:1016A800D8A410D0050E0001606F010E75EC24F06F
:1016B800E806D8B456D0070E0001606F050E75EC29
:1016C80024F0CAD6120E0101EC19D8A419D0050EBF
:1016D8000001606F010E75EC24F0E806D8B441D023
:1016E800060E0001606F050E75EC24F0E806D8A41C
:1016F80013D0070E0001606F050E75EC24F0ACD610
:10170800110E0101EC19D8A407D0050E0001606F75
:10171800010E75EC24F0A0D6E80E0001BF6F010E93
:10172800C06FF00EC16F7F0EC26F0101EC51010D49
:10173800F3500001F225D96EF450F321DA6EDF5030
:10174800F56FF551C36FC46B09EC00F01E0E000174
:10175800606F010E616FE80E626F010E636FD1EC6E
:1017680025F00101EC2B0001F4510101EC5DD8A03A
:1017780034D61E0E00017C6F010E7D6F000E7E6F49
:101788004AEC19F00101E76F15D053EC1FF0090A74
:10179800D8A402D0010E1200000E120039EC27F076
:1017A80002D02EEC28F00009D8A4E3D7000E1200CE
:1017B800000E12000101E751000AD8B4E6D7020A68
:1017C800D8B4ECD7070AD8B4E9D7030AD8B4E9D70C
:1017D800EFD70001956F000195AF0CD1956D95512C
:1017E800800A120FD8A097D0000E716F030E706F89
:1017F800000E696F0A0E686F000E636F640E626FE9
:101808009551606F616B60BF61079FEC23F060C00A
:1018180066F061C067F05DEC22F0090E00016625F4
:101828006E6F000E67216F6F1AEC28F0F20E000140
:101838006E25F66E7C0E6F21F76E0900F5CF83F0EA
:101848000900F5CF84F00A00F5CF85F0000E696F26
:10185800640E686F9551666F676B66BF67075DECCE
:1018680022F0120E000166256E6F000E67216F6F61
:10187800000E716F030E706F1AEC28F0F20E000163
:101888006E25F66E7C0E6F21F76E0900F5CF80F09D
:101898000900F5CF81F00A00F5CF82F046EC1BF085
:1018A80080C092F081C093F082C094F092C080F022
:1018B80093C081F094C082F0000E0001716F030E96
:1018C800706F000E636F0A0E626F9551606F616BE7
:1018D80060BF61079FEC23F060C06EF061C06FF0DD
:1018E8001AEC28F0F20E00016E25F66E7C0E6F21C0
:1018F800F76E0900F5CF83F00900F5CF84F00A00F0
:10190800F5CF85F046EC1BF080C08FF081C090F0D9
:1019180082C091F0120000019551800A750FD8A07D
:1019280056D0000E696F0A0E686F9551666F676B27
:1019380066BF67075DEC22F0090E000166256E6F31
:10194800000E67216F6F000E716F030E706F1AEC37
:1019580028F0F20E00016E25F66E7C0E6F21F76EF0
:101968000900F5CF80F00900F5CF81F00A00F5CF26
:1019780082F0000E716F030E706F000E636F0A0E17
:10198800626F9551606F616B60BF61079FEC23F0D8
:1019980060C06EF061C06FF01AEC28F0F20E000122
:1019A8006E25F66E7C0E6F21F76E0900F5CF83F079
:1019B8000900F5CF84F00A00F5CF85F046EC1BF05E
:1019C80080C08FF081C090F082C091F012000001B9
:1019D8009551030DF20EF324F66E7C0EF420F76E8B
:1019E8000900F5CF8FF00900F5CF90F00A00F5CF88
:1019F80091F012009551800A120FD8A097D0000ECE
:101A0800716F030E706F000E696F0A0E686F000E1B
:101A1800636F640E626F9551606F616B60BF6107A1
:101A28009FEC23F060C066F061C067F05DEC22F0C7
:101A3800090E000166256E6F000E67216F6F1AECA4
:101A480028F0CB0E00016E25F66E7C0E6F21F76E26
:101A58000900F5CF83F00900F5CF84F00A00F5CF2F
:101A680085F0000E696F640E686F9551666F676B3D
:101A780066BF67075DEC22F0120E000166256E6FE7
:101A8800000E67216F6F000E716F030E706F1AECF6
:101A980028F0CB0E00016E25F66E7C0E6F21F76ED6
:101AA8000900F5CF80F00900F5CF81F00A00F5CFE5
:101AB80082F046EC1BF080C092F081C093F082C0A7
:101AC80094F092C080F093C081F094C082F0000E30
:101AD8000001716F030E706F000E636F0A0E626F64
:101AE8009551606F616B60BF61079FEC23F060C028
:101AF8006EF061C06FF01AEC28F0CB0E00016E2575
:101B0800F66E7C0E6F21F76E0900F5CF83F00900A1
:101B1800F5CF84F00A00F5CF85F046EC1BF080C0C5
:101B28008FF081C090F082C091F0120000019551B1
:101B3800800A750FD8A056D0000E696F0A0E686F1C
:101B48009551666F676B66BF67075DEC22F0090EFB
:101B5800000166256E6F000E67216F6F000E716FB2
:101B6800030E706F1AEC28F0CB0E00016E25F66E8E
:101B78007C0E6F21F76E0900F5CF80F00900F5CFD4
:101B880081F00A00F5CF82F0000E716F030E706FBE
:101B9800000E636F0A0E626F9551606F616B60BFD4
:101BA80061079FEC23F060C06EF061C06FF01AEC23
:101BB80028F0CB0E00016E25F66E7C0E6F21F76EB5
:101BC8000900F5CF83F00900F5CF84F00A00F5CFBE
:101BD80085F046EC1BF080C08FF081C090F082C089
:101BE80091F0120000019551030DCB0EF324F66E0F
:101BF8007C0EF420F76E0900F5CF8FF00900F5CFC1
:101C080090F00A00F5CF91F01200106E5A50010DB5
:101C1800400EF324D96E040EF420DA6E10C0DFFFF4
:101C28005A2A0A0E1018D8A431D1020E5A642ED19D
:101C38005A50010D400EF324D96E040EF420DA6ECA
:101C4800000EDF6E000E016E070E026E400E036E70
:101C5800040E046ED6EC27F0FE0E0A6EFF0E0B6E15
:101C68005A500C6E0D6A0A500C260B500D22400E6D
:101C78000C24D96E040E0D20DA6E000EDF6E000EF5
:101C88005A6E0F0E0E6E0101FE69000E116E1CD009
:101C9800400E016E040E026E1150020DB50EF324B3
:101CA800D96E030EF420DA6EDECF03F0DDCF04F038
:101CB800ADEC25F001500210D8A405D011C0FEF1FA
:101CC800010E596E1200112A0E50115CD8A0E0D7EF
:101CD800D3C301F0D4C302F05CEC25F00150126EBE
:101CE800400E016E040E026ED3C303F0D4C304F099
:101CF80012C005F0066A25EC23F001500210D8A4A2
:101D080006D00F0E0101FE6F010E596E1200C9C3F5
:101D180001F0CAC302F05CEC25F00150126E400ECF
:101D2800016E040E026EC9C303F0CAC304F012C0E8
:101D380005F0066A25EC23F001500210D8A4A6D0BD
:101D480012C013F0000E0F6E27D01350010D400E75
:101D5800F324D96E040EF420DA6E2F0EDF642BD034
:101D68001350010D400EF324D96E040EF420DA6EE0
:101D7800390EDF6401D01FD00A0E0F02F3500F6E28
:101D88001350010D400EF324D96E040EF420DA6EC0
:101D9800DF50D00F0F26132A400E016E040E026E7C
:101DA8005CEC25F013500A6E0B6A01500A5C025075
:101DB8000B58D8A0CAD7132A38D05B50020D000E92
:101DC800F324D96E030EF420DA6E0FC0DFFF5B50E8
:101DD800020D010EF326000EF422000EF324D96E34
:101DE800030EF420DA6E13500A6E0B6A010E0A26EF
:101DF800000E0B22400E0A24E16E040E0B20E26E48
:101E0800E750026E1350010D400EF324E16E040EEC
:101E1800F420E26EE750A0EC22F0DF6E5B2A090E98
:101E28005B6401D01200020E1326400E016E040EF0
:101E3800026E5CEC25F013500A6E0B6A01500A5CC6
:101E480002500B58D8A0B9D7400E016E040E026E8E
:101E58005CEC25F013500A6E0B6A01500A5C0250C4
:101E68000B58D8B010D012D05B50020D010EF326DB
:101E7800000EF422000EF324D96E030EF420DA6E5D
:101E8800000EDF6E5B2A0A0E5B64EED7640E5A60A2
:101E980004D00A0E1018D8A41200000E5A6E1200B0
:101EA80004013205D8A40FD030511F0B0009D8A463
:101EB8000AD0438E030E3119D8A402D0010E01D0E6
:101EC800000E0101FD6F04013251D8A412003051F7
:101ED8001F0B020AD8A4120034510F0B0009D8B402
:101EE800120034510F0B156E030E15601200200EF0
:101EF8005818D8A41200438E34BF19D034510F0B90
:101F0800156E1550020DC40EF324D96E020EF4207E
:101F1800DA6EDECF19F0DDCF1AF034510F0B156EE3
:101F28001550010DD80EF324D96E020E18D0345175
:101F38000F0B156E1550020D460EF324D96E000EC8
:101F4800F420DA6EDECF19F0DDCF1AF034510F0B22
:101F5800156E1550010DDB0EF324D96E020EF42018
:101F6800DA6EDF50186E18B006D0FB0E1914196E11
:101F7800FF0E1A1404D0040E1910196E1A501A6E96
:101F880034BF0AD034510F0B156E1550020DC40E14
:101F9800F324D96E020E09D034510F0B156E15506B
:101FA800020D460EF324D96E000EF420DA6E19C025
:101FB800DEFF1AC0DDFF030E3119D8A42DD019C0D9
:101FC800D9FF1AC0DAFFDFAE1AD034BF0AD03451B5
:101FD8000F0B156E1550010DD80EF324D96E020E95
:101FE8000AD0040134510F0B156E1550010DDB0E8C
:101FF800F324D96E020EF420DA6E0201DF8219C0D2
:10200800D9FF1AC0DAFF000EDB8419C0D9FF1AC045
:10201800DAFF000EDB8E1200040E1918196E1A5022
:102028001A6E19C0D9FF1AC0DAFFDFAE1BD019C06B
:10203800D9FF1AC0DAFF7F0EDF1619C0D9FF1AC000
:10204800DAFF000EDB8C000E0E6E050E0D6E19C049
:102058000FF01AC010F0000E126E020E116E03EC93
:1020680025F006D019C0D9FF1AC0DAFF000EDB8CA4
:10207800040E1918196E1A501A6E18B206D019C023
:10208800D9FF1AC0DAFFDFAE30D0040134BF0AD05E
:1020980034510F0B156E1550010DD80EF324D96E5F
:1020A800020E0AD0040134510F0B156E1550010DA4
:1020B800DB0EF324D96E020EF420DA6E0201DF92F1
:1020C80019C0D9FF1AC0DAFF3B0EDF16000E0E6EDC
:1020D800050E0D6E19C00FF01AC010F0000E126E2A
:1020E800020E116E03EC25F006D019C0D9FF1AC0F4
:1020F800DAFF3B0EDF16040134510F0B156E155035
:10210800010D700EF324166E0F0EF420176E16C014
:10211800D9FF17C0DAFFFE0EDF1612000001986F14
:102128006D0E00019865A6D0000E716F030E706FDA
:10213800000E696F0A0E686F000E636F640E626F9F
:1021480098C060F0616B9FEC23F060C066F061C0DE
:1021580067F05DEC22F0090E000166256E6F000E37
:1021680067216F6F1AEC28F0F20E00016E25F66EEB
:102178007C0E6F21F76E0900F5CF83F00900F5CFCB
:1021880084F00A00F5CF85F0000E696F640E686F61
:1021980098C066F0676B5DEC22F0120E00016625B0
:1021A8006E6F000E67216F6F000E716F030E706FF8
:1021B8001AEC28F0F20E00016E25F66E7C0E6F21E7
:1021C800F76E0900F5CF80F00900F5CF81F00A001D
:1021D800F5CF82F046EC1BF080C095F081C096F0F8
:1021E80082C097F0000E0001716F030E706F000E31
:1021F800636F0A0E626F98C060F0616B9FEC23F00A
:1022080060C06EF061C06FF01AEC28F0F20E0001A9
:102218006E25F66E7C0E6F21F76E0900F5CF83F000
:102228000900F5CF84F00A00F5CF85F095C080F05D
:1022380096C081F097C082F046EC1BF080C092F007
:1022480081C093F082C094F092C080F093C081F076
:1022580094C082F0000E0001836F000E846F3F0E61
:10226800856F46EC1BF080C08FF081C090F082C073
:1022780091F012000A0E0001986567D0000E716F88
:10228800030E706F000E636F0A0E626F98C060F0E5
:10229800616B9FEC23F060C06EF061C06FF01AECC8
:1022A80028F0F20E00016E25F66E7C0E6F21F76E97
:1022B8000900F5CF83F00900F5CF84F00A00F5CFC7
:1022C80085F0000E696F0A0E686F98C066F0676B3C
:1022D8005DEC22F0090E000166256E6F000E672185
:1022E8006F6F000E716F030E706F1AEC28F0F20E0C
:1022F80000016E25F66E7C0E6F21F76E0900F5CF92
:1023080080F00900F5CF81F00A00F5CF82F046ECA5
:102318001BF080C095F081C096F082C097F095C000
:1023280080F096C081F097C082F0000E0001836FA4
:10233800000E846F3F0E856F46EC1BF080C08FF057
:1023480081C090F082C091F0120000019851030DF5
:10235800F20EF324F66E7C0EF420F76E0900F5CF2A
:1023680080F00900F5CF81F00A00F5CF82F0000E69
:10237800836F000E846F3F0E856F46EC1BF080C0A4
:102388008FF081C090F082C091F012000600FACF61
:102398001EF0FBCF1FF0E9CF20F0EACF21F0E1CF0C
:1023A80022F0E2CF23F0D9CF24F0DACF25F0F3CF13
:1023B80026F0F4CF27F0F6CF28F0F7CF29F0F8CFA2
:1023C8002AF0F5CF2BF05FC02CF060C02DF061C073
:1023D8002EF062C02FF09EB49DA487D09E94010E6B
:1023E80003012A27000E2B232C232D2383A003D09F
:1023F8001D6A1D2A01D01D6A1D50306E316A83A2E4
:1024080003D01D6A1D2A01D01D6A1D50326E336A21
:1024180083A403D01D6A1D2A01D01D6A1D50346E85
:10242800356A83A603D01D6A1D2A01D01D6A1D5076
:10243800366E376A30500201E81904E13150E91963
:10244800D8B40AD030043110D8A406D0010ECE2753
:10245800000ECF23D023D12330C0E8F231C0E9F2F7
:102468003250E61904E13350E719D8B40BD03204DE
:102478003310D8A407D0010E03013627000E3723E6
:102488003823392332C0E6F233C0E7F23450020170
:10249800E41904E13550E519D8B40BD034043510EB
:1024A800D8A407D0010E03013227000E33233423AA
:1024B800352334C0E4F235C0E5F236500201E219A2
:1024C80004E13750E319D8B40BD036043710D8A438
:1024D80007D0010E03012E27000E2F2330233123AE
:1024E80036C0E2F237C0E3F20BD09DBA9EAA05D0FF
:1024F80067EC28F009EC0EF003D0A0BA5CEC15F0FC
:102508002FC062F02EC061F02DC060F02CC05FF0CB
:102518002BC0F5FF2AC0F8FF29C0F7FF28C0F6FF37
:1025280027C0F4FF26C0F3FF25C0DAFF24C0D9FF77
:1025380023C0E2FF22C0E1FF21C0EAFF20C0E9FF7B
:102548001FC0FBFF1EC0FAFF5F92110076C07AF031
:1025580000017B6B7C6B75357A3701E37B817A519F
:102568007F6F79C07AF07B6B7C6B78357A3701E3C3
:102578007B817A517E6F7F51D8B40BD07E517F5DBD
:10258800D8B00ED07F5100087E257A6F180E7A6574
:1025980007D077C074F078C075F079C076F0120073
:1025A8007E51D8B40BD07F517E5DD8B00ED07E510D
:1025B80000087F257A6F180E7A6507D074C074F00A
:1025C80075C075F076C076F01200060E7D6F76BF86
:1025D8007D8F79BF7D8D758FFF0E7417FF0E751770
:1025E800000E7617788FFF0E7717FF0E7817000EFC
:1025F80079177E517F5DD8B01BD0D8907737783760
:1026080079377E077F517E19D8B40DD07D077DC0FC
:102618007AF0070E7A17D8B406D0EFD7D890763369
:10262800753374337F2B7E517F19D8B41FD0F6D7FA
:102638007F517E5DD8B01AD0D89074377537763709
:102648007F077F517E19D8B40DD07D077DC07AF001
:10265800070E7A17D8B406D0EFD7D89079337833E5
:1026680077337E2B7E517F19D8A4F7D77DAF0CD056
:10267800FF0E741BFF0E751BFF0E761B010E7427D1
:10268800000E7523000E76237DAD0CD0FF0E771B50
:10269800FF0E781BFF0E791B010E7727000E78239B
:1026A800000E7923000E7D6F7451772775517823BA
:1026B8007651792379AF0ED0FF0E771BFF0E781B6A
:1026C800FF0E791B010E7727000E7823000E792361
:1026D800010E7D6F77C060F078C061F079C062F05C
:1026E8007FC063F07DC064F0A5EC1EF060C074F09C
:1026F80061C075F062C076F01200A09A000E6A6E92
:10270800000E686E000E706E710E0001606F0F0E85
:10271800616F000E636F000E626F000E656F020E30
:10272800646FBEEC27F0160E6F6E9F0E6B6E7B0EFD
:10273800696E000E0001686F0B0E686501D00ED03F
:102748006851040D000EF324D96E040EF420DA6EDD
:10275800DE6ADE6ADE6ADD6A682BEED76D8C000EF3
:102768006E6E6D986D9C6896000E436E000E3B6E03
:10277800000E3D6E000E3C6E68B6F5D7010E0101E5
:10278800FA6F010EF96F000EF86F000EF76F000E6A
:10279800FC6F000E0001686F020E686501D02ED034
:1027A8006851020D460EF324D96E000EF420DA6E3D
:1027B800000EDE6E000EDD6E6851020DC40EF324AD
:1027C800D96E020EF420DA6E000EDE6E000EDD6E9B
:1027D8006851010DDB0EF324D96E020EF420DA6E77
:1027E800000EDF6E6851010DD80EF324D96E020E6B
:1027F800F420DA6E000EDF6E682BCED7080E466E18
:10280800040E476E160E706E040E0401036F300E30
:10281800026F080E016F040E006F008F000E5E6ECF
:10282800000E0201CA6F000ECB6F000ECC6F000EB7
:10283800CD6F000E0101F66F000E586E1200A09ABF
:10284800000E6A6E000E686E000E706E710E016EDC
:102858000F0E026E000E046E000E036E000E066E62
:10286800020E056E04EC28F0160E6F6E9F0E6B6E4E
:102878007B0E696E000E096E0B0E096401D00ED036
:102888000950040D000EF324D96E040EF420DA6EFC
:10289800DE6ADE6ADE6ADD6A092AEED76D8C000E12
:1028A8006E6E6D986D9C6896000E436E000E3B6EC2
:1028B800000E3D6E000E3C6E68B6F5D7010E0101A4
:1028C800FA6F010EF96F000EF86F000EF76F000E29
:1028D800FC6F000E096E020E096401D02ED009505B
:1028E800020D460EF324D96E000EF420DA6E000EA7
:1028F800DE6E000EDD6E0950020DC40EF324D96E93
:10290800020EF420DA6E000EDE6E000EDD6E095047
:10291800010DDB0EF324D96E020EF420DA6E000EE0
:10292800DF6E0950010DD80EF324D96E020EF42083
:10293800DA6E000EDF6E092ACED7080E466E040E38
:10294800476E160E706E040E0401036F300E026F90
:10295800080E016F040E006F008F000E5E6E000EF1
:102968000201CA6F000ECB6F000ECC6F000ECD6F48
:10297800000E0101F66F000E586E120062C066F07C
:102988000001676B686B6135663701E367816651E3
:102998006E6F6E51D8A409D0000E606F000E616F83
:1029A800000E626F000E636F120065C066F0676B01
:1029B800686B6435663701E3678166516D6F6D51E9
:1029C800D8A409D0000E606F000E616F000E626F10
:1029D800000E636F1200618FFF0E6017FF0E611704
:1029E800000E6217648FFF0E6317FF0E6417000E48
:1029F8006517000E696F000E6A6F000E6B6F000E90
:102A08006C6F7F0E6E5F6D51980F6E5F180E6D6F55
:102A1800D89069376A376B376C376351605D64519A
:102A2800615965516259D8A007D06351605F6451FC
:102A3800615B6551625B6981D89060376137623745
:102A48006D2FE6D76EAF16D06E51800A970FD8B0AB
:102A580009D0000E606F000E616F000E626F000EED
:102A6800636F1200D8906C336B336A3369336E3FEF
:102A7800F9D715D0170E6E650FD0000E606F000ED7
:102A8800616F000E626F000E636F1200D890693795
:102A98006A376B376C376E076E51D8A4F7D769C0A1
:102AA80060F06AC061F06BC062F06CC063F0120045
:102AB8005804D8B46DBA06D0000E686E698069886B
:102AC800020E586E68B469A403D0689471EC27F0BC
:102AD8006DA202D0A19A120068B069A006D023ECBA
:102AE80014F0A08A040E586E689068B869A802D0DD
:102AF800EDEC27F068AC1AD069AC0ED0000E0E6E63
:102B0800730E0D6E000E0F6E000E106E000E126E1C
:102B1800010E116E03EC25F0689C8BEC28F05450E4
:102B2800D8A454065450D8B4E5EC1DF068BA69AA84
:102B380002D09EEC26F068B269A20FD07F0E0E6E0E
:102B48000D68000E0F6E000E106E000E126E010E54
:102B5800116E03EC25F0000E6A6E040E586002D068
:102B6800A19A120069A639D0000E1C6E030E1C64CF
:102B780001D033D068A631D06CCF5DF05D30E8323B
:102B8800E8320F0B556E68965DB407D05550010DAD
:102B9800D80EF324D96E020E06D05550010DDB0E67
:102BA800F324D96E020EF420DA6E0201DF7055505C
:102BB800D8A403D037EC21F00ED0000E0E6E720EA2
:102BC8000D6E5D0E0F6E000E106E000E126E000E72
:102BD800116E03EC25F01C2AC9D7A19A1200000136
:102BE800A96F0001A951D8A402D0010EC26EA9058F
:102BF800D8A402D0050EC26E000EAF6F000EAE6FE5
:102C0800000EAD6F000EAC6FADBF06D0AD5119E12F
:102C1800200EAC5DD8B015D0C28200F0C2B2FED78B
:102C2800C4CFAAF00001AB6BAA51A16FC350AA6F21
:102C3800A1C0ABF0AA51AE27AB51AF23AC4BAD2B23
:102C4800E3D7050EA16FD890AF33AE33A12FFBD7D2
:102C5800AE51AF11D8A407D0000EA66F000EA76F13
:102C6800000EA86F4BD0000E926F440E936F440E67
:102C7800946F000E836F800E846F410E856F000E77
:102C8800776F430E786FC30E796FAEC068F0AFC030
:102C980069F01CEC27F068C074F069C075F06AC070
:102CA80076F0AAEC12F074C080F075C081F076C09E
:102CB80082F046EC1BF080C08FF081C090F082C09B
:102CC80091F0C1EC1BF08FC0A3F090C0A4F091C0AC
:102CD800A5F0A3C074F0A4C075F0A5C076F0000EEE
:102CE8000001776F800E786F400E796FAAEC12F0B2
:102CF80074C0A6F075C0A7F076C0A8F0A6C09EF074
:102D0800A7C09FF0A8C0A0F01200A09A0201DE514F
:102D1800DF11D8B408D0DEC2D9FFDFC2DAFFDFAED8
:102D280002D0A08A1200030EF019D8A402D0000E17
:102D3800F06FF051D8A402D0A08A1200020EF01948
:102D4800D8A414D0010E0001606F000E616F000E50
:102D5800626F000E636F020EC7EC18F060C0DEF2FF
:102D680061C0DFF2030E0201F06F63D0F005D8A452
:102D780060D0400E526404D0400E00016C6F02D047
:102D880052C06CF000016C5100085224526E000EC3
:102D98000201D26F050ED36F6CC06BF0EF51D8B43F
:102DA80012D027D0D5C2D9FFD6C2DAFFD2C2E1FFEE
:102DB800D3C2E2FFDFCFE7FF0201D24BD32BD54BC3
:102DC800D62B00016B0700016B51D8B416D0EAD797
:102DD800D5C2D9FFD6C2DAFFD2C2E1FFD3C2E2FF21
:102DE800DFCFE7FF0201D24BD32BD54BD62B000107
:102DF8006B0700016B51D8A4EBD75250D8A409D067
:102E0800400E6C19D8A402D0020E01D0030E0201A4
:102E1800F06F010E0001606F000E616F050E626FAA
:102E28006CC063F0020EC7EC18F060C0DEF261C03F
:102E3800DFF2A08A12000001623563356B6F6B51B7
:102E4800D8A409D0000E606F000E616F000E626F8B
:102E5800000E636F1200653566356A6F6A51D8A433
:102E680009D0000E606F000E616F000E626F000ED9
:102E7800636F1200628FFF0E6017FF0E6117FF0E5F
:102E88006217000E6317658FFF0E6317FF0E641736
:102E9800FF0E6517000E6617000E666F000E676F4F
:102EA800000E686F000E696F7F0E6B5F6A51A00F8E
:102EB8006B5F200E6A6FD890663767376837693757
:102EC8006351605D64516159655162596651635936
:102ED800D8A009D06351605F6451615B6551625B42
:102EE8006651635B6681D8906037613762376337B4
:102EF8006A2FE1D76BAF16D06B51800A9F0FD8B0FD
:102F080009D0000E606F000E616F000E626F000E38
:102F1800636F1200D89069336833673366336B3F49
:102F2800F9D715D01F0E6B650FD0000E606F000E1D
:102F3800616F000E626F000E636F1200D8906637E3
:102F48006737683769376B076B51D8A4F7D766C0FE
:102F580060F067C061F068C062F069C063F0120099
:102F6800800E04013019D8A41200C00E436E79D027
:102F7800EC0E406E7D0E416E000E456E120E446ED4
:102F880012003251D8A43DD03251020D3F0EF32425
:102F9800F66E7D0EF420F76E0900F5CF40F00A00BA
:102FA800F5CF41F0020E4024016E000E4120026E62
:102FB80001C0F6FF02C0F7FFF86A070EF76403D0F6
:102FC8000800F55005D0F6CFE9FFF7CFEAFFEF503C
:102FD800446E030E4024016E000E4120026E01C0B3
:102FE800F6FF02C0F7FFF86A070EF76403D008007F
:102FF800F55005D0F6CFE9FFF7CFEAFFEF50456E61
:103008001200000E436E1200030E0401326123D039
:103018003251020D390EF324F66E7D0EF420F76E50
:103028000900F5CF40F00A00F5CF41F040C0F6FFA7
:1030380041C0F7FFF86A070EF76403D00800F5509F
:1030480005D0F6CFE9FFF7CFEAFFEF50016E015048
:10305800446E456A1200000E436E1200000E436E65
:10306800120004013351010AD8B482D7030AD8B434
:1030780088D7010AD8B4C8D7F1D720EE01F050504C
:10308800D9265150DA22DF50026E02503C5C000E05
:103098003D58D8A03CC002F002503C5E000E3D5A9C
:1030A800000E016E11D00150010D380EF324D96EB7
:1030B800040EF420DA6E38C0E1FF39C0E2FFDFCF3A
:1030C800E7FF384A392A012A0250015CD8A0EBD719
:1030D8003C503D10D8B432D020EE01F04E50D926E5
:1030E8004F50DA22080EDF6E20EE02F04E50D9263D
:1030F8004F50DA22380EDE6E040EDD6E50C0D9FF56
:1031080051C0DAFFDFBC0DD04EC0D9FF4FC0DAFF87
:10311800480EDF6E4EC0D9FF4FC0DAFF000EDB8EBF
:1031280012004EC0D9FF4FC0DAFF080EDF6E4EC046
:10313800D9FF4FC0DAFF000EDB8E120020EE01F03F
:103148004E50D9264F50DA22080EDF6E20EE02F0DC
:103158004E50D9264F50DA22300EDE6E040EDD6E48
:103168004EC0D9FF4FC0DAFF040EDF6E4EC0D9FF44
:103178004FC0DAFF000EDB8E3B9E5350D8A41200DE
:10318800E5EC1DF012000001686F00016051D8B431
:1031980007D06851020D460EF324D96E000E06D0F2
:1031A8006851020DC40EF324D96E020EF420DA6EB3
:1031B800DECF69F0DDCF6AF069516A11D8A405D075
:1031C800000E606F000E616F120020EE02F0695170
:1031D800D9266A51DA2261C0DEFF62C0DDFF20EE27
:1031E80001F06951D9266A51DA2263C0DFFF69C04C
:1031F800D9FF6AC0DAFF400EDF1669C0D9FF6AC07E
:10320800DAFF000EDB8669C0D9FF6AC0DAFF000E5C
:10321800DB8E6051D8B418D06851020D460EF324E5
:10322800D96E000EF420DA6EDECF64F0DDCF65F0E3
:10323800040E6419666F6551676F6851020D460E7A
:10324800F324D96E000E17D06851020DC40EF32472
:10325800D96E020EF420DA6EDECF64F0DDCF65F0B1
:10326800040E6419666F6551676F6851020DC40ECC
:10327800F324D96E020EF420DA6E66C0DEFF67C052
:10328800DDFF69C060F06AC061F01200ABEC28F0A5
:1032980041D0000E0001826F000E816F0DD0620ECA
:1032A8008125F66E7E0E8221F76E0800F550CFEC70
:1032B80028F00001814B822B620E606F7E0E616FD9
:1032C80031EC25F000016051815D61518259D8B01F
:1032D80029D0E5D7000E846F000E836F0DD0580EED
:1032E8008325F66E7E0E8421F76E0800F550CFEC2C
:1032F80028F00001834B842B580E606F7E0E616F9F
:1033080031EC25F000016051835D61518459D8B0DA
:1033180009D0E5D700017E51000AD8B4BAD7010A0E
:10332800D8B4D8D7000E866F000E856F1BD0855194
:103338007C257F6F86517D21806F7FC0F6FF80C01E
:10334800F7FFF86A070EF76403D00800F55005D0B8
:10335800F6CFE9FFF7CFEAFFEF50CFEC28F00001F6
:10336800854B862B7CC060F07DC061F031EC25F088
:1033780000016051855D61518659D8A0D8D70D0EDE
:10338800CFEC28F00A0ECFEC28F053EC1FF0120017
:10339800096E0150D8B407D00950020D460EF32427
:1033A800D96E000E06D00950020DC40EF324D96E52
:1033B800020EF420DA6EDECF0AF0DDCF0BF00A50F1
:1033C8000B10D8A405D0000E016E000E026E12007C
:1033D80020EE02F00A50D9260B50DA2202C0DEFF96
:1033E80003C0DDFF20EE01F00A50D9260B50DA2287
:1033F80004C0DFFF0AC0D9FF0BC0DAFF400EDF169A
:103408000AC0D9FF0BC0DAFF000EDB860AC0D9FF5D
:103418000BC0DAFF000EDB8E0150D8B418D009506B
:10342800020D460EF324D96E000EF420DA6EDECFBC
:1034380005F0DDCF06F0040E0518076E0650086E7D
:103448000950020D460EF324D96E000E17D009500C
:10345800020DC40EF324D96E020EF420DA6EDECF0C
:1034680005F0DDCF06F0040E0518076E0650086E4D
:103478000950020DC40EF324D96E020EF420DA6E40
:1034880007C0DEFF08C0DDFF0AC001F00BC002F074
:1034980012006D9843BE3AD03BAE0DD0020E566E68
:1034A8000101F751D8B4EBEC20F0000E0101F96FDF
:1034B800000EFA6F120020EE01F04E50D9264F5040
:1034C800DA22080EDF6E20EE02F04E50D9264F5059
:1034D800DA22300EDE6E040EDD6E4EC0D9FF4FC00C
:1034E800DAFF0C0EDF6E4EC0D9FF4FC0DAFF000EB8
:1034F800DB8E46C0D9FF47C0DAFF040EDF6E46C038
:10350800D9FF47C0DAFF000EDB8E1200040130AF8E
:1035180012D0010E566E0101F851D8B4EBEC20F030
:10352800000E0101F96F000EFA6F5350D8A4120073
:10353800E5EC1DF01200020E566E20EE01F04E5022
:10354800D9264F50DA22080EDF6E20EE02F04E50D8
:10355800D9264F50DA22300EDE6E040EDD6E4EC0D4
:10356800D9FF4FC0DAFF040EDF6E4EC0D9FF4FC03F
:10357800DAFF000EDB8E000E0101F96F000EFA6F04
:103588005350D8A41200E5EC1DF01200B2C0B4F0FC
:103598000001B56BB66BB135B43701E3B581B451F1
:1035A800BE6FBE51D8A409D0000EB06F000EB16F27
:1035B800000EB26F000EB36F1200170EB46FB0C0DA
:1035C800B5F0B1C0B6F0B2C0B7F0B429B86F04D046
:1035D800D890B733B633B533B82FFAD70001B55101
:1035E800B96FB18FFF0EB017FF0EB117000EB217EB
:1035F800B051BA6FB151BB6FB251BC6FBD6B8E0E7B
:10360800BE5FBEAF16D0BE51800A8F0FD8B009D0AA
:10361800000EB06F000EB16F000EB26F000EB36FE8
:103628001200D890BD33BC33BB33BA33BE3FF9D791
:1036380015D0170EBE650FD0000EB06F000EB16F1B
:10364800000EB26F000EB36F1200D890BA37BB37B6
:10365800BC37BD37BE07BE51D8A4F7D7B951D8B4C7
:1036680008D0BD1FBC1FBB1FBA6D000EBB23BC23F7
:10367800BD23BAC0B0F0BBC0B1F0BCC0B2F0BDC091
:10368800B3F0120082C086F00001876B886B813529
:10369800863701E387818651896F8951D8A407D07D
:1036A800000E806F000E816F000E826F120085C0C1
:1036B80086F0876B886B8435863701E3878186516E
:1036C8008E6F8E51D8A407D0000E806F000E816FC8
:1036D800000E826F12008E517B0F892782C08EF0F8
:1036E80085518E1B800E8E17818F848FFF0E831756
:1036F800FF0E8417000E8517000E8A6F000E8B6F61
:10370800000E8C6F070E8D6F80A106D083518A271B
:1037180084518B2385518C23D89082338133803315
:10372800D8908337843785378D2FEED7090E8D6F64
:1037380080A106D083518A2784518B2385518C23FD
:10374800D890823381338033D8908C338B338A334B
:103758008D2FEED78AC060F08BC061F08CC062F00C
:1037680089C063F08EC064F0A5EC1EF060C080F0E4
:1037780061C081F062C082F0120091C095F0000132
:10378800966B976B9035953701E3968195519C6FB1
:103798009C51D8A407D0000E8F6F000E906F000EBA
:1037A800916F120094C095F0966B976B933595378F
:1037B80001E3968195519D6F9D51D8A407D0000EC5
:1037C8008F6F000E906F000E916F1200000E996FB0
:1037D800000E9A6F000E9B6F9D51890F9C5F91C0E0
:1037E8009DF094519D1B800E9D17908FFF0E8F1793
:1037F800FF0E9017000E9117938FFF0E9217FF0E72
:103808009317000E9417180E986FD89099379A3717
:103818009B3792518F5D9351905994519159D8A0EB
:1038280007D092518F5F9351905B9451915B99812E
:10383800D8908F3790379137982FE7D799C060F095
:103848009AC061F09BC062F09CC063F09DC064F0B8
:10385800A5EC1EF060C08FF061C090F062C091F0DE
:1038680012000001696F9D9454D0CEC26AF0CFC295
:103878006BF0D0C26CF0D1C26DF06551D8B457D09E
:10388800000E0201CE6F000ECF6F000ED06F000E3B
:10389800D16F4DD036C36AF037C36BF038C36CF0C4
:1038A80039C36DF06551D8B442D0000E0301366FAC
:1038B800000E376F000E386F000E396F38D032C3E4
:1038C8006AF033C36BF034C36CF035C36DF06551E7
:1038D800D8B42DD0000E0301326F000E336F000EE6
:1038E800346F000E356F23D02EC36AF02FC36BF0F0
:1038F80030C36CF031C36DF06551D8B418D0000EE8
:1039080003012E6F000E2F6F000E306F000E316F07
:103918000ED000016951010AD8B4A7D7030AD8B458
:10392800B9D7010AD8B4CBD7070AD8B4DDD79D8454
:103938006AC065F06BC066F06CC067F06DC068F077
:103948001200438E710E016E0F0E026E000E046E91
:10395800000E036E000E066E020E056E04EC28F0D3
:10396800000E016E040E026E000E046E000E036E51
:10397800000E066E300E056E04EC28F06D8C000EFD
:10398800156E020E156401D016D01550010DDB0E10
:10399800F324D96E020EF420DA6E000EDF6E155095
:1039A800010DD80EF324D96E020EF420DA6E000E43
:1039B800DF6E152AE6D7FC0E016E020E026E000EAF
:1039C800046E000E036E000E066E020E056E04EC09
:1039D80028F06D9C080E466E040E476E000E506E61
:1039E800040E516E50C04EF051C04FF032C45EF01C
:1039F8005E50D8A403D0100E586E1200000E0E6E42
:103A0800010E0D6E5E0E0F6E000E106E000E126E21
:103A1800010E116E03EC25F0200E586E1200040101
:103A28003039E832030B0009D8A4120042D0438E83
:103A3800080E586E1200B4EC17F01200A5EC1CF03A
:103A480012005E0E406E000E416E4380010E446E01
:103A5800438E12009BEC20F0120054EC0FF0120081
:103A680004013451010DFC0EF324406E020EF420C3
:103A7800416E4380010E446E438E1200438E3451D2
:103A8800010DFC0EF324D96E020EF420DA6E32C456
:103A9800DFFF1200000E0E6E020E0D6E000E0F6E8E
:103AA800000E106E000E126E000E116E03EC25F063
:103AB800120004013151000AD8B4CCD7010AD8B495
:103AC800CCD7020AD8B4C9D7060AD8B4B0D7030AE3
:103AD800D8B4B1D7010AD8B4DDD70F0AD8B4B1D752
:103AE800010AD8B4ABD7030AD8B4BAD7010AD8B4F4
:103AF800C5D7070A1200080E016E455010E1080EDE
:103B0800445CD8B00CD044C001F05750D8A402D0BF
:103B1800010E04D05704D8A402D0020E576E0150EB
:103B2800445E000E455A20EE01F04650D926475013
:103B3800DA2201C0DFFF380E0201E06F040EE16FE8
:103B480043A01CD03AD040C0F6FF41C0F7FFF86A46
:103B5800E0C2D9FFE1C2DAFF070EF76403D008001C
:103B6800F55005D0F6CFE9FFF7CFEAFFEF50DF6E4B
:103B7800404A412A0201E04BE12B01060150D8B42A
:103B88001200E1D740C0F6FF41C0F7FFF86AE0C273
:103B9800D9FFE1C2DAFF070EF76403D00800F55039
:103BA80005D0F6CFE9FFF7CFEAFFEF50DF6E404AC6
:103BB800412A0201E04BE12B01060150D8B4120062
:103BC800E1D70101FA51D8A41200010EFA6FF95198
:103BD800D8A41200010EF96F020E5618D8A415D0F9
:103BE80020EE01F04650D9264750DA22000EDF6E4B
:103BF80046C0D9FF47C0DAFF480EDF6E46C0D9FF7E
:103C080047C0DAFF000EDB8E12005604D8A412005B
:103C1800000EFB6F20EE01F05050D9265150DA22E9
:103C2800080EDF6E20EE02F05050D9265150DA22ED
:103C3800300EDE6E040EDD6E50C0D9FF51C0DAFFC3
:103C4800040EDF6E50C0D9FF51C0DAFF000EDB8EC4
:103C5800010EFB6F20EE01F04E50D9264F50DA22AC
:103C6800080EDF6E20EE02F04E50D9264F50DA22B1
:103C7800300EDE6E040EDD6E4EC0D9FF4FC0DAFF87
:103C8800800EDF6E120046C0D9FF47C0DAFF000E73
:103C9800DFBC010E026E040E4618466E4750476E92
:103CA800080E5818D8A40BD0040132517F0B6E6E41
:103CB8006E50D8B402D0100E01D0040E586E5604BF
:103CC800D8A43AD020EE02F04650D9264750DA223E
:103CD800380EDE6E040EDD6E7FEC1DF0020E5718F6
:103CE800D8A40DD046C0D9FF47C0DAFF040EDF6E56
:103CF80046C0D9FF47C0DAFF000EDB8E1200025023
:103D0800D8A40DD046C0D9FF47C0DAFF480EDF6EF1
:103D180046C0D9FF47C0DAFF000EDB8E120046C04E
:103D2800D9FF47C0DAFF080EDF6E46C0D9FF47C08B
:103D3800DAFF000EDB8E12003BBE3B9E000E566E75
:103D4800120000016351D8B405D0605161116211AD
:103D5800D8A40CD0000E606F000E616F000E626F69
:103D68001200632BD890623361336033000E601504
:103D7800656F000E6115666FFE0E6215676F6551FF
:103D880066116711D8B40CD0ECD7632B010E6027ED
:103D9800000E6123000E6223D890623361336033D2
:103DA800000E6015656F000E6115666FFF0E6215D7
:103DB800676F655166116711D8B406D0E6D76307F7
:103DC800D89060376137623761BF03D0020E6361F4
:103DD800F6D763A1619FD89063336351621364512E
:103DE800D8A4628F60C060F061C061F062C062F008
:103DF8001200958083A004D00001606B602B02D074
:103E08000001606B60510201E86FE96B958283A243
:103E180004D00001606B602B02D00001606B605120
:103E28000201E66FE76B958483A404D00001606B00
:103E3800602B02D00001606B60510201E46FE56BFA
:103E4800958683A604D00001606B602B02D0000128
:103E5800606B60510201E26FE36B000ECE6F000EE3
:103E6800CF6F000ED06F000ED16F000E0301366FBA
:103E7800000E376F000E386F000E396F000E326F6C
:103E8800000E336F000E346F000E356F000E2E6F6C
:103E9800000E2F6F000E306F000E316F1200000100
:103EA8007A69EA0E796F600E786F000E7B6F54ECBA
:103EB80028F060C074F061C075F062C076F063C02D
:103EC80077F033D074C068F075C069F076C06AF0D6
:103ED80077C06BF00001681F691F6A1F6B1F682B92
:103EE800000E69236A236B2354EC28F00001685103
:103EF80060256C6F695161216D6F6A5162216E6F27
:103F08006B5163216F6F7851706F7951716F726B5C
:103F1800736B6C51705D6D5171596E5172596F515F
:103F28007359D8B002D0010E7B6F00017B51D8A421
:103F380003D05950D8B4C6D75950D8B404D0FEC10C
:103F48007AF0000E596E7A511200040130511F0B9D
:103F5800E806D8A412003039E832030BE806D8A4E2
:103F680012003451D8B432D03405D8A412002ED05F
:103F7800A60E406E030E416E000E456E080E446E8E
:103F88004380438E1200A60E406E030E416E438E90
:103F9800120036C43CF037C43DF0AE0E386E030E46
:103FA800396E000E3E6E000E3F6E3B8E1200AE0E56
:103FB800406E030E416E000E456E070E446EC10E34
:103FC800436E120032C4EEF2438E12003151000AE1
:103FD800D8B4CED7010AD8B4D6D7210AD8B4D9D7FD
:103FE800010AD8B4E4D7030AD8A41200EBD7380ED4
:103FF800F66E510EF76E000EF86E03EEB5F010EE89
:104008001EF00900F5CFEEFFE550E150FAE1AC0EE5
:10401800F66E510EF76E000EF86E0900F5CFFEF23F
:1040280007EE00F0C80EEE6AE806FDE106EE00F0C5
:10403800C80EEE6AE806FDE103EE00F0B50EEE6A82
:10404800E806FDE102EEC4F03A0EEE6AE806FDE18C
:1040580001EEEDF0130EEE6AE806FDE104EE40F025
:10406800640EEE6AE806FDE105EE80F0640EEE6A85
:10407800E806FDE100EE38F0270EEE6AE806FDE1FD
:104088005F905F92000EF86E00015BEF06F0828C85
:10409800949C828E948EAC84B886000E0001606F6A
:1040A8000E0E616F270E626F070E636F6DC064F0AE
:1040B8006EC065F06FC066F070C067F0E3EC22F088
:1040C800FB0E00016025716FFF0E6121726FFF0EFC
:1040D8006221736FFF0E6321746F71C060F072C04C
:1040E80061F073C062F074C063F00A0E646F000E72
:1040F800656F000E666F000E676FE3EC22F060C01C
:1041080071F061C072F062C073F063C074F071C086
:10411800AFFF72C0B0FFAC98AC96AB8EB898B89AA7
:10412800B890AC9CAB9CAB88AC8A9D8A1200000E00
:104138000401386F000E396F35D0438E0101FD053B
:10414800D8A43BD00401388338D0438E36D0438E70
:1041580034BF0AD034510F0B016E0150020DC40E4A
:10416800F324D96E020E09D034510F0B016E0150A1
:10417800020D460EF324D96E000EF420DA6EDECF5F
:1041880002F0DDCF03F002C0D9FF03C0DAFFDFAED3
:1041980014D002C0D9FF03C0DAFFDFA40ED0010E8D
:1041A800386F0BD030511F0B000AD8B4C6D7010A9C
:1041B800D8B4CBD7030AD8B4CAD743AE1200380E46
:1041C800406E040E416E4380020E446E1200000ED3
:1041D8000101F86F000EF76F020E5618D8A41FD011
:1041E80020EE01F04E50D9264F50DA22080EDF6E2D
:1041F80020EE02F04E50D9264F50DA22380EDE6EED
:10420800040EDD6E4EC0D9FF4FC0DAFF480EDF6ED8
:104218004EC0D9FF4FC0DAFF000EDB8E12004450AB
:104228000401365D45503759D8B004D036C444F03F
:1042380037C445F07FEC1DF020EE02F04650D92639
:104248004750DA22380EDE6E040EDD6E46C0D9FF06
:1042580047C0DAFF480EDF6E46C0D9FF47C0DAFF15
:10426800000EDB8E12002D0E546E5DC01BF0FD0E8D
:104278001B16D8A43BD05DC01BF0D8901B323F0E54
:104288001B161B50040D000EF324506E040EF42070
:10429800516E50C04EF051C04FF0040E4E184E6E85
:1042A8004F504F6E50C0D9FF51C0DAFFDF30E832AF
:1042B8000F0B0D0AD8A417D0300E016E040E026E33
:1042C80020EE02F05050D9265150DA22DECF03F00A
:1042D800DDCF04F0000E066E080E056E3AEC26F0EF
:1042E80015EC22F01200D4EC24F012005D50FD0B06
:1042F800040AD8A4120047EC1EF01200066E000E45
:10430800076E040E086E0150026E036AD8900236DA
:1043180003360650046E056AD89004360536D890E0
:10432800043605360250042603500522D890043678
:104338000536D8900436053604500726055008225D
:1043480007C0D9FF08C0DAFFDF9E0150D8A407D004
:104358000650020DC40EF324D96E020E06D0065084
:10436800020D460EF324D96E000EF420DA6E07C053
:10437800DEFF08C0DDFF07C0D9FF08C0DAFFDF9CF9
:1043880020EE04F00750D9260850DA22DF8C1200FC
:10439800000162AF16D060C066F061C067F062C00D
:1043A80068F0661F671F681F662B000E6723682367
:1043B800000E6625606F000E6721616F800E682110
:1043C800626F65AF16D063C066F064C067F065C001
:1043D80068F0661F671F681F662B000E6723682337
:1043E800000E6625636F000E6721646F800E6821DA
:1043F800656F000E601B000E611B800E621B000EB5
:10440800631B000E641B800E651B6351605D645165
:10441800615965516259D8B002D0D8901200D8803D
:104428001200000E576E000E536E000E0101F86F59
:10443800000EF76F000EFB6F000E566E46C0D9FFD8
:1044480047C0DAFF7F0EDF16040E4618466E475047
:10445800476E46C0D9FF47C0DAFF7F0EDF16040E4D
:104468004618466E4750476E4EC0D9FF4FC0DAFF18
:104478007F0EDF16000E436E000E456E000E446E72
:10448800000E3B6E000E3D6E000E3C6E13EC1DF0F0
:10449800000E0E6E030E0D6E000E0F6E000E106EE7
:1044A800000E126E000E116E03EC25F04DEC1AF0A2
:1044B8001200000E00016B6F69AF06D0686D691FAE
:1044C800D8B0692B010E6B6F67AF06D0666D671F9A
:1044D800D8B0672B010E6B1B000E6D6F000E6C6F52
:1044E80068516911D8B41CD0010E6A6F04D0D890F5
:1044F800683769376A2B69AFFAD7D8906C376D3748
:104508006851665D69516759D8A005D06851665FE2
:104518006951675B6C81D890693368336A2FEDD72E
:104528006B51D8B404D06C6D6D1FD8B06D2B6CC0B6
:1045380066F06DC067F01200066E000E046E000E85
:10454800056E000E036E0650B6EC28F0066E02509B
:10455800B6EC28F0026E2F0E066406D03A0E0660FE
:1045680003D00650D00F08D0400E066406D0470E80
:10457800066003D00650C90F046E2F0E026406D0E1
:104588003A0E026003D00250D00F0AD0400E0264E7
:1045980006D0470E026003D00250C90F01D0640E46
:1045A800056E640E0518D8A403D004C003F005D026
:1045B8000450100DF3500524036E03501200000E32
:1045C8000001686F000E696F000E6A6F000E6B6F56
:1045D8006451651166116711D8B42AD0010E6C6F49
:1045E80006D0D89064376537663767376C2B67AF66
:1045F800F8D7D890683769376A376B376451605D88
:10460800655161596651625967516359D8A009D0FB
:104618006451605F6551615B6651625B6751635BC2
:104628006881D89067336633653364336C2FE1D77C
:1046380068C060F069C061F06AC062F06BC063F086
:10464800120033D001C0D9FF02C0DAFFDF50D8B45E
:104658000FD001C0D9FF02C0DAFFDF50076E03C0D8
:10466800F6FF04C0F7FF0800F5500718D8B419D0B2
:1046780003C0F6FF04C0F7FF0800F550076E086A8C
:10468800071E081E074A082A01C0D9FF02C0DAFF20
:10469800DF50096E09500724016E000E0820026ED3
:1046A8001200014A022A034A042A0506D8A006066F
:1046B8000528C8E10628D8A4C5D7000E026E000E4A
:1046C800016E120054EC28F060C079F061C07AF0F5
:1046D80062C07BF063C07CF002D0A6EC27F079C002
:1046E80071F07AC072F07BC073F07CC074F0000186
:1046F800711F721F731F741F712B000E7223732397
:10470800742354EC28F0000171516025756F7251C3
:104718006121766F73516221776F74516321786FCD
:104728006D51755D6E5176596F5177597051785941
:10473800D8B01200D2D7000E0001656F61AF06D065
:10474800606D611FD8B0612B010E656F63AF04D037
:10475800626D631FD8B0632B62516311D8B418D04F
:10476800010E646F04D0D89062376337642B63AF4F
:10477800FAD76251605D63516159D8A004D0625183
:10478800605F6351615BD89063336233642FF1D704
:104798006551D8B404D0606D611FD8B0612B60C07A
:1047A80060F061C061F012000101E76F0001F15192
:1047B800D8B412D01E0EBF6F010EC06F990EC16F14
:1047C8007F0EC26F0E0EC36F7E0EC46FE7C1C5F0B9
:1047D800C66B09EC00F012D01E0E0001BF6F010E6F
:1047E800C06F850EC16F7F0EC26F0E0EC36F7E0E37
:1047F800C46FE7C1C5F0C66B09EC00F01E0E0001DE
:104808007C6F010E7D6F000E7E6F4AEC19F001017E
:10481800E66F120000017151721173117411D8B44E
:1048280024D0010E756F06D0D89071377237733760
:104838007437752B74AFF8D771516D5D72516E591D
:1048480073516F5974517059D8A008D071516D5F68
:1048580072516E5B73516F5B7451705BD890743397
:10486800733372337133752FE7D76DC06DF06EC037
:104878006EF06FC06FF070C070F01200000E030190
:10488800AE6F4B0EAF6F000EB06F000EB16F000E23
:10489800B26F000EB36F080EB46F000E0101F56F12
:1048A8001A0E096E010EFEEC26F01E0E096E020E9F
:1048B800FEEC26F0000E016E400E026E050E036E31
:1048C800400E046E020ECCEC19F001C0F1F102C0EA
:1048D800F2F1000E0201DE6F000EDF6F000EF06FC6
:1048E80012000001646F00016051D8B419D060C093
:1048F80061F06451020D010EF326000EF422000E41
:10490800F324D96E030EF420DA6EDF50626F612B48
:1049180002D0D8906233612FFCD7000162510DD0CC
:104928006451020D010EF326000EF422000EF3244A
:10493800D96E030EF420DA6EDF50010B636F6351FA
:1049480012008E0E0001706F06D0D8906B336A3358
:1049580069336833702B000E68156C6F000E69158B
:104968006D6F000E6A156E6FFF0E6B156F6F6C51D1
:104978006D116E116F11D8A4E8D768C060F069C0D6
:1049880061F06AC062F070C063F0000E646FA5EC5D
:104998001EF060C068F061C069F062C06AF0120081
:1049A800020E5618D8A403D041EC18F01200000EDD
:1049B800566E0101FB51D8A41FD020EE01F04E50D5
:1049C800D9264F50DA22080EDF6E20EE02F04E5044
:1049D800D9264F50DA22300EDE6E040EDD6E4EC040
:1049E800D9FF4FC0DAFF0C0EDF6E4EC0D9FF4FC0A3
:1049F800DAFF000EDB8E1200000EFB6F120006D0ED
:104A080042EC24F01200A9EC1FF012000DC013F0C4
:104A18000EC014F01450000AD8B404D07F0AD8A4E9
:104A2800120018D01350010AD8B4EAD7030AD8B430
:104A38001200010AD8B4E7D7060AD8B41200770AD8
:104A4800D8B41200010AD8B41200070AD8B4120068
:104A5800010A12001350FF0A120060C064F061C01E
:104A680065F003D00001644B652B64C0F6FF65C098
:104A7800F7FFF86A070EF76403D00800F55005D071
:104A8800F6CFE9FFF7CFEAFFEF500009D8A4EAD73D
:104A980060C062F061C063F00001621F631F624B77
:104AA800632B64516225606F65516321616F120049
:104AB80001C005F002C006F002D0054A062A05C06A
:104AC800F6FF06C0F7FFF86A070EF76403D0080080
:104AD800F55005D0F6CFE9FFF7CFEAFFEF50000910
:104AE800D8A4EBD701C003F002C004F0031E041ED3
:104AF800034A042A05500324016E06500420026E5E
:104B08001200A09A0201F051D8B402D0A08A120073
:104B1800000E0001646F60C062F061C063F0642B36
:104B28006429D8B409D062C0D9FF63C0DAFF624BE8
:104B3800632BDF50D8A4F3D760C0D5F261C0D6F29A
:104B480064C052F0010E0201EF6F010EF06FA08AEF
:104B5800120004D0014A022A034A042A01C0D9FFDC
:104B680002C0DAFFDF50056E03C0F6FF04C0F7FF8E
:104B78000800F55000080524066E0650D8A407D092
:104B880001C0D9FF02C0DAFFDF50D8A4E3D706502E
:104B9800016E026A01BE0206120060C064F061C0C4
:104BA80065F003D00001644B652B64C0D9FF65C074
:104BB800DAFFDF50D8B406D0F5D70001644B652B77
:104BC800624B632B62C0D9FF63C0DAFF64C0E1FFA8
:104BD80065C0E2FFDFCFE7FFE750D8B41200EDD79A
:104BE8001E0E0001BF6F010EC06FE40EC16F7F0E75
:104BF800C26F1C0EC36F7E0EC46FF1C0C5F0F2C049
:104C0800C6F009EC00F01E0E00017C6F010E7D6FEE
:104C1800000E7E6F4AEC19F00001F36FF3510101A9
:104C2800E66FE76B12001E0E0001BF6F010EC06F2A
:104C3800E40EC16F7F0EC26F440EC36F7E0EC46F49
:104C4800F1C0C5F0F2C0C6F009EC00F01E0E00017C
:104C58007C6F010E7D6F000E7E6F4AEC19F000012B
:104C6800F36FF3510101E66FE76B120003C009F01F
:104C780004C00AF001C007F002C008F010D009C053
:104C8800D9FF0AC0DAFFDF500B6E094A0A2A07C0AB
:104C9800D9FF08C0DAFF0BC0DFFF074A082A05065C
:104CA800D8A006060528EBE10628D8B41200E7D7F5
:104CB800010E0201F26FF29EB80EB16E000ECF6EB9
:104CC800000ECE6E050EBF6EDC0EBE6E000E03012A
:104CD8002A6F000E2B6F000E2C6F000E2D6F9E9406
:104CE800F10ECD6E0B0EBD6E9D849F84D08EF28E1C
:104CF80012000001835184118511D8B406D0000E2A
:104D0800831B000E841B800E851B80C074F081C03D
:104D180075F082C076F083C077F084C078F085C0E3
:104D280079F0AAEC12F074C080F075C081F076C0FA
:104D380082F0120070A01DD050C0D9FF51C0DAFF18
:104D4800800EDE18D8A414D046C0D9FF47C0DAFFB9
:104D5800840EDE18D8A40CD050C0D9FF51C0DAFF99
:104D68000C0EDF6E50C0D9FF51C0DAFF000EDB8E8B
:104D78007090689A12000101E76F1E0E0001BF6F64
:104D8800010EC06FF50EC16F7F0EC26FFE0EC36FAE
:104D98007D0EC46FE7C1C5F0C66B09EC00F01E0EAE
:104DA80000017C6F010E7D6F000E7E6F4AEC19F0DA
:104DB8000101E66F12001E0E0001BF6F010EC06FE9
:104DC800EA0EC16F7F0EC26F3C0EC36F7E0EC46FBA
:104DD800F1C0C5F0F2C0C6F009EC00F01E0E0001EB
:104DE8007C6F010E7D6F000E7E6F4AEC19F0010199
:104DF800E66F12000C6E09A405D0000E016E0C506F
:104E080082EC21F009A205D0010E016E0C5082EC53
:104E180021F00C50010D700EF3240A6E0F0EF420D1
:104E28000B6E0AC0D9FF0BC0DAFF09C0DFFF120002
:104E3800000E00016B6F69AF06D0686D691FD8B0AE
:104E4800692B010E6B6F68C060F069C061F0626B1E
:104E58008E0E636F6BC064F0A5EC1EF060C068F046
:104E680061C069F062C06AF01200290E00017C6F0F
:104E78007E0E7D6F000E7E6F4AEC19F00001876F81
:104E88000BD053EC1FF00009D8A402D0010E120079
:104E9800000E1200000E120000018751000AD8B45B
:104EA800F0D7F8D71E0E0001BF6F010EC06FED0ED0
:104EB800C16F7F0EC26F5D0EC36F7E0EC46F09ECAB
:104EC80000F01E0E00017C6F010E7D6F000E7E6FDC
:104ED8004AEC19F00101E66F1200000E0101FC6FA7
:104EE800000E0E6E740E0D6E000E0F6E000E106E1C
:104EF800000E126E000E116E03EC25F06D9269948F
:104F080001D0689468B4FDD7000E0101F66F120055
:104F18005850D8A4120082A41200000E6D6E000E24
:104F2800696E160E6F6E9F0E6B6E7B0E696ED08E5D
:104F3800A28AA08AF28E01D06D866DA6FDD7010ED9
:104F4800586E12005850D8B482A403D08CEC27F0C5
:104F580006D05804D8B482B402D0C8EC28F01F0E8A
:104F6800586402D06DA202D0000E120089EC16F02F
:104F7800010E120060C066F061C067F009D066C01B
:104F8800D9FF67C0DAFF62C0DFFF0001664B672BFD
:104F980000016407D8A065076429F1E16529D8B440
:104FA8001200EDD701C005F002C006F004D0054A92
:104FB800062A034A042A03C0D9FF04C0DAFF05C041
:104FC800E1FF06C0E2FFDFCFE7FFE750D8B41200E9
:104FD800EED7698468986D82010E0101FC6F000E9E
:104FE800F66F000E0E6E750E0D6E000E0F6E000E33
:104FF800106E000E126E000E116E03EC25F01200FA
:1050080001C007F002C008F008D007C0D9FF08C0E7
:10501800DAFF03C0DFFF074A082A0506D8A00606FC
:105028000528F3E10628D8B41200EFD700016E5125
:105038007003F3CF72F0F4CF73F06E517103F35035
:1050480073276F517003F350732772C06EF073C0EB
:105058006FF01200520E00017C6F7E0E7D6F010E04
:105068007E6F4AEC19F00001876F0F0E8719D8A4DC
:1050780002D0010E1200000E1200000160516111F1
:105088006211D8B406D0000E601B000E611B800EA2
:10509800621B60C060F061C061F062C062F0120023
:1050A8009D942AC364F02BC365F02CC366F02DC30E
:1050B80067F09D8464C060F065C061F066C062F00E
:1050C80067C063F012009EBA02D0000E1200ABCF88
:1050D80002F0AECF03F002C001F0060E0116D8B4FC
:1050E80003D0AB9800F0AB88035012000001626F48
:1050F800000E0001616F3A0E626105D02F0E6265E5
:1051080002D0010E616F61C060F060311200010EC3
:105118000201CA27000ECB23CC23CD230101FC5169
:10512800D8A41200F62BF651D8A41200F669120082
:10513800967F487F647F7A7FCF7FE57EFA7F6F7F97
:10514800167F8F7FA27FAA7F567FC87F387F9D9A60
:105158000101FE69000E5A6E000E5B6E000E596E5C
:105168009D8A1200016E7B0E016004D0600E0164FE
:1051780001D0019A01501200C2900D0EC16EBE0EF0
:10518800C06E9E9C9D9C1200000E6D6E000E696E96
:10519800000E586E12000001606F9EA8FED760C016
:0551A800ADFF12000341
:107CA20000010000000A00000064000000E8030078
:107CB2000010270000A086010040420F0080969825
:107CC2000000E1F50500CA9A3B00803F0020410018
:107CD200C842007A44401C4650C34724744997184E
:107CE2004BBCBE4C6B6E4E03155079AD60F34971BF
:107CF20000803FCDCC3DD7233C12833AB7D138C662
:107D02002737388635C0D633CC2B32708930E7DB43
:107D12002EE53C1E42A20D010000001000000000F2
:107D2200010000001000000000010000001000002F
:107D320000000100000010677EB87D847D417D094E
:107D4200024300020100C0320904000001020201E4
:107D52000005240010010424020205240600010586
:107D62002401000107058103080002090401000241
:107D72000A000000070502024000000705820240D7
:107D8200000034034300440043002000520053002B
:107D92002D00320033003200200045006D007500D6
:107DA2006C006100740069006F006E0020004400E6
:107DB20065006D006F0034034D00690063007200BE
:107DC2006F006300680069007000200054006500C5
:107DD200630068006E006F006C006F00670079003E
:107DE200200049006E0063002E0012010002020012
:107DF2000008D8040A0000010102000172616469EE
:107E02006F20736574207366205346007365742077
:107E120063682073746174757300726164696F20A2
:107E2200736574206277006A6F696E206F74616196
:107E320000747820756E636E6600736574206164E9
:107E4200720073657420647200747820636E660039
:107E520072657365740073797320007361766500CF
:107E62006D61632000040309046F6666006F6E0093
:107E720048504850434D434D45454B59575243484E
:107E820049445348534C726573706F7374613A205E
:107E920025325820253258202532582025325820A4
:107EA2002532582025325820253258202532582094
:107EB2002532582025325820202564202025642090
:107EC200202564202025642020256420202564208C
:107ED200202564202025642020256420202564207C
:107EE2000A0D006672616D655F636F756E7465720F
:107EF2005F6572725F72656A6F696E5F6E656564F7
:107F020065640030313233343536373839414243D3
:107F120044454600696E76616C69645F64617461B0
:107F22005F6C656E003C3D3E804E23256C642325CC
:107F32007323256423006163636570746564524E24
:107F4200323930332000696E76616C69645F70612A
:107F520072616D006B6579735F6E6F745F696E69D4
:107F620074006E6F745F6A6F696E6564006D616341
:107F72005F706175736564006E6F5F667265655FE1
:107F82006368002573202564206F6666006D616357
:107F92005F74785F6F6B002573202564206F6E001D
:107FA2006D61635F727820006D61635F657272005C
:107FB20025733A256C752300286E756C6C29002593
:107FC20073202564200064656E6965640073696CC2
:107FD200656E740025733A2566230025733A25736E
:107FE2002300257320256400257320257300253086
:0E7FF200325800257325640062757379000013
:020000040020DA
:08000000FFFFFFFFFFFFFFFF00
:020000040030CA
:0E000000240E261EFF8181FF0FC00FE00F406F
:00000001FF
