:0400000007EF00F016
:100008005F82ADED13F055EF21F0C30E01010A6FC9
:10001800000E0B6FF2EF06F0250E1F19D8B40BD0A7
:10002800BFC0D9FFC0C0DAFF1FC1DFFF0001BF4B4F
:10003800C02BF2EF06F0000E01011A6F000E196FC7
:10004800000E1C6F000E1B6F05D001011B850001FF
:10005800C14BC22BC1C0F6FFC2C0F7FF0800F55064
:10006800300AD8B4F2D7C1C0F6FFC2C0F7FF080003
:10007800F55070EC2BF0D8A039D0000E01011A6FA2
:10008800000E196F19C16EF01AC16FF0000E000151
:10009800716F0A0E706FFEEC2AF06EC019F16FC016
:1000A8001AF1D00E0001EF6FFF0EF06FC1C0F6FF1E
:1000B800C2C0F7FF0800F550F16FF26BEF51F1275E
:1000C800F051F223F151010119270001F251010108
:1000D8001A230001C14BC22BC1C0F6FFC2C0F7FFF3
:1000E8000800F55070EC2BF0D8B0CCD7C1C0F6FFA3
:1000F800C2C0F7FF0800F5502E0AD8A437D0010176
:100108001C8D0001C14BC22B000E01011E6F000E99
:100118001D6F21D01DC16EF01EC16FF0000E0001D1
:10012800716F0A0E706FFEEC2AF0C1C0F6FFC2C0F4
:10013800F7FF0800F55000016E27000E6F23D00E60
:100148006E2501011D6FFF0E00016F2101011E6F59
:100158000001C14BC22BC1C0F6FFC2C0F7FF0800A7
:10016800F55070EC2BF0D8A08DD0D4D7000E01013B
:100178001E6F000E1D6F1C8985D01B8983D01C85BE
:10018800ABD01B8B1B8FA8D00AC1D9FF0BC1DAFFDC
:10019800DECF06F1DDCF07F1020E0A27000E0B2392
:1001A80006510711D8A404D0BA0E066F7F0E076F48
:1001B800000E096F000E086F03D00101084B092BD0
:1001C800085106250001EF6F0101095107210001BF
:1001D800F06FEFC0F6FFF0C0F7FF0800F550000918
:1001E800D8A4EBD701011D511E11D8B40AD008516B
:1001F8001D5D09511E59D8B004D01DC108F11EC19A
:1002080009F11951085D1A510959D8B005D008519A
:10021800195F09511A5B0ED0000E1A6F000E196F84
:1002280009D0BFC0D9FFC0C0DAFF200EDF6E0001C1
:10023800BF4BC02B01011907D8A01A071929F1E1F2
:100248001A29D8B411D0EDD706C1F6FF07C1F7FFB8
:10025800BFC0D9FFC0C0DAFF0800F5CFDFFF064BEB
:10026800072B0001BF4BC02B01010807D8A00907C5
:100278000829EAE10929D8B4F2EF06F0E5D7C00E5B
:100288001B132AD0C1C0F6FFC2C0F7FF0001C14B43
:10029800C22B0800F5CF1FF101011F51000AD8B485
:1002A80001EF07F0580AD8B46CD73C0AD8B414D078
:1002B800020AD8B464D70F0AD8B40ED0050AD8B445
:1002C8005CD71F0AD8B460D7060AD8B4D8D70D0AA5
:1002D800D8B458D7F2EF06F0070E1C15D8B45FD380
:1002E8001CA904D0000E1E6F060E1D6F0AC1D9FF8F
:1002F8000BC1DAFFDECF16F1DECF17F1DDCF18F133
:10030800030E0A27000E0B2318AF11D016C160F098
:1003180017C161F018C162F025EC2BF060C016F12E
:1003280061C017F162C018F1030E01011B13000E22
:10033800116F000E106F165117111811D8B490D004
:10034800820E0001EF6FFF0EF06F16C1F1F017C1BA
:10035800F2F018C1F3F019C1F4F0100E05D0D890DE
:10036800F433F333F233F133E82EF9D7F151EF25B3
:100378000101106F000E0001F0210101116F10073B
:10038800D8A0110710C16EF011C16FF0000E000166
:10039800716F030E706FFEEC2AF06EC010F16FC023
:1003A80011F110C166F011C167F0000E0001696F0C
:1003B8000A0E686FCBEC24F066C010F167C011F12B
:1003C800010111AF03D01007D8A011071051000880
:1003D800E4EC0AF08FC00CF190C00DF191C00EF161
:1003E8000CC180F00DC181F00EC182F016C183F0FE
:1003F80017C184F018C185F038EC1DF080C00CF1ED
:1004080081C00DF182C00EF10CC160F00DC161F028
:100418000EC162F0000E0001636F800E646F3F0E24
:10042800656F82EC24F00001D8B005D001011007F7
:10043800D8A0110715D00CC160F00DC161F00EC134
:1004480062F0000E0001636F200E646F410E656F4D
:1004580082EC24F00001D8A003D00101104B112B2D
:1004680001011EBF06D01E511BE10D0E1D5DD8B047
:1004780017D016C174F017C175F018C176F01D5168
:100488006CEC11F08FC077F090C078F091C079F0E3
:100498008FEC14F074C016F175C017F176C018F11E
:1004A800010111BF06D0115121E10A0E105DD8B02B
:1004B8001DD0165117111811D8B459D016C1B0F063
:1004C80017C1B1F018C1B2F0BCEC1CF00001B0517A
:1004D800B111B211B311D8A44AD0010111BF47D04C
:1004E800115104E1020E105DD8A041D00CC160F09A
:1004F8000DC161F00EC162F0700E0001636F890ECC
:10050800646F400E656F82EC24F00001D8B003D010
:100518000101F70E02D00101F80E1027FF0E11237A
:100528001051E4EC0AF08FC00CF190C00DF191C0AD
:100538000EF116C160F017C161F018C162F00CC16C
:1005480063F00DC164F00EC165F0A8EC16F060C050
:1005580012F161C013F162C014F163C015F1000E0D
:100568000101166F000E176F000E186F33D016C1F9
:10057800B0F017C1B1F018C1B2F0BCEC1CF0B0C0BB
:1005880012F1B1C013F1B2C014F1B3C015F116C124
:1005980080F017C181F018C182F012C168F013C150
:1005A80069F014C16AF015C16BF088EC27F068C0D7
:1005B80083F069C084F06AC085F060EC29F080C0DF
:1005C80016F181C017F182C018F1000E0101116FF8
:1005D800000E106F010E1F6F0A0E1F19D8B418D025
:1005E8001F51040DEF0EF324F66E7B0EF420F76E08
:1005F8000900F550125D0900F55013590900F5502E
:1006080014590900F5501559D8A002D01F2BE4D76A
:100618001FC1EFF00001F06BEFBFF00701011D51A2
:100628000001EF2701011E510001F02301011051C3
:100638000001EF27010111510001F023EF510101E1
:10064800195F0001F05101011A5B1D511E11D8B448
:1006580003D01907D8A01A07030E1B150001EF6F66
:10066800000E01011C150001F06FEF51F011D8B414
:1006780004D001011907D8A01A0701011BA539D018
:10068800030E1B150001EF6F000E01011C15000180
:10069800F06FEF51F011D8B416D0BFC0D9FFC0C069
:1006A800DAFF2D0EDF6EBF4BC02B0DD0BFC0D9FFB8
:1006B800C0C0DAFF300EDF6E0001BF4BC02B010156
:1006C8001907D8A01A0701011ABF7BD01A51EEE109
:1006D8001905D8A076D0EAD7BFC0D9FFC0C0DAFFC5
:1006E800200EDF6E0001BF4BC02B01011907D8A0F7
:1006F8001A071ABF05D01A51EFE11905D8B0ECD77F
:10070800030E1B150001EF6F000E01011C150001FF
:10071800F06FEF51F011D8B454D0BFC0D9FFC0C0AA
:10072800DAFF2D0EDF6E4BD012C160F013C161F0FD
:1007380014C162F015C163F001011F51040DEF0EE1
:10074800F324F66E7B0EF420F76E0900F5CF64F003
:100758000900F5CF65F00900F5CF66F00A00F5CF7E
:1007680067F051EC25F060C00CF161C00DF162C07A
:100778000EF163C00FF10CC16DF00DC16EF00EC12A
:100788006FF00FC170F00A0E0001716F000E726FEA
:10079800000E736F000E746FF2EC26F06DC00CF152
:1007A8006EC00DF16FC00EF170C00FF101010C5158
:1007B800300FBFC0D9FFC0C0DAFFDF6E0001BF4BEA
:1007C800C02B01011F071F29D8B40ED0ADD7BFC059
:1007D800D9FFC0C0DAFF300EDF6E0001BF4BC02B5F
:1007E80001011007D8A0110711BF05D01151EFE181
:1007F8001005D8B0ECD71EBF09D01E5104E1090E70
:100808001D5DD8A003D0080E1F6F02D01DC11FF1B7
:100818001F511D5F000E1FBFFF0E1E5B1F51D8B476
:1008280009D0BFC0D9FFC0C0DAFF2E0EDF6E0001AD
:10083800BF4BC02B01011F51E4EC0AF08FC000F13F
:1008480090C001F191C002F116C183F017C184F084
:1008580018C185F000C180F001C181F002C182F0A9
:1008680038EC1DF080C0B0F081C0B1F082C0B2F0A9
:10087800BCEC1CF0B0C012F1B1C013F1B2C014F15D
:10088800B3C015F174D012C160F013C161F014C186
:1008980062F015C163F001011F51040DEF0EF3243E
:1008A800F66E7B0EF420F76E0900F5CF64F00900B0
:1008B800F5CF65F00900F5CF66F00A00F5CF67F0CF
:1008C80051EC25F060C00CF161C00DF162C00EF171
:1008D80063C00FF10CC16DF00DC16EF00EC16FF069
:1008E8000FC170F00A0E0001716F000E726F000EDA
:1008F800736F000E746FF2EC26F06DC00CF16EC0D1
:100908000DF16FC00EF170C00FF101010C51300FE5
:10091800BFC0D9FFC0C0DAFFDF6E0001BF4BC02BDC
:1009280012C16DF013C16EF014C16FF015C170F0F3
:1009380001011F51040DEF0EF324F66E7B0EF42017
:10094800F76E0900F5CF71F00900F5CF72F00900D4
:10095800F5CF73F00A00F5CF74F0F2EC26F06DC015
:1009680012F16EC013F16FC014F170C015F10101DE
:100978001F071F29D8B40ED086D7BFC0D9FFC0C063
:10098800DAFF300EDF6E0001BF4BC02B01011D07DF
:10099800D8A01E071D511E11D8B420D2EED7C00E04
:1009A8001B150001EF6F000E01011C150001F06F0F
:1009B800EF51F011D8A42FD001011BA90ED00AC104
:1009C800D9FF0BC1DAFFDECF12F1DECF13F1DECF94
:1009D80014F1DECF15F1040E0ED00AC1D9FF0BC1F8
:1009E800DAFFDECF12F1DDCF13F1000E13BFFF0ED9
:1009F800146F156F020E0A27000E0B2315AF2ED0A9
:100A0800030E1B13151F141F131F126D000E132343
:100A18001423152323D001011BA90ED00AC1D9FF25
:100A28000BC1DAFFDECF12F1DECF13F1DECF14F106
:100A3800DECF15F1040E0FD00AC1D9FF0BC1DAFFC2
:100A4800DECFEFF0DDCFF0F0EFC012F1F0C013F120
:100A5800146B156B020E0A27000E0B231D511E1175
:100A6800D8A445D01251131114111511D8A43FD090
:100A78001D4B1E2B3CD0010E1F6F0A0E1F19D8B438
:100A880041D01F51040DEF0EF324F66E7B0EF420B7
:100A9800F76E0900F550125D0900F5501359090069
:100AA800F55014590900F5501559D8A02BD01F2B13
:100AB800E4D7010E1F6F080E1F19D8B423D01F5199
:100AC800040D650EF324F66E7C0EF420F76E090013
:100AD800F550125D0900F55013590900F5501459E5
:100AE8000900F5501559D8A00DD01F2BE4D71B517C
:100AF800C00B000AD8B4BFD7800AD8B4DAD7400AE6
:100B0800D8B4B9D7800E1FBF7F0E0001EF6F010167
:100B18001D511F5D1E51800A0001EF59D8B003D046
:100B28001DC11FF115D001011E51800A0001EF6F90
:100B380001011F511D5D800E1FBF7F0E0001EF597F
:100B4800D8B006D001011F511D6F1E6B1DBF1E07B7
:100B5800010119511A11D8B411D0030E1B15000147
:100B6800EF6F000E01011C150001F06FEF51F0113D
:100B7800D8B404D001011907D8A01A0701011CAD87
:100B880018D019511D5D1E51800A0001EF6F010137
:100B98001A51800A0001EF59D8B006D001011D5141
:100BA800195F1E511A5B05D0000E01011A6F000E65
:100BB800196F800E1FBF7F0E0001EF6F01011951E1
:100BC8001F5D1A51800A0001EF59D8B008D0010101
:100BD8001F51195F000E1FBFFF0E1A5B05D0000ED4
:100BE80001011A6F000E196F1BA528D0030E1B15E3
:100BF8000001EF6F000E01011C150001F06FEF51AD
:100C0800F011D8B408D0BFC0D9FFC0C0DAFF2D0E8C
:100C1800DF6EBF4BC02B010119511A11D8B4D5D0C2
:100C2800BFC0D9FFC0C0DAFF300EDF6E0001BF4B76
:100C3800C02B01011907D8A01A07EED719511A11AC
:100C4800D8B411D0BFC0D9FFC0C0DAFF200EDF6E04
:100C58000001BF4BC02B01011907D8A01A07195171
:100C68001A11D8A4EFD7030E1B150001EF6F000E61
:100C780001011C150001F06FEF51F011D8B4A5D097
:100C8800BFC0D9FFC0C0DAFF2D0EDF6E9CD01DC1DA
:100C9800EFF01EC1F0F00001D890EF37F037D89090
:100CA800EF37F037EF0EEF25F66E7B0EF021F76E7B
:100CB8000900F5CF64F00900F5CF65F00900F5CF1C
:100CC80066F00A00F5CF67F012C160F013C161F059
:100CD80014C162F015C163F051EC25F060C06DF0ED
:100CE80061C06EF062C06FF063C070F00A0E000160
:100CF800716F000E726F000E736F000E746FF2EC5E
:100D080026F000016D51300F01011F6F55D012C13F
:100D180060F013C161F014C162F015C163F01DC128
:100D2800EFF01EC1F0F00001D890EF37F037D890FF
:100D3800EF37F037650EEF25F66E7C0EF021F76E73
:100D48000900F5CF64F00900F5CF65F00900F5CF8B
:100D580066F00A00F5CF67F051EC25F0000160510C
:100D68000F0B0101056F1BBB04D0050E036F7F0E2F
:100D780003D0F40E036F7E0E046F0551010D03C1FD
:100D8800EFF004C1F0F0F3500001EF27F450F02326
:100D9800EFC0F6FFF0C0F7FF0800F5CF1FF10CD049
:100DA80001011B51C00B000AD8B471D7800AD8B40E
:100DB800AED7400AD8B46BD7BFC0D9FFC0C0DAFFDE
:100DC8001FC1DFFF0001BF4BC02B01011D07D8A0C9
:100DD8001E071D29E5E11E29D8A4E2D7C1C0F6FFE8
:100DE800C2C0F7FF0001C14BC22B0800F5CF1FF1AD
:100DF80001011F51D8A410EF00F0BFC0D9FFC0C037
:100E0800DAFF000EDF6E1200000E0201AF6F96943B
:100E180083989598839A959A839C959C839E959E92
:100E2800000EAA6F000EA96FAABF06D0AA511CE136
:100E3800190EA95DD8B018D0010EAF1BAFB102D002
:100E4800849401D084840D0E0101F06F2D0EEF6F94
:100E5800D70EE82EFED7EF2FFCD7F02FFAD700D009
:100E68000201A94BAA2BE0D7000E00016D6FE10E1D
:100E78006E6F000E6F6F000E706F04EC23F066EC5F
:100E880015F0A5EC2BF003EC22F03FEC29F089ECEF
:100E98002AF0000E0201B06F2F0EB06501D00AD003
:100EA800000E0001F56F0201B051BCEC26F0020102
:100EB800B02BF2D7300EB16F3F0EB16501D00AD01A
:100EC800010E0001F56F0201B151BCEC26F00201E0
:100ED800B12BF2D7000E0001F66F060EF56FFAEC93
:100EE80028F0EA0E0001F56F7D0EF66FC2EC29F0CE
:100EF800D4EC25F00FEC26F0A2EC20F039EC2AF027
:100F0800340EB4EC2BF038EC2BF060C096F261C0D4
:100F180097F262C098F263C099F2010E0201AF1B0A
:100F2800AFB102D0849401D08484000E07EC19F08C
:100F38009EC0A6F29FC0A7F2A0C0A8F2000E0001B2
:100F4800836F7A0E846F440E856FA6C280F0A7C2A5
:100F580081F0A8C282F038EC1DF080C0B0F081C0EA
:100F6800B1F082C0B2F0BCEC1CF0B0C0B4F2B1C0B9
:100F7800B5F2010E07EC19F09EC0A6F29FC0A7F2C9
:100F8800A0C0A8F2000E0001836F7A0E846F440E91
:100F9800856FA6C280F0A7C281F0A8C282F038ECA3
:100FA8001DF080C0B0F081C0B1F082C0B2F0BCECDE
:100FB8001CF0B0C0B6F2B1C0B7F2000E0001606F0D
:100FC800010E58EC27F00001656F010E98EC1EF039
:100FD80065C0B8F266C0B9F267C0BAF268C0BBF2C1
:100FE800010E0001606F010E58EC27F00001656FDB
:100FF800020E98EC1EF065C0BCF266C0BDF267C078
:10100800BEF268C0BFF2020E0001606F010E58EC1C
:1010180027F00001656F030E98EC1EF065C0C0F262
:1010280066C0C1F267C0C2F268C0C3F2030E000115
:10103800606F010E58EC27F00001656F040E98EC04
:101048001EF065C0C4F266C0C5F267C0C6F268C0CB
:10105800C7F2000E0001606F000E58EC27F0010186
:10106800EF6FEF3B8C50EF19EF0BEF198C6E030EFF
:101078000001606F000E58EC27F00101EF6FEF3BA5
:10108800EF478C50EF19DF0BEF198C6E020E000141
:10109800606F000E58EC27F00101EF6FEF3BEF4750
:1010A800EF478C50EF19BF0BEF198C6E010E000142
:1010B800606F000E58EC27F00101EF6FEF33EF334C
:1010C8008C50EF197F0BEF198C6EA4EC12F0040E04
:1010D8000001606F000E58EC27F0E806D8A482D112
:1010E800000E0001606F060E58EC27F00101EF6F4B
:1010F800010E0001606F060E58EC27F00101F06F39
:10110800D890F035F16F020E0001606F060E58ECB2
:1011180027F00101F26FD890F237D890F237030E1A
:101128000001606F060E58EC27F00101F36FD890AC
:10113800F337D890F337D890F337040E0001606F77
:10114800060E58EC27F00101F46FF43BF00EF4178B
:10115800050E0001606F060E58EC27F00101F56FCF
:10116800050EF66FD890F537F62FFCD7060E00015E
:10117800606F060E58EC27F00101F76F060EF86F46
:10118800D890F737F82FFCD7F751F511F411F31170
:10119800F211F111EF1102019E6F000E0001606F54
:1011A800070E58EC27F00101EF6F010E0001606F88
:1011B800070E58EC27F00101F06FD890F035F16F69
:1011C800020E0001606F070E58EC27F00101F26F64
:1011D800D890F237D890F237030E0001606F070EEF
:1011E80058EC27F00101F36FD890F337D890F33714
:1011F800D890F337040E0001606F070E58EC27F003
:101208000101F46FF43BF00EF417050E0001606F56
:10121800070E58EC27F00101F56F050EF66FD89010
:10122800F537F62FFCD7060E0001606F070E58EC55
:1012380027F00101F76F060EF86FD890F737F82FEF
:10124800FCD7F751F511F411F311F211F111EF1167
:101258000201AB6F000EAC6F09D0000E0001F56FF4
:101268000201AC51BCEC26F00201AC2BAB51AC5DD9
:10127800D8A0F3D79EC2ADF209D0010E0001F56FD8
:101288000201AD51BCEC26F00201AD2BAD51AB5DB6
:10129800D8B0F3D7070E0001606F000E58EC27F0A6
:1012A800E806D8A496D0EA0E0001F56F7D0EF66F19
:1012B800C2EC29F0000E0001606F020E58EC27F016
:1012C8000101EF6F010E0001606F020E58EC27F06C
:1012D8000101F06FD890F035F16F020E0001606FD8
:1012E800020E58EC27F00101F26FD890F237D8902F
:1012F800F237030E0001606F020E58EC27F001016F
:10130800F36FD890F337D890F337D890F335F211BC
:10131800F111EF110201AE6FAEC2F5F00001F66BEC
:10132800FAEC28F0050E0001606F000E58EC27F06B
:10133800E806D8A455D0040E0001606F020E58ECE0
:1013480027F00101EF6F050E0001606F020E58ECE7
:1013580027F00101F06FD890F035F16F060E00010B
:10136800606F020E58EC27F00101F26FD890F23747
:10137800D890F237070E0001606F020E58EC27F084
:101388000101F36FD890F337D890F337D890F3353D
:10139800F211F111EF1102019F6F9F51A2EC29F098
:1013A800060E0001606F000E58EC27F00009D8A463
:1013B80008D0000E0001F66F7D0EF56FD7EC28F00F
:1013C8000FD0010E0001F66FF40EF56FD7EC28F080
:1013D80007D0EE0E0001F56F7D0EF66FC2EC29F016
:1013E80039EC2AF0F0C2B2F2EFC2B3F2030E0001F8
:1013F800F56FB20EF66F020EF76F160EF86F010E4C
:1014080000EC0DF00201A06FA051D8A417D0A12BB9
:10141800020EA16513D0EA0E0001F56F7D0EF66F7E
:10142800C2EC29F0000E0001F66F010EF56FFAEC20
:1014380028F039EC2AF0000E0201A16F89EC2AF09D
:101448000009D8B458D00201E751D8A454D0000EEE
:101458000001BF6F020EC06F070EC16F7E0EC26F14
:1014680001C3C3F0C46B03C3C5F0C66B05C3C7F0A3
:10147800C86B07C3C9F0CA6B09C3CBF0CC6B0BC3ED
:10148800CDF0CE6B0DC3CFF0D06B0FC3D1F0D26BC4
:1014980011C3D3F0D46B13C3D5F0D66B00C3D7F008
:1014A800D86B02C3D9F0DA6B04C3DBF0DC6B06C37C
:1014B800DDF0DE6B08C3DFF0E06B0AC3E1F0E26B3E
:1014C8000CC3E3F0E46B0EC3E5F0E66B10C3E7F082
:1014D800E86B12C3E9F0EA6BEEC2EBF0EC6BEDC21D
:1014E800EDF0EE6B09EC00F0000E0001606F020EEB
:1014F800616F68EC28F096C2EFF197C2F0F198C2DC
:10150800F1F199C2F2F10101EF1FF01FF11FF21F73
:10151800EF2B000EF023F123F22338EC2BF001011E
:10152800EF51000160250201A26F0101F051000195
:1015380061210201A36F0101F15100016221020141
:10154800A46F0101F251000163210201A56FA551A9
:10155800A41105E1300EA25D750EA359D8B0D3D4FD
:10156800A2C2EFF1A3C2F0F1A4C2F1F1A5C2F2F157
:101578000101EF1FF01FF11FF21FEF2B000EF023E8
:10158800F123F223300EEF2502019A6F750E010147
:10159800F02102019B6F000E0101F12102019C6FF5
:1015A800000E0101F22102019D6F9AC26DF09BC2EB
:1015B8006EF09CC26FF09DC270F04AEC26F0A3D486
:1015C8000001956F000195AF0CD1956D9551800A7A
:1015D800120FD8A097D0000E716F030E706F000E17
:1015E800696F0A0E686F000E636F640E626F955123
:1015F800606F616B60BF610783EC26F060C066F0C6
:1016080061C067F0CBEC24F0090E000166256E6F0F
:10161800000E67216F6FFEEC2AF03E0E00016E256A
:10162800F66E7C0E6F21F76E0900F5CF83F0090086
:10163800F5CF84F00A00F5CF85F0000E696F640ECF
:10164800686F9551666F676B66BF6707CBEC24F0D0
:10165800120E000166256E6F000E67216F6F000E77
:10166800716F030E706FFEEC2AF03E0E00016E25BE
:10167800F66E7C0E6F21F76E0900F5CF80F0090039
:10168800F5CF81F00A00F5CF82F038EC1DF080C06C
:1016980092F081C093F082C094F092C080F093C021
:1016A80081F094C082F0000E0001716F030E706F1C
:1016B800000E636F0A0E626F9551606F616B60BFB9
:1016C800610783EC26F060C06EF061C06FF0FEEC3D
:1016D8002AF03E0E00016E25F66E7C0E6F21F76E25
:1016E8000900F5CF83F00900F5CF84F00A00F5CFA3
:1016F80085F038EC1DF080C08FF081C090F082C07A
:1017080091F0120000019551800A750FD8A056D0AB
:10171800000E696F0A0E686F9551666F676B66BF3A
:101728006707CBEC24F0090E000166256E6F000EEA
:1017380067216F6F000E716F030E706FFEEC2AF059
:101748003E0E00016E25F66E7C0E6F21F76E0900C5
:10175800F5CF80F00900F5CF81F00A00F5CF82F0CF
:10176800000E716F030E706F000E636F0A0E626FCA
:101778009551606F616B60BF610783EC26F060C0B4
:101788006EF061C06FF0FEEC2AF03E0E00016E258F
:10179800F66E7C0E6F21F76E0900F5CF83F0090015
:1017A800F5CF84F00A00F5CF85F038EC1DF080C045
:1017B8008FF081C090F082C091F012000001955125
:1017C800030D3E0EF324F66E7C0EF420F76E09002E
:1017D800F5CF8FF00900F5CF90F00A00F5CF91F022
:1017E80012009551800A120FD8A097D0000E716F81
:1017F800030E706F000E696F0A0E686F000E636F3C
:10180800640E626F9551606F616B60BF610783EC16
:1018180026F060C066F061C067F0CBEC24F0090EDA
:10182800000166256E6F000E67216F6FFEEC2AF0CF
:10183800170E00016E25F66E7C0E6F21F76E0900FB
:10184800F5CF83F00900F5CF84F00A00F5CF85F0D5
:10185800000E696F640E686F9551666F676B66BF9F
:101868006707CBEC24F0120E000166256E6F000EA0
:1018780067216F6F000E716F030E706FFEEC2AF018
:10188800170E00016E25F66E7C0E6F21F76E0900AB
:10189800F5CF80F00900F5CF81F00A00F5CF82F08E
:1018A80038EC1DF080C092F081C093F082C094F0B3
:1018B80092C080F093C081F094C082F0000E0001C5
:1018C800716F030E706F000E636F0A0E626F955191
:1018D800606F616B60BF610783EC26F060C06EF0DB
:1018E80061C06FF0FEEC2AF0170E00016E25F66E4F
:1018F8007C0E6F21F76E0900F5CF83F00900F5CF54
:1019080084F00A00F5CF85F038EC1DF080C08FF028
:1019180081C090F082C091F0120000019551800AB8
:10192800750FD8A056D0000E696F0A0E686F9551D2
:10193800666F676B66BF6707CBEC24F0090E000182
:1019480066256E6F000E67216F6F000E716F030EB4
:10195800706FFEEC2AF0170E00016E25F66E7C0EF5
:101968006F21F76E0900F5CF80F00900F5CF81F0FF
:101978000A00F5CF82F0000E716F030E706F000E33
:10198800636F0A0E626F9551606F616B60BF61078C
:1019980083EC26F060C06EF061C06FF0FEEC2AF0B8
:1019A800170E00016E25F66E7C0E6F21F76E09008A
:1019B800F5CF83F00900F5CF84F00A00F5CF85F064
:1019C80038EC1DF080C08FF081C090F082C091F09B
:1019D800120000019551030D170EF324F66E7C0ECC
:1019E800F420F76E0900F5CF8FF00900F5CF90F0DD
:1019F8000A00F5CF91F012000101E86F0101E851EA
:101A0800D8B413D0200E0001BF6F010EC06FC10EF5
:101A1800C16F7F0EC26FCA0EC36F7D0EC46FF5C053
:101A2800C5F0C66B09EC00F012D0200E0001BF6FA4
:101A3800010EC06FC10EC16F7F0EC26FAA0EC36FB9
:101A48007D0EC46FF5C0C5F0C66B09EC00F0000E42
:101A58000101EE6F75D1020EEE19D8B404D0030E51
:101A6800EE19D8A40AD0040E0001606F010E58ECDC
:101A780027F0E806D8B462D13CD1040E0101EE1972
:101A8800D8B404D0050EEE19D8A407D0050E00016D
:101A9800606F010E58EC27F0ECD7090E0101EE1922
:101AA800D8A410D0000E0001606F050E58EC27F086
:101AB800E806D8B443D1010E0001606F050E58EC5A
:101AC80027F0D7D7080E0101EE19D8A410D0000EC0
:101AD8000001606F050E58EC27F0E806D8B42ED147
:101AE800010E0001606F050E58EC27F0C2D7070EF3
:101AF8000101EE19D8A407D0000E0001606F050E91
:101B080058EC27F0B6D7060E0101EE19D8A410D06C
:101B1800000E0001606F050E58EC27F0E806D8A407
:101B2800E8D0010E0001606F050E58EC27F0A1D730
:101B38000D0E0101EE19D8A410D0020E0001606F3D
:101B4800050E58EC27F0E806D8B4F8D0030E0001CB
:101B5800606F050E58EC27F08CD70C0E0101EE19BA
:101B6800D8A410D0020E0001606F050E58EC27F0C3
:101B7800E806D8B4E3D0030E0001606F050E58ECF8
:101B880027F077D70B0E0101EE19D8A407D0020E63
:101B98000001606F050E58EC27F06BD70A0E0101A3
:101BA800EE19D8A410D0020E0001606F050E58EC93
:101BB80027F0E806D8A49DD0030E0001606F050E3B
:101BC80058EC27F056D7110E0101EE19D8A410D001
:101BD800040E0001606F050E58EC27F0E806D8B433
:101BE800ADD0050E0001606F050E58EC27F041D707
:101BF800100E0101EE19D8A410D0040E0001606F78
:101C0800050E58EC27F0E806D8B498D0050E000168
:101C1800606F050E58EC27F02CD70F0E0101EE1956
:101C2800D8A407D0040E0001606F050E58EC27F009
:101C380020D70E0E0101EE19D8A410D0040E000111
:101C4800606F050E58EC27F0E806D8A452D0050EB0
:101C58000001606F050E58EC27F00BD7150E010137
:101C6800EE19D8A410D0060E0001606F050E58ECCE
:101C780027F0E806D8B462D0070E0001606F050EA1
:101C880058EC27F0F6D6140E0101EE19D8A410D09E
:101C9800060E0001606F050E58EC27F0E806D8B470
:101CA8004DD0070E0001606F050E58EC27F0E1D605
:101CB800130E0101EE19D8A407D0060E0001606FBB
:101CC800050E58EC27F0D5D6120E0101EE19D8A44E
:101CD80010D0060E0001606F050E58EC27F0E806DC
:101CE800D8A407D0070E0001606F050E58EC27F046
:101CF800C0D6EA0E0001BF6F010EC06FF00EC16FB3
:101D08007F0EC26F0101EE51010DF3500001F6255F
:101D1800D96EF450F721DA6EDF50F96FF951C36FBD
:101D2800C46B09EC00F0200E0001606F010E616FBA
:101D3800EA0E626F010E636FB4EC28F00101EE2B1E
:101D48000001F8510101EE5DD8A085D6200E0001F2
:101D58007C6F010E7D6F000E7E6F3BEC1BF0010166
:101D6800E96F15D059EC22F0090AD8A402D0010E67
:101D78001200000E12001CEC2AF002D012EC2BF01C
:101D88000009D8A4E3D7000E1200000E12000101CA
:101D9800E951000AD8B4E6D7020AD8B4ECD7070A42
:101DA800D8B4E9D7030AD8B4E9D7EFD7106E5A5098
:101DB800010D400EF324D96E040EF420DA6E10C023
:101DC800DFFF5A2A0A0E1018D8A436D1020E5A6418
:101DD80033D15A50010D400EF324D96E040EF4206D
:101DE800DA6E000EDF6E000E016E070E026E400EF8
:101DF800036E040E046ED1EC2AF0FE0E0A6EFF0E7E
:101E08000B6E5A500C6E0D6A0A500C260B500D22A0
:101E1800400E0C24D96E040E0D20DA6E000EDF6E13
:101E2800000E5A6E0F0E0E6E0101FE69000E126E44
:101E38001ED0400E016E040E026E1250020DC30E2B
:101E4800F324D96E030EF420DA6EDECF03F0DDCF73
:101E580004F090EC28F001500210D8A407D012C06A
:101E6800FEF112C0EEF2010E596E1200122A0E5047
:101E7800125CD8A0DED7E1C301F0E2C302F03FEC68
:101E880028F00150116E400E016E040E026EE1C37F
:101E980003F0E2C304F011C005F0066A93EC25F0E4
:101EA80001500210D8A409D00F0E0101FE6F0F0EC9
:101EB8000201ED6F010E596E1200D7C301F0D8C3AD
:101EC80002F03FEC28F00150116E400E016E040E36
:101ED800026ED7C303F0D8C304F011C005F0066A38
:101EE80093EC25F001500210D8A4A6D011C013F02D
:101EF800000E0F6E27D01350010D400EF324D96E3B
:101F0800040EF420DA6E2F0EDF642BD01350010D6F
:101F1800400EF324D96E040EF420DA6E390EDF6415
:101F280001D01FD00A0E0F02F3500F6E1350010D8F
:101F3800400EF324D96E040EF420DA6EDF50D00F71
:101F48000F26132A400E016E040E026E3FEC28F095
:101F580013500A6E0B6A01500A5C02500B58D8A045
:101F6800CAD7132A38D05B50020D000EF324D96E5D
:101F7800030EF420DA6E0FC0DFFF5B50020D010E76
:101F8800F326000EF422000EF324D96E030EF4207B
:101F9800DA6E13500A6E0B6A010E0A26000E0B2227
:101FA800400E0A24E16E040E0B20E26EE750026E2A
:101FB8001350010D400EF324E16E040EF420E26E7E
:101FC800E7500EEC25F0DF6E5B2A090E5B6401D04A
:101FD8001200020E1326400E016E040E026E3FEC34
:101FE80028F013500A6E0B6A01500A5C02500B5815
:101FF800D8A0B9D7400E016E040E026E3FEC28F04F
:1020080013500A6E0B6A01500A5C02500B58D8B084
:1020180010D012D05B50020D010EF326000EF422F0
:10202800000EF324D96E030EF420DA6E000EDF6E74
:102038005B2A0A0E5B64EED7640E5A6004D00A0E5F
:102048001018D8A41200000E5A6E120004013205AE
:10205800D8A411D030511F0B0009D8A40CD000010E
:10206800FD8F030E04013119D8A402D0010E01D04E
:10207800000E0101FD6F04013251D8A41200305145
:102088001F0B020AD8A4120034510F0B0009D8B450
:10209800120034510F0B156E030E15601200200E3E
:1020A8005818D8A412000001FD8F040134BF19D0BC
:1020B80034510F0B156E1550020DC80EF324D96E4E
:1020C800020EF420DA6EDECF19F0DDCF1AF03451AB
:1020D8000F0B156E1550010DD20EF324D96E020E9A
:1020E80018D034510F0B156E1550020D400EF32405
:1020F800D96E000EF420DA6EDECF19F0DDCF1AF0BB
:1021080034510F0B156E1550010DD50EF324D96EF1
:10211800020EF420DA6EDF50186E18B006D0FB0EEF
:102128001914196EFF0E1A1404D0040E1910196E22
:102138001A501A6E34BF0AD034510F0B156E155051
:10214800020DC80EF324D96E020E09D034510F0BBC
:10215800156E1550020D400EF324D96E000EF420B2
:10216800DA6E19C0DEFF1AC0DDFF030E3119D8A4DC
:102178002DD019C0D9FF1AC0DAFFDFAE1AD034BF8C
:102188000AD034510F0B156E1550010DD20EF324E1
:10219800D96E020E0AD0040134510F0B156E15507A
:1021A800010DD50EF324D96E020EF420DA6E020169
:1021B800DF8219C0D9FF1AC0DAFF000EDB8419C00C
:1021C800D9FF1AC0DAFF000EDB8E1200040E1918B0
:1021D800196E1A501A6E19C0D9FF1AC0DAFFDFAE8D
:1021E8001BD019C0D9FF1AC0DAFF7F0EDF1619C03D
:1021F800D9FF1AC0DAFF000EDB8C000E0E6E050E3A
:102208000D6E19C00FF01AC010F0000E126E020EFB
:10221800116EE6EC27F006D019C0D9FF1AC0DAFF14
:10222800000EDB8C040E1918196E1A501A6E18B2AB
:1022380006D019C0D9FF1AC0DAFFDFAE30D00401CA
:1022480034BF0AD034510F0B156E1550010DD20E44
:10225800F324D96E020E0AD0040134510F0B156E07
:102268001550010DD50EF324D96E020EF420DA6E46
:102278000201DF9219C0D9FF1AC0DAFF3B0EDF1640
:10228800000E0E6E050E0D6E19C00FF01AC010F07C
:10229800000E126E020E116EE6EC27F006D019C081
:1022A800D9FF1AC0DAFF3B0EDF16040134510F0BB9
:1022B800156E1550010D700EF324166E0F0EF420D6
:1022C800176E16C0D9FF17C0DAFFFE0EDF16120010
:1022D8000001986F6D0E00019865A6D0000E716F11
:1022E800030E706F000E696F0A0E686F000E636F41
:1022F800640E626F98C060F0616B83EC26F060C07A
:1023080066F061C067F0CBEC24F0090E0001662589
:102318006E6F000E67216F6FFEEC2AF03E0E000113
:102328006E25F66E7C0E6F21F76E0900F5CF83F0EF
:102338000900F5CF84F00A00F5CF85F0000E696F2B
:10234800640E686F98C066F0676BCBEC24F0120ED1
:10235800000166256E6F000E67216F6F000E716FAA
:10236800030E706FFEEC2AF03E0E00016E25F66E2D
:102378007C0E6F21F76E0900F5CF80F00900F5CFCC
:1023880081F00A00F5CF82F038EC1DF080C095F09E
:1023980081C096F082C097F0000E0001716F030EA5
:1023A800706F000E636F0A0E626F98C060F0616B09
:1023B80083EC26F060C06EF061C06FF0FEEC2AF08E
:1023C8003E0E00016E25F66E7C0E6F21F76E090039
:1023D800F5CF83F00900F5CF84F00A00F5CF85F03A
:1023E80095C080F096C081F097C082F038EC1DF05F
:1023F80080C092F081C093F082C094F092C080F0C7
:1024080093C081F094C082F0000E0001836F000E2B
:10241800846F3F0E856F38EC1DF080C08FF081C04F
:1024280090F082C091F012000A0E0001986567D002
:10243800000E716F030E706F000E636F0A0E626FED
:1024480098C060F0616B83EC26F060C06EF061C0EC
:102458006FF0FEEC2AF03E0E00016E25F66E7C0E43
:102468006F21F76E0900F5CF83F00900F5CF84F0EE
:102478000A00F5CF85F0000E696F0A0E686F98C0E4
:1024880066F0676BCBEC24F0090E000166256E6FD1
:10249800000E67216F6F000E716F030E706FFEECF8
:1024A8002AF03E0E00016E25F66E7C0E6F21F76E47
:1024B8000900F5CF80F00900F5CF81F00A00F5CFCB
:1024C80082F038EC1DF080C095F081C096F082C093
:1024D80097F095C080F096C081F097C082F0000E0A
:1024E8000001836F000E846F3F0E856F38EC1DF07E
:1024F80080C08FF081C090F082C091F0120000017E
:102508009851030D3E0EF324F66E7C0EF420F76E00
:102518000900F5CF80F00900F5CF81F00A00F5CF6A
:1025280082F0000E836F000E846F3F0E856F38ECCB
:102538001DF080C08FF081C090F082C091F0120031
:10254800000E0001606F000E58EC27F00001656F67
:102558000201F051FE0B000165110201F06F030E3C
:102568000001606F000E58EC27F00001656FD890ED
:102578006535666F0201F051FD0B0001661102011D
:10258800F06F020E0001606F000E58EC27F000019A
:10259800656FD8906537D89065370201F051FB0B0D
:1025A800000165110201F06F010E0001606F000E5D
:1025B80058EC27F00001656FD8906537D8906537DB
:1025C800D89065370201F051F70B0001651102013F
:1025D800F06F040E0001606F010E58EC27F0000147
:1025E800656F653BF00E65170201F051EF0B0001B6
:1025F80065110201F06F050E0001606F010E58ECC5
:1026080027F00001656F050E666FD8906537662F55
:10261800FCD70201F051DF0B000165110201F06FD8
:10262800060E0001606F050E58EC27F00001656F7B
:102638000201EF51FE0B000165110201EF6F070E59
:102648000001606F050E58EC27F00001656FD89007
:102658006535666F0201EF51FD0B0001661102013D
:10266800EF6F040E0001606F050E58EC27F00001B3
:10267800656FD8906537D89065370201EF51FB0B2D
:10268800000165110201EF6F050E0001606F050E74
:1026980058EC27F00001656FD8906537D8906537FA
:1026A800D89065370201EF51F70B0001651102015F
:1026B800EF6F020E0001606F050E58EC27F0000165
:1026C800656F653BF00E65170201EF51EF0B0001D6
:1026D80065110201EF6F030E0001606F050E58ECE3
:1026E80027F00001656F050E666FD8906537662F75
:1026F800FCD70201EF51DF0B000165110201EF6FFA
:10270800000E0001606F050E58EC27F00001656FA0
:10271800060E666FD8906537662FFCD70201EF5119
:10272800BF0B000165110201EF6F010E0001606F20
:10273800050E58EC27F00001656F000E65B1800E9C
:10274800656F0201EF517F0B000165110201EF6F08
:1027580012000600FACF1EF0FBCF1FF0E9CF20F0E1
:10276800EACF21F0E1CF22F0E2CF23F0D9CF24F055
:10277800DACF25F0F3CF26F0F4CF27F0F6CF28F004
:10278800F7CF29F0F8CF2AF0F5CF2BF05FC02CF067
:1027980060C02DF061C02EF062C02FF09EB49DA4E1
:1027A80089D09E94010E03012A27000E2B232C2387
:1027B8002D2383A003D01D6A1D2A01D01D6A1D5038
:1027C800306E316A83A203D01D6A1D2A01D01D6AAA
:1027D8001D50326E336A83A403D01D6A1D2A01D0AE
:1027E8001D6A1D50346E356A83A603D01D6A1D2AE2
:1027F80001D01D6A1D50366E376A30500201E0194B
:1028080004E13150E119D8B40BD030043110D8A408
:1028180007D0010E03013A27000E3B233C233D233A
:1028280030C0E0F231C0E1F232500201DE1904E1B9
:102838003350DF19D8B40BD032043310D8A407D0E2
:10284800010E03013627000E37233823392332C0FF
:10285800DEF233C0DFF234500201DC1904E13550F6
:10286800DD19D8B40BD034043510D8A407D0010E24
:1028780003013227000E33233423352334C0DCF21E
:1028880035C0DDF236500201DA1904E13750DB19A0
:10289800D8B40BD036043710D8A407D0010E0301E2
:1028A8002E27000E2F233023312336C0DAF237C00B
:1028B800DBF20BD09DBA9EAA05D04BEC2BF0DAECDC
:1028C8000EF003D0A0BAD9EC17F02FC062F02EC0DA
:1028D80061F02DC060F02CC05FF02BC0F5FF2AC05E
:1028E800F8FF29C0F7FF28C0F6FF27C0F4FF26C06D
:1028F800F3FF25C0DAFF24C0D9FF23C0E2FF22C0BE
:10290800E1FF21C0EAFF20C0E9FF1FC0FBFF1EC096
:10291800FAFF5F92110076C07AF000017B6B7C6B46
:1029280075357A3701E37B817A517F6F79C07AF008
:102938007B6B7C6B78357A3701E37B817A517E6FCC
:102948007F51D8B40BD07E517F5DD8B00ED07F5167
:1029580000087E257A6F180E7A6507D077C074F064
:1029680078C075F079C076F012007E51D8B40BD0DB
:102978007F517E5DD8B00ED07E5100087F257A6FDA
:10298800180E7A6507D074C074F075C075F076C0FB
:1029980076F01200060E7D6F76BF7D8F79BF7D8D34
:1029A800758FFF0E7417FF0E7517000E7617788F48
:1029B800FF0E7717FF0E7817000E79177E517F5D8F
:1029C800D8B01BD0D8907737783779377E077F51C2
:1029D8007E19D8B40DD07D077DC07AF0070E7A171E
:1029E800D8B406D0EFD7D8907633753374337F2BAD
:1029F8007E517F19D8B41FD0F6D77F517E5DD8B0ED
:102A08001AD0D8907437753776377F077F517E197B
:102A1800D8B40DD07D077DC07AF0070E7A17D8B4E8
:102A280006D0EFD7D8907933783377337E2B7E5121
:102A38007F19D8A4F7D77DAF0CD0FF0E741BFF0EFB
:102A4800751BFF0E761B010E7427000E7523000EF2
:102A580076237DAD0CD0FF0E771BFF0E781BFF0E83
:102A6800791B010E7727000E7823000E7923000EBC
:102A78007D6F74517727755178237651792379AF13
:102A88000ED0FF0E771BFF0E781BFF0E791B010E71
:102A98007727000E7823000E7923010E7D6F77C00B
:102AA80060F078C061F079C062F07FC063F07DC0EB
:102AB80064F0FDEC20F060C074F061C075F062C095
:102AC80076F01200A09A000E6A6E000E686E000E74
:102AD800706E710E0001606F0F0E616F000E636FF4
:102AE800000E626F000E656F020E646FA1EC2AF093
:102AF800160E6F6E9F0E6B6E7B0E696E000E0001D8
:102B0800686F0B0E686501D00ED06851040D000E79
:102B1800F324D96E040EF420DA6EDE6ADE6ADE6A09
:102B2800DD6A682BEED76D8C000E6E6E6D986D9C0D
:102B38006896000EFD6F000E3B6E000E3D6E000E97
:102B48003C6E68B6F5D7010E0201EC6F010EEB6F13
:102B5800000EEA6F000EE96F000E0101FC6F000E17
:102B68000001686F020E686501D02ED06851020D11
:102B7800400EF324D96E000EF420DA6E000EDE6EDD
:102B8800000EDD6E6851020DC80EF324D96E020ED8
:102B9800F420DA6E000EDE6E000EDD6E6851010D57
:102BA800D50EF324D96E020EF420DA6E000EDF6E15
:102BB8006851010DD20EF324D96E020EF420DA6E9C
:102BC800000EDF6E682BCED7080E406E040E416EE5
:102BD800160E706E040E0401036F300E026F080E9D
:102BE800016F040E006F008F000E5E6E000E020172
:102BF800CE6F000ECF6F000ED06F000ED16F000E9B
:102C0800E86F000E586E1200A09A000E6A6E000E51
:102C1800686E000E706E710E016E0F0E026E000E61
:102C2800046E000E036E000E066E020E056EE8ECD2
:102C38002AF0160E6F6E9F0E6B6E7B0E696E000E7D
:102C4800096E0B0E096401D00ED00950040D000E58
:102C5800F324D96E040EF420DA6EDE6ADE6ADE6AC8
:102C6800DD6A092AEED76D8C000E6E6E6D986D9C2C
:102C78006896000E0001FD6F000E3B6E000E3D6E63
:102C8800000E3C6E68B6F4D7010E0201EC6F010E1F
:102C9800EB6F000EEA6F000EE96F000E0101FC6F8A
:102CA800000E096E020E096401D02ED00950020DE3
:102CB800400EF324D96E000EF420DA6E000EDE6E9C
:102CC800000EDD6E0950020DC80EF324D96E020EF7
:102CD800F420DA6E000EDE6E000EDD6E0950010D76
:102CE800D50EF324D96E020EF420DA6E000EDF6ED4
:102CF8000950010DD20EF324D96E020EF420DA6EBB
:102D0800000EDF6E092ACED7080E406E040E416E03
:102D1800160E706E040E0401036F300E026F080E5B
:102D2800016F040E006F008F000E5E6E000E020130
:102D3800CE6F000ECF6F000ED06F000ED16F000E59
:102D4800E86F000E586E120062C066F00001676BF3
:102D5800686B6135663701E3678166516E6F6E5146
:102D6800D8A409D0000E606F000E616F000E626F6C
:102D7800000E636F120065C066F0676B686B6435A0
:102D8800663701E3678166516D6F6D51D8A409D02C
:102D9800000E606F000E616F000E626F000E636FB1
:102DA8001200618FFF0E6017FF0E6117000E621789
:102DB800648FFF0E6317FF0E6417000E6517000E71
:102DC800696F000E6A6F000E6B6F000E6C6F7F0EDE
:102DD8006E5F6D51980F6E5F180E6D6FD8906937E2
:102DE8006A376B376C376351605D6451615965515F
:102DF8006259D8A007D06351605F6451615B655127
:102E0800625B6981D8906037613762376D2FE6D78A
:102E18006EAF16D06E51800A970FD8B009D0000E49
:102E2800606F000E616F000E626F000E636F12001C
:102E3800D8906C336B336A3369336E3FF9D715D04A
:102E4800170E6E650FD0000E606F000E616F000EDA
:102E5800626F000E636F1200D89069376A376B375C
:102E68006C376E076E51D8A4F7D769C060F06AC096
:102E780061F06BC062F06CC063F01200A09A0201AE
:102E8800D851D911D8B408D0D8C2D9FFD9C2DAFFDD
:102E9800DFAE02D0A08A1200030EE719D8A402D030
:102EA800000EE76FE751D8A402D0A08A1200020EE4
:102EB800E719D8A414D0010E0001606F000E616FED
:102EC800000E626F000E636F020EB8EC1AF060C05D
:102ED800D8F261C0D9F2030E0201E76F64D0E705AA
:102EE800D8A461D0400E516404D0400E00016C6F2C
:102EF80002D051C06CF000016C5100085124516E91
:102F0800000E0301466F050E476F6CC06BF002019F
:102F1800E651D8B412D027D049C3D9FF4AC3DAFF43
:102F280046C3E1FF47C3E2FFDFCFE7FF0301464B9C
:102F3800472B494B4A2B00016B0700016B51D8B452
:102F480016D0EAD749C3D9FF4AC3DAFF46C3E1FF1F
:102F580047C3E2FFDFCFE7FF0301464B472B494B4F
:102F68004A2B00016B0700016B51D8A4EBD75150D5
:102F7800D8A409D0400E6C19D8A402D0020E01D0F2
:102F8800030E0201E76F010E0001606F000E616F12
:102F9800050E626F6CC063F0020EB8EC1AF060C0E8
:102FA800D8F261C0D9F2A08A12005804D8B46DBA18
:102FB80006D0000E686E69806988020E586E68B483
:102FC80069A403D0689454EC2AF06DA202D0A19AA7
:102FD800120068B069A006D008EC16F0A08A040EAA
:102FE800586E689068B869A802D0B9EC2AF068AC45
:102FF8001AD069AC0ED0000E0E6E730E0D6E000E58
:103008000F6E000E106E000E126E010E116EE6ECC1
:1030180027F0689C5EEC2BF05450D8A4540654500A
:10302800D8B4E1EC1FF068BA69AA02D081EC29F0A3
:1030380068B269A20FD07F0E0E6E0D68000E0F6E7B
:10304800000E106E000E126E010E116EE6EC27F0E7
:10305800000E6A6E040E586002D0A19A120069A68A
:1030680039D0000E1C6E030E1C6401D033D068A644
:1030780031D06CCF5DF05D30E832E8320F0B556E21
:1030880068965DB407D05550010DD20EF324D96E61
:10309800020E06D05550010DD50EF324D96E020E3E
:1030A800F420DA6E0201DF705550D8A403D0A3ECE7
:1030B80023F00ED0000E0E6E720E0D6E5D0E0F6EAA
:1030C800000E106E000E126E000E116EE6EC27F068
:1030D8001C2AC9D7A19A1200800E04013019D8A45D
:1030E8001200C00E0001FD6F82D0380E0001FA6F89
:1030F8007D0EFB6F000EFF6F120EFE6F12000401B3
:103108003251D8A440D03251020D8B0EF324F66E02
:103118007C0EF420F76E0900F5CFFAF00A00F5CF1F
:10312800FBF0020E0001FA25016E000EFB21026E73
:1031380001C0F6FF02C0F7FFF86A070EF76403D074
:103148000800F55005D0F6CFE9FFF7CFEAFFEF50BA
:103158000001FE6F030EFA25016E000EFB21026EC0
:1031680001C0F6FF02C0F7FFF86A070EF76403D044
:103178000800F55005D0F6CFE9FFF7CFEAFFEF508A
:103188000001FF6F1200000E0001FD6F1200030E18
:103198000401326124D03251020D850EF324F66EFB
:1031A8007C0EF420F76E0900F5CFFAF00A00F5CF8F
:1031B800FBF0FAC0F6FFFBC0F7FFF86A070EF764EA
:1031C80003D00800F55005D0F6CFE9FFF7CFEAFFA6
:1031D800EF50016E01500001FE6FFF6B1200000EF0
:1031E8000001FD6F1200000E0001FD6F12000401C6
:1031F8003351010AD8B479D7030AD8B480D7010A61
:10320800D8B4C5D7F0D70001A96F0001A951D8A437
:1032180002D0010EC26EA905D8A402D0050EC26E56
:10322800000EAF6F000EAE6F000EAD6F000EAC6FEC
:10323800ADBF06D0AD5119E1200EAC5DD8B015D0A8
:10324800C28200F0C2B2FED7C4CFAAF00001AB6BB5
:10325800AA51A16FC350AA6FA1C0ABF0AA51AE2763
:10326800AB51AF23AC4BAD2BE3D7050EA16FD89074
:10327800AF33AE33A12FFBD7AE51AF11D8A407D0CF
:10328800000EA66F000EA76F000EA86F4BD0000EA1
:10329800926F440E936F440E946F000E836F800EEE
:1032A800846F410E856F000E776F430E786FC30EE3
:1032B800796FAEC068F0AFC069F0FFEC29F068C064
:1032C80074F069C075F06AC076F08FEC14F074C0C1
:1032D80080F075C081F076C082F038EC1DF080C0B7
:1032E8008FF081C090F082C091F0B3EC1DF08FC0D8
:1032F800A3F090C0A4F091C0A5F0A3C074F0A4C03E
:1033080075F0A5C076F0000E0001776F800E786F1B
:10331800400E796F8FEC14F074C0A6F075C0A7F05A
:1033280076C0A8F0A6C09EF0A7C09FF0A8C0A0F0E5
:1033380012000001623563356B6F6B51D8A409D058
:10334800000E606F000E616F000E626F000E636FFB
:103358001200653566356A6F6A51D8A409D0000E27
:10336800606F000E616F000E626F000E636F1200D7
:10337800628FFF0E6017FF0E6117FF0E6217000EB7
:103388006317658FFF0E6317FF0E6417FF0E65172F
:10339800000E6617000E666F000E676F000E686FEE
:1033A800000E696F7F0E6B5F6A51A00F6B5F200E76
:1033B8006A6FD89066376737683769376351605DD9
:1033C800645161596551625966516359D8A009D051
:1033D8006351605F6451615B6551625B6651635B19
:1033E8006681D89060376137623763376A2FE1D7D3
:1033F8006BAF16D06B51800A9F0FD8B009D0000E62
:10340800606F000E616F000E626F000E636F120036
:10341800D89069336833673366336B3FF9D715D073
:103428001F0E6B650FD0000E606F000E616F000EEF
:10343800626F000E636F1200D8906637673768377F
:1034480069376B076B51D8A4F7D766C060F067C0BF
:1034580061F068C062F069C063F0120020EE01F00C
:103468004E50D9264F50DA22DF50026E02503C5C93
:10347800000E3D58D8A03CC002F002503C5E000E41
:103488003D5A000E016E11D00150010D380EF32483
:10349800D96E040EF420DA6E38C0E1FF39C0E2FFBD
:1034A800DFCFE7FF384A392A012A0250015CD8A049
:1034B800EBD73C503D10D8B432D020EE01F04C5040
:1034C800D9264D50DA22080EDF6E20EE02F04C505D
:1034D800D9264D50DA22380EDE6E040EDD6E4EC04F
:1034E800D9FF4FC0DAFFDFBC0DD04CC0D9FF4DC0AB
:1034F800DAFF480EDF6E4CC0D9FF4DC0DAFF000E70
:10350800DB8E12004CC0D9FF4DC0DAFF080EDF6E0B
:103518004CC0D9FF4DC0DAFF000EDB8E120020EE42
:1035280001F04C50D9264D50DA22080EDF6E20EEFD
:1035380002F04C50D9264D50DA22300EDE6E040EC1
:10354800DD6E4CC0D9FF4DC0DAFF040EDF6E4CC0F3
:10355800D9FF4DC0DAFF000EDB8E3B9E5350D8A436
:103568001200E1EC1FF012000001686F00016051C9
:10357800D8B407D06851020D400EF324D96E000E5E
:1035880006D06851020DC80EF324D96E020EF4203D
:10359800DA6EDECF69F0DDCF6AF069516A11D8A41E
:1035A80005D0000E606F000E616F120020EE02F071
:1035B8006951D9266A51DA2261C0DEFF62C0DDFF97
:1035C80020EE01F06951D9266A51DA2263C0DFFF83
:1035D80069C0D9FF6AC0DAFF400EDF1669C0D9FF9B
:1035E8006AC0DAFF000EDB8669C0D9FF6AC0DAFF5D
:1035F800000EDB8E6051D8B418D06851020D400E11
:10360800F324D96E000EF420DA6EDECF64F0DDCF3D
:1036180065F0040E6419666F6551676F6851020D95
:10362800400EF324D96E000E17D06851020DC80E53
:10363800F324D96E020EF420DA6EDECF64F0DDCF0B
:1036480065F0040E6419666F6551676F6851020D65
:10365800C80EF324D96E020EF420DA6E66C0DEFFBF
:1036680067C0DDFF69C060F06AC061F0120090ECCD
:103678002BF041D0000E0001826F000E816F0DD03B
:10368800E10E8125F66E7D0E8221F76E0800F55059
:10369800B4EC2BF00001814B822BE10E606F7D0EA4
:1036A800616F14EC28F000016051815D615182590D
:1036B800D8B029D0E5D7000E846F000E836F0DD0E7
:1036C800D70E8325F66E7D0E8421F76E0800F5501F
:1036D800B4EC2BF00001834B842BD70E606F7D0E6A
:1036E800616F14EC28F000016051835D61518459C9
:1036F800D8B009D0E5D700017E51000AD8B4BAD7AE
:10370800010AD8B4D8D7000E866F000E856F1BD07B
:1037180085517C257F6F86517D21806F7FC0F6FFA4
:1037280080C0F7FFF86A070EF76403D00800F55069
:1037380005D0F6CFE9FFF7CFEAFFEF50B4EC2BF056
:103748000001854B862B7CC060F07DC061F014ECD5
:1037580028F000016051855D61518659D8A0D8D7FD
:103768000D0EB4EC2BF00A0EB4EC2BF059EC22F051
:103778001200096E0150D8B407D00950020D400E4E
:10378800F324D96E000E06D00950020DC80EF3249A
:10379800D96E020EF420DA6EDECF0AF0DDCF0BF020
:1037A8000A500B10D8A405D0000E016E000E026E50
:1037B800120020EE02F00A50D9260B50DA2202C07D
:1037C800DEFF03C0DDFF20EE01F00A50D9260B50C2
:1037D800DA2204C0DFFF0AC0D9FF0BC0DAFF400EAF
:1037E800DF160AC0D9FF0BC0DAFF000EDB860AC05D
:1037F800D9FF0BC0DAFF000EDB8E0150D8B418D009
:103808000950020D400EF324D96E000EF420DA6E32
:10381800DECF05F0DDCF06F0040E0518076E065062
:10382800086E0950020D400EF324D96E000E17D011
:103838000950020DC80EF324D96E020EF420DA6E78
:10384800DECF05F0DDCF06F0040E0518076E065032
:10385800086E0950020DC80EF324D96E020EF4202A
:10386800DA6E07C0DEFF08C0DDFF0AC001F00BC03A
:1038780002F012006D980001FDBF3AD03BAE0DD0AA
:10388800020E566E0201E951D8B454EC23F0000E32
:103898000201EB6F000EEC6F120020EE01F04C50AD
:1038A800D9264D50DA22080EDF6E20EE02F04C5079
:1038B800D9264D50DA22300EDE6E040EDD6E4CC075
:1038C800D9FF4DC0DAFF0C0EDF6E4CC0D9FF4DC0DA
:1038D800DAFF000EDB8E40C0D9FF41C0DAFF040ECC
:1038E800DF6E40C0D9FF41C0DAFF000EDB8E120048
:1038F800040130AF12D0010E566E0201EA51D8B45D
:1039080054EC23F0000E0201EB6F000EEC6F5350E5
:10391800D8A41200E1EC1FF01200020E566E20EE41
:1039280001F04C50D9264D50DA22080EDF6E20EEF9
:1039380002F04C50D9264D50DA22300EDE6E040EBD
:10394800DD6E4CC0D9FF4DC0DAFF040EDF6E4CC0EF
:10395800D9FF4DC0DAFF000EDB8E000E0201EB6FBF
:10396800000EEC6F5350D8A41200E1EC1FF01200C7
:10397800B2C0B4F00001B56BB66BB135B43701E332
:10398800B581B451BE6FBE51D8A409D0000EB06F36
:10399800000EB16F000EB26F000EB36F1200170E5B
:1039A800B46FB0C0B5F0B1C0B6F0B2C0B7F0B429CA
:1039B800B86F04D0D890B733B633B533B82FFAD729
:1039C8000001B551B96FB18FFF0EB017FF0EB117D7
:1039D800000EB217B051BA6FB151BB6FB251BC6F84
:1039E800BD6B8E0EBE5FBEAF16D0BE51800A8F0F64
:1039F800D8B009D0000EB06F000EB16F000EB26FD4
:103A0800000EB36F1200D890BD33BC33BB33BA334A
:103A1800BE3FF9D715D0170EBE650FD0000EB06F98
:103A2800000EB16F000EB26F000EB36F1200D89087
:103A3800BA37BB37BC37BD37BE07BE51D8A4F7D796
:103A4800B951D8B408D0BD1FBC1FBB1FBA6D000E3A
:103A5800BB23BC23BD23BAC0B0F0BBC0B1F0BCC00F
:103A6800B2F0BDC0B3F0120082C086F00001876BCF
:103A7800886B8135863701E387818651896F895143
:103A8800D8A407D0000E806F000E816F000E826FE1
:103A9800120085C086F0876B886B8435863701E312
:103AA800878186518E6F8E51D8A407D0000E806F03
:103AB800000E816F000E826F12008E517B0F8927D6
:103AC80082C08EF085518E1B800E8E17818F848F59
:103AD800FF0E8317FF0E8417000E8517000E8A6FDE
:103AE800000E8B6F000E8C6F070E8D6F80A106D0B5
:103AF80083518A2784518B2385518C23D890823314
:103B080081338033D8908337843785378D2FEED72C
:103B1800090E8D6F80A106D083518A2784518B238B
:103B280085518C23D890823381338033D8908C335D
:103B38008B338A338D2FEED78AC060F08BC061F04B
:103B48008CC062F089C063F08EC064F0FDEC20F098
:103B580060C080F061C081F062C082F0120091C044
:103B680095F00001966B976B9035953701E3968138
:103B780095519C6F9C51D8A407D0000E8F6F000EF2
:103B8800906F000E916F120094C095F0966B976B32
:103B98009335953701E3968195519D6F9D51D8A432
:103BA80007D0000E8F6F000E906F000E916F1200FD
:103BB800000E996F000E9A6F000E9B6F9D51890F32
:103BC8009C5F91C09DF094519D1B800E9D17908F16
:103BD800FF0E8F17FF0E9017000E9117938FFF0E91
:103BE8009217FF0E9317000E9417180E986FD8901F
:103BF80099379A379B3792518F5D935190599451C9
:103C08009159D8A007D092518F5F9351905B9451EE
:103C1800915B9981D8908F3790379137982FE7D754
:103C280099C060F09AC061F09BC062F09CC063F0DC
:103C38009DC064F0FDEC20F060C08FF061C090F092
:103C480062C091F0120004013039E832030B000918
:103C5800D8A4120047D00001FD8F080E586E12003C
:103C680070EC18F0120008EC1FF012005E0E000154
:103C7800FA6F000EFB6FFD81010EFE6FFD8F1200C3
:103C8800AFEC22F012002AEC10F0120004013451BB
:103C9800010DFC0EF3240001FA6F020EF420FB6FF5
:103CA800FD81010EFE6FFD8F12000001FD8F0401E2
:103CB8003451010DFC0EF324D96E020EF420DA6E95
:103CC80032C4DFFF1200000E0E6E020E0D6E000EE3
:103CD8000F6E000E106E000E126E000E116EE6ECE6
:103CE80027F0120004013151000AD8B4C9D7010ADB
:103CF800D8B4C9D7020AD8B4C6D7060AD8B4ABD73D
:103D0800030AD8B4ADD7010AD8B4DDD70F0AD8B49E
:103D1800ADD7010AD8B4A7D7030AD8B4B7D7010AD0
:103D2800D8B4C3D7070A12000001696F9D9454D014
:103D38003AC36AF03BC36BF03CC36CF03DC36DF013
:103D48006551D8B457D0000E03013A6F000E3B6F8F
:103D5800000E3C6F000E3D6F4DD036C36AF037C37E
:103D68006BF038C36CF039C36DF06551D8B442D0EC
:103D7800000E0301366F000E376F000E386F000E0D
:103D8800396F38D032C36AF033C36BF034C36CF088
:103D980035C36DF06551D8B42DD0000E0301326FD4
:103DA800000E336F000E346F000E356F23D02EC314
:103DB8006AF02FC36BF030C36CF031C36DF06551FE
:103DC800D8B418D0000E03012E6F000E2F6F000E0E
:103DD800306F000E316F0ED000016951010AD8B45E
:103DE800A7D7030AD8B4B9D7010AD8B4CBD7070ADA
:103DF800D8B4DDD79D846AC065F06BC066F06CC02E
:103E080067F06DC068F012000001FD8F710E016E41
:103E18000F0E026E000E046E000E036E000E066E8C
:103E2800020E056EE8EC2AF0000E016E040E026E1A
:103E3800000E046E000E036E000E066E300E056E48
:103E4800E8EC2AF06D8C000E156E020E156401D098
:103E580016D01550010DD50EF324D96E020EF4209C
:103E6800DA6E000EDF6E1550010DD20EF324D96EF6
:103E7800020EF420DA6E000EDF6E152AE6D7FC0E6D
:103E8800016E020E026E000E046E000E036E000E2E
:103E9800066E020E056EE8EC2AF06D9C080E406E68
:103EA800040E416E000E4E6E040E4F6E4EC04CF066
:103EB8004FC04DF032C45EF05E50D8A403D0100E4F
:103EC800586E1200000E0E6E010E0D6E5E0E0F6E15
:103ED800000E106E000E126E010E116EE6EC27F049
:103EE800200E586E1200080E016E0001FF5110E1FD
:103EF800080EFE5DD8B00CD0FEC001F05750D8A413
:103F080002D0010E04D05704D8A402D0020E576E76
:103F18000150FE5F000EFF5B20EE01F04050D926F5
:103F28004150DA2201C0DFFF380E03014C6F040E46
:103F38004D6F0001FDA11DD03CD0FAC0F6FFFBC0BB
:103F4800F7FFF86A4CC3D9FF4DC3DAFF070EF764D1
:103F580003D00800F55005D0F6CFE9FFF7CFEAFF08
:103F6800EF50DF6E0001FA4BFB2B03014C4B4D2B3E
:103F780001060150D8B41200E0D7FAC0F6FFFBC022
:103F8800F7FFF86A4CC3D9FF4DC3DAFF070EF76491
:103F980003D00800F55005D0F6CFE9FFF7CFEAFFC8
:103FA800EF50DF6E0001FA4BFB2B03014C4B4D2BFE
:103FB80001060150D8B41200E0D70201EC51D8A490
:103FC8001200010EEC6FEB51D8A41200010EEB6F3A
:103FD800020E5618D8A415D020EE01F04050D9266C
:103FE8004150DA22000EDF6E40C0D9FF41C0DAFF2F
:103FF800480EDF6E40C0D9FF41C0DAFF000EDB8EED
:1040080012005604D8A41200000E0101FB6F20EE26
:1040180001F04E50D9264F50DA22080EDF6E20EEFE
:1040280002F04E50D9264F50DA22300EDE6E040EC2
:10403800DD6E4EC0D9FF4FC0DAFF040EDF6E4EC0F2
:10404800D9FF4FC0DAFF000EDB8E010EFB6F20EEAA
:1040580001F04C50D9264D50DA22080EDF6E20EEC2
:1040680002F04C50D9264D50DA22300EDE6E040E86
:10407800DD6E4CC0D9FF4DC0DAFF800EDF6E120036
:1040880040C0D9FF41C0DAFF000EDFBC010E026E4E
:10409800040E4018406E4150416E080E5818D8A4BE
:1040A8000BD0040132517F0B6E6E6E50D8B402D023
:1040B800100E01D0040E586E5604D8A43AD020EE43
:1040C80002F04050D9264150DA22380EDE6E040E36
:1040D800DD6E77EC1FF0020E5718D8A40DD040C043
:1040E800D9FF41C0DAFF040EDF6E40C0D9FF41C0DE
:1040F800DAFF000EDB8E12000250D8A40DD040C0AB
:10410800D9FF41C0DAFF480EDF6E40C0D9FF41C079
:10411800DAFF000EDB8E120040C0D9FF41C0DAFF83
:10412800080EDF6E40C0D9FF41C0DAFF000EDB8EFB
:1041380012003BBE3B9E000E566E1200200E000180
:10414800BF6F010EC06F6C0EC16F7E0EC26F750E11
:10415800C36F7D0EC46F000EC66F440EC56F000E90
:10416800C86F440EC76F000ECA6F440EC96F000EA9
:10417800CC6F440ECB6F000ECE6F440ECD6F000E89
:10418800D06F440ECF6F000ED26F440ED16F000E69
:10419800D46F440ED36F000ED66F440ED56F000E49
:1041A800D86F440ED76F000EDA6F440ED96F000E29
:1041B800DC6F440EDB6F000EDE6F440EDD6F000E09
:1041C800E06F440EDF6F000EE26F440EE16F000EE9
:1041D800E46F440EE36F09EC00F0200E00017C6FE1
:1041E800010E7D6F000E7E6F3BEC1BF00101E86F46
:1041F800120000016351D8B405D0605161116211F9
:10420800D8A40CD0000E606F000E616F000E626FB4
:104218001200632BD890623361336033000E60154F
:10422800656F000E6115666FFE0E6215676F65514A
:1042380066116711D8B40CD0ECD7632B010E602738
:10424800000E6123000E6223D8906233613360331D
:10425800000E6015656F000E6115666FFF0E621522
:10426800676F655166116711D8B406D0E6D7630742
:10427800D89060376137623761BF03D0020E63613F
:10428800F6D763A1619FD890633363516213645179
:10429800D8A4628F60C060F061C061F062C062F053
:1042A8001200020EF66E570EF76E000EF86E03EE51
:1042B800C3F010EE1EF00900F5CFEEFFE550E15017
:1042C800FAE1760EF66E570EF76E000EF86E0900DC
:1042D800F5CFFEF207EE00F0C80EEE6AE806FDE143
:1042E80006EE00F0C80EEE6AE806FDE103EE00F007
:1042F800C30EEE6AE806FDE102EEC8F0360EEE6A7D
:10430800E806FDE101EEF9F0070EEE6AE806FDE1C8
:1043180004EE40F0640EEE6AE806FDE10001FF6B72
:10432800FE6BFD6BFC6BFB6BFA6B05EE80F0640EAD
:10433800EE6AE806FDE100EE38F0270EEE6AE806C0
:10434800FDE15F905F92000EF86E000108EF07F044
:10435800040130511F0BE806D8A412003039E832A6
:10436800030BE806D8A412003451D8B436D034056B
:10437800D8A4120032D0B40E0001FA6F030EFB6FFE
:10438800000EFF6F080EFE6FFD81FD8F1200B40E48
:104398000001FA6F030EFB6FFD8F120036C43CF06C
:1043A80037C43DF0BC0E386E030E396E000E3E6EFB
:1043B800000E3F6E3B8E1200BC0E0001FA6F030E1A
:1043C800FB6F000EFF6F070EFE6FC10EFD6F120030
:1043D80032C4E5F20001FD8F120004013151000AD8
:1043E800D8B4C9D7010AD8B4D2D7210AD8B4D6D7F5
:1043F800010AD8B4E1D7030AD8A41200E9D79580F6
:1044080083A004D00001606B602B02D00001606BB8
:1044180060510201E06FE16B958283A204D0000134
:10442800606B602B02D00001606B60510201DE6F8F
:10443800DF6B958483A404D00001606B602B02D0ED
:104448000001606B60510201DC6FDD6B958683A60D
:1044580004D00001606B602B02D00001606B6051DA
:104468000201DA6FDB6B000E03013A6F000E3B6F3F
:10447800000E3C6F000E3D6F000E366F000E376F5A
:10448800000E386F000E396F000E326F000E336F5A
:10449800000E346F000E356F000E2E6F000E2F6F5A
:1044A800000E306F000E316F120000017A69EA0EBB
:1044B800796F600E786F000E7B6F38EC2BF060C060
:1044C80074F061C075F062C076F063C077F033D0E5
:1044D80074C068F075C069F076C06AF077C06BF098
:1044E8000001681F691F6A1F6B1F682B000E692374
:1044F8006A236B2338EC2BF00001685160256C6F40
:10450800695161216D6F6A5162216E6F6B51632130
:104518006F6F7851706F7951716F726B736B6C51EB
:10452800705D6D5171596E5172596F517359D8B090
:1045380002D0010E7B6F00017B51D8A403D05950E3
:10454800D8B4C6D75950D8B404D0FEC17AF0000EFA
:10455800596E7A511200000E0401386F000E396F3F
:1045680039D00001FD8F0101FD05D8A43ED004011A
:1045780038833BD00001FD8F38D00001FD8F040146
:1045880034BF0AD034510F0B016E0150020DC80E12
:10459800F324D96E020E09D034510F0B016E01506D
:1045A800020D400EF324D96E000EF420DA6EDECF31
:1045B80002F0DDCF03F002C0D9FF03C0DAFFDFAE9F
:1045C80014D002C0D9FF03C0DAFFDFA40ED0010E59
:1045D800386F0BD030511F0B000AD8B4C2D7010A6C
:1045E800D8B4C8D7030AD8B4C8D70001FDAF1200A1
:1045F800380EFA6F040EFB6FFD81020EFE6F12007B
:10460800828C949C828E948EAC84B886000E0001B5
:10461800606F0E0E616F270E626F070E636F6DC0BD
:1046280064F06EC065F06FC066F070C067F051EC62
:1046380025F0FB0E00016025716FFF0E6121726F7E
:10464800FF0E6221736FFF0E6321746F71C060F0FB
:1046580072C061F073C062F074C063F00A0E646FD8
:10466800000E656F000E666F000E676F51EC25F047
:1046780060C071F061C072F062C073F063C074F022
:1046880071C0AFFF72C0B0FFAC98AC96AB8EB89853
:10469800B89AB890AC9CAB9CAB88AC8A9D8A120047
:1046A800000E0201EA6F000EE96F020E5618D8A438
:1046B8001FD020EE01F04C50D9264D50DA22080EBA
:1046C800DF6E20EE02F04C50D9264D50DA22380E1B
:1046D800DE6E040EDD6E4CC0D9FF4DC0DAFF480E09
:1046E800DF6E4CC0D9FF4DC0DAFF000EDB8E120022
:1046F8000001FE510401365D0001FF5104013759E4
:10470800D8B004D036C4FEF037C4FFF077EC1FF001
:1047180020EE02F04050D9264150DA22380EDE6EE3
:10472800040EDD6E40C0D9FF41C0DAFF480EDF6ECF
:1047380040C0D9FF41C0DAFF000EDB8E12002D0EFB
:10474800546E5DC01BF0FD0E1B16D8A43BD05DC097
:104758001BF0D8901B323F0E1B161B50040D000E89
:10476800F3244E6E040EF4204F6E4EC04CF04FC032
:104778004DF0040E4C184C6E4D504D6E4EC0D9FF86
:104788004FC0DAFFDF30E8320F0B0D0AD8A417D07C
:10479800300E016E040E026E20EE02F04E50D92645
:1047A8004F50DA22DECF03F0DDCF04F0000E066EA4
:1047B800080E056E1DEC29F0EEEC23F01200B7ECA4
:1047C80027F012005D50FD0B040AD8A4120044EC37
:1047D80020F01200000E576E000E536E000E0201FC
:1047E800EA6F000EE96F000E0101FB6F000E566EB6
:1047F80040C0D9FF41C0DAFF7F0EDF16040E401813
:10480800406E4150416E40C0D9FF41C0DAFF7F0E73
:10481800DF16040E4018406E4150416E4CC0D9FF5F
:104828004DC0DAFF7F0EDF16000E0001FD6F000E8F
:10483800FF6F000EFE6F000E3B6E000E3D6E000E09
:104848003C6E27EC1EF0000E0E6E030E0D6E000E71
:104858000F6E000E106E000E126E000E116EE6EC5A
:1048680027F03EEC1CF01200066E000E076E040ED8
:10487800086E0150026E036AD8900236033606505D
:10488800046E056AD89004360536D8900436053685
:104898000250042603500522D89004360536D890D5
:1048A80004360536045007260550082207C0D9FFEC
:1048B80008C0DAFFDF9E0150D8A407D00650020DC9
:1048C800C80EF324D96E020E06D00650020D400E13
:1048D800F324D96E000EF420DA6E07C0DEFF08C09C
:1048E800DDFF07C0D9FF08C0DAFFDF9C20EE04F027
:1048F8000750D9260850DA22DF8C1200000162AF77
:1049080016D060C066F061C067F062C068F0661FCC
:10491800671F681F662B000E67236823000E662535
:10492800606F000E6721616F800E6821626F65AF4E
:1049380016D063C066F064C067F065C068F0661F93
:10494800671F681F662B000E67236823000E662505
:10495800636F000E6721646F800E6821656F000E1B
:10496800601B000E611B800E621B000E631B000E95
:10497800641B800E651B6351605D6451615965510C
:104988006259D8B002D0D8901200D8801200000E18
:1049980000016B6F69AF06D0686D691FD8B0692BCD
:1049A800010E6B6F67AF06D0666D671FD8B0672BB7
:1049B800010E6B1B000E6D6F000E6C6F6851691154
:1049C800D8B41CD0010E6A6F04D0D8906837693704
:1049D8006A2B69AFFAD7D8906C376D376851665D26
:1049E80069516759D8A005D06851665F6951675BFE
:1049F8006C81D890693368336A2FEDD76B51D8B47E
:104A080004D06C6D6D1FD8B06D2B6CC066F06DC096
:104A180067F01200066E000E046E000E056E000EA2
:104A2800036E06509BEC2BF0066E02509BEC2BF0AD
:104A3800026E2F0E066406D03A0E066003D00650AA
:104A4800D00F08D0400E066406D0470E066003D08B
:104A58000650C90F046E2F0E026406D03A0E02608B
:104A680003D00250D00F0AD0400E026406D0470E81
:104A7800026003D00250C90F01D0640E056E640EA7
:104A88000518D8A403D004C003F005D00450100DB5
:104A9800F3500524036E03501200000E0001686FE6
:104AA800000E696F000E6A6F000E6B6F645165111E
:104AB80066116711D8B42AD0010E6C6F06D0D89051
:104AC80064376537663767376C2B67AFF8D7D89088
:104AD800683769376A376B376451605D655161596A
:104AE8006651625967516359D8A009D06451605F13
:104AF8006551615B6651625B6751635B6881D89001
:104B080067336633653364336C2FE1D768C060F070
:104B180069C061F06AC062F06BC063F0120033D004
:104B280001C0D9FF02C0DAFFDF50D8B40FD001C0EE
:104B3800D9FF02C0DAFFDF50076E03C0F6FF04C0DA
:104B4800F7FF0800F5500718D8B419D003C0F6FFCE
:104B580004C0F7FF0800F550076E086A071E081E14
:104B6800074A082A01C0D9FF02C0DAFFDF50096EE0
:104B780009500724016E000E0820026E1200014A37
:104B8800022A034A042A0506D8A006060528C8E111
:104B98000628D8A4C5D7000E026E000E016E1200BA
:104BA800200E0001BF6F010EC06FB00EC16F7E0EE8
:104BB800C26F8B0EC36F7D0EC46F000EC66F000EE2
:104BC800C56F000EC86F040EC76F000ECA6FA30E24
:104BD800C96F000ECC6F0B0ECB6F000ECE6F000EA0
:104BE800CD6F000ED06F1B0ECF6F000ED26F8F0EE1
:104BF800D16F000ED46F980ED36F09EC00F0200E21
:104C080000017C6F010E7D6F000E7E6F3BEC1BF088
:104C18000101E86F1200200E0001BF6F010EC06F86
:104C2800B00EC16F7E0EC26F800EC36F7D0EC46F53
:104C3800000EC66F000EC56F000EC86F000EC76F5E
:104C4800000ECA6F000EC96F000ECC6F000ECB6F3E
:104C5800000ECE6F000ECD6F000ED06F000ECF6F1E
:104C6800000ED26F000ED16F000ED46F000ED36FFE
:104C780009EC00F0200E00017C6F010E7D6F000E24
:104C88007E6F3BEC1BF00101E86F120038EC2BF053
:104C980060C079F061C07AF062C07BF063C07CF0DC
:104CA80002D089EC2AF079C071F07AC072F07BC02A
:104CB80073F07CC074F00001711F721F731F741FA2
:104CC800712B000E72237323742338EC2BF0000130
:104CD80071516025756F72516121766F7351622130
:104CE800776F74516321786F6D51755D6E51765988
:104CF8006F51775970517859D8B01200D2D7000E39
:104D08000001656F61AF06D0606D611FD8B0612B7F
:104D1800010E656F63AF04D0626D631FD8B0632B5B
:104D280062516311D8B418D0010E646F04D0D890C2
:104D380062376337642B63AFFAD76251605D6351A2
:104D48006159D8A004D06251605F6351615BD8900B
:104D580063336233642FF1D76551D8B404D0606DE2
:104D6800611FD8B0612B60C060F061C061F01200B3
:104D78000101E96F0001F551D8B412D0200EBF6FC0
:104D8800010EC06F990EC16F7F0EC26F5A0EC36FAE
:104D98007D0EC46FE9C1C5F0C66B09EC00F012D0F6
:104DA800200E0001BF6F010EC06F850EC16F7F0E10
:104DB800C26F5A0EC36F7D0EC46FE9C1C5F0C66BD2
:104DC80009EC00F0200E00017C6F010E7D6F000ED3
:104DD8007E6F3BEC1BF00101E86F1200000171517E
:104DE800721173117411D8B424D0010E756F06D0E6
:104DF800D8907137723773377437752B74AFF8D70B
:104E080071516D5D72516E5973516F59745170596A
:104E1800D8A008D071516D5F72516E5B73516F5B92
:104E28007451705BD8907433733372337133752F48
:104E3800E7D76DC06DF06EC06EF06FC06FF070C0D8
:104E480070F01200000E0301BC6F4B0EBD6F000E18
:104E5800BE6F000EBF6F000EC06F000EC16F080E50
:104E6800C26F000E526E1A0E096E010EE1EC29F0A7
:104E78001E0E096E020EE1EC29F0000E016E400EC6
:104E8800026E050E036E400E046E020EBDEC1BF0A2
:104E980001C04AF002C04BF0000E0201D86F000EAC
:104EA800D96F000EE76F12000001646F00016051B6
:104EB800D8B419D060C061F06451020D010EF32618
:104EC800000EF422000EF324D96E030EF420DA6EDD
:104ED800DF50626F612B02D0D8906233612FFCD70C
:104EE800000162510DD06451020D010EF326000E2F
:104EF800F422000EF324D96E030EF420DA6EDF508C
:104F0800010B636F635112008E0E0001706F06D0A3
:104F1800D8906B336A3369336833702B000E681589
:104F28006C6F000E69156D6F000E6A156E6FFF0EBF
:104F38006B156F6F6C516D116E116F11D8A4E8D796
:104F480068C060F069C061F06AC062F070C063F068
:104F5800000E646FFDEC20F060C068F061C069F07D
:104F680062C06AF01200020E5618D8A403D032ECC0
:104F78001AF01200000E566E0101FB51D8A41FD082
:104F880020EE01F04C50D9264D50DA22080EDF6E83
:104F980020EE02F04C50D9264D50DA22300EDE6E4B
:104FA800040EDD6E4CC0D9FF4DC0DAFF0C0EDF6E6B
:104FB8004CC0D9FF4DC0DAFF000EDB8E1200000E88
:104FC800FB6F120006D026EC27F01200ACEC21F0A3
:104FD80012000DC013F00EC014F01450000AD8B41B
:104FE80004D07F0AD8A4120018D01350010AD8B4EC
:104FF800EAD7030AD8B41200010AD8B4E7D7060AD8
:10500800D8B41200770AD8B41200010AD8B4120032
:10501800070AD8B41200010A12001350FF0A12003E
:1050280060C064F061C065F003D00001644B652B7B
:1050380064C0F6FF65C0F7FFF86A070EF76403D08F
:105048000800F55005D0F6CFE9FFF7CFEAFFEF509B
:105058000009D8A4EAD760C062F061C063F000011B
:10506800621F631F624B632B64516225606F655139
:105078006321616F120001C005F002C006F002D082
:10508800054A062A05C0F6FF06C0F7FFF86A070EAC
:10509800F76403D00800F55005D0F6CFE9FFF7CF45
:1050A800EAFFEF500009D8A4EBD701C003F002C013
:1050B80004F0031E041E034A042A05500324016E4B
:1050C80006500420026E1200A09A0201E751D8B4DB
:1050D80002D0A08A1200000E0001646F60C062F066
:1050E80061C063F0642B6429D8B409D062C0D9FFC9
:1050F80063C0DAFF624B632BDF50D8A4F3D760C0DC
:1051080049F361C04AF364C051F0010E0201E66F31
:10511800010EE76FA08A120004D0014A022A034A4E
:10512800042A01C0D9FF02C0DAFFDF50056E03C0B0
:10513800F6FF04C0F7FF0800F55000080524066EC6
:105148000650D8A407D001C0D9FF02C0DAFFDF504B
:10515800D8A4E3D70650016E026A01BE0206120007
:1051680060C064F061C065F003D00001644B652B3A
:1051780064C0D9FF65C0DAFFDF50D8B406D0F5D7D0
:105188000001644B652B624B632B62C0D9FF63C07F
:10519800DAFF64C0E1FF65C0E2FFDFCFE7FFE75059
:1051A800D8B41200EDD7200E0001BF6F010EC06FFA
:1051B800E40EC16F7F0EC26F680EC36F7D0EC46FA1
:1051C800F5C0C5F0F6C0C6F009EC00F0200E0001ED
:1051D8007C6F010E7D6F000E7E6F3BEC1BF00001B3
:1051E800F76FF7510101E86FE96B1200200E00011B
:1051F800BF6F010EC06FE40EC16F7F0EC26FC30E8A
:10520800C36F7D0EC46FF5C0C5F0F6C0C6F009ECDB
:1052180000F0200E00017C6F010E7D6F000E7E6F86
:105228003BEC1BF00001F76FF7510101E86FE96BE8
:10523800120003C009F004C00AF001C007F002C060
:1052480008F010D009C0D9FF0AC0DAFFDF500B6E92
:10525800094A0A2A07C0D9FF08C0DAFF0BC0DFFFD6
:10526800074A082A0506D8A006060528EBE10628FD
:10527800D8B41200E7D7010E0201F26FF29EB80E01
:10528800B16E000ECF6E000ECE6E050EBF6EDC0E38
:10529800BE6E000E03012A6F000E2B6F000E2C6FDE
:1052A800000E2D6F9E94F10ECD6E0B0EBD6E9D847B
:1052B8009F84D08EF28E12000001835184118511D3
:1052C800D8B406D0000E831B000E841B800E851BED
:1052D80080C074F081C075F082C076F083C077F02A
:1052E80084C078F085C079F08FEC14F074C080F039
:1052F80075C081F076C082F0120070A01DD04EC03B
:10530800D9FF4FC0DAFF800EDE18D8A414D040C0F1
:10531800D9FF41C0DAFF840EDE18D8A40CD04EC0E5
:10532800D9FF4FC0DAFF0C0EDF6E4EC0D9FF4FC059
:10533800DAFF000EDB8E7090689A12000101E96FA7
:10534800200E0001BF6F010EC06FF50EC16F7F0EFA
:10535800C26F4A0EC36F7D0EC46FE9C1C5F0C66B3C
:1053680009EC00F0200E00017C6F010E7D6F000E2D
:105378007E6F3BEC1BF00101E86F1200200E00016C
:10538800BF6F010EC06FEA0EC16F7F0EC26FBB0EFA
:10539800C36F7D0EC46FF5C0C5F0F6C0C6F009EC4A
:1053A80000F0200E00017C6F010E7D6F000E7E6FF5
:1053B8003BEC1BF00101E86F12000C6E09A405D04C
:1053C800000E016E0C5038EC24F009A205D0010E35
:1053D800016E0C5038EC24F00C50010D700EF324C3
:1053E8000A6E0F0EF4200B6E0AC0D9FF0BC0DAFF4D
:1053F80009C0DFFF1200000E00016B6F69AF06D015
:10540800686D691FD8B0692B010E6B6F68C060F0BA
:1054180069C061F0626B8E0E636F6BC064F0FDEC67
:1054280020F060C068F061C069F062C06AF01200E4
:10543800A00E00017C6F7D0E7D6F000E7E6F3BEC31
:105448001BF00001876F0BD059EC22F00009D8A49B
:1054580002D0010E1200000E1200000E1200000110
:105468008751000AD8B4F0D7F8D7200E0001BF6FD3
:10547800010EC06FED0EC16F7F0EC26FDC0EC36FE1
:105488007D0EC46F09EC00F0200E00017C6F010E48
:105498007D6F000E7E6F3BEC1BF00101E86F120080
:1054A800000E0101FC6F000E0E6E740E0D6E000EE4
:1054B8000F6E000E106E000E126E000E116EE6ECEE
:1054C80027F06D92699401D0689468B4FDD7000EF6
:1054D8000201E86F12005850D8A4120082A41200EA
:1054E800000E6D6E000E696E160E6F6E9F0E6B6E5F
:1054F8007B0E696ED08EA28AA08AF28E01D06D864C
:105508006DA6FDD7010E586E12005850D8B482A46B
:1055180003D06FEC2AF006D05804D8B482B402D075
:10552800ADEC2BF01F0E586402D06DA202D0000E15
:10553800120042EC17F0010E120060C066F061C064
:1055480067F009D066C0D9FF67C0DAFF62C0DFFF25
:105558000001664B672B00016407D8A06507642922
:10556800F1E16529D8B41200EDD7698468986D8295
:10557800010E0101FC6F000E0201E86F000E0E6EB5
:10558800750E0D6E000E0F6E000E106E000E126E70
:10559800000E116EE6EC27F0120001C005F002C003
:1055A80006F004D0054A062A034A042A03C0D9FF94
:1055B80004C0DAFF05C0E1FF06C0E2FFDFCFE7FF66
:1055C800E750D8B41200EED701C007F002C008F0C7
:1055D80008D007C0D9FF08C0DAFF03C0DFFF074AB9
:1055E800082A0506D8A006060528F3E10628D8B437
:1055F8001200EFD700016E517003F3CF72F0F4CFB1
:1056080073F06E517103F35073276F517003F350A9
:10561800732772C06EF073C06FF01200D10E0001D4
:105628007C6F7D0E7D6F010E7E6F3BEC1BF00001E1
:10563800876F0F0E8719D8A402D0010E1200000E32
:1056480012000001605161116211D8B406D0000E39
:10565800601B000E611B800E621B60C060F061C0A1
:1056680061F062C062F012009D942AC364F02BC3FB
:1056780065F02CC366F02DC367F09D8464C060F0AC
:1056880065C061F066C062F067C063F012009EBA40
:1056980002D0000E1200ABCF02F0AECF03F002C072
:1056A80001F0060E0116D8B403D0AB9800F0AB8811
:1056B80003501200010E0201CE27000ECF23D02383
:1056C800D1230101FC51D8A412000201E82BE851B2
:1056D800D8A41200E86912000001626F000E0001F0
:1056E800616F3A0E626105D02F0E626502D0010E1D
:1056F800616F61C060F060311200967F487F647FFF
:105708007A7FCF7FD47EFA7F6F7F167F8F7FA27FCD
:10571800AA7F567FC87F387F9D9A0101FE69000ED7
:105728005A6E000E5B6E000E596E9D8A1200016E55
:105738007B0E016004D0600E016401D0019A015013
:105748001200C2900D0EC16EBE0EC06E9E9C9D9C36
:105758001200000E6D6E000E696E000E586E12007B
:0F5768000001606F9EA8FED760C0ADFF12000366
:107BEE0000010000000A00000064000000E803002D
:107BFE000010270000A086010040420F00809698DA
:107C0E000000E1F50500CA9A3B00803F00204100CC
:107C1E00C842007A44401C4650C347247449971802
:107C2E004BBCBE4C6B6E4E03155079AD60F3497173
:107C3E0000803FCDCC3DD7233C12833AB7D138C616
:107C4E002737388635C0D633CC2B32708930E7DBF8
:107C5E002EE53C1E42A20D010000001000000000A7
:107C6E0001000000100000000001000000100000E4
:107C7E0000000100000010E67D047DD07C8D7C09A3
:107C8E00024300020100C032090400000102020199
:107C9E00000524001001042402020524060001053B
:107CAE0024010001070581030800020904010002F6
:107CBE000A0000000705020240000007058202408C
:107CCE0000003403430044004300200052005300E0
:107CDE002D00320033003200200045006D0075008B
:107CEE006C006100740069006F006E00200044009B
:107CFE0065006D006F0034034D0069006300720073
:107D0E006F00630068006900700020005400650079
:107D1E00630068006E006F006C006F0067007900F2
:107D2E00200049006E0063002E00120100020200C6
:107D3E000008D8040A0000010102000172616469A2
:107D4E006F2073657420736620534600736574202C
:107D5E0063682073746174757300726164696F2057
:107D6E0073657420627700736574206170706B6543
:107D7E007900736574206170706575690073657440
:107D8E00206465766575690067657420646E63743A
:107D9E0072006A6F696E206F74616100747820756D
:107DAE006E636E660067657420616472007365743D
:107DBE0020616472007365742064720074782063AD
:107DCE006E6600726573657400737973200073615B
:107DDE007665006D61632000040309046F6666001A
:107DEE006F6E0048504850434D434D45454B5957D3
:107DFE0052434849445348534C726573706F7374C1
:107E0E00613A202532582025325820253258202517
:107E1E003258202532582025325820253258202518
:107E2E003258202532582025325820202564202013
:107E3E002564202025642020256420202564202010
:107E4E002564202025642020256420202564202000
:107E5E0025642020256420202564200A0D0025732A
:107E6E0020252E3278252E3278252E3278252E3268
:107E7E0078252E3278252E3278252E3278252E3200
:107E8E0078252E3278252E3278252E3278252E32F0
:107E9E0078252E3278252E3278252E3278252E32E0
:107EAE007800257320252E3278252E3278252E3215
:107EBE0078252E3278252E3278252E3278252E32C0
:107ECE0078252E3278006672616D655F636F756E10
:107EDE007465725F6572725F72656A6F696E5F6EEE
:107EEE006565646564003031323334353637383980
:107EFE00414243444546003031323334353637380B
:107F0E003961626364656600696E76616C69645F8F
:107F1E00646174615F6C656E003C3D3E804E23254E
:107F2E006C64232573232564230061636365707479
:107F3E006564524E323930332000696E76616C6959
:107F4E00645F706172616D006B6579735F6E6F74E3
