:0400000007EF00F016
:100008005F824CED0FF045EF1FF0CB0E0001E16F62
:10001800000EE26FDDEF05F0250EF619D8B40AD010
:10002800C7C0D9FFC8C0DAFFF6C0DFFFC74BC82B6F
:10003800DDEF05F0000EF36F000EF26F000EF56FA6
:10004800000EF46F04D00001F485C94BCA2BC9C057
:10005800F6FFCAC0F7FF0800F550300AD8B4F3D746
:10006800C9C0F6FFCAC0F7FF0800F550B3EC24F08A
:10007800D8A0A4D0000E0001F36F000EF26FF2C0FA
:100088006EF0F3C06FF0000E0001716F0A0E706F12
:1000980009EC24F06EC0F2F06FC0F3F0D00E00014E
:1000A800D36FFF0ED46FC9C0F6FFCAC0F7FF0800B0
:1000B800F550D56FD66BD351D527D451D623D5510A
:1000C800F227D651F323C94BCA2BC9C0F6FFCAC0C1
:1000D800F7FF0800F550B3EC24F0D8A06FD0CFD7C5
:1000E8000001F4896BD0F58592D0F48F90D0E1C0EF
:1000F800D9FFE2C0DAFFDECFDDF0DDCFDEF0020EA1
:10010800E127000EE223DD51DE11D8A404D0CB0E86
:10011800DD6F7F0EDE6F000EE06F000EDF6F02D026
:10012800DF4BE02BDF51DD25D36FE051DE21D46FAB
:10013800D3C0F6FFD4C0F7FF0800F5500009D8A4D3
:10014800EFD7F251DF5DF351E059D8B005D0DF5158
:10015800F25FE051F35B0DD0000EF36F000EF26F0B
:1001680008D0C7C0D9FFC8C0DAFF200EDF6EC74B62
:10017800C82BF207D8A0F307F229F3E1F329D8B482
:1001880010D0EFD7DDC0F6FFDEC0F7FFC7C0D9FF3C
:10019800C8C0DAFF0800F5CFDFFFDD4BDE2BC74B09
:1001A800C82BDF07D8A0E007DF29ECE1E029D8B4A5
:1001B800DDEF05F0E7D7C00EF41329D0C9C0F6FF6C
:1001C800CAC0F7FF0001C94BCA2B0800F5CFF6F0EB
:1001D800F651000AD8B4EAEF05F0580AD8B485D722
:1001E8003C0AD8B414D0020AD8B47DD70F0AD8B4C0
:1001F8000ED0050AD8B474D71F0AD8B478D7060A1F
:10020800D8B4D9D70D0AD8B470D7DDEF05F0070EEA
:10021800F515D8B427D3000EE46F060EE36FE1C0DE
:10022800D9FFE2C0DAFFDECFEFF0DECFF0F0DDCFAE
:10023800F1F0030EE127000EE223F1AF11D0EFC079
:1002480060F0F0C061F0F1C062F043EC24F060C0EF
:10025800EFF061C0F0F062C0F1F0030E0001F4139A
:10026800000EEA6F000EE96FEF51F011F111D8B4EA
:1002780088D0820ED36FFF0ED46FEFC0D5F0F0C0D8
:10028800D6F0F1C0D7F0F2C0D8F0100E05D0D89053
:10029800D833D733D633D533E82EF9D7D551D3252C
:1002A800E96F000ED421EA6FE907D8A0EA07E9C090
:1002B8006EF0EAC06FF0000E716F030E706F09ECFC
:1002C80024F06EC0E9F06FC0EAF0E9C066F0EAC059
:1002D80067F0000E0001696F0A0E686F7DEC1EF072
:1002E80066C0E9F067C0EAF00001EAAF03D0E907A9
:1002F800D8A0EA07E9510008F1EC05F08FC0E5F055
:1003080090C0E6F091C0E7F0E5C080F0E6C081F06B
:10031800E7C082F0EFC083F0F0C084F0F1C085F050
:100328007CEC18F080C0E5F081C0E6F082C0E7F010
:10033800E5C060F0E6C061F0E7C062F0000E0001C1
:10034800636F800E646F3F0E656FECEC1DF000016B
:10035800D8B004D0E907D8A0EA0713D0E5C060F008
:10036800E6C061F0E7C062F0000E636F200E646FB4
:10037800410E656FECEC1DF00001D8A002D0E94BEE
:10038800EA2BE4BF06D0E4511BE10D0EE35DD8B0C3
:1003980017D0EFC074F0F0C075F0F1C076F0E351FB
:1003A8004BEC09F08FC077F090C078F091C079F0ED
:1003B800A5EC0DF074C0EFF075C0F0F076C0F1F068
:1003C8000001EABF06D0EA511FE10A0EE95DD8B084
:1003D8001BD0EF51F011F111D8B454D0EFC0B8F0E0
:1003E800F0C0B9F0F1C0BAF000EC18F00001B85153
:1003F800B911BA11BB11D8B4EABF44D0EA5104E12B
:10040800020EE95DD8A03ED0E5C060F0E6C061F01C
:10041800E7C062F0700E636F890E646F400E656FFF
:10042800ECEC1DF00001D8B002D0F70E01D0F80EA8
:10043800E927FF0EEA23E951F1EC05F08FC0E5F05A
:1004480090C0E6F091C0E7F0EFC060F0F0C061F056
:10045800F1C062F0E5C063F0E6C064F0E7C065F0A3
:1004680001EC12F060C0EBF061C0ECF062C0EDF09E
:1004780063C0EEF0000E0001EF6F000EF06F000E8B
:10048800F16F33D0EFC0B8F0F0C0B9F0F1C0BAF0F6
:1004980000EC18F0B8C0EBF0B9C0ECF0BAC0EDF061
:1004A800BBC0EEF0EFC080F0F0C081F0F1C082F088
:1004B800EBC068F0ECC069F0EDC06AF0EEC06BF01C
:1004C80044EC21F068C083F069C084F06AC085F00C
:1004D800B1EC22F080C0EFF081C0F0F082C0F1F002
:1004E800000E0001EA6F000EE96F010EF66F0A0EAA
:1004F800F619D8B418D0F651040D510EF324F66E3F
:100508007D0EF420F76E0900F550EB5D0900F550FB
:10051800EC590900F550ED590900F550EE59D8A0ED
:1005280002D0F62BE4D7F6C0D3F0D46BD3BFD407F0
:10053800E351D327E451D423E951D327EA51D423F3
:10054800D351F25FD451F35BE351E411D8B403D033
:10055800F207D8A0F307030EF415D36F000EF515B4
:10056800D46FD351D411D8B403D0F207D8A0F3076D
:10057800F4A531D0030EF415D36F000EF515D46F22
:10058800D351D411D8B414D0C7C0D9FFC8C0DAFF2A
:100598002D0EDF6EC74BC82B0BD0C7C0D9FFC8C004
:1005A800DAFF300EDF6EC74BC82BF207D8A0F3076F
:1005B800F3BF73D0F351F1E1F205D8A06ED0EDD7B7
:1005C800C7C0D9FFC8C0DAFF200EDF6EC74BC82BE3
:1005D800F207D8A0F307F3BF05D0F351F1E1F20514
:1005E800D8B0EED7030EF415D36F000EF515D46FFF
:1005F800D351D411D8B451D0C7C0D9FFC8C0DAFF7D
:100608002D0E48D0EBC060F0ECC061F0EDC062F098
:10061800EEC063F0F651040D510EF324F66E7D0E14
:10062800F420F76E0900F5CF64F00900F5CF65F006
:100638000900F5CF66F00A00F5CF67F003EC1FF06C
:1006480060C0E5F061C0E6F062C0E7F063C0E8F0C2
:10065800E5C06DF0E6C06EF0E7C06FF0E8C070F07E
:100668000A0E0001716F000E726F000E736F000E9C
:10067800746FABEC20F06DC0E5F06EC0E6F06FC0B3
:10068800E7F070C0E8F00001E551300FC7C0D9FFAE
:10069800C8C0DAFFDF6EC74BC82BF607F629D8B4F7
:1006A8000CD0B0D7C7C0D9FFC8C0DAFF300EDF6E94
:1006B800C74BC82BE907D8A0EA07EABF05D0EA511B
:1006C800F1E1E905D8B0EED7E4BF09D0E45104E17F
:1006D800090EE35DD8A003D0080EF66F02D0E3C080
:1006E800F6F0F651E35F000EF6BFFF0EE45BF6513D
:1006F800D8B408D0C7C0D9FFC8C0DAFF2E0EDF6E45
:10070800C74BC82BF651F1EC05F08FC0D9F090C05B
:10071800DAF091C0DBF0EFC083F0F0C084F0F1C0F4
:1007280085F0D9C080F0DAC081F0DBC082F07CECC3
:1007380018F080C0B8F081C0B9F082C0BAF000ECFF
:1007480018F0B8C0EBF0B9C0ECF0BAC0EDF0BBC01F
:10075800EEF072D0EBC060F0ECC061F0EDC062F07A
:10076800EEC063F00001F651040D510EF324F66E4D
:100778007D0EF420F76E0900F5CF64F00900F5CF7F
:1007880065F00900F5CF66F00A00F5CF67F003ECD5
:100798001FF060C0E5F061C0E6F062C0E7F063C03A
:1007A800E8F0E5C06DF0E6C06EF0E7C06FF0E8C0B5
:1007B80070F00A0E0001716F000E726F000E736FF9
:1007C800000E746FABEC20F06DC0E5F06EC0E6F083
:1007D8006FC0E7F070C0E8F00001E551300FC7C006
:1007E800D9FFC8C0DAFFDF6EC74BC82BEBC06DF06E
:1007F800ECC06EF0EDC06FF0EEC070F0F651040D75
:10080800510EF324F66E7D0EF420F76E0900F5CF35
:1008180071F00900F5CF72F00900F5CF73F00A0006
:10082800F5CF74F0ABEC20F06DC0EBF06EC0ECF0DF
:100838006FC0EDF070C0EEF00001F607F629D8B4ED
:100848000CD088D7C7C0D9FFC8C0DAFF300EDF6E1A
:10085800C74BC82BE307D8A0E407E351E411D8B489
:10086800A8D1F0D7C00EF415D36F000EF515D46FCC
:10087800D351D411D8A42ED0F4A90ED0E1C0D9FFF9
:10088800E2C0DAFFDECFEBF0DECFECF0DECFEDF04A
:10089800DECFEEF0040E0ED0E1C0D9FFE2C0DAFFE1
:1008A800DECFEBF0DDCFECF0000EECBFFF0EED6F0E
:1008B800EE6F020EE127000EE223EEAF6AD0030EC0
:1008C800F413EE1FED1FEC1FEB6D000EEC23ED2370
:1008D800EE235FD0F4A90ED0E1C0D9FFE2C0DAFF61
:1008E800DECFEBF0DECFECF0DECFEDF0DECFEEF0DA
:1008F800040E0FD0E1C0D9FFE2C0DAFFDECFD3F09B
:10090800DDCFD4F0D3C0EBF0D4C0ECF0ED6BEE6BE0
:10091800020EE127000EE2233CD0010EF66F0A0E0C
:10092800F619D8B441D0F651040D510EF324F66EE1
:100938007D0EF420F76E0900F550EB5D0900F550C7
:10094800EC590900F550ED590900F550EE59D8A0B9
:100958002BD0F62BE4D7010EF66F080EF619D8B493
:1009680023D0F651040DC70EF324F66E7D0EF42045
:10097800F76E0900F550EB5D0900F550EC590900D8
:10098800F550ED590900F550EE59D8A00DD0F62BC9
:10099800E4D7F451C00B000AD8B4BFD7800AD8B442
:1009A800DAD7400AD8B4B9D7F251F311D8B40DD078
:1009B800030EF415D36F000EF515D46FD351D4116F
:1009C800D8B403D0F207D8A0F307800EF6BF7F0E85
:1009D800D36FF251F65DF351800AD359D8B007D0DE
:1009E800F651F25F000EF6BFFF0EF35B04D0000E67
:1009F800F36F000EF26FF4A522D0030EF415D36F37
:100A0800000EF515D46FD351D411D8B408D0C7C08F
:100A1800D9FFC8C0DAFF2D0EDF6EC74BC82BF251C5
:100A2800F311D8B431D0C7C0D9FFC8C0DAFF300E2F
:100A3800DF6EC74BC82BF207D8A0F307F0D7F251E7
:100A4800F311D8B40FD0C7C0D9FFC8C0DAFF200E41
:100A5800DF6EC74BC82BF207D8A0F307F251F3118A
:100A6800D8A4F1D7030EF415D36F000EF515D46F83
:100A7800D351D411D8B408D0C7C0D9FFC8C0DAFF41
:100A88002D0EDF6EC74BC82BF651E36FE46BE3BF47
:100A9800E40787D0E3C0D3F0E4C0D4F0D890D337CC
:100AA800D437D890D337D437510ED325F66E7D0E70
:100AB800D421F76E0900F5CF64F00900F5CF65F091
:100AC8000900F5CF66F00A00F5CF67F0EBC060F0DB
:100AD800ECC061F0EDC062F0EEC063F003EC1FF013
:100AE80060C06DF061C06EF062C06FF063C070F0FE
:100AF8000A0E0001716F000E726F000E736F000E08
:100B0800746FABEC20F000016D51300FF66F41D0DF
:100B1800EBC060F0ECC061F0EDC062F0EEC063F0D5
:100B2800E3C0D3F0E4C0D4F0D890D337D437D8900A
:100B3800D337D437C70ED325F66E7D0ED421F76E82
:100B48000900F5CF64F00900F5CF65F00900F5CF8D
:100B580066F00A00F5CF67F003EC1FF00001605162
:100B68000F0BDC6FDC51010D160EF324F66E7F0EB1
:100B7800F420F76E0800F5CFF6F00BD0F451C00B57
:100B8800000AD8B487D7800AD8B4C2D7400AD8B4E4
:100B980081D7C7C0D9FFC8C0DAFFF6C0DFFFC74B8F
:100BA800C82BE307D8A0E407E329E8E1E429D8A49F
:100BB800E5D7C9C0F6FFCAC0F7FFC94BCA2B080062
:100BC800F5CFF6F0F651D8A410EF00F0C7C0D9FF62
:100BD800C8C0DAFF000EDF6E12000001956F000139
:100BE80095AF0CD1956D9551800A120FD8A097D06A
:100BF800000E716F030E706F000E696F0A0E686F3A
:100C0800000E636F640E626F9551606F616B60BF19
:100C1800610706EC20F060C066F061C067F07DEC0B
:100C28001EF0090E000166256E6F000E67216F6FBA
:100C380009EC24F0A00E00016E25F66E7D0E6F21E2
:100C4800F76E0900F5CF83F00900F5CF84F00A00AC
:100C5800F5CF85F0000E696F640E686F9551666F69
:100C6800676B66BF67077DEC1EF0120E00016625F4
:100C78006E6F000E67216F6F000E716F030E706F3D
:100C880009EC24F0A00E00016E25F66E7D0E6F2192
:100C9800F76E0900F5CF80F00900F5CF81F00A0062
:100CA800F5CF82F07CEC18F080C092F081C093F010
:100CB80082C094F092C080F093C081F094C082F01A
:100CC800000E0001716F030E706F000E636F0A0E45
:100CD800626F9551606F616B60BF610706EC20F031
:100CE80060C06EF061C06FF009EC24F0A00E000146
:100CF8006E25F66E7D0E6F21F76E0900F5CF83F035
:100D08000900F5CF84F00A00F5CF85F07CEC18F0E7
:100D180080C08FF081C090F082C091F01200000175
:100D28009551800A750FD8A056D0000E696F0A0E2B
:100D3800686F9551666F676B66BF67077DEC1EF03D
:100D4800090E000166256E6F000E67216F6F000E99
:100D5800716F030E706F09EC24F0A00E00016E2570
:100D6800F66E7D0E6F21F76E0900F5CF80F0090051
:100D7800F5CF81F00A00F5CF82F0000E716F030EF7
:100D8800706F000E636F0A0E626F9551606F616B32
:100D980060BF610706EC20F060C06EF061C06FF0C4
:100DA80009EC24F0A00E00016E25F66E7D0E6F2171
:100DB800F76E0900F5CF83F00900F5CF84F00A003B
:100DC800F5CF85F07CEC18F080C08FF081C090F0F2
:100DD80082C091F0120000019551030DA00EF3247A
:100DE800F66E7D0EF420F76E0900F5CF8FF009003E
:100DF800F5CF90F00A00F5CF91F012009551800AD6
:100E0800120FD8A097D0000E716F030E706F000EEE
:100E1800696F0A0E686F000E636F640E626F9551FA
:100E2800606F616B60BF610706EC20F060C066F020
:100E380061C067F07DEC1EF0090E000166256E6F3B
:100E4800000E67216F6F09EC24F0790E00016E2502
:100E5800F66E7D0E6F21F76E0900F5CF83F009005D
:100E6800F5CF84F00A00F5CF85F0000E696F640EA7
:100E7800686F9551666F676B66BF67077DEC1EF0FC
:100E8800120E000166256E6F000E67216F6F000E4F
:100E9800716F030E706F09EC24F0790E00016E2556
:100EA800F66E7D0E6F21F76E0900F5CF80F0090010
:100EB800F5CF81F00A00F5CF82F07CEC18F080C005
:100EC80092F081C093F082C094F092C080F093C0F9
:100ED80081F094C082F0000E0001716F030E706FF4
:100EE800000E636F0A0E626F9551606F616B60BF91
:100EF800610706EC20F060C06EF061C06FF009EC8D
:100F080024F0790E00016E25F66E7D0E6F21F76EC6
:100F18000900F5CF83F00900F5CF84F00A00F5CF7A
:100F280085F07CEC18F080C08FF081C090F082C012
:100F380091F0120000019551800A750FD8A056D083
:100F4800000E696F0A0E686F9551666F676B66BF12
:100F580067077DEC1EF0090E000166256E6F000E16
:100F680067216F6F000E716F030E706F09EC24F02C
:100F7800790E00016E25F66E7D0E6F21F76E090061
:100F8800F5CF80F00900F5CF81F00A00F5CF82F0A7
:100F9800000E716F030E706F000E636F0A0E626FA2
:100FA8009551606F616B60BF610706EC20F060C00F
:100FB8006EF061C06FF009EC24F0790E00016E2527
:100FC800F66E7D0E6F21F76E0900F5CF83F00900EC
:100FD800F5CF84F00A00F5CF85F07CEC18F080C0DE
:100FE8008FF081C090F082C091F0120000019551FD
:100FF800030D790EF324F66E7D0EF420F76E0900CA
:10100800F5CF8FF00900F5CF90F00A00F5CF91F0F9
:10101800120004013205D8A40FD030511F0B00096B
:10102800D8A40AD03E8E030E3119D8A402D0010EDE
:1010380001D0000E0101FD6F04013251D8A4120045
:1010480030511F0B020AD8A4120034510F0B0009AB
:10105800D8B4120034510F0B156E030E1560120030
:10106800200E5818D8A412003E8E34BF19D034511F
:101078000F0B156E1550020D0A0EF324D96E020ED1
:10108800F420DA6EDECF19F0DDCF1AF034510F0BF1
:10109800156E1550010D3E0EF324D96E020E18D0B0
:1010A80034510F0B156E1550020D410EF324D96EF5
:1010B800000EF420DA6EDECF19F0DDCF1AF03451CD
:1010C8000F0B156E1550010D410EF324D96E020E4B
:1010D800F420DA6EDF50186E18B006D0FB0E191423
:1010E800196EFF0E1A1404D0040E1910196E1A5036
:1010F8001A6E34BF0AD034510F0B156E1550020DFD
:101108000A0EF324D96E020E09D034510F0B156E56
:101118001550020D410EF324D96E000EF420DA6E3C
:1011280019C0DEFF1AC0DDFF030E3119D8A42DD077
:1011380019C0D9FF1AC0DAFFDFAE1AD034BF0AD0FF
:1011480034510F0B156E1550010D3E0EF324D96E58
:10115800020E0AD0040134510F0B156E1550010D03
:10116800410EF324D96E020EF420DA6E0201DF82FA
:1011780019C0D9FF1AC0DAFF000EDB8419C0D9FFE5
:101188001AC0DAFF000EDB8E1200040E1918196E51
:101198001A501A6E19C0D9FF1AC0DAFFDFAE1BD079
:1011A80019C0D9FF1AC0DAFF7F0EDF1619C0D9FFA0
:1011B8001AC0DAFF000EDB8C000E0E6E050E0D6EE7
:1011C80019C00FF01AC010F0000E126E020E116E48
:1011D800A2EC21F006D019C0D9FF1AC0DAFF000E20
:1011E800DB8C040E1918196E1A501A6E18B206D034
:1011F80019C0D9FF1AC0DAFFDFAE30D0040134BFFE
:101208000AD034510F0B156E1550010D3E0EF32404
:10121800D96E020E0AD0040134510F0B156E155009
:10122800010D410EF324D96E020EF420DA6E02018C
:10123800DF9219C0D9FF1AC0DAFF3B0EDF16000E85
:101248000E6E050E0D6E19C00FF01AC010F0000ECC
:10125800126E020E116EA2EC21F006D019C0D9FF51
:101268001AC0DAFF3B0EDF16040134510F0B156E5E
:101278001550010D700EF324166E0F0EF420176E24
:1012880016C0D9FF17C0DAFFFE0EDF1612000001E4
:10129800986F6D0E00019865A6D0000E716F030E51
:1012A800706F000E696F0A0E686F000E636F640E30
:1012B800626F98C060F0616B06EC20F060C066F069
:1012C80061C067F07DEC1EF0090E000166256E6FA7
:1012D800000E67216F6F09EC24F0A00E00016E2547
:1012E800F66E7D0E6F21F76E0900F5CF83F00900C9
:1012F800F5CF84F00A00F5CF85F0000E696F640E13
:10130800686F98C066F0676B7DEC1EF0120E0001E6
:1013180066256E6F000E67216F6F000E716F030EEA
:10132800706F09EC24F0A00E00016E25F66E7D0E9C
:101338006F21F76E0900F5CF80F00900F5CF81F035
:101348000A00F5CF82F07CEC18F080C095F081C0DF
:1013580096F082C097F0000E0001716F030E706F57
:10136800000E636F0A0E626F98C060F0616B06EC46
:1013780020F060C06EF061C06FF009EC24F0A00EA0
:1013880000016E25F66E7D0E6F21F76E0900F5CF10
:1013980083F00900F5CF84F00A00F5CF85F095C0F9
:1013A80080F096C081F097C082F07CEC18F080C085
:1013B80092F081C093F082C094F092C080F093C004
:1013C80081F094C082F0000E0001836F000E846FDC
:1013D8003F0E856F7CEC18F080C08FF081C090F0D4
:1013E80082C091F012000A0E0001986567D0000EC5
:1013F800716F030E706F000E636F0A0E626F98C0F4
:1014080060F0616B06EC20F060C06EF061C06FF0B8
:1014180009EC24F0A00E00016E25F66E7D0E6F21FA
:10142800F76E0900F5CF83F00900F5CF84F00A00C4
:10143800F5CF85F0000E696F0A0E686F98C066F0E8
:10144800676B7DEC1EF0090E000166256E6F000EBD
:1014580067216F6F000E716F030E706F09EC24F037
:10146800A00E00016E25F66E7D0E6F21F76E090045
:10147800F5CF80F00900F5CF81F00A00F5CF82F0B2
:101488007CEC18F080C095F081C096F082C097F08F
:1014980095C080F096C081F097C082F0000E0001E0
:1014A800836F000E846F3F0E856F7CEC18F080C050
:1014B8008FF081C090F082C091F012000001985125
:1014C800030DA00EF324F66E7D0EF420F76E0900CE
:1014D800F5CF80F00900F5CF81F00A00F5CF82F052
:1014E800000E836F000E846F3F0E856F7CEC18F042
:1014F80080C08FF081C090F082C091F01200106E11
:101508005B50010D140EF324D96E030EF420DA6E2D
:1015180010C0DFFF5B2A0A0E1018D8A40FD1020EE4
:101528005B640CD15B50010D140EF324D96E030ECD
:10153800F420DA6E000EDF6E000E016E060E026EEB
:10154800140E036E030E046EB1EC23F0FE0E0A6E49
:10155800FF0E0B6E5B500C6E0D6A0A500C260B507A
:101568000D22140E0C24D96E030E0D20DA6E000E17
:10157800DF6E000E5B6E0F0E0E6E0101FE69000E2F
:10158800116E1CD0140E016E030E026E1150020D66
:10159800DB0EF324D96E020EF420DA6EDECF03F0F0
:1015A800DDCF04F048EC22F001500210D8A405D099
:1015B80011C0FEF1010E5A6E1200112A0E50115C74
:1015C800D8A0E0D7F9C201F0FAC202F0FBEC21F092
:1015D8000150126E140E016E030E026EF9C203F072
:1015E800FAC204F012C005F0066A86EC1FF001503A
:1015F8000210D8A406D00F0E0101FE6F010E5A6E1C
:101608001200EFC201F0F0C202F0FBEC21F0015031
:10161800126E140E016E030E026EEFC203F0F0C2DA
:1016280004F012C005F0066A86EC1FF001500210A3
:10163800D8A484D012C013F0000E0F6E27D0135018
:10164800010D140EF324D96E030EF420DA6E2F0E5A
:10165800DF642BD01350010D140EF324D96E030E42
:10166800F420DA6E390EDF6401D01FD00A0E0F02A3
:10167800F3500F6E1350010D140EF324D96E030EA0
:10168800F420DA6EDF50D00F0F26132A140E016EE5
:10169800030E026EFBEC21F013500A6E0B6A015028
:1016A8000A5C02500B58D8A0CAD7132A38D05C500D
:1016B800020D000EF324D96E030EF420DA6E0FC06B
:1016C800DFFF5C50020D010EF326000EF422000E1F
:1016D800F324D96E030EF420DA6E13500A6E0B6AE7
:1016E800010E0A26000E0B22140E0A24E16E030EC8
:1016F8000B20E26EE750026E1350010D140EF32416
:10170800E16E030EF420E26EE750C0EC1EF0DF6ECF
:101718005C2A090E5C6401D01200020E1326140E16
:10172800016E030E026EFBEC21F013500A6E0B6A79
:1017380001500A5C02500B58D8A0B9D7640E5B6000
:1017480004D00A0E1018D8A41200000E5B6E120006
:10175800000E0101E46F9694839895989280928286
:10176800000EE36F000EE26FE3BF06D0E3511CE109
:10177800190EE25DD8B018D0010EE41BE4B102D016
:10178800849401D084840D0E0001FD6F2D0EFC6F32
:10179800D70EE82EFED7FC2FFCD7FD2FFAD700D0A6
:1017A8000101E24BE32BE0D7000E00016D6FE10E63
:1017B8006E6F000E6F6F000E706F6BEC1CF0C0EC5C
:1017C80010F0D5EC24F012EC21F0F3EC22F081ECCF
:1017D80023F0550E0CEC25F02FEC23F00101CF6F10
:1017E80069EC24F060C0D1F161C0D2F162C0D3F1DC
:1017F80063C0D4F1010E0101E41BE4B102D084946A
:1018080001D084847CEC0EF09EC0D5F19FC0D6F147
:10181800A0C0D7F1000E0001836F7A0E846F440ECA
:10182800856FD5C180F0D6C181F0D7C182F07CEC3C
:1018380018F080C0B8F081C0B9F082C0BAF000ECEE
:1018480018F0B8C0E0F1B9C0E1F177EC20F0E0C1E0
:10185800E5F1E0C1FCF0E1C1FDF0FDC0FCF00001E4
:10186800FD6B0101E6510001FC19800BFC19010117
:10187800E66F02015CB103D00101E69F02D00101CD
:10188800E68F2CC2E7F12DC2E8F12EC2E9F128C299
:10189800EAF129C2EBF12AC2ECF150C2EDF1010ED6
:1018A8000001F76FE50EF86F010EF96F090EFA6F78
:1018B800000EEBEC14F00101D06F81EC23F0D1C1E4
:1018C800FCF0D2C1FDF0D3C1FEF0D4C1FFF000019D
:1018D800FC1FFD1FFE1FFF1FFC2B000EFD23FE2318
:1018E800FF2369EC24F00001FC5160250101DC6F45
:1018F8000001FD5161210101DD6F0001FE516221EE
:101908000101DE6F0001FF5163210101DF6FDCC1BE
:10191800FCF0DDC1FDF0DEC1FEF0DFC1FFF000012B
:10192800FC1FFD1FFE1FFF1FFC2B000EFD23FE23C7
:10193800FF23300EFC250101D86F750E0001FD2133
:101948000101D96F000E0001FE210101DA6F000EBE
:101958000001FF210101DB6FDF51DE1106E1310ECD
:10196800DC5D750EDD59D8A008D0000ED86F000ECA
:10197800D96F000EDA6F000EDB6FD8C187F0D9C1BE
:1019880088F0DAC189F0DBC18AF0C7EC1FF028D7EC
:10199800000E0001656F000E666F000E676F000E87
:1019A800686F000E6F6F000E706F000E716F000E83
:1019B800726F000E836F000E826F83BF07D0835152
:1019C80004E18229D8B0A2D001D0A0D08169000E4C
:1019D8006B6F000E6C6F000E6D6F000E6E6F000E59
:1019E8007F6F030E7F6501D02BD07F518225F5ECE8
:1019F80024F00001646F6451736F746B756B766BC0
:101A080081C060F073518FEC24F00001816F180ED3
:101A1800D8907337743775377637E82EF9D76CC096
:101A28006BF06DC06CF06EC06DF06E6B73516B1324
:101A380074516C1375516D1376516E137F2BD1D77A
:101A4800000E7B6F000E7C6F000E7D6F000E7E6FA8
:101A5800040E806F070E806501D02BD0805182253F
:101A6800F5EC24F00001646F6451776F786B796B43
:101A78007A6B81C060F077518FEC24F00001816FA0
:101A8800180ED8907737783779377A37E82EF9D71C
:101A98007CC07BF07DC07CF07EC07DF07E6B775192
:101AA8007B1378517C1379517D137A517E13802BE7
:101AB800D1D78251080FF5EC24F00001696F8151EC
:101AC8006919D8A41AD06F517B5D70517C59715136
:101AD8007D5972517E59D8A010D06BC065F06CC08A
:101AE80066F06DC067F06EC068F07BC06FF07CC0B8
:101AF80070F07DC071F07EC072F0090E8227000E72
:101B0800832383BF63D7835101E15BD7000EF2BE05
:101B1800010E6A6FF29E65C047F066C048F067C064
:101B280049F068C04AF06FC020F270C021F271C05D
:101B380022F272C023F26AA102D0F28E1200F29E43
:101B4800120076C07AF000017B6B7C6B75357A37B2
:101B580001E37B817A517F6F79C07AF07B6B7C6B74
:101B680078357A3701E37B817A517E6F7F51D8B41B
:101B78000BD07E517F5DD8B00ED07F5100087E25F6
:101B88007A6F180E7A6507D077C074F078C075F050
:101B980079C076F012007E51D8B40BD07F517E5DAB
:101BA800D8B00ED07E5100087F257A6F180E7A655E
:101BB80007D074C074F075C075F076C076F0120066
:101BC800060E7D6F76BF7D8F79BF7D8D758FFF0E79
:101BD8007417FF0E7517000E7617788FFF0E77179C
:101BE800FF0E7817000E79177E517F5DD8B01BD095
:101BF800D8907737783779377E077F517E19D8B4F0
:101C08000DD07D077DC07AF0070E7A17D8B406D0BC
:101C1800EFD7D8907633753374337F2B7E517F1985
:101C2800D8B41FD0F6D77F517E5DD8B01AD0D890DF
:101C38007437753776377F077F517E19D8B40DD042
:101C48007D077DC07AF0070E7A17D8B406D0EFD793
:101C5800D8907933783377337E2B7E517F19D8A487
:101C6800F7D77DAF0CD0FF0E741BFF0E751BFF0E50
:101C7800761B010E7427000E7523000E76237DADAA
:101C88000CD0FF0E771BFF0E781BFF0E791B010E81
:101C98007727000E7823000E7923000E7D6F74518C
:101CA8007727755178237651792379AF0ED0FF0EB7
:101CB800771BFF0E781BFF0E791B010E7727000E8E
:101CC8007823000E7923010E7D6F77C060F078C00D
:101CD80061F079C062F07FC063F07DC064F06BECA6
:101CE8001BF060C074F061C075F062C076F012003D
:101CF80069EC24F060C0A9F061C0AAF062C0ABF042
:101D080063C0ACF0000E0001B16F000EB26F000EA0
:101D1800B36F000EB46F000EB06F14D03FEC20F01C
:101D280000016051B1276151B223000EB323000EA8
:101D3800B423B02B9C0E0001A16FD70EE82EFED75E
:101D4800A12FFCD7A9C0A1F0AAC0A2F0ABC0A3F0F4
:101D5800ACC0A4F00001A11FA21FA31FA41FA12BA8
:101D6800000EA223A323A42369EC24F00001A151AF
:101D78006025A56FA2516121A66FA3516221A76FAB
:101D8800A4516321A86FA851A71106E1E80EA55D2B
:101D9800030EA659D8A0C2D7B151B211B311B411CC
:101DA800D8A407D0000E9E6F000E9F6F000EA06F84
:101DB8001200B1C068F0B2C069F0B3C06AF0B4C034
:101DC8006BF044EC21F068C08FF069C090F06AC0F5
:101DD80091F00001B051F5EC23F068C092F069C0B1
:101DE80093F06AC094F0F7EC18F08FC0B5F090C08B
:101DF800B6F091C0B7F0000E0001926F440E936FD9
:101E0800440E946F000E836F800E846F410E856FB1
:101E1800000E776F430E786FC30E796FB5C074F0FC
:101E2800B6C075F0B7C076F0A5EC0DF074C080F0C0
:101E380075C081F076C082F07CEC18F080C08FF01D
:101E480081C090F082C091F0F7EC18F08FC0ADF02F
:101E580090C0AEF091C0AFF0ADC074F0AEC075F0F8
:101E6800AFC076F0000E0001776F800E786F400EDD
:101E7800796FA5EC0DF074C0B5F075C0B6F076C0FA
:101E8800B7F0B5C09EF0B6C09FF0B7C0A0F0120082
:101E98000600FACF1FF0FBCF20F0E9CF21F0EACF00
:101EA80022F0E1CF23F0E2CF24F0D9CF25F0DACF2A
:101EB80026F0F3CF27F0F4CF28F0F6CF29F0F7CFAC
:101EC8002AF0F8CF2BF0F5CF2CF05FC02DF060C0D2
:101ED8002EF061C02FF062C030F09EB49DA473D084
:101EE8009E94010E02012427000E25232623272372
:101EF80083A003D01D6A1D2A01D01D6A1D50316EB2
:101F0800326A31500201521904E132505319D8B4DF
:101F180011D031043210D8A40DD0010E4726000E7E
:101F2800482249224A22010E596E000E4F6F000EB8
:101F38004E6F0DD05950D8B40AD04E4B4F2B110EBE
:101F48004E5D270E4F59D8A002D0000E596E31C0F1
:101F580052F232C053F25950D8B412D04C4B4D2BD8
:101F6800980E4C5D3A0E4D59D8A00AD0010E202784
:101F7800000E212322232323000E4D6F000E4C6FE9
:101F88004A4B4B2BE80E4A5D030E4B59D8A026D07E
:101F98001CC21DF01DC21EF01D1E1E1E1D4A1E2A3B
:101FA80047501D24486F48501E20496F47C01CF2F7
:101FB80048C01DF249C01EF24AC01FF2000E4B6F06
:101FC800000E4A6F0BD09DBA9EAA05D07CEC24F077
:101FD80083EC0AF003D0A0BA32EC13F030C062F000
:101FE8002FC061F02EC060F02DC05FF02CC0F5FF4F
:101FF8002BC0F8FF2AC0F7FF29C0F6FF28C0F4FF5E
:1020080027C0F3FF26C0DAFF25C0D9FF24C0E2FFAE
:1020180023C0E1FF22C0EAFF21C0E9FF20C0FBFF87
:102028001FC0FAFF5F92110005EC25F00001806FD8
:10203800000E7B6F0201565100018019D8B405D0FB
:102048008051D8A402D0010E7B6F7BC07AF080C08B
:1020580056F230EC24F060C083F061C084F062C0B6
:1020680085F063C086F0020110510001831913E165
:1020780002011151000184190EE1020112510001FF
:10208800851909E10201135100018619D8A403D06A
:102098007A51D8B412001DEC24F060C076F061C00B
:1020A80077F062C078F063C079F083C010F284C022
:1020B80011F285C012F286C013F283C06DF084C09D
:1020C8006EF085C06FF086C070F01C0E0001716F55
:1020D800000E726F000E736F000E746FABEC20F081
:1020E80000016D51090DF3CF81F08269000E7E6FFA
:1020F8007E51800A7C0FD8B019D076C07CF082C09F
:1021080060F07C518FEC24F00001826F7CC061F09C
:10211800815124EC22F00001812B77C076F078C041
:1021280077F079C078F0796B7E2BE2D7000E7F6F5D
:102138007F51800A7C0FD8B019D083C07DF082C04F
:1021480060F07D518FEC24F00001826F7DC061F05A
:10215800815124EC22F00001812B84C083F085C0DA
:1021680084F086C085F0866B7F2BE2D782C061F051
:10217800815124EC22F01200A09A000E6A6E000E23
:10218800686E000E706E710E0001606F0F0E616F49
:10219800000E636F000E626F000E656F020E646FB3
:1021A80099EC23F0160E6F6E9F0E6B6E7B0E696EA8
:1021B800000E0001686F0B0E686501D00ED06851E3
:1021C800040D000EF324D96E040EF420DA6EDE6AD4
:1021D800DE6ADE6ADD6A682BEED76D8C000E6E6EE5
:1021E8006D986D9C6896000E3E6E000E366E000E61
:1021F800386E000E376E68B6F5D7010E0101FA6F1A
:10220800010EF96F000EF86F000EF76F000EFC6FED
:10221800000E0001686F020E686501D02ED068516B
:10222800020D410EF324D96E000EF420DA6E000E72
:10223800DE6E000EDD6E6851020D0A0EF324D96EB3
:10224800020EF420DA6E000EDE6E000EDD6E6851AE
:10225800010D410EF324D96E020EF420DA6E000E41
:10226800DF6E6851010D3E0EF324D96E020EF42084
:10227800DA6E000EDF6E682BCED7080E416E040EA4
:10228800426E160E706E040E0401036F300E026F5C
:10229800080E016F040E006F008F000E5E6E000EB8
:1022A8000201186F000E196F000E1A6F000E1B6FD7
:1022B800000E0101F66F000E586E1200A09A000E73
:1022C8006A6E000E686E000E706E710E016E0F0E53
:1022D800026E000E046E000E036E000E066E020EF5
:1022E800056EDFEC23F0160E6F6E9F0E6B6E7B0E85
:1022F800696E000E096E0B0E096401D00ED00950EC
:10230800040D000EF324D96E040EF420DA6EDE6A92
:10231800DE6ADE6ADD6A092AEED76D8C000E6E6E03
:102328006D986D9C6896000E3E6E000E366E000E1F
:10233800386E000E376E68B6F5D7010E0101FA6FD8
:10234800010EF96F000EF86F000EF76F000EFC6FAC
:10235800000E096E020E096401D02ED00950020D3C
:10236800410EF324D96E000EF420DA6E000EDE6EF4
:10237800000EDD6E0950020D0A0EF324D96E020E0E
:10238800F420DA6E000EDE6E000EDD6E0950010DCF
:10239800410EF324D96E020EF420DA6E000EDF6EC1
:1023A8000950010D3E0EF324D96E020EF420DA6EA8
:1023B800000EDF6E092ACED7080E416E040E426E5B
:1023C800160E706E040E0401036F300E026F080EB5
:1023D800016F040E006F008F000E5E6E000E02018A
:1023E800186F000E196F000E1A6F000E1B6F000E8B
:1023F8000101F66F000E586E120062C066F000010F
:10240800676B686B6135663701E3678166516E6F8C
:102418006E51D8A409D0000E606F000E616F000ED7
:10242800626F000E636F120065C066F0676B686BC1
:102438006435663701E3678166516D6F6D51D8A4C5
:1024480009D0000E606F000E616F000E626F000E03
:10245800636F1200618FFF0E6017FF0E6117000E89
:102468006217648FFF0E6317FF0E6417000E65175F
:10247800000E696F000E6A6F000E6B6F000E6C6FB6
:102488007F0E6E5F6D51980F6E5F180E6D6FD8904E
:1024980069376A376B376C376351605D64516159CE
:1024A80065516259D8A007D06351605F6451615B80
:1024B8006551625B6981D8906037613762376D2FEB
:1024C800E6D76EAF16D06E51800A970FD8B009D0F4
:1024D800000E606F000E616F000E626F000E636F7A
:1024E8001200D8906C336B336A3369336E3FF9D777
:1024F80015D0170E6E650FD0000E606F000E616F5D
:10250800000E626F000E636F1200D89069376A3749
:102518006B376C376E076E51D8A4F7D769C060F077
:102528006AC061F06BC062F06CC063F01200A09AE0
:10253800020144514511D8B408D044C2D9FF45C25C
:10254800DAFFDFAE02D0A08A1200030E0101F519EE
:10255800D8A402D0000EF56FF551D8A402D0A08AF5
:102568001200020EF519D8A414D0010E0001606FF4
:10257800000E616F000E626F000E636F020EFDECBD
:1025880015F060C044F261C045F2030E0101F56F19
:1025980063D0F505D8A460D0400E516404D0400E35
:1025A80000016C6F02D051C06CF000016C51000842
:1025B8005124516E000E0201386F050E396F6CC040
:1025C8006BF05B51D8B412D027D03BC2D9FF3CC2C4
:1025D800DAFF38C2E1FF39C2E2FFDFCFE7FF0201CD
:1025E800384B392B3B4B3C2B00016B0700016B51DF
:1025F800D8B416D0EAD73BC2D9FF3CC2DAFF38C2FA
:10260800E1FF39C2E2FFDFCFE7FF0201384B392B88
:102618003B4B3C2B00016B0700016B51D8A4EBD757
:102628005150D8A409D0400E6C19D8A402D0020E7B
:1026380001D0030E0101F56F010E0001606F000E5D
:10264800616F050E626F6CC063F0020EFDEC15F051
:1026580060C044F261C045F2A08A12005804D8B4A0
:102668006DBA06D0000E686E69806988020E586ED1
:1026780068B469A403D068944CEC23F06DA202D02E
:10268800A19A120068B069A006D062EC11F0A08A85
:10269800040E586E689068B869A802D0C8EC23F098
:1026A80068AC1AD069AC0ED0000E0E6E730E0D6EAB
:1026B800000E0F6E000E106E000E126E010E116EDF
:1026C800A2EC21F0689CC4EC24F05450D8A4540621
:1026D8005450D8B4ABEC1AF068BA69AA02D0D2EC5C
:1026E80022F068B269A20FD07F0E0E6E0D68000E40
:1026F8000F6E000E106E000E126E010E116EA2EC1F
:1027080021F0000E6A6E040E586002D0A19A1200E1
:1027180069A639D0000E1C6E030E1C6401D033D09C
:1027280068A631D06CCF5DF05D30E832E8320F0B2F
:10273800556E68965DB407D05550010D3E0EF324D2
:10274800D96E020E06D05550010D410EF324D96EF4
:10275800020EF420DA6E0201DF705550D8A403D0BF
:1027680057EC1DF00ED0000E0E6E720E0D6E5D0E43
:102778000F6E000E106E000E126E000E116EA2EC9F
:1027880021F01C2AC9D7A19A1200000162356335CD
:102798006B6F6B51D8A409D0000E606F000E616F8B
:1027A800000E626F000E636F1200653566356A6F42
:1027B8006A51D8A409D0000E606F000E616F000E38
:1027C800626F000E636F1200628FFF0E6017FF0EBC
:1027D8006117FF0E6217000E6317658FFF0E6317F0
:1027E800FF0E6417FF0E6517000E6617000E666F62
:1027F800000E676F000E686F000E696F7F0E6B5FCB
:102808006A51A00F6B5F200E6A6FD89066376737E2
:10281800683769376351605D645161596551625920
:1028280066516359D8A009D06351605F6451615BF8
:102838006551625B6651635B6681D890603761372A
:10284800623763376A2FE1D76BAF16D06B51800AB6
:102858009F0FD8B009D0000E606F000E616F000E98
:10286800626F000E636F1200D89069336833673364
:1028780066336B3FF9D715D01F0E6B650FD0000E6E
:10288800606F000E616F000E626F000E636F1200C2
:10289800D89066376737683769376B076B51D8A4A4
:1028A800F7D766C060F067C061F068C062F069C0C1
:1028B80063F01200800E04013019D8A41200C00E73
:1028C8003E6E79D09A0E3B6E7E0E3C6E000E406EC8
:1028D800120E3F6E12003251D8A43DD03251020D73
:1028E800ED0EF324F66E7D0EF420F76E0900F5CF99
:1028F8003BF00A00F5CF3CF0020E3B24016E000EBF
:102908003C20026E01C0F6FF02C0F7FFF86A070E0E
:10291800F76403D00800F55005D0F6CFE9FFF7CFEC
:10292800EAFFEF503F6E030E3B24016E000E3C2081
:10293800026E01C0F6FF02C0F7FFF86A070EF764DF
:1029480003D00800F55005D0F6CFE9FFF7CFEAFF2E
:10295800EF50406E1200000E3E6E1200030E04018E
:10296800326123D03251020DE70EF324F66E7D0E4C
:10297800F420F76E0900F5CF3BF00A00F5CF3CF0E4
:102988003BC0F6FF3CC0F7FFF86A070EF76403D0B8
:102998000800F55005D0F6CFE9FFF7CFEAFFEF5072
:1029A800016E01503F6E406A1200000E3E6E12002A
:1029B800000E3E6E120004013351010AD8B482D7CA
:1029C800030AD8B488D7010AD8B4C8D7F1D7010107
:1029D800C86F0101C851D8B413D0000E0001C76FE9
:1029E800010EC86FD20EC96F7F0ECA6FCD0ECB6FA6
:1029F8007E0ECC6FF7C0CDF0CE6B09EC00F012D094
:102A0800000E0001C76F010EC86FD20EC96F7F0E8E
:102A1800CA6FC40ECB6F7E0ECC6FF7C0CDF0CE6BF5
:102A280009EC00F0000E0101CE6F27D0CA0E00019C
:102A3800C76F010EC86FF50EC96F7F0ECA6F01010F
:102A4800CE51010DF3500001F825D96EF450F9214B
:102A5800DA6EDF50FB6FFB51CB6FCC6B09EC00F0EB
:102A6800000E0001606F010E616FCA0E626F010EE9
:102A7800636F6CEC22F00101CE2B0001FA510101C9
:102A8800CE5DD8A0D3D7000E00017C6F010E7D6FFC
:102A9800000E7E6F80EC16F00101C96F15D0C3ECF3
:102AA8001BF0090AD8A402D0010E1200000E120071
:102AB8002FEC23F002D056EC24F00009D8A4E3D779
:102AC800000E1200000E12000101C951000AD8B40C
:102AD800E6D7020AD8B4ECD7070AD8B4E9D7030A6C
:102AE800D8B4E9D7EFD720EE01F04F50D92650508F
:102AF800DA22DF50026E0250375C000E3858D8A038
:102B080037C002F00250375E000E385A000E016ED0
:102B180011D00150010D380EF324D96E040EF420A3
:102B2800DA6E33C0E1FF34C0E2FFDFCFE7FF334A9C
:102B3800342A012A0250015CD8A0EBD7375038104C
:102B4800D8B432D020EE01F04D50D9264E50DA22BA
:102B5800080EDF6E20EE02F04D50D9264E50DA22D4
:102B6800380EDE6E040EDD6E4FC0D9FF50C0DAFF9E
:102B7800DFBC0DD04DC0D9FF4EC0DAFF480EDF6E66
:102B88004DC0D9FF4EC0DAFF000EDB8E12004DC0DB
:102B9800D9FF4EC0DAFF080EDF6E4DC0D9FF4EC018
:102BA800DAFF000EDB8E120020EE01F04D50D92620
:102BB8004E50DA22080EDF6E20EE02F04D50D92674
:102BC8004E50DA22300EDE6E040EDD6E4DC0D9FF97
:102BD8004EC0DAFF040EDF6E4DC0D9FF4EC0DAFFDB
:102BE800000EDB8E369E5350D8A41200ABEC1AF0C0
:102BF80012000001686F00016051D8B407D0685115
:102C0800020D410EF324D96E000E06D06851020D54
:102C18000A0EF324D96E020EF420DA6EDECF69F0C4
:102C2800DDCF6AF069516A11D8A405D0000E606F33
:102C3800000E616F120020EE02F06951D9266A5128
:102C4800DA2261C0DEFF62C0DDFF20EE01F06951CB
:102C5800D9266A51DA2263C0DFFF69C0D9FF6AC08A
:102C6800DAFF400EDF1669C0D9FF6AC0DAFF000E2E
:102C7800DB8669C0D9FF6AC0DAFF000EDB8E6051BF
:102C8800D8B418D06851020D410EF324D96E000E45
:102C9800F420DA6EDECF64F0DDCF65F0040E64193F
:102CA800666F6551676F6851020D410EF324D96E46
:102CB800000E17D06851020D0A0EF324D96E020EC9
:102CC800F420DA6EDECF64F0DDCF65F0040E64190F
:102CD800666F6551676F6851020D0A0EF324D96E4D
:102CE800020EF420DA6E66C0DEFF67C0DDFF69C041
:102CF80060F06AC061F01200E0EC24F041D0000EF0
:102D08000001826F000E816F0DD0DF0E8125F66EF7
:102D18007E0E8221F76E0800F5500CEC25F00001BC
:102D2800814B822BDF0E606F7E0E616FD0EC21F03D
:102D380000016051815D61518259D8B029D0E5D731
:102D4800000E846F000E836F0DD0DA0E8325F66EA9
:102D58007E0E8421F76E0800F5500CEC25F000017A
:102D6800834B842BDA0E606F7E0E616FD0EC21F0FE
:102D780000016051835D61518459D8B009D0E5D70D
:102D880000017E51000AD8B4BAD7010AD8B4D8D7FE
:102D9800000E866F000E856F1BD085517C257F6FD6
:102DA80086517D21806F7FC0F6FF80C0F7FFF86AEB
:102DB800070EF76403D00800F55005D0F6CFE9FFF9
:102DC800F7CFEAFFEF500CEC25F00001854B862B7E
:102DD8007CC060F07DC061F0D0EC21F00001605152
:102DE800855D61518659D8A0D8D70D0E0CEC25F019
:102DF8000A0E0CEC25F0C3EC1BF01200096E015012
:102E0800D8B407D00950020D410EF324D96E000E34
:102E180006D00950020D0A0EF324D96E020EF420D2
:102E2800DA6EDECF0AF0DDCF0BF00A500B10D8A413
:102E380005D0000E016E000E026E120020EE02F0A8
:102E48000A50D9260B50DA2202C0DEFF03C0DDFF8C
:102E580020EE01F00A50D9260B50DA2204C0DFFF19
:102E68000AC0D9FF0BC0DAFF400EDF160AC0D9FF2F
:102E78000BC0DAFF000EDB860AC0D9FF0BC0DAFFF1
:102E8800000EDB8E0150D8B418D00950020D410E47
:102E9800F324D96E000EF420DA6EDECF05F0DDCF14
:102EA80006F0040E0518076E0650086E0950020D4C
:102EB800410EF324D96E000E17D00950020D0A0EE8
:102EC800F324D96E020EF420DA6EDECF05F0DDCFE2
:102ED80006F0040E0518076E0650086E0950020D1C
:102EE8000A0EF324D96E020EF420DA6E07C0DEFF54
:102EF80008C0DDFF0AC001F00BC002F012006D9897
:102F08003EBE3AD036AE0DD0020E566E0101F751D4
:102F1800D8B40BEC1DF0000E0101F96F000EFA6F2A
:102F2800120020EE01F04D50D9264E50DA22080E3C
:102F3800DF6E20EE02F04D50D9264E50DA22300EC8
:102F4800DE6E040EDD6E4DC0D9FF4EC0DAFF0C0EEA
:102F5800DF6E4DC0D9FF4EC0DAFF000EDB8E41C0D8
:102F6800D9FF42C0DAFF040EDF6E41C0D9FF42C06C
:102F7800DAFF000EDB8E1200040130AF12D0010E12
:102F8800566E0101F851D8B40BEC1DF0000E01018A
:102F9800F96F000EFA6F5350D8A41200ABEC1AF078
:102FA8001200020E566E20EE01F04D50D9264E50FA
:102FB800DA22080EDF6E20EE02F04D50D9264E5070
:102FC800DA22300EDE6E040EDD6E4DC0D9FF4EC023
:102FD800DAFF040EDF6E4DC0D9FF4EC0DAFF000ED7
:102FE800DB8E000E0101F96F000EFA6F5350D8A462
:102FF8001200ABEC1AF01200BAC0BCF00001BD6BB5
:10300800BE6BB935BC3701E3BD81BC51C66FC65133
:10301800D8A409D0000EB86F000EB96F000EBA6FB1
:10302800000EBB6F1200170EBC6FB8C0BDF0B9C060
:10303800BEF0BAC0BFF0BC29C06F04D0D890BF336F
:10304800BE33BD33C02FFAD70001BD51C16FB98F50
:10305800FF0EB817FF0EB917000EBA17B851C26F96
:10306800B951C36FBA51C46FC56B8E0EC65FC6AF78
:1030780016D0C651800A8F0FD8B009D0000EB86F8D
:10308800000EB96F000EBA6F000EBB6F1200D89019
:10309800C533C433C333C233C63FF9D715D0170E6F
:1030A800C6650FD0000EB86F000EB96F000EBA6F6C
:1030B800000EBB6F1200D890C237C337C437C5376C
:1030C800C607C651D8A4F7D7C151D8B408D0C51F70
:1030D800C41FC31FC26D000EC323C423C523C2C0AF
:1030E800B8F0C3C0B9F0C4C0BAF0C5C0BBF0120094
:1030F80082C086F00001876B886B8135863701E3D3
:1031080087818651896F8951D8A407D0000E806FB6
:10311800000E816F000E826F120085C086F0876BEB
:10312800886B8435863701E3878186518E6F8E518F
:10313800D8A407D0000E806F000E816F000E826F3A
:1031480012008E517B0F892782C08EF085518E1B0D
:10315800800E8E17818F848FFF0E8317FF0E8417C2
:10316800000E8517000E8A6F000E8B6F000E8C6F95
:10317800070E8D6F80A106D083518A2784518B2337
:1031880085518C23D890823381338033D89083370C
:10319800843785378D2FEED7090E8D6F80A106D025
:1031A80083518A2784518B2385518C23D89082336D
:1031B80081338033D8908C338B338A338D2FEED77D
:1031C8008AC060F08BC061F08CC062F089C063F087
:1031D8008EC064F06BEC1BF060C080F061C081F0C1
:1031E80062C082F0120091C095F00001966B976B57
:1031F8009035953701E3968195519C6F9C51D8A4E1
:1032080007D0000E8F6F000E906F000E916F1200A6
:1032180094C095F0966B976B9335953701E396813B
:1032280095519D6F9D51D8A407D0000E8F6F000E49
:10323800906F000E916F1200000E996F000E9A6F3A
:10324800000E9B6F9D51890F9C5F91C09DF094511A
:103258009D1B800E9D17908FFF0E8F17FF0E9017E6
:10326800000E9117938FFF0E9217FF0E9317000E03
:103278009417180E986FD89099379A379B379251B0
:103288008F5D9351905994519159D8A007D092517C
:103298008F5F9351905B9451915B9981D8908F3750
:1032A80090379137982FE7D799C060F09AC061F0AE
:1032B8009BC062F09CC063F09DC064F06BEC1BF097
:1032C80060C08FF061C090F062C091F012003E8E35
:1032D800710E016E0F0E026E000E046E000E036E6C
:1032E800000E066E020E056EDFEC23F0000E016E76
:1032F800040E026E000E046E000E036E000E066EC3
:10330800300E056EDFEC23F06D8C000E156E020E8C
:10331800156401D016D01550010D410EF324D96E55
:10332800020EF420DA6E000EDF6E1550010D3E0E0F
:10333800F324D96E020EF420DA6E000EDF6E152A21
:10334800E6D7D90E016E020E026E000E046E000E54
:10335800036E000E066E020E056EDFEC23F06D9C08
:10336800080E416E040E426E000E4F6E040E506E33
:103378004FC04DF050C04EF032C45EF05E50D8A43D
:1033880003D0100E586E1200000E0E6E010E0D6E58
:103398005E0E0F6E000E106E000E126E010E116E94
:1033A800A2EC21F0200E586E120004013039E832E8
:1033B800030B0009D8A4120042D03E8E080E586EA6
:1033C80012005EEC14F012006BEC19F012005E0EA5
:1033D8003B6E000E3C6E3E80010E3F6E3E8E12002C
:1033E800BBEC1CF012000DEC08F012000401345183
:1033F800010DD90EF3243B6E020EF4203C6E3E8084
:10340800010E3F6E3E8E12003E8E3451010DD90ED4
:10341800F324D96E020EF420DA6E32C4DFFF1200F4
:10342800000E0E6E020E0D6E000E0F6E000E106E68
:10343800000E126E000E116EA2EC21F012000401B3
:103448003151000AD8B4CCD7010AD8B4CCD7020A73
:10345800D8B4C9D7060AD8B4B0D7030AD8B4B1D7F4
:10346800010AD8B4DDD70F0AD8B4B1D7010AD8B445
:10347800ABD7030AD8B4BAD7010AD8B4C5D7070A54
:103488001200080E016E405010E1080E3F5CD8B0E3
:103498000CD03FC001F05750D8A402D0010E04D080
:1034A8005704D8A402D0020E576E01503F5E000E9A
:1034B800405A20EE01F04150D9264250DA2201C08C
:1034C800DFFF380E0201466F040E476F3EA01CD086
:1034D8003AD03BC0F6FF3CC0F7FFF86A46C2D9FFB6
:1034E80047C2DAFF070EF76403D00800F55005D08D
:1034F800F6CFE9FFF7CFEAFFEF50DF6E3B4A3C2AF1
:103508000201464B472B01060150D8B41200E1D7FF
:103518003BC0F6FF3CC0F7FFF86A46C2D9FF47C276
:10352800DAFF070EF76403D00800F55005D0F6CF90
:10353800E9FFF7CFEAFFEF50DF6E3B4A3C2A020172
:10354800464B472B01060150D8B41200E1D70101C0
:10355800FA51D8A41200010EFA6FF951D8A412003A
:10356800010EF96F020E5618D8A415D020EE01F0FE
:103578004150D9264250DA22000EDF6E41C0D9FFF1
:1035880042C0DAFF480EDF6E41C0D9FF42C0DAFF01
:10359800000EDB8E12005604D8A41200000EFB6F3A
:1035A80020EE01F04F50D9265050DA22080EDF6E77
:1035B80020EE02F04F50D9265050DA22300EDE6E3F
:1035C800040EDD6E4FC0D9FF50C0DAFF040EDF6E67
:1035D8004FC0D9FF50C0DAFF000EDB8E010EFB6F23
:1035E80020EE01F04D50D9264E50DA22080EDF6E3B
:1035F80020EE02F04D50D9264E50DA22300EDE6E03
:10360800040EDD6E4DC0D9FF4EC0DAFF800EDF6EAE
:10361800120041C0D9FF42C0DAFF000EDFBC010E24
:10362800026E040E4118416E4250426E080E581840
:10363800D8A40BD0040132517F0B6E6E6E50D8B4F3
:1036480002D0100E01D0040E586E5604D8A43AD0F9
:1036580020EE02F04150D9264250DA22380EDE6EB2
:10366800040EDD6E45EC1AF0020E5718D8A40DD0E2
:1036780041C0D9FF42C0DAFF040EDF6E41C0D9FF56
:1036880042C0DAFF000EDB8E12000250D8A40DD023
:1036980041C0D9FF42C0DAFF480EDF6E41C0D9FFF2
:1036A80042C0DAFF000EDB8E120041C0D9FF42C0D3
:1036B800DAFF080EDF6E41C0D9FF42C0DAFF000E04
:1036C800DB8E120036BE369E000E566E12000001CA
:1036D8006351D8B405D0605161116211D8A40CD0DF
:1036E800000E606F000E616F000E626F1200632B98
:1036F800D890623361336033000E6015656F000E39
:103708006115666FFE0E6215676F65516611671168
:10371800D8B40CD0ECD7632B010E6027000E6123C0
:10372800000E6223D890623361336033000E601557
:10373800656F000E6115666FFF0E6215676F655144
:1037480066116711D8B406D0E6D76307D8906037FA
:103758006137623761BF03D0020E6361F6D763A198
:10376800619FD8906333635162136451D8A4628F08
:1037780060C060F061C061F062C062F012000001D8
:103788007A69EA0E796F600E786F000E7B6F69ECCC
:1037980024F060C074F061C075F062C076F063C058
:1037A80077F033D074C068F075C069F076C06AF0FD
:1037B80077C06BF00001681F691F6A1F6B1F682BB9
:1037C800000E69236A236B2369EC24F00001685119
:1037D80060256C6F695161216D6F6A5162216E6F4E
:1037E8006B5163216F6F7851706F7951716F726B84
:1037F800736B6C51705D6D5171596E5172596F5187
:103808007359D8B002D0010E7B6F00017B51D8A448
:1038180003D05A50D8B4C6D75A50D8B404D0FEC131
:103828007AF0000E5A6E7A511200040130511F0BC3
:10383800E806D8A412003039E832030BE806D8A409
:1038480012003451D8B432D03405D8A412002ED086
:10385800CA0E3B6E020E3C6E000E406E080E3F6EA6
:103868003E803E8E1200CA0E3B6E020E3C6E3E8EAD
:10387800120036C437F037C438F0D20E336E020E59
:10388800346E000E396E000E3A6E368E1200D20E6D
:103898003B6E020E3C6E000E406E070E3F6EC10E70
:1038A8003E6E120032C45AF23E8E12003151000AA6
:1038B800D8B4CED7010AD8B4D6D7210AD8B4D9D724
:1038C800010AD8B4E4D7030AD8A41200EBD7828C33
:1038D800949C828E948EAC84B886000E0001606F32
:1038E8000E0E616F270E626F070E636F6DC064F076
:1038F8006EC065F06FC066F070C067F003EC1FF033
:10390800FB0E00016025716FFF0E6121726FFF0EC3
:103918006221736FFF0E6321746F71C060F072C013
:1039280061F073C062F074C063F00A0E646F000E39
:10393800656F000E666F000E676F03EC1FF060C0C6
:1039480071F061C072F062C073F063C074F071C04E
:10395800AFFF72C0B0FFAC98AC96AB8EB898B89A6F
:10396800B890AC9CAB9CAB88AC8A9D8A1200000EC8
:103978000401386F000E396F35D03E8E0101FD0508
:10398800D8A43BD00401388338D03E8E36D03E8E42
:1039980034BF0AD034510F0B016E0150020D0A0ECC
:1039A800F324D96E020E09D034510F0B016E015069
:1039B800020D410EF324D96E000EF420DA6EDECF2C
:1039C80002F0DDCF03F002C0D9FF03C0DAFFDFAE9B
:1039D80014D002C0D9FF03C0DAFFDFA40ED0010E55
:1039E800386F0BD030511F0B000AD8B4C6D7010A64
:1039F800D8B4CBD7030AD8B4CAD73EAE1200380E13
:103A08003B6E040E3C6E3E80020E3F6E1200000EAE
:103A18000101F86F000EF76F020E5618D8A41FD0D8
:103A280020EE01F04D50D9264E50DA22080EDF6EF6
:103A380020EE02F04D50D9264E50DA22380EDE6EB6
:103A4800040EDD6E4DC0D9FF4EC0DAFF480EDF6EA2
:103A58004DC0D9FF4EC0DAFF000EDB8E12003F507A
:103A68000401365D40503759D8B004D036C43FF011
:103A780037C440F045EC1AF020EE02F04150D92648
:103A88004250DA22380EDE6E040EDD6E41C0D9FFD8
:103A980042C0DAFF480EDF6E41C0D9FF42C0DAFFEC
:103AA800000EDB8E12002D0E546E5DC01BF0FD0E55
:103AB8001B16D8A43BD05DC01BF0D8901B323F0E1C
:103AC8001B161B50040D000EF3244F6E040EF42039
:103AD800506E4FC04DF050C04EF0040E4D184D6E54
:103AE8004E504E6E4FC0D9FF50C0DAFFDF30E8327B
:103AF8000F0B0D0AD8A417D0300E016E040E026EFB
:103B080020EE02F04F50D9265050DA22DECF03F0D3
:103B1800DDCF04F0000E066E080E056E8FEC22F065
:103B280035EC1EF0120073EC21F012005D50FD0B15
:103B3800040AD8A412000DEC1BF01200066E000E49
:103B4800076E040E086E0150026E036AD8900236A2
:103B580003360650046E056AD89004360536D890A8
:103B6800043605360250042603500522D890043640
:103B78000536D89004360536045007260550082225
:103B880007C0D9FF08C0DAFFDF9E0150D8A407D0CC
:103B98000650020D0A0EF324D96E020E06D0065006
:103BA800020D410EF324D96E000EF420DA6E07C020
:103BB800DEFF08C0DDFF07C0D9FF08C0DAFFDF9CC1
:103BC80020EE04F00750D9260850DA22DF8C1200C4
:103BD800000162AF16D060C066F061C067F062C0D5
:103BE80068F0661F671F681F662B000E672368232F
:103BF800000E6625606F000E6721616F800E6821D8
:103C0800626F65AF16D063C066F064C067F065C0C8
:103C180068F0661F671F681F662B000E67236823FE
:103C2800000E6625636F000E6721646F800E6821A1
:103C3800656F000E601B000E611B800E621B000E7C
:103C4800631B000E641B800E651B6351605D64512D
:103C5800615965516259D8B002D0D8901200D88005
:103C68001200000E576E000E536E000E0101F86F21
:103C7800000EF76F000EFB6F000E566E41C0D9FFA5
:103C880042C0DAFF7F0EDF16040E4118416E425023
:103C9800426E41C0D9FF42C0DAFF7F0EDF16040E24
:103CA8004118416E4250426E4DC0D9FF4EC0DAFFF6
:103CB8007F0EDF16000E3E6E000E406E000E3F6E49
:103CC800000E366E000E386E000E376ED9EC19F005
:103CD800000E0E6E030E0D6E000E0F6E000E106EAF
:103CE800000E126E000E116EA2EC21F083EC17F09C
:103CF8001200000E00016B6F69AF06D0686D691F76
:103D0800D8B0692B010E6B6F67AF06D0666D671F61
:103D1800D8B0672B010E6B1B000E6D6F000E6C6F19
:103D280068516911D8B41CD0010E6A6F04D0D890BC
:103D3800683769376A2B69AFFAD7D8906C376D370F
:103D48006851665D69516759D8A005D06851665FAA
:103D58006951675B6C81D890693368336A2FEDD7F6
:103D68006B51D8B404D06C6D6D1FD8B06D2B6CC07E
:103D780066F06DC067F01200066E000E046E000E4D
:103D8800056E000E036E0650EBEC24F0066E025032
:103D9800EBEC24F0026E2F0E066406D03A0E066095
:103DA80003D00650D00F08D0400E066406D0470E48
:103DB800066003D00650C90F046E2F0E026406D0A9
:103DC8003A0E026003D00250D00F0AD0400E0264AF
:103DD80006D0470E026003D00250C90F01D0640E0E
:103DE800056E640E0518D8A403D004C003F005D0EE
:103DF8000450100DF3500524036E03501200000EFA
:103E08000001686F000E696F000E6A6F000E6B6F1D
:103E18006451651166116711D8B42AD0010E6C6F10
:103E280006D0D89064376537663767376C2B67AF2D
:103E3800F8D7D890683769376A376B376451605D4F
:103E4800655161596651625967516359D8A009D0C3
:103E58006451605F6551615B6651625B6751635B8A
:103E68006881D89067336633653364336C2FE1D744
:103E780068C060F069C061F06AC062F06BC063F04E
:103E88001200420EF66E490EF76E000EF86E02EE44
:103E9800DBF010EE23F00900F5CFEEFFE550E1501E
:103EA800FAE107EE00F0960EEE6AE806FDE106EE8E
:103EB80000F0C80EEE6AE806FDE103EE00F0DC0E45
:103EC800EE6AE806FDE102EE00F0DB0EEE6AE806B7
:103ED800FDE101EEEEF0120EEE6AE806FDE104EEF9
:103EE80040F0640EEE6AE806FDE100EE33F02C0EB9
:103EF800EE6AE806FDE15F905F92000EF86E000141
:103F0800ACEF0BF033D001C0D9FF02C0DAFFDF50AD
:103F1800D8B40FD001C0D9FF02C0DAFFDF50076E56
:103F280003C0F6FF04C0F7FF0800F5500718D8B41F
:103F380019D003C0F6FF04C0F7FF0800F550076E5C
:103F4800086A071E081E074A082A01C0D9FF02C0CE
:103F5800DAFFDF50096E09500724016E000E0820B1
:103F6800026E1200014A022A034A042A0506D8A052
:103F780006060528C8E10628D8A4C5D7000E026E93
:103F8800000E016E120069EC24F060C093F061C06D
:103F980094F062C095F063C096F018EC10F081ECD4
:103FA80023F004D018EC10F081EC23F093C08BF0D0
:103FB80094C08CF095C08DF096C08EF000018B1FD8
:103FC8008C1F8D1F8E1F8B2B000E8C238D238E2311
:103FD80069EC24F000018B5160258F6F8C516121B1
:103FE800906F8D516221916F8E516321926F87512D
:103FF8008F5D88519059895191598A519259D8B0F9
:104008001200D0D7000E0001656F61AF06D0606D59
:10401800611FD8B0612B010E656F63AF04D0626D6C
:10402800631FD8B0632B62516311D8B418D0010E46
:10403800646F04D0D89062376337642B63AFFAD7C4
:104048006251605D63516159D8A004D06251605FCC
:104058006351615BD89063336233642FF1D7655144
:10406800D8B404D0606D611FD8B0612B60C060F017
:1040780061C061F01200000E0001646F000E656FF0
:10408800000E666F000E676F000E6B6F000E6A6F92
:10409800040E6B5DD8B019D0C28200F0C2B2FED750
:1040A800C4CF68F00001696B6851626FC350686FD4
:1040B80062C069F06851642769516523000E662360
:1040C800000E67236A4B6B2BE3D70A0E626FD890FA
:1040D8006733663365336433622FF9D764C060F0A1
:1040E80065C061F012009D9447C02CF248C02DF2C3
:1040F80049C02EF24AC02FF220C228F221C229F26A
:1041080022C22AF223C22BF259C05CF248C250F2F2
:1041180049C251F29D842CC260F02DC261F02EC2BA
:1041280062F02FC263F0640E0001646F000E656FC9
:10413800000E666F000E676F03EC1FF060C02CF274
:1041480061C02DF262C02EF263C02FF2120000018E
:104158007151721173117411D8B424D0010E756F96
:1041680006D0D8907137723773377437752B74AFA0
:10417800F8D771516D5D72516E5973516F59745101
:104188007059D8A008D071516D5F72516E5B735130
:104198006F5B7451705BD8907433733372337133BF
:1041A800752FE7D76DC06DF06EC06EF06FC06FF001
:1041B80070C070F01200000E0201D26F4B0ED36F68
:1041C800000ED46F000ED56F000ED66F000ED76F9D
:1041D800080ED86F000E526E1A0E096E010E11EC01
:1041E80023F01E0E096E020E11EC23F0000E016E74
:1041F800400E026E050E036E400E046E020E02ECB7
:1042080017F001C0F2F102C0F3F1000E0201446F91
:10421800000E456F000E0101F56F1200958083A016
:1042280004D00001846B842B02D00001846B84517C
:104238000201526F536B000E206F000E216F000EAB
:10424800226F000E236F000E596E000E4F6F000E86
:104258004E6F000E4D6F000E4C6F000E4B6F000E30
:104268004A6F000E496F000E486FCCEC0CF047C047
:104278001CF248C01DF249C01EF24AC01FF21200CB
:104288008E0E0001706F06D0D8906B336A33693395
:104298006833702B000E68156C6F000E69156D6F12
:1042A800000E6A156E6FFF0E6B156F6F6C516D11F6
:1042B8006E116F11D8A4E8D768C060F069C061F0CA
:1042C8006AC062F070C063F0000E646F6BEC1BF0A4
:1042D80060C068F061C069F062C06AF01200020E46
:1042E8005618D8A403D077EC15F01200000E566EBD
:1042F8000101FB51D8A41FD020EE01F04D50D92662
:104308004E50DA22080EDF6E20EE02F04D50D9260C
:104318004E50DA22300EDE6E040EDD6E4DC0D9FF2F
:104328004EC0DAFF0C0EDF6E4DC0D9FF4EC0DAFF6B
:10433800000EDB8E1200000EFB6F120006D0DFECC1
:1043480020F0120019EC1CF012000DC013F00EC082
:1043580014F01450000AD8B404D07F0AD8A412006C
:1043680018D01350010AD8B4EAD7030AD8B41200F7
:10437800010AD8B4E7D7060AD8B41200770AD8B425
:104388001200010AD8B41200070AD8B41200010AB0
:1043980012001350FF0A120060C064F061C065F09B
:1043A80003D00001644B652B64C0F6FF65C0F7FFBE
:1043B800F86A070EF76403D00800F55005D0F6CF69
:1043C800E9FFF7CFEAFFEF500009D8A4EAD760C0A9
:1043D80062F061C063F00001621F631F624B632BD0
:1043E80064516225606F65516321616F120001C0DD
:1043F80005F002C006F002D0054A062A05C0F6FFFD
:1044080006C0F7FFF86A070EF76403D00800F550F6
:1044180005D0F6CFE9FFF7CFEAFFEF500009D8A49F
:10442800EBD701C003F002C004F0031E041E034AC8
:10443800042A05500324016E06500420026E12005F
:104448000001636F00016351F5EC24F0000161196C
:10445800D8B4120063C0A9FF61C0A8FFA69EA69C9D
:10446800A684000EF2BE010E626FF29E550EA76E74
:10447800AA0EA76EA68262A102D0F28E01D0F29E89
:10448800A6B2FED7A694120004D0014A022A034A13
:10449800042A01C0D9FF02C0DAFFDF50056E03C04D
:1044A800F6FF04C0F7FF0800F55000080524066E63
:1044B8000650D8A407D001C0D9FF02C0DAFFDF50E8
:1044C800D8A4E3D70650016E026A01BE02061200A4
:1044D80060C064F061C065F003D00001644B652BD7
:1044E80064C0D9FF65C0DAFFDF50D8B406D0F5D76D
:1044F8000001644B652B624B632B62C0D9FF63C01C
:10450800DAFF64C0E1FF65C0E2FFDFCFE7FFE750F5
:10451800D8B41200EDD703C009F004C00AF001C0F6
:1045280007F002C008F010D009C0D9FF0AC0DAFFAE
:10453800DF500B6E094A0A2A07C0D9FF08C0DAFF04
:104548000BC0DFFF074A082A0506D8A0060605287B
:10455800EBE10628D8B41200E7D700018351841193
:104568008511D8B406D0000E831B000E841B800E64
:10457800851B80C074F081C075F082C076F083C05E
:1045880077F084C078F085C079F0A5EC0DF074C0A0
:1045980080F075C081F076C082F0120070A01DD046
:1045A8004FC0D9FF50C0DAFF800EDE18D8A414D04F
:1045B80041C0D9FF42C0DAFF840EDE18D8A40CD05F
:1045C8004FC0D9FF50C0DAFF0C0EDF6E4FC0D9FFC5
:1045D80050C0DAFF000EDB8E7090689A1200F29ECF
:1045E800B80EB16E000ECF6E000ECE6E050EBF6E09
:1045F800DC0EBE6E000E0201246F000E256F000E49
:10460800266F000E276F9E94F10ECD6E0B0EBD6EB9
:104618009D849F84D08EF28E12000C6E09A405D062
:10462800000E016E0C50A2EC1DF009A205D0010E7F
:10463800016E0C50A2EC1DF00C50010D700EF3240D
:104648000A6E0F0EF4200B6E0AC0D9FF0BC0DAFFFA
:1046580009C0DFFF1200BA0E00017C6F7E0E7D6F6D
:10466800000E7E6F80EC16F00001876F0BD0C3EC54
:104678001BF00E0AD8A402D0010E1200000E120080
:10468800000E120000018751000AD8B4F0D7F8D7FD
:10469800000E0101FC6F000E0E6E740E0D6E000E02
:1046A8000F6E000E106E000E126E000E116EA2EC50
:1046B80021F06D92699401D0689468B4FDD7000E1A
:1046C8000101F66F12005850D8A4120082A41200FB
:1046D800000E6D6E000E696E160E6F6E9F0E6B6E7D
:1046E8007B0E696ED08EA28AA08AF28E01D06D866A
:1046F8006DA6FDD7010E586E12005850D8B482A48A
:1047080003D067EC23F006D05804D8B482B402D0A2
:10471800FEEC24F01F0E586402D06DA202D0000EE9
:1047280012009BEC12F0010E120060C066F061C02E
:1047380067F009D066C0D9FF67C0DAFF62C0DFFF43
:104748000001664B672B00016407D8A06507642940
:10475800F1E16529D8B41200EDD701C005F002C017
:1047680006F004D0054A062A034A042A03C0D9FFE2
:1047780004C0DAFF05C0E1FF06C0E2FFDFCFE7FFB4
:10478800E750D8B41200EED7698468986D82010E9C
:104798000101FC6F000EF66F000E0E6E750E0D6EA9
:1047A800000E0F6E000E106E000E126E000E116ECF
:1047B800A2EC21F0120001C007F002C008F008D0F6
:1047C80007C0D9FF08C0DAFF03C0DFFF074A082A7D
:1047D8000506D8A006060528F3E10628D8B4120075
:1047E800EFD700016B6F00016B51606F616B626BFB
:1047F8008E0E636F000E646F6BEC1BF060C068F088
:1048080061C069F062C06AF0120000016E51700365
:10481800F3CF72F0F4CF73F06E517103F350732736
:104828006F517003F350732772C06EF073C06FF04E
:1048380012009D9447C064F048C065F049C066F016
:104848004AC067F09D8464C060F065C061F066C0CE
:1048580062F067C063F012009D9420C264F021C228
:1048680065F022C266F023C267F09D8464C060F0E0
:1048780065C061F066C062F067C063F012000001B5
:10488800605161116211D8B406D0000E601B000E91
:10489800611B800E621B60C060F061C061F062C085
:1048A80062F01200D40E00017C6F7E0E7D6F010E47
:1048B8007E6F80EC16F00001876F0F0E8719D8A461
:1048C80002D0010E1200000E12009D9424C264F062
:1048D80025C265F026C266F027C267F09D8464C0D1
:1048E80060F065C061F066C062F067C063F01200F6
:1048F8009EBA02D0000E1200ABCF02F0AECF03F08A
:1049080002C001F0060E0116D8B403D0AB9800F02F
:10491800AB88035012000001636F000160516319F6
:10492800616F626B510E6125F66E7C0E6221F76E27
:104938000800F5CF60F060511200A77F597F757F9E
:104948008B7FE07FF67EFA7F807F277FA07FB37F13
:0D495800BB7F677FD97F497F01000000030E
:104966000001626F000E0001616F3A0E626105D0B0
:104976002F0E626502D0010E616F61C060F060317A
:104986001200010E02011827000E19231A231B23F9
:104996000101FC51D8A41200F62BF651D8A412003E
:1049A600F6691200C2900E0EC16E000EC26EBE0EE9
:1049B600C06EC2809E9C9D9C12009D9A0101FE695C
:1049C600000E5B6E000E5C6E000E5A6E9D8A120023
:1049D600016E7B0E016004D0600E016401D0019A65
:1049E600015012000001606F60C0A9FFA69EA69C40
:1049F600A680A8501200000E6D6E000E696E000EA5
:104A0600586E12009D9459C060F09D84000160515B
:104A160012000001606F9EA8FED760C0ADFF1200B5
:107C50000000316253C4F5A697B988DBEA7D4C1F5A
:107C60002E4372211087B6E5D4FACB98A93E0F5C5B
:107C70006D86B7E4D5427320113F0E5D6CFBCA9947
:107C8000A8C5F4A796013063527C4D1E2FB889DA3F
:107C9000EB3D0C5F6EF9C89BAA84B5E6D740712214
:107CA000137E4F1C2DBA8BD8E9C7F6A59403326119
:107CB00050BB8AD9E87F4E1D2C02336051C6F7A411
:107CC00095F8C99AAB3C0D5E6F4170231285B4E7FD
:107CD000D67A4B1829BE8FDCEDC3F2A1900736652A
:107CE0005439085B6AFDCC9FAE80B1E2D34475265F
:107CF00017FCCD9EAF38095A6B4574271681B0E347
:107D0000D2BF8EDDEC7B4A192806376455C2F3A03A
:107D1000914776251483B2E1D0FECF9CAD3A0B5843
:107D20006904356657C0F1A293BD8CDFEE79481B1C
:107D30002AC1F0A3920534675678491A2BBC8DDE10
:107D4000EF82B3E0D1467724153B0A5968FFCE9DF8
:107D5000AC010000000A00000064000000E803001D
:107D60000010270000A086010040420F0080969876
:107D70000000E1F50500CA9A3B00803F0020410069
:107D8000C842007A44401C4650C34724744997189F
:107D90004BBCBE4C6B6E4E03155079AD60F3497110
:107DA00000803FCDCC3DD7233C12833AB7D138C6B3
:107DB0002737388635C0D633CC2B32708930E7DB95
:107DC0002EE53C1E42A20D01000000100000000044
:107DD0000100000010000000000100000010000081
:107DE00000000100000010E47E667E327EEF7D0917
:107DF000024300020100C032090400000102020136
:107E000000052400100104240202052406000105D7
:107E10002401000107058103080002090401000292
:107E20000A00000007050202400000070582024028
:107E3000000034034300440043002000520053007C
:107E40002D00320033003200200045006D00750027
:107E50006C006100740069006F006E002000440037
:107E600065006D006F0034034D006900630072000F
:107E70006F00630068006900700020005400650016
:107E8000630068006E006F006C006F00670079008F
:107E9000200049006E0063002E0012010002020063
:107EA0000008D8040A000001010200017365742073
:107EB000636820737461747573006A6F696E206FF4
:107EC00074616100747820756E636E66007478204A
:107ED000636E660072657365740073797320006D5C
:107EE000616320000403090445454B595752434838
:107EF00049445348534C6672616D655F636F756E9C
:107F00007465725F6572725F72656A6F696E5F6ECB
:107F1000656564656400303132333435363738395D
:107F200041424344454600696E76616C69645F6412
:107F30006174615F6C656E003C3D3E804E23256C34
:107F4000642325732325642300616363657074656E
:107F500064524E323930332000696E76616C696448
:107F60005F706172616D006B6579735F6E6F745FD6
:107F7000696E6974006E6F745F6A6F696E65640024
:107F80006D61635F706175736564006E6F5F6672CB
:107F900065655F6368002573202564206F66660051
:107FA0006D61635F74785F6F6B00257320256420BB
:107FB0006F6E006D61635F727820006D61635F6555
:107FC00072720025733A256C752300286E756C6CEF
:107FD00029002573202564200064656E69656400AE
:107FE00073696C656E740025733A256623002573EA
:107FF0003A257323002530325800627573790000EA
:020000040020DA
:08000000FFFFFFFFFFFFFFFF00
:020000040030CA
:0E000000240E261EFF8181FF0FC00FE00F406F
:00000001FF
