:0400000007EF00F016
:100008005F821CED13F059EF22F0C30E0101086F57
:10001800000E096F45EF06F0250E1D19D8B40BD058
:10002800BFC0D9FFC0C0DAFF1DC1DFFF0001BF4B51
:10003800C02B45EF06F0000E01011A6F000E196F74
:10004800000E1C6F000E1B6F05D001011B850001FF
:10005800C14BC22BC1C0F6FFC2C0F7FF0800F55064
:10006800300AD8B4F2D7C1C0F6FFC2C0F7FF080003
:10007800F5506BEC2AF0D8A0B1D0000E01011A6F30
:10008800000E196F19C16EF01AC16FF0000E000151
:10009800716F0A0E706FE8EC29F06EC019F16FC02D
:1000A8001AF1D00E0001EB6FFF0EEC6FC1C0F6FF26
:1000B800C2C0F7FF0800F550ED6FEE6BEB51ED276E
:1000C800EC51EE23ED51010119270001EE51010118
:1000D8001A230001C14BC22BC1C0F6FFC2C0F7FFF3
:1000E8000800F5506BEC2AF0D8A078D0CBD70101E6
:1000F8001B8974D01C859CD01B8F9AD008C1D9FF4E
:1001080009C1DAFFDECF04F1DDCF05F1020E0827C1
:10011800000E092304510511D8A404D0B30E046FAE
:100128007F0E056F000E076F000E066F03D00101EA
:10013800064B072B065104250001EB6F01010751FF
:1001480005210001EC6FEBC0F6FFECC0F7FF0800DB
:10015800F5500009D8A4EBD701011951065D1A51D1
:100168000759D8B005D00651195F07511A5B0ED050
:10017800000E1A6F000E196F09D0BFC0D9FFC0C09A
:10018800DAFF200EDF6E0001BF4BC02B01011907FB
:10019800D8A01A071929F1E11A29D8B411D0EDD736
:1001A80004C1F6FF05C1F7FFBFC0D9FFC0C0DAFF21
:1001B8000800F5CFDFFF044B052B0001BF4BC02B18
:1001C80001010607D8A007070629EAE10729D8B4DC
:1001D80045EF06F0E5D7C00E1B132AD0C1C0F6FFC5
:1001E800C2C0F7FF0001C14BC22B0800F5CF1DF1BB
:1001F80001011D51000AD8B454EF06F0580AD8B4CA
:100208007BD73C0AD8B414D0020AD8B473D70F0AE3
:10021800D8B40ED0050AD8B46AD71F0AD8B46ED796
:10022800060AD8B4D8D70D0AD8B466D745EF06F071
:10023800070E1C15D8B45DD3000E0B6F060E0A6F9F
:1002480008C1D9FF09C1DAFFDECF16F1DECF17F1F9
:10025800DDCF18F1030E0827000E092318AF11D0BF
:1002680016C160F017C161F018C162F00FEC2AF0F6
:1002780060C016F161C017F162C018F1030E0101E8
:100288001B13000E116F000E106F16511711181165
:10029800D8B490D0820E0001EB6FFF0EEC6F16C140
:1002A800EDF017C1EEF018C1EFF019C1F0F0100E23
:1002B80005D0D890F033EF33EE33ED33E82EF9D78D
:1002C800ED51EB250101106F000E0001EC21010139
:1002D800116F1007D8A0110710C16EF011C16FF08F
:1002E800000E0001716F030E706FE8EC29F06EC00C
:1002F80010F16FC011F110C166F011C167F0000E66
:100308000001696F0A0E686FCDEC23F066C010F12A
:1003180067C011F1010111AF03D01007D8A0110770
:100328001051000853EC0BF08FC00CF190C00DF188
:1003380091C00EF10CC180F00DC181F00EC182F0A8
:1003480016C183F017C184F018C185F0A2EC1CF027
:1003580080C00CF181C00DF182C00EF10CC160F0BB
:100368000DC161F00EC162F0000E0001636F800ED6
:10037800646F3F0E656F3BEC23F00001D8B005D0E9
:1003880001011007D8A0110715D00CC160F00DC1EC
:1003980061F00EC162F0000E0001636F200E646F01
:1003A800410E656F3BEC23F00001D8A003D001019A
:1003B800104B112B01010BBF06D00B511BE10D0E89
:1003C8000A5DD8B017D016C174F017C175F018C1FE
:1003D80076F00A51E4EC11F08FC077F090C078F015
:1003E80091C079F0FDEC13F074C016F175C017F1E7
:1003F80076C018F1010111BF06D0115121E10A0E92
:10040800105DD8B01DD0165117111811D8B459D095
:1004180016C1B0F017C1B1F018C1B2F026EC1CF04B
:100428000001B051B111B211B311D8A44AD00101E1
:1004380011BF47D0115104E1020E105DD8A041D080
:100448000CC160F00DC161F00EC162F0700E0001C8
:10045800636F890E646F400E656F3BEC23F00001FB
:10046800D8B003D00101F70E02D00101F80E102711
:10047800FF0E1123105153EC0BF08FC00CF190C0FC
:100488000DF191C00EF116C160F017C161F018C1ED
:1004980062F00CC163F00DC164F00EC165F016EC9A
:1004A80016F060C012F161C013F162C014F163C0AC
:1004B80015F1000E0101166F000E176F000E186F70
:1004C80033D016C1B0F017C1B1F018C1B2F026ECA4
:1004D8001CF0B0C012F1B1C013F1B2C014F1B3C036
:1004E80015F116C180F017C181F018C182F012C150
:1004F80068F013C169F014C16AF015C16BF015EC0E
:1005080026F068C083F069C084F06AC085F0EDEC1D
:1005180027F080C016F181C017F182C018F1000ED3
:100528000101116F000E106F010E1D6F0A0E1D19CB
:10053800D8B418D01D51040D090EF324F66E7C0EA4
:10054800F420F76E0900F550125D0900F5501359B3
:100558000900F55014590900F5501559D8A002D0D2
:100568001D2BE4D71DC1EBF00001EC6BEBBFEC07D2
:1005780001010A510001EB2701010B510001EC2395
:10058800010110510001EB27010111510001EC2379
:10059800EB510101195F0001EC5101011A5B0A518D
:1005A8000B11D8B403D01907D8A01A07030E1B15CE
:1005B8000001EB6F000E01011C150001EC6FEB51FF
:1005C800EC11D8B404D001011907D8A01A07010109
:1005D8001BA539D0030E1B150001EB6F000E01019E
:1005E8001C150001EC6FEB51EC11D8B416D0BFC04C
:1005F800D9FFC0C0DAFF2D0EDF6EBF4BC02B0DD068
:10060800BFC0D9FFC0C0DAFF300EDF6E0001BF4B9C
:10061800C02B01011907D8A01A0701011ABF7BD006
:100628001A51EEE11905D8A076D0EAD7BFC0D9FF94
:10063800C0C0DAFF200EDF6E0001BF4BC02B0101E6
:100648001907D8A01A071ABF05D01A51EFE11905E2
:10065800D8B0ECD7030E1B150001EB6F000E01019B
:100668001C150001EC6FEB51EC11D8B454D0BFC08D
:10067800D9FFC0C0DAFF2D0EDF6E4BD012C160F07B
:1006880013C161F014C162F015C163F001011D517D
:10069800040D090EF324F66E7C0EF420F76E0900A3
:1006A800F5CF64F00900F5CF65F00900F5CF66F0E5
:1006B8000A00F5CF67F053EC24F060C00CF161C07C
:1006C8000DF162C00EF163C00FF10CC16DF00DC1E8
:1006D8006EF00EC16FF00FC170F00A0E0001716F5D
:1006E800000E726F000E736F000E746F7EEC25F0B3
:1006F8006DC00CF16EC00DF16FC00EF170C00FF13E
:1007080001010C51300FBFC0D9FFC0C0DAFFDF6E46
:100718000001BF4BC02B01011D071D29D8B40ED005
:10072800ADD7BFC0D9FFC0C0DAFF300EDF6E000101
:10073800BF4BC02B01011007D8A0110711BF05D06E
:100748001151EFE11005D8B0ECD70BBF09D00B5110
:1007580004E1090E0A5DD8A003D0080E1D6F02D06F
:100768000AC11DF11D510A5F000E1DBFFF0E0B5B74
:100778001D51D8B409D0BFC0D9FFC0C0DAFF2E0EB2
:10078800DF6E0001BF4BC02B01011D5153EC0BF074
:100798008FC000F190C001F191C002F116C183F041
:1007A80017C184F018C185F000C180F001C181F043
:1007B80002C182F0A2EC1CF080C0B0F081C0B1F0A0
:1007C80082C0B2F026EC1CF0B0C012F1B1C013F137
:1007D800B2C014F1B3C015F174D012C160F013C1E6
:1007E80061F014C162F015C163F001011D51040DDF
:1007F800090EF324F66E7C0EF420F76E0900F5CF8F
:1008080064F00900F5CF65F00900F5CF66F00A003D
:10081800F5CF67F053EC24F060C00CF161C00DF126
:1008280062C00EF163C00FF10CC16DF00DC16EF026
:100838000EC16FF00FC170F00A0E0001716F000E4B
:10084800726F000E736F000E746F7EEC25F06DC032
:100858000CF16EC00DF16FC00EF170C00FF1010107
:100868000C51300FBFC0D9FFC0C0DAFFDF6E0001E6
:10087800BF4BC02B12C16DF013C16EF014C16FF0E5
:1008880015C170F001011D51040D090EF324F66E17
:100898007C0EF420F76E0900F5CF71F00900F5CF52
:1008A80072F00900F5CF73F00A00F5CF74F07EEC12
:1008B80025F06DC012F16EC013F16FC014F170C055
:1008C80015F101011D071D29D8B40ED086D7BFC068
:1008D800D9FFC0C0DAFF300EDF6E0001BF4BC02B5E
:1008E80001010A07D8A00B070A510B11D8B4C9D1C6
:1008F800EED7C00E1B150001EB6F000E01011C1591
:100908000001EC6FEB51EC11D8A42FD001011BA909
:100918000ED008C1D9FF09C1DAFFDECF12F1DECF50
:1009280013F1DECF14F1DECF15F1040E0ED008C19D
:10093800D9FF09C1DAFFDECF12F1DDCF13F1000EC6
:1009480013BFFF0E146F156F020E0827000E092340
:1009580015AF6BD0030E1B13151F141F131F126D39
:10096800000E13231423152360D001011BA90ED0F8
:1009780008C1D9FF09C1DAFFDECF12F1DECF13F1CA
:10098800DECF14F1DECF15F1040E0FD008C1D9FF68
:1009980009C1DAFFDECFEBF0DDCFECF0EBC012F1EE
:1009A800ECC013F1146B156B020E0827000E092317
:1009B8003CD0010E1D6F0A0E1D19D8B441D01D512F
:1009C800040D090EF324F66E7C0EF420F76E090070
:1009D800F550125D0900F55013590900F5501459E6
:1009E8000900F5501559D8A02BD01D2BE4D7010EBE
:1009F8001D6F080E1D19D8B423D01D51040D7F0E8C
:100A0800F324F66E7C0EF420F76E0900F550125DA3
:100A18000900F55013590900F55014590900F5500B
:100A28001559D8A00DD01D2BE4D71B51C00B000AB7
:100A3800D8B4BFD7800AD8B4DAD7400AD8B4B9D75F
:100A480019511A11D8B411D0030E1B150001EB6F00
:100A5800000E01011C150001EC6FEB51EC11D8B42C
:100A680004D001011907D8A01A07800E01011DBF83
:100A78007F0E0001EB6F010119511D5D1A51800AAB
:100A88000001EB59D8B008D001011D51195F000EC3
:100A98001DBFFF0E1A5B05D0000E01011A6F000E74
:100AA800196F1BA528D0030E1B150001EB6F000E54
:100AB80001011C150001EC6FEB51EC11D8B408D002
:100AC800BFC0D9FFC0C0DAFF2D0EDF6EBF4BC02BF1
:100AD800010119511A11D8B438D0BFC0D9FFC0C00C
:100AE800DAFF300EDF6E0001BF4BC02B0101190782
:100AF800D8A01A07EED719511A11D8B411D0BFC00F
:100B0800D9FFC0C0DAFF200EDF6E0001BF4BC02B3B
:100B180001011907D8A01A0719511A11D8A4EFD73B
:100B2800030E1B150001EB6F000E01011C150001DF
:100B3800EC6FEB51EC11D8B408D0BFC0D9FFC0C0DE
:100B4800DAFF2D0EDF6EBF4BC02B01011D510A6F5E
:100B58000B6B0ABF0B078CD00AC1EBF00BC1ECF092
:100B68000001D890EB37EC37D890EB37EC37090E0B
:100B7800EB25F66E7C0EEC21F76E0900F5CF64F0DC
:100B88000900F5CF65F00900F5CF66F00A00F5CF4A
:100B980067F012C160F013C161F014C162F015C1B1
:100BA80063F053EC24F060C06DF061C06EF062C079
:100BB8006FF063C070F00A0E0001716F000E726F63
:100BC800000E736F000E746F7EEC25F000016D51FE
:100BD800300F01011D6F43D012C160F013C161F0E5
:100BE80014C162F015C163F00AC1EBF00BC1ECF05F
:100BF8000001D890EB37EC37D890EB37EC377F0E05
:100C0800EB25F66E7C0EEC21F76E0900F5CF64F04B
:100C18000900F5CF65F00900F5CF66F00A00F5CFB9
:100C280067F053EC24F0000160510F0B0101036FD2
:100C38000351010DD20EF324F66E7E0EF420F76EEA
:100C48000800F5CF1DF10BD01B51C00B000AD8B41A
:100C580083D7800AD8B4C0D7400AD8B47DD7BFC0DC
:100C6800D9FFC0C0DAFF1DC1DFFF0001BF4BC02B99
:100C780001010A07D8A00B070A29E6E10B29D8A425
:100C8800E3D7C1C0F6FFC2C0F7FF0001C14BC22BBA
:100C98000800F5CF1DF101011D51D8A410EF00F097
:100CA800BFC0D9FFC0C0DAFF000EDF6E1200000E11
:100CB8000201AF6F969483989598839A959A839C2E
:100CC800959C839E959E000EAA6F000EA96FAABFE1
:100CD80006D0AA511CE1190EA95DD8B018D0010E92
:100CE800AF1BAFB102D0849401D084840D0E0101F2
:100CF800EE6F2D0EED6FD70EE82EFED7ED2FFCD739
:100D0800EE2FFAD700D00201A94BAA2BE0D7000E8C
:100D180000016D6FE10E6E6F000E6F6F000E706F49
:100D2800BAEC21F0D4EC14F091EC2AF010EC21F09C
:100D3800CCEC27F073EC29F0340EA0EC2AF0000E6E
:100D48000201B06F2F0EB06501D00AD0000E00016D
:100D5800F16F0201B05148EC25F00201B02BF2D737
:100D6800300EB16F3F0EB16501D00AD0010E0001FF
:100D7800F16F0201B15148EC25F00201B12BF2D715
:100D8800000E0001F26F010EF16F87EC27F0040EE0
:100D98000001F16F7E0EF26FACEC28F0160E000128
:100DA800F16F7F0EF26F4FEC28F0050E0001F16F26
:100DB8007F0EF26F8DEC28F07D0E0001F16F7E0E34
:100DC800F26F6EEC28F023EC29F022EC2AF060C0D8
:100DD80096F261C097F262C098F263C099F2010E70
:100DE8000201AF1BAFB102D08D9401D08D84000EEB
:100DF800DEEC17F09EC0A6F29FC0A7F2A0C0A8F232
:100E0800000E0001836F7A0E846F440E856FA6C2B0
:100E180080F0A7C281F0A8C282F0A2EC1CF080C0CA
:100E2800B0F081C0B1F082C0B2F026EC1CF0B0C0C6
:100E3800B4F2B1C0B5F2010EDEEC17F09EC0A6F216
:100E48009FC0A7F2A0C0A8F2000E0001836F7A0E1F
:100E5800846F440E856FA6C280F0A7C281F0A8C235
:100E680082F0A2EC1CF080C0B0F081C0B1F082C06A
:100E7800B2F026EC1CF0B0C0B6F2B1C0B7F2000E6A
:100E88000001606F010EE5EC25F00001656F010EB1
:100E980002EC1EF065C0B8F266C0B9F267C0BAF2DB
:100EA80068C0BBF2010E0001606F010EE5EC25F091
:100EB8000001656F020E02EC1EF065C0BCF266C050
:100EC800BDF267C0BEF268C0BFF2020E0001606FDB
:100ED800010EE5EC25F00001656F030E02EC1EF033
:100EE80065C0C0F266C0C1F267C0C2F268C0C3F292
:100EF800030E0001606F010EE5EC25F00001656F3F
:100F0800040E02EC1EF065C0C4F266C0C5F267C0EC
:100F1800C6F268C0C7F2B4C2EDF2B6C2ECF2B8C20B
:100F2800FEF1BCC2FDF1C0C2FCF1C4C2FBF1000E6F
:100F38000001606F000EE5EC25F00101ED6FED3B5F
:100F48008C50ED19EF0BED198C6E030E0001606FDC
:100F5800000EE5EC25F00101ED6FED3BED478C50FF
:100F6800ED19DF0BED198C6E020E0001606F000E9B
:100F7800E5EC25F00101ED6FED3BED47ED478C50B9
:100F8800ED19BF0BED198C6E010E0001606F000E9C
:100F9800E5EC25F00101ED6FED33ED338C50ED19E3
:100FA8007F0BED198C6E000E0001606F000EE5ECF2
:100FB80025F00101ED6F0201F151FE0B0101ED1168
:100FC8000201F16F030E0001606F000EE5EC25F0E1
:100FD8000101ED6FD890ED35EE6F0201F151FD0B77
:100FE8000101EE110201F16F020E0001606F000EA7
:100FF800E5EC25F00101ED6FD890ED37D890ED378D
:101008000201F151FB0B0101ED110201F16F010E1B
:101018000001606F000EE5EC25F00101ED6FD8903E
:10102800ED37D890ED37D890ED370201F151F70B35
:101038000101ED110201F16F040E0001606F010E54
:10104800E5EC25F00101ED6FED3BF00EED17020127
:10105800F151EF0B0101ED110201F16F050E0001D5
:10106800606F010EE5EC25F00101ED6F050EEE6FE6
:10107800D890ED37EE2FFCD70201F151DF0B0101BB
:10108800ED110201F16F060E0001606F050EE5EC2F
:1010980025F00101ED6F0201F051FE0B0101ED1188
:1010A8000201F06F070E0001606F050EE5EC25F0F8
:1010B8000101ED6FD890ED35EE6F0201F051FD0B97
:1010C8000101EE110201F06F040E0001606F050EC0
:1010D800E5EC25F00101ED6FD890ED37D890ED37AC
:1010E8000201F051FB0B0101ED110201F06F050E39
:1010F8000001606F050EE5EC25F00101ED6FD89059
:10110800ED37D890ED37D890ED370201F051F70B55
:101118000101ED110201F06F020E0001606F050E72
:10112800E5EC25F00101ED6FED3BF00EED17020146
:10113800F051EF0B0101ED110201F06F030E0001F8
:10114800606F050EE5EC25F00101ED6F050EEE6F01
:10115800D890ED37EE2FFCD70201F051DF0B0101DB
:10116800ED110201F06F000E0001606F050EE5EC55
:1011780025F00101ED6F060EEE6FD890ED37EE2FDA
:10118800FCD70201F051BF0B0101ED110201F06F14
:10119800010E0001606F050EE5EC25F00101ED6F11
:1011A800000EEDB1800EED6F0201F0517F0B0101D1
:1011B800ED110201F06F040E0001606F000EE5EC06
:1011C80025F0E806D8A482D1000E0001606F060E53
:1011D800E5EC25F00101ED6F010E0001606F060ED0
:1011E800E5EC25F00101EE6FD890EE35EF6F020EB9
:1011F8000001606F060EE5EC25F00101F06FD89054
:10120800F037D890F037030E0001606F060EE5EC5A
:1012180025F00101F16FD890F137D890F137D890C7
:10122800F137040E0001606F060EE5EC25F00101B0
:10123800F26FF23BF00EF217050E0001606F060E1A
:10124800E5EC25F00101F36F050EF46FD890F33744
:10125800F42FFCD7060E0001606F060EE5EC25F0B2
:101268000101F56F060EF66FD890F537F62FFCD70B
:10127800F551F311F211F111F011EF11ED11020115
:101288009E6F000E0001606F070EE5EC25F001016E
:10129800ED6F010E0001606F070EE5EC25F001010E
:1012A800EE6FD890EE35EF6F020E0001606F070EFB
:1012B800E5EC25F00101F06FD890F037D890F037C1
:1012C800030E0001606F070EE5EC25F00101F16FD8
:1012D800D890F137D890F137D890F137040E000143
:1012E800606F070EE5EC25F00101F26FF23BF00E9E
:1012F800F217050E0001606F070EE5EC25F00101FD
:10130800F36F050EF46FD890F337F42FFCD7060E61
:101318000001606F070EE5EC25F00101F56F060E80
:10132800F66FD890F537F62FFCD7F551F311F21177
:10133800F111F011EF11ED110201AB6F000EAC6F5E
:1013480009D0000E0001F16F0201AC5148EC25F004
:101358000201AC2BAB51AC5DD8A0F3D79EC2ADF265
:1013680009D0010E0001F16F0201AD5148EC25F0E2
:101378000201AD2BAD51AB5DD8B0F3D7070E00011C
:10138800606F000EE5EC25F0E806D8A496D0040EB0
:101398000001F16F7E0EF26FACEC28F0000E000138
:1013A800606F020EE5EC25F00101ED6F010E000102
:1013B800606F020EE5EC25F00101EE6FD890EE3576
:1013C800EF6F020E0001606F020EE5EC25F00101DF
:1013D800F06FD890F037D890F037030E0001606FA7
:1013E800020EE5EC25F00101F16FD890F137D890A5
:1013F800F137D890F135F011EF11ED110201AE6F10
:10140800AEC2F1F00001F26B87EC27F0050E000187
:10141800606F000EE5EC25F0E806D8A455D0040E60
:101428000001606F020EE5EC25F00101ED6F050E7D
:101438000001606F020EE5EC25F00101EE6FD89017
:10144800EE35EF6F060E0001606F020EE5EC25F039
:101458000101F06FD890F037D890F037070E0001EF
:10146800606F020EE5EC25F00101F16FD890F137BD
:10147800D890F137D890F135F011EF11ED11020144
:101488009F6F9F512FEC28F0060E0001606F000E31
:10149800E5EC25F00009D8A408D0000E0001F26F91
:1014A8007D0EF16F64EC27F00FD0010E0001F26F92
:1014B800F40EF16F64EC27F007D0080E0001F16F0D
:1014C8007E0EF26FACEC28F023EC29F0F1C2B2F2F8
:1014D800F0C2B3F2030E0001F16FB20EF26F020E0A
:1014E800F36F160EF46F010E6FEC0DF00201A06F92
:1014F800A051D8A417D0A12B020EA16513D0040EB9
:101508000001F16F7E0EF26FACEC28F0000E0001C6
:10151800F26F010EF16F87EC27F023EC29F0000E33
:101528000201A16F73EC29F00009D8B451D0000171
:10153800FF51D8A44DD0000EBF6F020EC06F210E10
:10154800C16F7E0EC26F01C3C3F0C46B03C3C5F085
:10155800C66B05C3C7F0C86B07C3C9F0CA6B09C31C
:10156800CBF0CC6B0BC3CDF0CE6B0DC3CFF0D06BF3
:101578000FC3D1F0D26B11C3D3F0D46B13C3D5F022
:10158800D66B00C3D7F0D86B02C3D9F0DA6B04C3AB
:10159800DBF0DC6B06C3DDF0DE6B08C3DFF0E06B6D
:1015A8000AC3E1F0E26B0CC3E3F0E46B0EC3E5F0B1
:1015B800E66B10C3E7F0E86BEBC2E9F0EA6B09EC05
:1015C80000F0000E0001606F020E616FF5EC26F06E
:1015D80096C2EDF197C2EEF198C2EFF199C2F0F11F
:1015E8000101ED1FEE1FEF1FF01FED2B000EEE2384
:1015F800EF23F02322EC2AF00101ED5100016025D0
:101608000201A26F0101EE51000161210201A36FE5
:101618000101EF51000162210201A46F0101F051A3
:10162800000163210201A56FA551A41105E1300E47
:10163800A25D750EA359D8B0E9EF06F0A2C2EDF18C
:10164800A3C2EEF1A4C2EFF1A5C2F0F10101ED1FB2
:10165800EE1FEF1FF01FED2B000EEE23EF23F023FC
:10166800300EED2502019A6F750E0101EE2102017F
:101678009B6F000E0101EF2102019C6F000E01011A
:10168800F02102019D6F9AC26DF09BC26EF09CC260
:101698006FF09DC270F0D6EC24F0E9EF06F000017F
:1016A800956F000195AF0CD1956D9551800A120F79
:1016B800D8A097D0000E716F030E706F000E696F7F
:1016C8000A0E686F000E636F640E626F9551606F4B
:1016D800616B60BF61070FEC25F060C066F061C008
:1016E80067F0CDEC23F0090E000166256E6F000E41
:1016F80067216F6FE8EC29F0580E00016E25F66E31
:101708007C0E6F21F76E0900F5CF83F00900F5CF45
:1017180084F00A00F5CF85F0000E696F640E686FDB
:101728009551666F676B66BF6707CDEC23F0120EA5
:10173800000166256E6F000E67216F6F000E716FD6
:10174800030E706FE8EC29F0580E00016E25F66E56
:101758007C0E6F21F76E0900F5CF80F00900F5CFF8
:1017680081F00A00F5CF82F0A2EC1CF080C092F064
:1017780081C093F082C094F092C080F093C081F051
:1017880094C082F0000E0001716F030E706F000E9E
:10179800636F0A0E626F9551606F616B60BF61077E
:1017A8000FEC25F060C06EF061C06FF0E8EC29F036
:1017B800580E00016E25F66E7C0E6F21F76E09003B
:1017C800F5CF83F00900F5CF84F00A00F5CF85F056
:1017D800A2EC1CF080C08FF081C090F082C091F024
:1017E800120000019551800A750FD8A056D0000E3E
:1017F800696F0A0E686F9551666F676B66BF6707FA
:10180800CDEC23F0090E000166256E6F000E6721EE
:101818006F6F000E716F030E706FE8EC29F0580EB1
:1018280000016E25F66E7C0E6F21F76E0900F5CF6C
:1018380080F00900F5CF81F00A00F5CF82F0000EA4
:10184800716F030E706F000E636F0A0E626F955111
:10185800606F616B60BF61070FEC25F060C06EF0D0
:1018680061C06FF0E8EC29F0580E00016E25F66EA5
:101878007C0E6F21F76E0900F5CF83F00900F5CFD4
:1018880084F00A00F5CF85F0A2EC1CF080C08FF040
:1018980081C090F082C091F0120000019551030DB3
:1018A800580EF324F66E7C0EF420F76E0900F5CF7F
:1018B8008FF00900F5CF90F00A00F5CF91F01200F3
:1018C8009551800A120FD8A097D0000E716F030EA1
:1018D800706F000E696F0A0E686F000E636F640EFA
:1018E800626F9551606F616B60BF61070FEC25F007
:1018F80060C066F061C067F0CDEC23F0090E00010E
:1019080066256E6F000E67216F6FE8EC29F0310EC7
:1019180000016E25F66E7C0E6F21F76E0900F5CF7B
:1019280083F00900F5CF84F00A00F5CF85F0000EAA
:10193800696F640E686F9551666F676B66BF67075E
:10194800CDEC23F0120E000166256E6F000E6721A4
:101958006F6F000E716F030E706FE8EC29F0310E97
:1019680000016E25F66E7C0E6F21F76E0900F5CF2B
:1019780080F00900F5CF81F00A00F5CF82F0A2ECE3
:101988001CF080C092F081C093F082C094F092C0A5
:1019980080F093C081F094C082F0000E0001716F56
:1019A800030E706F000E636F0A0E626F9551606FC1
:1019B800616B60BF61070FEC25F060C06EF061C01D
:1019C8006FF0E8EC29F0310E00016E25F66E7C0E02
:1019D8006F21F76E0900F5CF83F00900F5CF84F089
:1019E8000A00F5CF85F0A2EC1CF080C08FF081C012
:1019F80090F082C091F0120000019551800A750F95
:101A0800D8A056D0000E696F0A0E686F9551666FA0
:101A1800676B66BF6707CDEC23F0090E00016625EA
:101A28006E6F000E67216F6F000E716F030E706F7F
:101A3800E8EC29F0310E00016E25F66E7C0E6F2160
:101A4800F76E0900F5CF80F00900F5CF81F00A00A4
:101A5800F5CF82F0000E716F030E706F000E636F8A
:101A68000A0E626F9551606F616B60BF61070FEC82
:101A780025F060C06EF061C06FF0E8EC29F0310E1F
:101A880000016E25F66E7C0E6F21F76E0900F5CF0A
:101A980083F00900F5CF84F00A00F5CF85F0A2ECB9
:101AA8001CF080C08FF081C090F082C091F01200CD
:101AB80000019551030D310EF324F66E7C0EF420CF
:101AC800F76E0900F5CF8FF00900F5CF90F00A0006
:101AD800F5CF91F012000101E66F0101E651D8B48B
:101AE80013D01E0E0001BF6F010EC06FBA0EC16F7A
:101AF8007F0EC26FE40EC36F7D0EC46FF1C0C5F0D8
:101B0800C66B09EC00F012D01E0E0001BF6F010E6B
:101B1800C06FBA0EC16F7F0EC26FC40EC36F7D0E49
:101B2800C46FF1C0C5F0C66B09EC00F0000E0101EE
:101B3800EC6F83D1020EEC19D8B404D0030EEC1963
:101B4800D8A40ED0040E0001606F010EE5EC25F05C
:101B5800E806D8B470D10201ED51D8B46CD146D1A1
:101B6800040E0101EC19D8B404D0050EEC19D8A460
:101B78000CD0050E0001606F010EE5EC25F0E806BB
:101B8800D8B459D10201EC51E8D7090E0101EC197A
:101B9800D8A410D0000E0001606F050EE5EC25F00A
:101BA800E806D8B448D1010E0001606F050EE5ECD7
:101BB80025F032D0080EEC19D8A410D0000E000180
:101BC800606F050EE5EC25F0E806D8B434D1010EB7
:101BD8000001606F050EE5EC25F01ED0070EEC192C
:101BE800D8A407D0000E0001606F050EE5EC25F0C3
:101BF80013D0060EEC19D8A415D0000E0001606FA2
:101C0800050EE5EC25F0E806D8A409D0010E000180
:101C1800606F050EE5EC25F0E806D8B40CD101019B
:101C2800FE519BD70D0EEC19D8A410D0020E00015E
:101C3800606F050EE5EC25F0E806D8B4FCD0030E7D
:101C48000001606F050EE5EC25F032D00C0EEC19A2
:101C5800D8A410D0020E0001606F050EE5EC25F047
:101C6800E806D8B4E8D0030E0001606F050EE5EC75
:101C780025F01ED00B0EEC19D8A407D0020E0001D7
:101C8800606F050EE5EC25F013D00A0EEC19D8A408
:101C980015D0020E0001606F050EE5EC25F0E80690
:101CA800D8A409D0030E0001606F050EE5EC25F0FD
:101CB800E806D8B4C0D00101FD514FD7110EEC1978
:101CC800D8A410D0040E0001606F050EE5EC25F0D5
:101CD800E806D8B4B0D0050E0001606F050EE5EC3B
:101CE80025F032D0100EEC19D8A410D0040E000143
:101CF800606F050EE5EC25F0E806D8B49CD0050E1B
:101D08000001606F050EE5EC25F01ED00F0EEC19F2
:101D1800D8A407D0040E0001606F050EE5EC25F08D
:101D280013D00E0EEC19D8A415D0040E0001606F64
:101D3800050EE5EC25F0E806D8A409D0050E00014B
:101D4800606F050EE5EC25F0E806D8B474D0010103
:101D5800FC5103D7150EEC19D8A410D0060E0001BB
:101D6800606F050EE5EC25F0E806D8B464D0070EE0
:101D78000001606F050EE5EC25F032D0140EEC1969
:101D8800D8A410D0060E0001606F050EE5EC25F012
:101D9800E806D8B450D0070E0001606F050EE5ECD8
:101DA80025F01ED0130EEC19D8A407D0060E00019A
:101DB800606F050EE5EC25F013D0120EEC19D8A4CF
:101DC80015D0060E0001606F050EE5EC25F0E8065B
:101DD800D8A409D0070E0001606F050EE5EC25F0C8
:101DE800E806D8B428D00101FB51B7D6E80E0001A7
:101DF800BF6F010EC06FF00EC16F7F0EC26F010181
:101E0800EC51010DF3500001F225D96EF450F32185
:101E1800DA6EDF50F56FF551C36FC46B09EC00F053
:101E28001E0E0001606F010E616FE80E626F010EF9
:101E3800636F41EC27F00101EC2B0001F451010123
:101E4800EC5DD8A077D61E0E00017C6F010E7D6F69
:101E5800000E7E6FA5EC1AF00101E76F15D0BAEC01
:101E680020F0090AD8A402D0010E1200000E1200B8
:101E780006EC29F002D0FCEC29F00009D8A4E3D73D
:101E8800000E1200000E12000101E751000AD8B43A
:101E9800E6D7020AD8B4ECD7070AD8B4E9D7030AB8
:101EA800D8B4E9D7EFD7106E5A50010D400EF3247D
:101EB800D96E040EF420DA6E10C0DFFF5A2A0A0E1B
:101EC8001018D8A431D1020E5A642ED15A50010DDF
:101ED800400EF324D96E040EF420DA6E000EDF6E85
:101EE800640E016E060E026E400E036E040E046E42
:101EF800BBEC29F0FE0E0A6EFF0E0B6E5A500C6EEC
:101F08000D6A0A500C260B500D22400E0C24D96E77
:101F1800040E0D20DA6E000EDF6E000E5A6E0F0EE4
:101F28000E6E0101FF69000E116E1CD0400E016E8D
:101F3800040E026E1150020DC50EF324D96E030E65
:101F4800F420DA6EDECF03F0DDCF04F01DEC27F0CD
:101F580001500210D8A405D011C0FFF1010E596E2E
:101F68001200112A0E50115CD8A0E0D7E3C301F08B
:101F7800E4C302F0CCEC26F00150126E400E016E64
:101F8800040E026EE3C303F0E4C304F012C005F0CC
:101F9800066A95EC24F001500210D8A406D00F0E62
:101FA8000101FF6F010E596E1200D9C301F0DAC3A7
:101FB80002F0CCEC26F00150126E400E016E040EB9
:101FC800026ED9C303F0DAC304F012C005F0066A42
:101FD80095EC24F001500210D8A4A6D012C013F03A
:101FE800000E0F6E27D01350010D400EF324D96E4A
:101FF800040EF420DA6E2F0EDF642BD01350010D7F
:10200800400EF324D96E040EF420DA6E390EDF6424
:1020180001D01FD00A0E0F02F3500F6E1350010D9E
:10202800400EF324D96E040EF420DA6EDF50D00F80
:102038000F26132A400E016E040E026ECCEC26F019
:1020480013500A6E0B6A01500A5C02500B58D8A054
:10205800CAD7132A38D05B50020D000EF324D96E6C
:10206800030EF420DA6E0FC0DFFF5B50020D010E85
:10207800F326000EF422000EF324D96E030EF4208A
:10208800DA6E13500A6E0B6A010E0A26000E0B2236
:10209800400E0A24E16E040E0B20E26EE750026E39
:1020A8001350010D400EF324E16E040EF420E26E8D
:1020B800E75010EC24F0DF6E5B2A090E5B6401D058
:1020C8001200020E1326400E016E040E026ECCECB6
:1020D80026F013500A6E0B6A01500A5C02500B5826
:1020E800D8A0B9D7400E016E040E026ECCEC26F0D3
:1020F80013500A6E0B6A01500A5C02500B58D8B094
:1021080010D012D05B50020D010EF326000EF422FF
:10211800000EF324D96E030EF420DA6E000EDF6E83
:102128005B2A0A0E5B64EED7640E5A6004D00A0E6E
:102138001018D8A41200000E5A6E120004013205BD
:10214800D8A411D030511F0B0009D8A40CD000011D
:10215800FC8F030E04013119D8A402D0010E01D05E
:10216800000E0101FA6F04013251D8A41200305157
:102178001F0B020AD8A4120034510F0B0009D8B45F
:10218800120034510F0B156E030E15601200200E4D
:102198005818D8A412000001FC8F040134BF19D0CC
:1021A80034510F0B156E1550020DC80EF324D96E5D
:1021B800020EF420DA6EDECF19F0DDCF1AF03451BA
:1021C8000F0B156E1550010DD20EF324D96E020EA9
:1021D80018D034510F0B156E1550020D400EF32414
:1021E800D96E000EF420DA6EDECF19F0DDCF1AF0CA
:1021F80034510F0B156E1550010DD50EF324D96E01
:10220800020EF420DA6EDF50186E18B006D0FB0EFE
:102218001914196EFF0E1A1404D0040E1910196E31
:102228001A501A6E34BF0AD034510F0B156E155060
:10223800020DC80EF324D96E020E09D034510F0BCB
:10224800156E1550020D400EF324D96E000EF420C1
:10225800DA6E19C0DEFF1AC0DDFF030E3119D8A4EB
:102268002DD019C0D9FF1AC0DAFFDFAE1AD034BF9B
:102278000AD034510F0B156E1550010DD20EF324F0
:10228800D96E020E0AD0040134510F0B156E155089
:10229800010DD50EF324D96E020EF420DA6E020178
:1022A800DF8219C0D9FF1AC0DAFF000EDB8419C01B
:1022B800D9FF1AC0DAFF000EDB8E1200040E1918BF
:1022C800196E1A501A6E19C0D9FF1AC0DAFFDFAE9C
:1022D8001BD019C0D9FF1AC0DAFF7F0EDF1619C04C
:1022E800D9FF1AC0DAFF000EDB8C000E0E6E050E49
:1022F8000D6E19C00FF01AC010F0000E126E020E0B
:10230800116E73EC26F006D019C0D9FF1AC0DAFF97
:10231800000EDB8C040E1918196E1A501A6E18B2BA
:1023280006D019C0D9FF1AC0DAFFDFAE30D00401D9
:1023380034BF0AD034510F0B156E1550010DD20E53
:10234800F324D96E020E0AD0040134510F0B156E16
:102358001550010DD50EF324D96E020EF420DA6E55
:102368000201DF9219C0D9FF1AC0DAFF3B0EDF164F
:10237800000E0E6E050E0D6E19C00FF01AC010F08B
:10238800000E126E020E116E73EC26F006D019C004
:10239800D9FF1AC0DAFF3B0EDF16040134510F0BC8
:1023A800156E1550010D700EF324166E0F0EF420E5
:1023B800176E16C0D9FF17C0DAFFFE0EDF1612001F
:1023C8000001986F6D0E00019865A6D0000E716F20
:1023D800030E706F000E696F0A0E686F000E636F50
:1023E800640E626F98C060F0616B0FEC25F060C0FE
:1023F80066F061C067F0CDEC23F0090E0001662598
:102408006E6F000E67216F6FE8EC29F0580E00011F
:102418006E25F66E7C0E6F21F76E0900F5CF83F0FE
:102428000900F5CF84F00A00F5CF85F0000E696F3A
:10243800640E686F98C066F0676BCDEC23F0120EDF
:10244800000166256E6F000E67216F6F000E716FB9
:10245800030E706FE8EC29F0580E00016E25F66E39
:102468007C0E6F21F76E0900F5CF80F00900F5CFDB
:1024780081F00A00F5CF82F0A2EC1CF080C095F044
:1024880081C096F082C097F0000E0001716F030EB4
:10249800706F000E636F0A0E626F98C060F0616B18
:1024A8000FEC25F060C06EF061C06FF0E8EC29F029
:1024B800580E00016E25F66E7C0E6F21F76E09002E
:1024C800F5CF83F00900F5CF84F00A00F5CF85F049
:1024D80095C080F096C081F097C082F0A2EC1CF005
:1024E80080C092F081C093F082C094F092C080F0D6
:1024F80093C081F094C082F0000E0001836F000E3B
:10250800846F3F0E856FA2EC1CF080C08FF081C0F5
:1025180090F082C091F012000A0E0001986567D011
:10252800000E716F030E706F000E636F0A0E626FFC
:1025380098C060F0616B0FEC25F060C06EF061C070
:102548006FF0E8EC29F0580E00016E25F66E7C0E4F
:102558006F21F76E0900F5CF83F00900F5CF84F0FD
:102568000A00F5CF85F0000E696F0A0E686F98C0F3
:1025780066F0676BCDEC23F0090E000166256E6FDF
:10258800000E67216F6F000E716F030E706FE8EC1D
:1025980029F0580E00016E25F66E7C0E6F21F76E3D
:1025A8000900F5CF80F00900F5CF81F00A00F5CFDA
:1025B80082F0A2EC1CF080C095F081C096F082C039
:1025C80097F095C080F096C081F097C082F0000E19
:1025D8000001836F000E846F3F0E856FA2EC1CF024
:1025E80080C08FF081C090F082C091F0120000018D
:1025F8009851030D580EF324F66E7C0EF420F76EF6
:102608000900F5CF80F00900F5CF81F00A00F5CF79
:1026180082F0000E836F000E846F3F0E856FA2EC70
:102628001CF080C08FF081C090F082C091F0120041
:102638000600FACF1EF0FBCF1FF0E9CF20F0EACF5B
:1026480021F0E1CF22F0E2CF23F0D9CF24F0DACF86
:1026580025F0F3CF26F0F4CF27F0F6CF28F0F7CF08
:1026680029F0F8CF2AF0F5CF2BF05FC02CF060C02E
:102678002DF061C02EF062C02FF09EB49DA488D0CA
:102688009E94010E03012A27000E2B232C232D23B1
:1026980083A003D01D6A1D2A01D01D6A1D50306E0B
:1026A800316A83A203D01D6A1D2A01D01D6A1D50FC
:1026B800326E336A83A403D01D6A1D2A01D01D6AB5
:1026C8001D50346E356A83A603D01D6A1D2A01D0B9
:1026D8001D6A1D50366E376A30500201DE1904E15A
:1026E8003150DF19D8B40BD030043110D8A407D03A
:1026F800010E03013A27000E3B233C233D2330C043
:10270800DEF231C0DFF232500201DC1904E133504D
:10271800DD19D8B40BD032043310D8A407D0010E79
:1027280003013627000E37233823392332C0DCF261
:1027380033C0DDF234500201DA1904E13550DB19F7
:10274800D8B40BD034043510D8A407D0010E030137
:102758003227000E33233423352334C0DAF235C050
:10276800DBF2365003014E1904E137504F19D8B443
:102778000AD036043710D8A406D0010E2E27000E32
:102788002F233023312336C04EF337C04FF30BD0FD
:102798009DBA9EAA05D035EC2AF057EC0FF003D06D
:1027A800A0BAB0EC16F02FC062F02EC061F02DC0B8
:1027B80060F02CC05FF02BC0F5FF2AC0F8FF29C0DD
:1027C800F7FF28C0F6FF27C0F4FF26C0F3FF25C097
:1027D800DAFF24C0D9FF23C0E2FF22C0E1FF21C0F5
:1027E800EAFF20C0E9FF1FC0FBFF1EC0FAFF5F928F
:1027F800110076C07AF000017B6B7C6B75357A37F7
:1028080001E37B817A517F6F79C07AF07B6B7C6BB7
:1028180078357A3701E37B817A517E6F7F51D8B45E
:102828000BD07E517F5DD8B00ED07F5100087E2539
:102838007A6F180E7A6507D077C074F078C075F093
:1028480079C076F012007E51D8B40BD07F517E5DEE
:10285800D8B00ED07E5100087F257A6F180E7A65A1
:1028680007D074C074F075C075F076C076F01200A9
:10287800060E7D6F76BF7D8F79BF7D8D758FFF0EBC
:102888007417FF0E7517000E7617788FFF0E7717DF
:10289800FF0E7817000E79177E517F5DD8B01BD0D8
:1028A800D8907737783779377E077F517E19D8B433
:1028B8000DD07D077DC07AF0070E7A17D8B406D000
:1028C800EFD7D8907633753374337F2B7E517F19C9
:1028D800D8B41FD0F6D77F517E5DD8B01AD0D89023
:1028E8007437753776377F077F517E19D8B40DD086
:1028F8007D077DC07AF0070E7A17D8B406D0EFD7D7
:10290800D8907933783377337E2B7E517F19D8A4CA
:10291800F7D77DAF0CD0FF0E741BFF0E751BFF0E93
:10292800761B010E7427000E7523000E76237DADED
:102938000CD0FF0E771BFF0E781BFF0E791B010EC4
:102948007727000E7823000E7923000E7D6F7451CF
:102958007727755178237651792379AF0ED0FF0EFA
:10296800771BFF0E781BFF0E791B010E7727000ED1
:102978007823000E7923010E7D6F77C060F078C050
:1029880061F079C062F07FC063F07DC064F00BEC49
:1029980020F060C074F061C075F062C076F012007B
:1029A800A09A000E6A6E000E686E000E706E710EB0
:1029B8000001606F0F0E616F000E636F000E626F93
:1029C800000E656F020E646F8BEC29F0160E6F6EA9
:1029D8009F0E6B6E7B0E696E000E0001686F0B0E0A
:1029E800686501D00ED06851040D000EF324D96E2D
:1029F800040EF420DA6EDE6ADE6ADE6ADD6A682BAF
:102A0800EED76D8C000E6E6E6D986D9C6896000EFC
:102A1800FC6F000E3B6E000E3D6E000E3C6E68B6FD
:102A2800F5D7010E0201E96F010EE86F000EE76F9E
:102A3800000EE66F000E0101F96F000E0001686FCD
:102A4800020E686501D02ED06851020D400EF324A5
:102A5800D96E000EF420DA6E000EDE6E000EDD6E0A
:102A68006851020DC80EF324D96E020EF420DA6EF6
:102A7800000EDE6E000EDD6E6851010DD50EF324DA
:102A8800D96E020EF420DA6E000EDF6E6851010D69
:102A9800D20EF324D96E020EF420DA6E000EDF6E29
:102AA800682BCED7080E406E040E416E160E706E5F
:102AB800040E0401036F300E026F080E016F040E3E
:102AC800006F008F000E5E6E000E0201CE6F000ECA
:102AD800CF6F000ED06F000ED16F000EE56F000EA5
:102AE800586E1200A09A000E6A6E000E686E000EF4
:102AF800706E710E016E0F0E026E000E046E000EE7
:102B0800036E000E066E020E056ED2EC29F0160E4C
:102B18006F6E9F0E6B6E7B0E696E000E096E0B0E4C
:102B2800096401D00ED00950040D000EF324D96EAB
:102B3800040EF420DA6EDE6ADE6ADE6ADD6A092ACD
:102B4800EED76D8C000E6E6E6D986D9C6896000EBB
:102B58000001FC6F000E3B6E000E3D6E000E3C6ED9
:102B680068B6F4D7010E0201E96F010EE86F000E96
:102B7800E76F000EE66F000E0101F96F000E096E97
:102B8800020E096401D02ED00950020D400EF32424
:102B9800D96E000EF420DA6E000EDE6E000EDD6EC9
:102BA8000950020DC80EF324D96E020EF420DA6E15
:102BB800000EDE6E000EDD6E0950010DD50EF324F9
:102BC800D96E020EF420DA6E000EDF6E0950010D88
:102BD800D20EF324D96E020EF420DA6E000EDF6EE8
:102BE800092ACED7080E406E040E416E160E706E7E
:102BF800040E0401036F300E026F080E016F040EFD
:102C0800006F008F000E5E6E000E0201CE6F000E88
:102C1800CF6F000ED06F000ED16F000EE56F000E63
:102C2800586E120062C066F00001676B686B613510
:102C3800663701E3678166516E6F6E51D8A409D07B
:102C4800000E606F000E616F000E626F000E636F02
:102C5800120065C066F0676B686B6435663701E320
:102C6800678166516D6F6D51D8A409D0000E606FF1
:102C7800000E616F000E626F000E636F1200618FAD
:102C8800FF0E6017FF0E6117000E6217648FFF0EAC
:102C98006317FF0E6417000E6517000E696F000EAC
:102CA8006A6F000E6B6F000E6C6F7F0E6E5F6D515A
:102CB800980F6E5F180E6D6FD89069376A376B374B
:102CC8006C376351605D6451615965516259D8A090
:102CD80007D06351605F6451615B6551625B6981D4
:102CE800D8906037613762376D2FE6D76EAF16D050
:102CF8006E51800A970FD8B009D0000E606F000E91
:102D0800616F000E626F000E636F1200D8906C3313
:102D18006B336A3369336E3FF9D715D0170E6E657A
:102D28000FD0000E606F000E616F000E626F000E14
:102D3800636F1200D89069376A376B376C376E0744
:102D48006E51D8A4F7D769C060F06AC061F06BC053
:102D580062F06CC063F012005804D8B46DBA06D0A3
:102D6800000E686E69806988020E586E68B469A49E
:102D780003D068943EEC29F06DA202D0A19A12000B
:102D880068B069A006D076EC15F0A08A040E586EDB
:102D9800689068B869A802D0A3EC29F068AC1AD08A
:102DA80069AC0ED0000E0E6E730E0D6E000E0F6E17
:102DB800000E106E000E126E010E116E73EC26F0EE
:102DC800689C48EC2AF05450D8A454065450D8B4FF
:102DD8004BEC1FF068BA69AA02D00EEC28F068B272
:102DE80069A20FD07F0E0E6E0D68000E0F6E000EDA
:102DF800106E000E126E010E116E73EC26F0000EAE
:102E08006A6E040E586002D0A19A120069A639D0E1
:102E1800000E1C6E030E1C6401D033D068A631D09E
:102E28006CCF5DF05D30E832E8320F0B556E689676
:102E38005DB407D05550010DD20EF324D96E020EA1
:102E480006D05550010DD50EF324D96E020EF4208C
:102E5800DA6E0201DF705550D8A403D0A6EC22F038
:102E68000ED0000E0E6E720E0D6E5D0E0F6E000E01
:102E7800106E000E126E000E116E73EC26F01C2AF6
:102E8800C9D7A19A1200800E04013019D8A41200E3
:102E9800C00E0001FC6F82D0520E0001F96F7D0E4A
:102EA800FA6F000EFE6F120EFD6F12000401325110
:102EB800D8A440D03251020DA50EF324F66E7C0E34
:102EC800F420F76E0900F5CFF9F00A00F5CFFAF013
:102ED800020E0001F925016E000EFA21026E01C0F2
:102EE800F6FF02C0F7FFF86A070EF76403D0080080
:102EF800F55005D0F6CFE9FFF7CFEAFFEF50000114
:102F0800FD6F030EF925016E000EFA21026E01C055
:102F1800F6FF02C0F7FFF86A070EF76403D008004F
:102F2800F55005D0F6CFE9FFF7CFEAFFEF500001E3
:102F3800FE6F1200000E0001FC6F1200030E040168
:102F4800326124D03251020D9F0EF324F66E7C0EAE
:102F5800F420F76E0900F5CFF9F00A00F5CFFAF082
:102F6800F9C0F6FFFAC0F7FFF86A070EF76403D056
:102F78000800F55005D0F6CFE9FFF7CFEAFFEF508C
:102F8800016E01500001FD6FFE6B1200000E000182
:102F9800FC6F1200000E0001FC6F12000401335197
:102FA800010AD8B479D7030AD8B480D7010AD8B4AB
:102FB800C5D7F0D70001A96F0001A951D8A402D044
:102FC800010EC26EA905D8A402D0050EC26E000E6D
:102FD800AF6F000EAE6F000EAD6F000EAC6FADBFE1
:102FE80006D0AD5119E1200EAC5DD8B015D0C28223
:102FF80000F0C2B2FED7C4CFAAF00001AB6BAA5151
:10300800A16FC350AA6FA1C0ABF0AA51AE27AB51B4
:10301800AF23AC4BAD2BE3D7050EA16FD890AF33E0
:10302800AE33A12FFBD7AE51AF11D8A407D0000EF5
:10303800A66F000EA76F000EA86F4BD0000E926F00
:10304800440E936F440E946F000E836F800E846F4E
:10305800410E856F000E776F430E786FC30E796F40
:10306800AEC068F0AFC069F0E9EC28F068C074F051
:1030780069C075F06AC076F0FDEC13F074C080F09A
:1030880075C081F076C082F0A2EC1CF080C08FF091
:1030980081C090F082C091F01DEC1DF08FC0A3F0AC
:1030A80090C0A4F091C0A5F0A3C074F0A4C075F0BE
:1030B800A5C076F0000E0001776F800E786F400E85
:1030C800796FFDEC13F074C0A6F075C0A7F076C058
:1030D800A8F0A6C09EF0A7C09FF0A8C0A0F012005C
:1030E8000001623563356B6F6B51D8A409D0000EAF
:1030F800606F000E616F000E626F000E636F12004A
:10310800653566356A6F6A51D8A409D0000E606FBC
:10311800000E616F000E626F000E636F1200628F07
:10312800FF0E6017FF0E6117FF0E6217000E631780
:10313800658FFF0E6317FF0E6417FF0E6517000EED
:103148006617000E666F000E676F000E686F000E40
:10315800696F7F0E6B5F6A51A00F6B5F200E6A6FFD
:10316800D89066376737683769376351605D64514F
:1031780061596551625966516359D8A009D06351A4
:10318800605F6451615B6551625B6651635B668138
:10319800D89060376137623763376A2FE1D76BAFF2
:1031A80016D06B51800A9F0FD8B009D0000E606FFF
:1031B800000E616F000E626F000E636F1200D890F0
:1031C80069336833673366336B3FF9D715D01F0E01
:1031D8006B650FD0000E606F000E616F000E626F9E
:1031E800000E636F1200D890663767376837693703
:1031F8006B076B51D8A4F7D766C060F067C061F061
:1032080068C062F069C063F01200A09A0201D85148
:10321800D911D8B408D0D8C2D9FFD9C2DAFFDFAEE5
:1032280002D0A08A1200030E0001FF19D8A402D010
:10323800000EFF6FFF51D8A402D0A08A1200020E20
:10324800FF19D8A413D0010E606F000E616F000E35
:10325800626F000E636F020E22EC1AF060C0D8F2A3
:1032680061C0D9F2030E0001FF6F60D0FF05D8A43A
:103278005DD0400E516403D0400E6C6F02D051C037
:103288006CF06C5100085124516E000E0301466F1A
:10329800050E476F6CC06BF00201E451D8B412D030
:1032A80027D049C3D9FF4AC3DAFF46C3E1FF47C362
:1032B800E2FFDFCFE7FF0301464B472B494B4A2B81
:1032C80000016B0700016B51D8B416D0EAD749C387
:1032D800D9FF4AC3DAFF46C3E1FF47C3E2FFDFCFA6
:1032E800E7FF0301464B472B494B4A2B00016B076D
:1032F80000016B51D8A4EBD75150D8A408D0400E88
:103308006C19D8A402D0020E01D0030EFF6F010E73
:10331800606F000E616F050E626F6CC063F0020E85
:1033280022EC1AF060C0D8F261C0D9F2A08A12006B
:1033380020EE01F04E50D9264F50DA22DF50026EAF
:1033480002503C5C000E3D58D8A03CC002F0025030
:103358003C5E000E3D5A000E016E11D00150010D69
:10336800380EF324D96E040EF420DA6E38C0E1FF6B
:1033780039C0E2FFDFCFE7FF384A392A012A025075
:10338800015CD8A0EBD73C503D10D8B432D020EE29
:1033980001F04C50D9264D50DA22080EDF6E20EE8F
:1033A80002F04C50D9264D50DA22380EDE6E040E4B
:1033B800DD6E4EC0D9FF4FC0DAFFDFBC0DD04CC068
:1033C800D9FF4DC0DAFF480EDF6E4CC0D9FF4DC0A3
:1033D800DAFF000EDB8E12004CC0D9FF4DC0DAFFB9
:1033E800080EDF6E4CC0D9FF4DC0DAFF000EDB8E31
:1033F800120020EE01F04C50D9264D50DA22080E6A
:10340800DF6E20EE02F04C50D9264D50DA22300EF5
:10341800DE6E040EDD6E4CC0D9FF4DC0DAFF040E1F
:10342800DF6E4CC0D9FF4DC0DAFF000EDB8E3B9E2D
:103438005350D8A412004BEC1FF012000001686F23
:1034480000016051D8B407D06851020D400EF32432
:10345800D96E000E06D06851020DC80EF324D96E3D
:10346800020EF420DA6EDECF69F0DDCF6AF0695122
:103478006A11D8A405D0000E606F000E616F1200AB
:1034880020EE02F06951D9266A51DA2261C0DEFFC6
:1034980062C0DDFF20EE01F06951D9266A51DA22B7
:1034A80063C0DFFF69C0D9FF6AC0DAFF400EDF16CC
:1034B80069C0D9FF6AC0DAFF000EDB8669C0D9FF90
:1034C8006AC0DAFF000EDB8E6051D8B418D068519C
:1034D800020D400EF324D96E000EF420DA6EDECF12
:1034E80064F0DDCF65F0040E6419666F6551676F8F
:1034F8006851020D400EF324D96E000E17D06851A2
:10350800020DC80EF324D96E020EF420DA6EDECF57
:1035180064F0DDCF65F0040E6419666F6551676F5E
:103528006851020DC80EF324D96E020EF420DA6E2B
:1035380066C0DEFF67C0DDFF69C060F06AC061F089
:1035480012007CEC2AF041D0000E0001826F000EC0
:10355800816F0DD0FB0E8125F66E7D0E8221F76EF0
:103568000800F550A0EC2AF00001814B822BFB0EDD
:10357800606F7D0E616FA1EC26F000016051815DE6
:1035880061518259D8B029D0E5D7000E846F000E5A
:10359800836F0DD0F10E8325F66E7D0E8421F76EB4
:1035A8000800F550A0EC2AF00001834B842BF10EA3
:1035B800606F7D0E616FA1EC26F000016051835DA4
:1035C80061518459D8B009D0E5D700017E51000A6D
:1035D800D8B4BAD7010AD8B4D8D7000E866F000E6F
:1035E800856F1BD085517C257F6F86517D21806F2B
:1035F8007FC0F6FF80C0F7FFF86A070EF76403D0B4
:103608000800F55005D0F6CFE9FFF7CFEAFFEF50F5
:10361800A0EC2AF00001854B862B7CC060F07DC0B1
:1036280061F0A1EC26F000016051855D6151865979
:10363800D8A0D8D70D0EA0EC2AF00A0EA0EC2AF0DC
:10364800BAEC20F01200096E0150D8B407D0095026
:10365800020D400EF324D96E000E06D00950020D5B
:10366800C80EF324D96E020EF420DA6EDECF0AF00B
:10367800DDCF0BF00A500B10D8A405D0000E016E58
:10368800000E026E120020EE02F00A50D9260B50EE
:10369800DA2202C0DEFF03C0DDFF20EE01F00A508F
:1036A800D9260B50DA2204C0DFFF0AC0D9FF0BC0AD
:1036B800DAFF400EDF160AC0D9FF0BC0DAFF000E92
:1036C800DB860AC0D9FF0BC0DAFF000EDB8E015083
:1036D800D8B418D00950020D400EF324D96E000E4C
:1036E800F420DA6EDECF05F0DDCF06F0040E051803
:1036F800076E0650086E0950020D400EF324D96E6D
:10370800000E17D00950020DC80EF324D96E020E10
:10371800F420DA6EDECF05F0DDCF06F0040E0518D2
:10372800076E0650086E0950020DC80EF324D96EB4
:10373800020EF420DA6E07C0DEFF08C0DDFF0AC003
:1037480001F00BC002F012006D980001FCBF3AD0E6
:103758003BAE0DD0020E566E0201E651D8B40AEC0B
:1037680022F0000E0201E86F000EE96F120020EE51
:1037780001F04C50D9264D50DA22080EDF6E20EEAB
:1037880002F04C50D9264D50DA22300EDE6E040E6F
:10379800DD6E4CC0D9FF4DC0DAFF0C0EDF6E4CC099
:1037A800D9FF4DC0DAFF000EDB8E40C0D9FF41C003
:1037B800DAFF040EDF6E40C0D9FF41C0DAFF000E09
:1037C800DB8E1200040130AF12D0010E566E0201DA
:1037D800E751D8B40AEC22F0000E0201E86F000E9F
:1037E800E96F5350D8A412004BEC1FF01200020EE0
:1037F800566E20EE01F04C50D9264D50DA22080EB4
:10380800DF6E20EE02F04C50D9264D50DA22300EF1
:10381800DE6E040EDD6E4CC0D9FF4DC0DAFF040E1B
:10382800DF6E4CC0D9FF4DC0DAFF000EDB8E000EF4
:103838000201E86F000EE96F5350D8A412004BEC58
:103848001FF01200B2C0B4F00001B56BB66BB13511
:10385800B43701E3B581B451BE6FBE51D8A409D0C5
:10386800000EB06F000EB16F000EB26F000EB36F96
:103878001200170EB46FB0C0B5F0B1C0B6F0B2C048
:10388800B7F0B429B86F04D0D890B733B633B5338E
:10389800B82FFAD70001B551B96FB18FFF0EB01725
:1038A800FF0EB117000EB217B051BA6FB151BB6F0E
:1038B800B251BC6FBD6B8E0EBE5FBEAF16D0BE518F
:1038C800800A8F0FD8B009D0000EB06F000EB16F0C
:1038D800000EB26F000EB36F1200D890BD33BC3328
:1038E800BB33BA33BE3FF9D715D0170EBE650FD01C
:1038F800000EB06F000EB16F000EB26F000EB36F06
:103908001200D890BA37BB37BC37BD37BE07BE5197
:10391800D8A4F7D7B951D8B408D0BD1FBC1FBB1F56
:10392800BA6D000EBB23BC23BD23BAC0B0F0BBC028
:10393800B1F0BCC0B2F0BDC0B3F0120082C086F0D6
:103948000001876B886B8135863701E38781865153
:10395800896F8951D8A407D0000E806F000E816F3F
:10396800000E826F120085C086F0876B886B8435E5
:10397800863701E3878186518E6F8E51D8A407D090
:10398800000E806F000E816F000E826F12008E5144
:103998007B0F892782C08EF085518E1B800E8E1773
:1039A800818F848FFF0E8317FF0E8417000E8517F3
:1039B800000E8A6F000E8B6F000E8C6F070E8D6FD6
:1039C80080A106D083518A2784518B2385518C236B
:1039D800D890823381338033D890833784378537C2
:1039E8008D2FEED7090E8D6F80A106D083518A27BF
:1039F80084518B2385518C23D89082338133803333
:103A0800D8908C338B338A338D2FEED78AC060F0F1
:103A18008BC061F08CC062F089C063F08EC064F026
:103A28000BEC20F060C080F061C081F062C082F0D1
:103A3800120091C095F00001966B976B9035953701
:103A480001E3968195519C6F9C51D8A407D0000E34
:103A58008F6F000E906F000E916F120094C095F05A
:103A6800966B976B9335953701E3968195519D6FCA
:103A78009D51D8A407D0000E8F6F000E906F000ED6
:103A8800916F1200000E996F000E9A6F000E9B6FD7
:103A98009D51890F9C5F91C09DF094519D1B800E94
:103AA8009D17908FFF0E8F17FF0E9017000E91171E
:103AB800938FFF0E9217FF0E9317000E9417180E90
:103AC800986FD89099379A379B3792518F5D935159
:103AD800905994519159D8A007D092518F5F935122
:103AE800905B9451915B9981D8908F37903791373B
:103AF800982FE7D799C060F09AC061F09BC062F038
:103B08009CC063F09DC064F00BEC20F060C08FF0A7
:103B180061C090F062C091F0120004013039E832BF
:103B2800030B0009D8A4120047D00001FC8F080E2F
:103B3800586E120047EC17F0120072EC1EF01200DB
:103B48005E0E0001F96F000EFA6FFC81010EFD6F29
:103B5800FC8F120065EC21F01200A2EC10F01200AC
:103B680004013451010DFD0EF3240001F96F020E1A
:103B7800F420FA6FFC81010EFD6FFC8F120000012A
:103B8800FC8F04013451010DFD0EF324D96E020E91
:103B9800F420DA6E32C4DFFF1200000E0E6E020E41
:103BA8000D6E000E0F6E000E106E000E126E000EDF
:103BB800116E73EC26F0120004013151000AD8B4DA
:103BC800C9D7010AD8B4C9D7020AD8B4C6D7060AD1
:103BD800D8B4ABD7030AD8B4ADD7010AD8B4DDD767
:103BE8000F0AD8B4ADD7010AD8B4A7D7030AD8B4F6
:103BF800B7D7010AD8B4C3D7070A12000001696F02
:103C08009D9454D03AC36AF03BC36BF03CC36CF04C
:103C18003DC36DF06551D8A457D0000E03013A6F2B
:103C2800000E3B6F000E3C6F000E3D6F4DD036C34B
:103C38006AF037C36BF038C36CF039C36DF0655167
:103C4800D8A442D0000E0301366F000E376F000E65
:103C5800386F000E396F38D032C36AF033C36BF057
:103C680034C36CF035C36DF06551D8A42DD0000E67
:103C78000301326F000E336F000E346F000E356F84
:103C880023D02EC36AF02FC36BF030C36CF031C35E
:103C98006DF06551D8A418D0000E03012E6F000EE8
:103CA8002F6F000E306F000E316F0ED0000169517A
:103CB800010AD8B4A7D7030AD8B4B9D7010AD8B427
:103CC800CBD7070AD8B4DDD79D846AC065F06BC02E
:103CD80066F06CC067F06DC068F012000001FC8FE0
:103CE800710E016E0F0E026E000E046E000E036E52
:103CF800000E066E020E056ED2EC29F0000E016E63
:103D0800040E026E000E046E000E036E000E066EA8
:103D1800300E056ED2EC29F06D8C000E156E020E79
:103D2800156401D016D01550010DD50EF324D96EA7
:103D3800020EF420DA6E000EDF6E1550010DD20E61
:103D4800F324D96E020EF420DA6E000EDF6E152A07
:103D5800E6D7FD0E016E020E026E000E046E000E16
:103D6800036E000E066E020E056ED2EC29F06D9CF5
:103D7800080E406E040E416E000E4E6E040E4F6E1D
:103D88004EC04CF04FC04DF032C45EF05E50D8A427
:103D980003D0100E586E1200000E0E6E010E0D6E3E
:103DA8005E0E0F6E000E106E000E126E010E116E7A
:103DB80073EC26F0200E586E1200080E016E0001FA
:103DC800FE5110E1080EFD5DD8B00CD0FDC001F029
:103DD8005750D8A402D0010E04D05704D8A402D05A
:103DE800020E576E0150FD5F000EFE5B20EE01F0E3
:103DF8004050D9264150DA2201C0DFFF380E0301B6
:103E08004C6F040E4D6F0001FCA11DD03CD0F9C0D1
:103E1800F6FFFAC0F7FFF86A4CC3D9FF4DC3DAFFC3
:103E2800070EF76403D00800F55005D0F6CFE9FF78
:103E3800F7CFEAFFEF50DF6E0001F94BFA2B0301D1
:103E48004C4B4D2B01060150D8B41200E0D7F9C0F5
:103E5800F6FFFAC0F7FFF86A4CC3D9FF4DC3DAFF83
:103E6800070EF76403D00800F55005D0F6CFE9FF38
:103E7800F7CFEAFFEF50DF6E0001F94BFA2B030191
:103E88004C4B4D2B01060150D8B41200E0D702016B
:103E9800E951D8A41200010EE96FE851D8A4120024
:103EA800010EE86F020E5618D8A415D020EE01F0C6
:103EB8004050D9264150DA22000EDF6E40C0D9FFAB
:103EC80041C0DAFF480EDF6E40C0D9FF41C0DAFFBB
:103ED800000EDB8E12005604D8A41200000EEA6F02
:103EE80020EE01F04E50D9264F50DA22080EDF6E30
:103EF80020EE02F04E50D9264F50DA22300EDE6EF8
:103F0800040EDD6E4EC0D9FF4FC0DAFF040EDF6E1F
:103F18004EC0D9FF4FC0DAFF000EDB8E010EEA6FEC
:103F280020EE01F04C50D9264D50DA22080EDF6EF3
:103F380020EE02F04C50D9264D50DA22300EDE6EBB
:103F4800040EDD6E4CC0D9FF4DC0DAFF800EDF6E67
:103F5800120040C0D9FF41C0DAFF000EDFBC010EDD
:103F6800026E040E4018406E4150416E080E5818FB
:103F7800D8A40BD0040132517F0B6E6E6E50D8B4AA
:103F880002D0100E01D0040E586E5604D8A43AD0B0
:103F980020EE02F04050D9264150DA22380EDE6E6B
:103FA800040EDD6EE1EC1EF0020E5718D8A40DD0F9
:103FB80040C0D9FF41C0DAFF040EDF6E40C0D9FF10
:103FC80041C0DAFF000EDB8E12000250D8A40DD0DB
:103FD80040C0D9FF41C0DAFF480EDF6E40C0D9FFAC
:103FE80041C0DAFF000EDB8E120040C0D9FF41C08D
:103FF800DAFF080EDF6E40C0D9FF41C0DAFF000EBD
:10400800DB8E12003BBE3B9E000E566E1200000176
:104018006351D8B405D0605161116211D8A40CD095
:10402800000E606F000E616F000E626F1200632B4E
:10403800D890623361336033000E6015656F000EEF
:104048006115666FFE0E6215676F6551661167111F
:10405800D8B40CD0ECD7632B010E6027000E612377
:10406800000E6223D890623361336033000E60150E
:10407800656F000E6115666FFF0E6215676F6551FB
:1040880066116711D8B406D0E6D76307D8906037B1
:104098006137623761BF03D0020E6361F6D763A14F
:1040A800619FD8906333635162136451D8A4628FBF
:1040B80060C060F061C061F062C062F0120004018B
:1040C80030511F0BE806D8A412003039E832030B30
:1040D800E806D8A412003451D8B436D03405D8A490
:1040E800120032D0B60E0001F96F030EFA6F000EFF
:1040F800FE6F080EFD6FFC81FC8F1200B60E0001EA
:10410800F96F030EFA6FFC8F120036C43CF037C407
:104118003DF0BE0E386E030E396E000E3E6E000E78
:104128003F6E3B8E1200BE0E0001F96F030EFA6F50
:10413800000EFE6F070EFD6FC10EFC6F120032C439
:10414800E3F20001FC8F120004013151000AD8B4D7
:10415800C9D7010AD8B4D2D7210AD8B4D6D7010A08
:10416800D8B4E1D7030AD8A41200E9D700017A69C4
:10417800EA0E796F600E786F000E7B6F22EC2AF0E2
:1041880060C074F061C075F062C076F063C077F00B
:1041980033D074C068F075C069F076C06AF077C033
:1041A8006BF00001681F691F6A1F6B1F682B000EE8
:1041B80069236A236B2322EC2AF0000168516025E9
:1041C8006C6F695161216D6F6A5162216E6F6B511D
:1041D80063216F6F7851706F7951716F726B736B68
:1041E8006C51705D6D5171596E5172596F5173599F
:1041F800D8B002D0010E7B6F00017B51D8A403D048
:104208005950D8B4C6D75950D8B404D0FFC17AF0A1
:10421800000E596E7A511200958083A004D00001D7
:10422800606B602B02D00001606B60510201DE6F91
:10423800DF6B958283A204D00001606B602B02D0F3
:104248000001606B60510201DC6FDD6B958483A413
:1042580004D00001606B602B02D00001606B6051DC
:104268000201DA6FDB6B958683A604D00001606BD0
:10427800602B02D00001606B605103014E6F4F6BE1
:10428800000E3A6F000E3B6F000E3C6F000E3D6F44
:10429800000E366F000E376F000E386F000E396F44
:1042A800000E326F000E336F000E346F000E356F44
:1042B800000E2E6F000E2F6F000E306F000E316F44
:1042C8001200000E0401386F000E396F39D000015A
:1042D800FC8F0101FA05D8A43ED0040138833BD0F5
:1042E8000001FC8F38D00001FC8F040134BF0AD0D4
:1042F80034510F0B016E0150020DC80EF324D96E14
:10430800020E09D034510F0B016E0150020D400E00
:10431800F324D96E000EF420DA6EDECF02F0DDCF82
:1043280003F002C0D9FF03C0DAFFDFAE14D002C029
:10433800D9FF03C0DAFFDFA40ED0010E386F0BD00F
:1043480030511F0B000AD8B4C2D7010AD8B4C8D755
:10435800030AD8B4C8D70001FCAF1200380EF96FB1
:10436800040EFA6FFC81020EFD6F1200828C949C81
:10437800828E948EAC84B886000E0001606F0E0E9B
:10438800616F270E626F070E636F6DC064F06EC0B9
:1043980065F06FC066F070C067F053EC24F0FB0E58
:1043A80000016025716FFF0E6121726FFF0E62219F
:1043B800736FFF0E6321746F71C060F072C061F09B
:1043C80073C062F074C063F00A0E646F000E656F0C
:1043D800000E666F000E676F53EC24F060C071F03A
:1043E80061C072F062C073F063C074F071C0AFFF57
:1043F80072C0B0FFAC98AC96AB8EB898B89AB8902B
:10440800AC9CAB9CAB88AC8A9D8A1200000E020162
:10441800E76F000EE66F020E5618D8A41FD020EEE4
:1044280001F04C50D9264D50DA22080EDF6E20EEEE
:1044380002F04C50D9264D50DA22380EDE6E040EAA
:10444800DD6E4CC0D9FF4DC0DAFF480EDF6E4CC0A0
:10445800D9FF4DC0DAFF000EDB8E12000001FD51BE
:104468000401365D0001FE5104013759D8B004D06B
:1044780036C4FDF037C4FEF0E1EC1EF020EE02F089
:104488004050D9264150DA22380EDE6E040EDD6E19
:1044980040C0D9FF41C0DAFF480EDF6E40C0D9FFE7
:1044A80041C0DAFF000EDB8E1200B40EF66E540E19
:1044B800F76E000EF86E03EEC5F010EE22F009005C
:1044C800F5CFEEFFE550E150FAE107EE00F0FA0E05
:1044D800EE6AE806FDE106EE00F0FA0EEE6AE8067E
:1044E800FDE103EE00F0C50EEE6AE806FDE102EE1E
:1044F800C8F0370EEE6AE806FDE101EEF7F0090EA6
:10450800EE6AE806FDE104EE40F0640EEE6AE806A5
:10451800FDE100EEF9F0070EEE6AE806FDE105EEB2
:1045280080F0640EEE6AE806FDE100EE38F0270E32
:10453800EE6AE806FDE15F905F92000EF86E0001FA
:104548005BEF06F02D0E546E5DC01BF0FD0E1B16C2
:10455800D8A43BD05DC01BF0D8901B323F0E1B1671
:104568001B50040D000EF3244E6E040EF4204F6E03
:104578004EC04CF04FC04DF0040E4C184C6E4D50D0
:104588004D6E4EC0D9FF4FC0DAFFDF30E8320F0B57
:104598000D0AD8A417D0300E016E040E026E20EE5C
:1045A80002F04E50D9264F50DA22DECF03F0DDCF8D
:1045B80004F0000E066E080E056EAAEC27F084ECD7
:1045C80023F0120044EC26F012005D50FD0B040AA3
:1045D800D8A41200ADEC1FF01200066E000E076E94
:1045E800040E086E0150026E036AD8900236033634
:1045F8000650046E056AD89004360536D8900436FD
:1046080005360250042603500522D8900436053694
:10461800D89004360536045007260550082207C0EE
:10462800D9FF08C0DAFFDF9E0150D8A407D0065092
:10463800020DC80EF324D96E020E06D00650020DE4
:10464800400EF324D96E000EF420DA6E07C0DEFFA8
:1046580008C0DDFF07C0D9FF08C0DAFFDF9C20EEE5
:1046680004F00750D9260850DA22DF8C1200000126
:1046780062AF16D060C066F061C067F062C068F0D3
:10468800661F671F681F662B000E67236823000ECE
:104698006625606F000E6721616F800E6821626F6A
:1046A80065AF16D063C066F064C067F065C068F097
:1046B800661F671F681F662B000E67236823000E9E
:1046C8006625636F000E6721646F800E6821656F31
:1046D800000E601B000E611B800E621B000E631B28
:1046E800000E641B800E651B6351605D6451615947
:1046F80065516259D8B002D0D8901200D880120003
:10470800000E576E000E536E000E0201E76F000E8A
:10471800E66F000EEA6F000E566E40C0D9FF41C02A
:10472800DAFF7F0EDF16040E4018406E4150416ECE
:1047380040C0D9FF41C0DAFF7F0EDF16040E4018D3
:10474800406E4150416E4CC0D9FF4DC0DAFF7F0E1C
:10475800DF16000E0001FC6F000EFE6F000EFD6FED
:10476800000E3B6E000E3D6E000E3C6E91EC1DF08F
:10477800000E0E6E030E0D6E000E0F6E000E106E04
:10478800000E126E000E116E73EC26F0A8EC1BF0F2
:104798001200000E00016B6F69AF06D0686D691FCB
:1047A800D8B0692B010E6B6F67AF06D0666D671FB7
:1047B800D8B0672B010E6B1B000E6D6F000E6C6F6F
:1047C80068516911D8B41CD0010E6A6F04D0D89012
:1047D800683769376A2B69AFFAD7D8906C376D3765
:1047E8006851665D69516759D8A005D06851665F00
:1047F8006951675B6C81D890693368336A2FEDD74C
:104808006B51D8B404D06C6D6D1FD8B06D2B6CC0D3
:1048180066F06DC067F01200066E000E046E000EA2
:10482800056E000E036E065087EC2AF0066E0250E5
:1048380087EC2AF0026E2F0E066406D03A0E066048
:1048480003D00650D00F08D0400E066406D0470E9D
:10485800066003D00650C90F046E2F0E026406D0FE
:104868003A0E026003D00250D00F0AD0400E026404
:1048780006D0470E026003D00250C90F01D0640E63
:10488800056E640E0518D8A403D004C003F005D043
:104898000450100DF3500524036E03501200000E4F
:1048A8000001686F000E696F000E6A6F000E6B6F73
:1048B8006451651166116711D8B42AD0010E6C6F66
:1048C80006D0D89064376537663767376C2B67AF83
:1048D800F8D7D890683769376A376B376451605DA5
:1048E800655161596651625967516359D8A009D019
:1048F8006451605F6551615B6651625B6751635BE0
:104908006881D89067336633653364336C2FE1D799
:1049180068C060F069C061F06AC062F06BC063F0A3
:10492800120033D001C0D9FF02C0DAFFDF50D8B47B
:104938000FD001C0D9FF02C0DAFFDF50076E03C0F5
:10494800F6FF04C0F7FF0800F5500718D8B419D0CF
:1049580003C0F6FF04C0F7FF0800F550076E086AA9
:10496800071E081E074A082A01C0D9FF02C0DAFF3D
:10497800DF50096E09500724016E000E0820026EF0
:104988001200014A022A034A042A0506D8A006068C
:104998000528C8E10628D8A4C5D7000E026E000E67
:1049A800016E120022EC2AF060C079F061C07AF042
:1049B80062C07BF063C07CF002D073EC29F079C050
:1049C80071F07AC072F07BC073F07CC074F00001A3
:1049D800711F721F731F741F712B000E72237323B4
:1049E800742322EC2AF0000171516025756F725111
:1049F8006121766F73516221776F74516321786FEB
:104A08006D51755D6E5176596F517759705178595E
:104A1800D8B01200D2D7000E0001656F61AF06D082
:104A2800606D611FD8B0612B010E656F63AF04D054
:104A3800626D631FD8B0632B62516311D8B418D06C
:104A4800010E646F04D0D89062376337642B63AF6C
:104A5800FAD76251605D63516159D8A004D06251A0
:104A6800605F6351615BD89063336233642FF1D721
:104A78006551D8B404D0606D611FD8B0612B60C097
:104A880060F061C061F012000101386F0001F1515E
:104A9800D8B412D01E0EBF6F010EC06F920EC16F38
:104AA8007F0EC26F740EC36F7D0EC46F38C1C5F020
:104AB800C66B09EC00F012D01E0E0001BF6F010E8C
:104AC800C06F740EC16F7F0EC26F740EC36F7D0E00
:104AD800C46F38C1C5F0C66B09EC00F01E0E0001AA
:104AE8007C6F010E7D6F000E7E6FA5EC1AF0010140
:104AF800376F120000017151721173117411D8B41B
:104B080024D0010E756F06D0D8907137723773377D
:104B18007437752B74AFF8D771516D5D72516E593A
:104B280073516F5974517059D8A008D071516D5F85
:104B380072516E5B73516F5B7451705BD8907433B4
:104B4800733372337133752FE7D76DC06DF06EC054
:104B58006EF06FC06FF070C070F01200000E0301AD
:104B6800BE6F4B0EBF6F000EC06F000EC16F000E00
:104B7800C26F000EC36F080EC46F000E526E1A0E7D
:104B8800096E010ECBEC28F01E0E096E020ECBEC5E
:104B980028F0000E016E400E026E050E036E400EE8
:104BA800046E020E27EC1BF001C04AF002C04BF065
:104BB800000E0201D86F000ED96F000E0001FF6FC2
:104BC80012000001646F00016051D8B419D060C0B0
:104BD80061F06451020D010EF326000EF422000E5E
:104BE800F324D96E030EF420DA6EDF50626F612B66
:104BF80002D0D8906233612FFCD7000162510DD0EA
:104C08006451020D010EF326000EF422000EF32467
:104C1800D96E030EF420DA6EDF50010B636F635117
:104C280012008E0E0001706F06D0D8906B336A3375
:104C380069336833702B000E68156C6F000E6915A8
:104C48006D6F000E6A156E6FFF0E6B156F6F6C51EE
:104C58006D116E116F11D8A4E8D768C060F069C0F3
:104C680061F06AC062F070C063F0000E646F0BEC14
:104C780020F060C068F061C069F062C06AF012009C
:104C8800020E5618D8A403D09CEC19F01200000E9E
:104C9800566E0201EA51D8A41FD020EE01F04C5004
:104CA800D9264D50DA22080EDF6E20EE02F04C5065
:104CB800D9264D50DA22300EDE6E040EDD6E4CC061
:104CC800D9FF4DC0DAFF0C0EDF6E4CC0D9FF4DC0C6
:104CD800DAFF000EDB8E1200000EEA6F120006D01B
:104CE800B2EC25F0120063EC20F012000DC013F0B6
:104CF8000EC014F01450000AD8B404D07F0AD8A407
:104D0800120018D01350010AD8B4EAD7030AD8B44D
:104D18001200010AD8B4E7D7060AD8B41200770AF5
:104D2800D8B41200010AD8B41200070AD8B4120085
:104D3800010A12001350FF0A120060C064F061C03B
:104D480065F003D00001644B652B64C0F6FF65C0B5
:104D5800F7FFF86A070EF76403D00800F55005D08E
:104D6800F6CFE9FFF7CFEAFFEF500009D8A4EAD75A
:104D780060C062F061C063F00001621F631F624B94
:104D8800632B64516225606F65516321616F120066
:104D980001C005F002C006F002D0054A062A05C087
:104DA800F6FF06C0F7FFF86A070EF76403D008009D
:104DB800F55005D0F6CFE9FFF7CFEAFFEF5000092D
:104DC800D8A4EBD701C003F002C004F0031E041EF0
:104DD800034A042A05500324016E06500420026E7B
:104DE8001200A09A0001FF51D8B402D0A08A120084
:104DF800000E646F60C062F061C063F0642B6429C8
:104E0800D8B409D062C0D9FF63C0DAFF624B632B04
:104E1800DF50D8A4F3D760C049F361C04AF364C037
:104E280051F0010E0201E46F010E0001FF6FA08A2C
:104E3800120004D0014A022A034A042A01C0D9FFF9
:104E480002C0DAFFDF50056E03C0F6FF04C0F7FFAB
:104E58000800F55000080524066E0650D8A407D0AF
:104E680001C0D9FF02C0DAFFDF50D8A4E3D706504B
:104E7800016E026A01BE0206120060C064F061C0E1
:104E880065F003D00001644B652B64C0D9FF65C091
:104E9800DAFFDF50D8B406D0F5D70001644B652B94
:104EA800624B632B62C0D9FF63C0DAFF64C0E1FFC5
:104EB80065C0E2FFDFCFE7FFE750D8B41200EDD7B7
:104EC8001E0E0001BF6F010EC06FE40EC16F7F0E92
:104ED800C26F820EC36F7D0EC46FF1C0C5F0F2C001
:104EE800C6F009EC00F01E0E00017C6F010E7D6F0C
:104EF800000E7E6FA5EC1AF00001F36FF35101016B
:104F0800326F336B1200200E0001BF6F010EC06FAD
:104F1800E40EC16F7F0EC26FDD0EC36F7D0EC46FCE
:104F2800F1C0C5F0F2C0C6F009EC00F0200E000197
:104F38007C6F010E7D6F000E7E6FA5EC1AF00001EC
:104F4800F36FF35101011E6F1F6B120003C009F0CC
:104F580004C00AF001C007F002C008F010D009C070
:104F6800D9FF0AC0DAFFDF500B6E094A0A2A07C0C8
:104F7800D9FF08C0DAFF0BC0DFFF074A082A050679
:104F8800D8A006060528EBE10628D8B41200E7D712
:104F9800010E0201F26FF29EB80EB16E000ECF6ED6
:104FA800000ECE6E050EBF6EDC0EBE6E000E030147
:104FB8002A6F000E2B6F000E2C6F000E2D6F9E9423
:104FC800F10ECD6E0B0EBD6E9D849F84D08EF28E39
:104FD80012000001835184118511D8B406D0000E47
:104FE800831B000E841B800E851B80C074F081C05B
:104FF80075F082C076F083C077F084C078F085C001
:1050080079F0FDEC13F074C080F075C081F076C0C3
:1050180082F0120070A01DD04EC0D9FF4FC0DAFF39
:10502800800EDE18D8A414D040C0D9FF41C0DAFFE2
:10503800840EDE18D8A40CD04EC0D9FF4FC0DAFFBA
:105048000C0EDF6E4EC0D9FF4FC0DAFF000EDB8EAC
:105058007090689A12000101336F1E0E0001BF6F35
:10506800010EC06FF50EC16F7F0EC26F640EC36F65
:105078007D0EC46F33C1C5F0C66B09EC00F01E0E7F
:1050880000017C6F010E7D6F000E7E6FA5EC1AF09B
:105098000101326F12001E0E0001BF6F010EC06FBA
:1050A800EA0EC16F7F0EC26FA50EC36F7D0EC46F6F
:1050B800F1C0C5F0F2C0C6F009EC00F01E0E000108
:1050C8007C6F010E7D6F000E7E6FA5EC1AF001015A
:1050D8003E6F12001E0E0001BF6F010EC06FEA0E78
:1050E800C16F7F0EC26F8F0EC36F7D0EC46FF1C08C
:1050F800C5F0F2C0C6F009EC00F01E0E00017C6F8E
:10510800010E7D6F000E7E6FA5EC1AF00101506F45
:1051180012001E0E0001BF6F010EC06FEA0EC16FB4
:105128007F0EC26F9A0EC36F7D0EC46FF1C0C5F0BB
:10513800F2C0C6F009EC00F01E0E00017C6F010EF3
:105148007D6F000E7E6FA5EC1AF001013E6F120014
:105158001E0E0001BF6F010EC06FEA0EC16F7F0EF9
:10516800C26FD50EC36F7D0EC46FF1C0C5F0F2C01B
:10517800C6F009EC00F01E0E00017C6F010E7D6F79
:10518800000E7E6FA5EC1AF001012D6F12000C6E57
:1051980009A405D0000E016E0C50F1EC22F009A212
:1051A80005D0010E016E0C50F1EC22F00C50010DEF
:1051B800700EF3240A6E0F0EF4200B6E0AC0D9FF8E
:1051C8000BC0DAFF09C0DFFF1200000E00016B6F91
:1051D80069AF06D0686D691FD8B0692B010E6B6F77
:1051E80068C060F069C061F0626B8E0E636F6BC05F
:1051F80064F00BEC20F060C068F061C069F062C038
:105208006AF01200BA0E00017C6F7D0E7D6F000EF1
:105218007E6FA5EC1AF00001876F0BD0BAEC20F076
:105228000009D8A402D0010E1200000E1200000ED0
:10523800120000018751000AD8B4F0D7F8D7F20E4F
:105248000001BF6F000EC06FED0EC16F7F0EC26F01
:10525800F60EC36F7D0EC46F09EC00F0F20E00016C
:105268007C6F000E7D6F000E7E6FA5EC1AF00001BA
:10527800F16F1200000E0101F96F000E0E6E740E30
:105288000D6E000E0F6E000E106E000E126E000EE8
:10529800116E73EC26F06D92699401D0689468B42D
:1052A800FDD7000E0201E56F12005850D8A4120075
:1052B80082A41200000E6D6E000E696E160E6F6EDF
:1052C8009F0E6B6E7B0E696ED08EA28AA08AF28EBC
:1052D80001D06D866DA6FDD7010E586E120058508C
:1052E800D8B482A403D059EC29F006D05804D8B415
:1052F80082B402D099EC2AF01F0E586402D06DA235
:1053080002D0000E120009EC19F0010E120060C064
:1053180066F061C067F009D066C0D9FF67C0DAFFE0
:1053280062C0DFFF0001664B672B00016407D8A04D
:1053380065076429F1E16529D8B41200EDD76984BD
:1053480068986D82010E0101F96F000E0201E56F88
:10535800000E0E6E750E0D6E000E0F6E000E106EA6
:10536800000E126E000E116E73EC26F0120001C0D2
:1053780005F002C006F004D0054A062A034A042AAA
:1053880003C0D9FF04C0DAFF05C0E1FF06C0E2FF91
:10539800DFCFE7FFE750D8B41200EED701C007F01F
:1053A80002C008F008D007C0D9FF08C0DAFF03C060
:1053B800DFFF074A082A0506D8A006060528F3E1F4
:1053C8000628D8B41200EFD700016E517003F3CF4E
:1053D80072F0F4CF73F06E517103F35073276F516D
:1053E8007003F350732772C06EF073C06FF0120031
:1053F800EB0E00017C6F7D0E7D6F010E7E6FA5ECBC
:105408001AF00001876F0F0E8719D8A402D0010E79
:105418001200000E12000001605161116211D8B42F
:1054280006D0000E601B000E611B800E621B60C060
:1054380060F061C061F062C062F012009D942AC3FE
:1054480064F02BC365F02CC366F02DC367F09D8410
:1054580064C060F065C061F066C062F067C063F068
:1054680012009EBA02D0000E1200ABCF02F0AECFEF
:1054780003F002C001F0060E0116D8B403D0AB98B1
:1054880000F0AB8803501200010E0201CE27000E77
:10549800CF23D023D1230101F951D8A4120002014E
:1054A800E52BE551D8A41200E5691200857F377F06
:1054B800537F697FC87F9E7EFA7F5E7FE37E7E7F13
:1054C8009B7FA37F457FC17F277F010000000001EC
:1054D800626F000E0001616F3A0E626105D02F0EF7
:1054E800626502D0010E616F61C060F06031120028
:1054F8009D9A0101FF69000E5A6E000E5B6E000E48
:10550800596E9D8A1200016E7B0E016004D0600EF8
:10551800016401D0019A01501200C2900D0EC16EB3
:10552800BE0EC06E9E9C9D9C1200000E6D6E000EFD
:10553800696E000E586E12000001606F9EA8FED7BB
:0655480060C0ADFF12007F
:107C080000010000000A00000064000000E8030012
:107C18000010270000A086010040420F00809698BF
:107C28000000E1F50500CA9A3B00803F00204100B2
:107C3800C842007A44401C4650C3472474499718E8
:107C48004BBCBE4C6B6E4E03155079AD60F3497159
:107C580000803FCDCC3DD7233C12833AB7D138C6FC
:107C68002737388635C0D633CC2B32708930E7DBDE
:107C78002EE53C1E42A20D0100000010000000008D
:107C880001000000100000000001000000100000CA
:107C980000000100000010007E1E7DEA7CA77C0920
:107CA800024300020100C03209040000010202017F
:107CB8000005240010010424020205240600010521
:107CC80024010001070581030800020904010002DC
:107CD8000A00000007050202400000070582024072
:107CE80000003403430044004300200052005300C6
:107CF8002D00320033003200200045006D00750071
:107D08006C006100740069006F006E002000440080
:107D180065006D006F0034034D0069006300720058
:107D28006F0063006800690070002000540065005F
:107D3800630068006E006F006C006F0067007900D8
:107D4800200049006E0063002E00120100020200AC
:107D58000008D8040A000001010200017261646988
:107D68006F20736574207366205346007365742012
:107D780063682073746174757300726164696F203D
:107D880073657420627700736574206170706B6529
:107D98007900736574206170706575690073657426
:107DA800206465766575690067657420646E637420
:107DB80072006A6F696E206F746161007478207553
:107DC8006E636E6600676574206164720073657423
:107DD8002061647200736574206472007478206393
:107DE8006E66007265736574007379732000736141
:107DF8007665006D61632000040309046F66660000
:107E08006F6E0048504850434D434D45454B5957B8
:107E180052434849445348534C726573706F7374A6
:107E2800613A2025325820253258202532582025FD
:107E380032582025325820253258202532582025FE
:107E480032582025325820253258202025642020F9
:107E580025642020256420202564202025642020F6
:107E680025642020256420202564202025642020E6
:107E780025640A0D00353535353535353535353513
:107E8800353535353535353535353535353535359A
:107E98003535353535006672616D655F636F756EB2
:107EA8007465725F6572725F72656A6F696E5F6E24
:107EB80065656465640025733A256C753B256C75AA
:107EC8003B256C753B256C752300303132333435D6
:107ED8003637383941424344454600696E76616C0D
:107EE80069645F646174615F6C656E003C3D3E80EF
:107EF8004E23256C642325732325752300303030E9
:107F08003030303030303030303030303000303099
:107F180030346133306230303162373437360061A3
:107F280063636570746564524E323930332000697A
:107F38006E76616C69645F706172616D006B657902
:107F4800735F6E6F745F696E6974006E6F745F6AD9
:107F58006F696E6564006D61635F706175736564F8
:107F6800006E6F5F667265655F6368002573202524
:107F780064206F6666006D61635F74785F6F6B0085
:107F880025733A25753B2575230025732025642024
:107F98006F6E006D61635F727820006D61635F656D
:107FA80072720025733A256C752300286E756C6C07
:107FB80029002573202564200064656E69656400C6
:107FC80073696C656E740025733A25642300257304
:107FD8003A2566230025733A257323002573202547
:107FE8006400257320257300253032580025732539
:087FF80064006275737900005A
:020000040020DA
:08000000FFFFFFFFFFFFFFFF00
:020000040030CA
:0E000000240E261EFF8181FF0FC00FE00F406F
:00000001FF
