:0400000007EF00F016
:100008005F829DED13F046EF24F0C30E01010A6FE5
:10001800000E0B6FF2EF06F0250E1F19D8B40BD0A7
:10002800BFC0D9FFC0C0DAFF1FC1DFFF0001BF4B4F
:10003800C02BF2EF06F0000E01011A6F000E196FC7
:10004800000E1C6F000E1B6F05D001011B850001FF
:10005800C14BC22BC1C0F6FFC2C0F7FF0800F55064
:10006800300AD8B4F2D7C1C0F6FFC2C0F7FF080003
:10007800F55043EC2BF0D8A039D0000E01011A6FCF
:10008800000E196F19C16EF01AC16FF0000E000151
:10009800716F0A0E706FC0EC2AF06EC019F16FC054
:1000A8001AF1D00E0001EB6FFF0EEC6FC1C0F6FF26
:1000B800C2C0F7FF0800F550ED6FEE6BEB51ED276E
:1000C800EC51EE23ED51010119270001EE51010118
:1000D8001A230001C14BC22BC1C0F6FFC2C0F7FFF3
:1000E8000800F55043EC2BF0D8B0CCD7C1C0F6FFD0
:1000F800C2C0F7FF0800F5502E0AD8A437D0010176
:100108001C8D0001C14BC22B000E01011E6F000E99
:100118001D6F21D01DC16EF01EC16FF0000E0001D1
:10012800716F0A0E706FC0EC2AF0C1C0F6FFC2C032
:10013800F7FF0800F55000016E27000E6F23D00E60
:100148006E2501011D6FFF0E00016F2101011E6F59
:100158000001C14BC22BC1C0F6FFC2C0F7FF0800A7
:10016800F55043EC2BF0D8A08DD0D4D7000E010168
:100178001E6F000E1D6F1C8985D01B8983D01C85BE
:10018800ABD01B8B1B8FA8D00AC1D9FF0BC1DAFFDC
:10019800DECF06F1DDCF07F1020E0A27000E0B2392
:1001A80006510711D8A404D0B30E066F7F0E076F4F
:1001B800000E096F000E086F03D00101084B092BD0
:1001C800085106250001EB6F0101095107210001C3
:1001D800EC6FEBC0F6FFECC0F7FF0800F550000924
:1001E800D8A4EBD701011D511E11D8B40AD008516B
:1001F8001D5D09511E59D8B004D01DC108F11EC19A
:1002080009F11951085D1A510959D8B005D008519A
:10021800195F09511A5B0ED0000E1A6F000E196F84
:1002280009D0BFC0D9FFC0C0DAFF200EDF6E0001C1
:10023800BF4BC02B01011907D8A01A071929F1E1F2
:100248001A29D8B411D0EDD706C1F6FF07C1F7FFB8
:10025800BFC0D9FFC0C0DAFF0800F5CFDFFF064BEB
:10026800072B0001BF4BC02B01010807D8A00907C5
:100278000829EAE10929D8B4F2EF06F0E5D7C00E5B
:100288001B132AD0C1C0F6FFC2C0F7FF0001C14B43
:10029800C22B0800F5CF1FF101011F51000AD8B485
:1002A80001EF07F0580AD8B46CD73C0AD8B414D078
:1002B800020AD8B464D70F0AD8B40ED0050AD8B445
:1002C8005CD71F0AD8B460D7060AD8B4D8D70D0AA5
:1002D800D8B458D7F2EF06F0070E1C15D8B45FD380
:1002E8001CA904D0000E1E6F060E1D6F0AC1D9FF8F
:1002F8000BC1DAFFDECF16F1DECF17F1DDCF18F133
:10030800030E0A27000E0B2318AF11D016C160F098
:1003180017C161F018C162F0E7EC2AF060C016F16D
:1003280061C017F162C018F1030E01011B13000E22
:10033800116F000E106F165117111811D8B490D004
:10034800820E0001EB6FFF0EEC6F16C1EDF017C1C6
:10035800EEF018C1EFF019C1F0F0100E05D0D890EA
:10036800F033EF33EE33ED33E82EF9D7ED51EB25CB
:100378000101106F000E0001EC210101116F10073F
:10038800D8A0110710C16EF011C16FF0000E000166
:10039800716F030E706FC0EC2AF06EC010F16FC061
:1003A80011F110C166F011C167F0000E0001696F0C
:1003B8000A0E686F8DEC24F066C010F167C011F169
:1003C800010111AF03D01007D8A011071051000880
:1003D800D8EC0BF08FC00CF190C00DF191C00EF16C
:1003E8000CC180F00DC181F00EC182F016C183F0FE
:1003F80017C184F018C185F021EC1DF080C00CF104
:1004080081C00DF182C00EF10CC160F00DC161F028
:100418000EC162F0000E0001636F800E646F3F0E24
:10042800656FB4EC23F00001D8B005D001011007C6
:10043800D8A0110715D00CC160F00DC161F00EC134
:1004480062F0000E0001636F200E646F410E656F4D
:10045800B4EC23F00001D8A003D00101104B112BFC
:1004680001011EBF06D01E511BE10D0E1D5DD8B047
:1004780017D016C174F017C175F018C176F01D5168
:1004880065EC12F08FC077F090C078F091C079F0E9
:100498007FEC14F074C016F175C017F176C018F12E
:1004A800010111BF06D0115121E10A0E105DD8B02B
:1004B8001DD0165117111811D8B459D016C1B0F063
:1004C80017C1B1F018C1B2F0A5EC1CF00001B05191
:1004D800B111B211B311D8A44AD0010111BF47D04C
:1004E800115104E1020E105DD8A041D00CC160F09A
:1004F8000DC161F00EC162F0700E0001636F890ECC
:10050800646F400E656FB4EC23F00001D8B003D0DF
:100518000101F70E02D00101F80E1027FF0E11237A
:100528001051D8EC0BF08FC00CF190C00DF191C0B8
:100538000EF116C160F017C161F018C162F00CC16C
:1005480063F00DC164F00EC165F099EC16F060C05F
:1005580012F161C013F162C014F163C015F1000E0D
:100568000101166F000E176F000E186F33D016C1F9
:10057800B0F017C1B1F018C1B2F0A5EC1CF0B0C0D2
:1005880012F1B1C013F1B2C014F1B3C015F116C124
:1005980080F017C181F018C182F012C168F013C150
:1005A80069F014C16AF015C16BF04AEC27F068C015
:1005B80083F069C084F06AC085F022EC29F080C01D
:1005C80016F181C017F182C018F1000E0101116FF8
:1005D800000E106F010E1F6F0A0E1F19D8B418D025
:1005E8001F51040DD30EF324F66E7B0EF420F76E24
:1005F8000900F550125D0900F55013590900F5502E
:1006080014590900F5501559D8A002D01F2BE4D76A
:100618001FC1EBF00001EC6BEBBFEC0701011D51B2
:100628000001EB2701011E510001EC2301011051CB
:100638000001EB27010111510001EC23EB510101ED
:10064800195F0001EC5101011A5B1D511E11D8B44C
:1006580003D01907D8A01A07030E1B150001EB6F6A
:10066800000E01011C150001EC6FEB51EC11D8B420
:1006780004D001011907D8A01A0701011BA539D018
:10068800030E1B150001EB6F000E01011C15000184
:10069800EC6FEB51EC11D8B416D0BFC0D9FFC0C075
:1006A800DAFF2D0EDF6EBF4BC02B0DD0BFC0D9FFB8
:1006B800C0C0DAFF300EDF6E0001BF4BC02B010156
:1006C8001907D8A01A0701011ABF7BD01A51EEE109
:1006D8001905D8A076D0EAD7BFC0D9FFC0C0DAFFC5
:1006E800200EDF6E0001BF4BC02B01011907D8A0F7
:1006F8001A071ABF05D01A51EFE11905D8B0ECD77F
:10070800030E1B150001EB6F000E01011C15000103
:10071800EC6FEB51EC11D8B454D0BFC0D9FFC0C0B6
:10072800DAFF2D0EDF6E4BD012C160F013C161F0FD
:1007380014C162F015C163F001011F51040DD30EFD
:10074800F324F66E7B0EF420F76E0900F5CF64F003
:100758000900F5CF65F00900F5CF66F00A00F5CF7E
:1007680067F013EC25F060C00CF161C00DF162C0B8
:100778000EF163C00FF10CC16DF00DC16EF00EC12A
:100788006FF00FC170F00A0E0001716F000E726FEA
:10079800000E736F000E746FB4EC26F06DC00CF190
:1007A8006EC00DF16FC00EF170C00FF101010C5158
:1007B800300FBFC0D9FFC0C0DAFFDF6E0001BF4BEA
:1007C800C02B01011F071F29D8B40ED0ADD7BFC059
:1007D800D9FFC0C0DAFF300EDF6E0001BF4BC02B5F
:1007E80001011007D8A0110711BF05D01151EFE181
:1007F8001005D8B0ECD71EBF09D01E5104E1090E70
:100808001D5DD8A003D0080E1F6F02D01DC11FF1B7
:100818001F511D5F000E1FBFFF0E1E5B1F51D8B476
:1008280009D0BFC0D9FFC0C0DAFF2E0EDF6E0001AD
:10083800BF4BC02B01011F51D8EC0BF08FC000F14A
:1008480090C001F191C002F116C183F017C184F084
:1008580018C185F000C180F001C181F002C182F0A9
:1008680021EC1DF080C0B0F081C0B1F082C0B2F0C0
:10087800A5EC1CF0B0C012F1B1C013F1B2C014F174
:10088800B3C015F174D012C160F013C161F014C186
:1008980062F015C163F001011F51040DD30EF3245A
:1008A800F66E7B0EF420F76E0900F5CF64F00900B0
:1008B800F5CF65F00900F5CF66F00A00F5CF67F0CF
:1008C80013EC25F060C00CF161C00DF162C00EF1AF
:1008D80063C00FF10CC16DF00DC16EF00EC16FF069
:1008E8000FC170F00A0E0001716F000E726F000EDA
:1008F800736F000E746FB4EC26F06DC00CF16EC00F
:100908000DF16FC00EF170C00FF101010C51300FE5
:10091800BFC0D9FFC0C0DAFFDF6E0001BF4BC02BDC
:1009280012C16DF013C16EF014C16FF015C170F0F3
:1009380001011F51040DD30EF324F66E7B0EF42033
:10094800F76E0900F5CF71F00900F5CF72F00900D4
:10095800F5CF73F00A00F5CF74F0B4EC26F06DC053
:1009680012F16EC013F16FC014F170C015F10101DE
:100978001F071F29D8B40ED086D7BFC0D9FFC0C063
:10098800DAFF300EDF6E0001BF4BC02B01011D07DF
:10099800D8A01E071D511E11D8B420D2EED7C00E04
:1009A8001B150001EB6F000E01011C150001EC6F17
:1009B800EB51EC11D8A42FD001011BA90ED00AC10C
:1009C800D9FF0BC1DAFFDECF12F1DECF13F1DECF94
:1009D80014F1DECF15F1040E0ED00AC1D9FF0BC1F8
:1009E800DAFFDECF12F1DDCF13F1000E13BFFF0ED9
:1009F800146F156F020E0A27000E0B2315AF2ED0A9
:100A0800030E1B13151F141F131F126D000E132343
:100A18001423152323D001011BA90ED00AC1D9FF25
:100A28000BC1DAFFDECF12F1DECF13F1DECF14F106
:100A3800DECF15F1040E0FD00AC1D9FF0BC1DAFFC2
:100A4800DECFEBF0DDCFECF0EBC012F1ECC013F130
:100A5800146B156B020E0A27000E0B231D511E1175
:100A6800D8A445D01251131114111511D8A43FD090
:100A78001D4B1E2B3CD0010E1F6F0A0E1F19D8B438
:100A880041D01F51040DD30EF324F66E7B0EF420D3
:100A9800F76E0900F550125D0900F5501359090069
:100AA800F55014590900F5501559D8A02BD01F2B13
:100AB800E4D7010E1F6F080E1F19D8B423D01F5199
:100AC800040D490EF324F66E7C0EF420F76E09002F
:100AD800F550125D0900F55013590900F5501459E5
:100AE8000900F5501559D8A00DD01F2BE4D71B517C
:100AF800C00B000AD8B4BFD7800AD8B4DAD7400AE6
:100B0800D8B4B9D7800E1FBF7F0E0001EB6F01016B
:100B18001D511F5D1E51800A0001EB59D8B003D04A
:100B28001DC11FF115D001011E51800A0001EB6F94
:100B380001011F511D5D800E1FBF7F0E0001EB5983
:100B4800D8B006D001011F511D6F1E6B1DBF1E07B7
:100B5800010119511A11D8B411D0030E1B15000147
:100B6800EB6F000E01011C150001EC6FEB51EC114D
:100B7800D8B404D001011907D8A01A0701011CAD87
:100B880018D019511D5D1E51800A0001EB6F01013B
:100B98001A51800A0001EB59D8B006D001011D5145
:100BA800195F1E511A5B05D0000E01011A6F000E65
:100BB800196F800E1FBF7F0E0001EB6F01011951E5
:100BC8001F5D1A51800A0001EB59D8B008D0010105
:100BD8001F51195F000E1FBFFF0E1A5B05D0000ED4
:100BE80001011A6F000E196F1BA528D0030E1B15E3
:100BF8000001EB6F000E01011C150001EC6FEB51B9
:100C0800EC11D8B408D0BFC0D9FFC0C0DAFF2D0E90
:100C1800DF6EBF4BC02B010119511A11D8B4D5D0C2
:100C2800BFC0D9FFC0C0DAFF300EDF6E0001BF4B76
:100C3800C02B01011907D8A01A07EED719511A11AC
:100C4800D8B411D0BFC0D9FFC0C0DAFF200EDF6E04
:100C58000001BF4BC02B01011907D8A01A07195171
:100C68001A11D8A4EFD7030E1B150001EB6F000E65
:100C780001011C150001EC6FEB51EC11D8B4A5D0A3
:100C8800BFC0D9FFC0C0DAFF2D0EDF6E9CD01DC1DA
:100C9800EBF01EC1ECF00001D890EB37EC37D890A0
:100CA800EB37EC37D30EEB25F66E7B0EEC21F76EA7
:100CB8000900F5CF64F00900F5CF65F00900F5CF1C
:100CC80066F00A00F5CF67F012C160F013C161F059
:100CD80014C162F015C163F013EC25F060C06DF02B
:100CE80061C06EF062C06FF063C070F00A0E000160
:100CF800716F000E726F000E736F000E746FB4EC9C
:100D080026F000016D51300F01011F6F55D012C13F
:100D180060F013C161F014C162F015C163F01DC128
:100D2800EBF01EC1ECF00001D890EB37EC37D8900F
:100D3800EB37EC37490EEB25F66E7C0EEC21F76E9F
:100D48000900F5CF64F00900F5CF65F00900F5CF8B
:100D580066F00A00F5CF67F013EC25F0000160514A
:100D68000F0B0101056F1BBB04D0F40E036F7E0E41
:100D780003D0E30E036F7E0E046F0551010D03C10E
:100D8800EBF004C1ECF0F3500001EB27F450EC2336
:100D9800EBC0F6FFECC0F7FF0800F5CF1FF10CD051
:100DA80001011B51C00B000AD8B471D7800AD8B40E
:100DB800AED7400AD8B46BD7BFC0D9FFC0C0DAFFDE
:100DC8001FC1DFFF0001BF4BC02B01011D07D8A0C9
:100DD8001E071D29E5E11E29D8A4E2D7C1C0F6FFE8
:100DE800C2C0F7FF0001C14BC22B0800F5CF1FF1AD
:100DF80001011F51D8A410EF00F0BFC0D9FFC0C037
:100E0800DAFF000EDF6E1200000E0201AF6F96943B
:100E180083989598839A959A839C959C839E959E92
:100E2800000EAA6F000EA96FAABF06D0AA511CE136
:100E3800190EA95DD8B018D0010EAF1BAFB102D002
:100E4800849401D084840D0E0001F76F2D0EF66F87
:100E5800D70EE82EFED7F62FFCD7F72FFAD700D0FB
:100E68000201A94BAA2BE0D7000E00016D6FE10E1D
:100E78006E6F000E6F6F000E706F33EC22F056EC41
:100E880015F069EC2BF035EC21F001EC29F04BEC76
:100E98002AF0340E78EC2BF0000E0201B06F2F0E02
:100EA800B06501D00AD0000E0001F16F0201B05107
:100EB8007EEC26F00201B02BF2D7300EB16F3F0E58
:100EC800B16501D00AD0010E0001F16F0201B151E4
:100ED8007EEC26F00201B12BF2D7000E0001F26F72
:100EE800010EF16FBCEC28F0CE0E0001F16F7D0E03
:100EF800F26F84EC29F096EC25F0D1EC25F082EC29
:100F080020F0FBEC29F0FAEC2AF060C096F261C000
:100F180097F262C098F263C099F2010E0201AF1B0A
:100F2800AFB102D08D9401D08D84000E61EC18F021
:100F38009EC0A6F29FC0A7F2A0C0A8F2000E0001B2
:100F4800836F7A0E846F440E856FA6C280F0A7C2A5
:100F580081F0A8C282F021EC1DF080C0B0F081C001
:100F6800B1F082C0B2F0A5EC1CF0B0C0B4F2B1C0D0
:100F7800B5F2010E61EC18F09EC0A6F29FC0A7F270
:100F8800A0C0A8F2000E0001836F7A0E846F440E91
:100F9800856FA6C280F0A7C281F0A8C282F021ECBA
:100FA8001DF080C0B0F081C0B1F082C0B2F0A5ECF5
:100FB8001CF0B0C0B6F2B1C0B7F2000E0001606F0D
:100FC800010E1AEC27F00001656F010E10EC1EF0FF
:100FD80065C0B8F266C0B9F267C0BAF268C0BBF2C1
:100FE800010E0001606F010E1AEC27F00001656F19
:100FF800020E10EC1EF065C0BCF266C0BDF267C000
:10100800BEF268C0BFF2020E0001606F010E1AEC5A
:1010180027F00001656F030E10EC1EF065C0C0F2EA
:1010280066C0C1F267C0C2F268C0C3F2030E000115
:10103800606F010E1AEC27F00001656F040E10ECCA
:101048001EF065C0C4F266C0C5F267C0C6F268C0CB
:10105800C7F2B4C2EEF2B6C2EDF2B8C2FDF1BCC23C
:10106800FCF1C0C2FBF1C4C2FAF1000E0001606FCE
:10107800000E1AEC27F00001F66FF63B8C50F619BB
:10108800EF0BF6198C6E030E606F000E1AEC27F04A
:101098000001F66FF63BF6478C50F619DF0BF61990
:1010A8008C6E020E606F000E1AEC27F00001F66FCE
:1010B800F63BF647F6478C50F619BF0BF6198C6EBF
:1010C800010E606F000E1AEC27F00001F66FF63380
:1010D800F6338C50F6197F0BF6198C6E000E606F84
:1010E800000E1AEC27F00001F66F0201F251FE0B18
:1010F8000001F6110201F26F030E0001606F000E8D
:101108001AEC27F00001F66FD890F635F76F020158
:10111800F251FD0B0001F7110201F26F020E0001FE
:10112800606F000E1AEC27F00001F66FD890F637C2
:10113800D890F6370201F251FB0B0001F6110201BB
:10114800F26F010E0001606F000E1AEC27F000012B
:10115800F66FD890F637D890F637D890F637020160
:10116800F251F70B0001F6110201F26F040E0001B3
:10117800606F010E1AEC27F00001F66FF63BF00ED7
:10118800F6170201F251EF0B0001F6110201F26F9E
:10119800050E0001606F010E1AEC27F00001F66FD2
:1011A800050EF76FD890F637F72FFCD70201F251EA
:1011B800DF0B0001F6110201F26F060E0001606FED
:1011C800050E1AEC27F00001F66F0201F151FE0B33
:1011D8000001F6110201F16F070E0001606F050EA4
:1011E8001AEC27F00001F66FD890F635F76F020178
:1011F800F151FD0B0001F7110201F16F040E00011E
:10120800606F050E1AEC27F00001F66FD890F637DC
:10121800D890F6370201F151FB0B0001F6110201DB
:10122800F16F050E0001606F050E1AEC27F0000142
:10123800F66FD890F637D890F637D890F63702017F
:10124800F151F70B0001F6110201F16F020E0001D6
:10125800606F050E1AEC27F00001F66FF63BF00EF2
:10126800F6170201F151EF0B0001F6110201F16FBF
:10127800030E0001606F050E1AEC27F00001F66FEF
:10128800050EF76FD890F637F72FFCD70201F1510A
:10129800DF0B0001F6110201F16F000E0001606F13
:1012A800050E1AEC27F00001F66F060EF76FD890BE
:1012B800F637F72FFCD70201F151BF0B0001F611E9
:1012C8000201F16F010E0001606F050E1AEC27F0A4
:1012D8000001F66F000EF6B1800EF66F0201F151B3
:1012E8007F0B0001F6110201F16F040E0001606F1F
:1012F800000E1AEC27F0E806D8A470D1000E000101
:10130800606F060E1AEC27F00001F66F010E606F91
:10131800060E1AEC27F00001F76FD890F735F86F32
:10132800020E606F060E1AEC27F00001F96FD890D4
:10133800F937D890F937030E606F060E1AEC27F0CC
:101348000001FA6FD890FA37D890FA37D890FA3760
:10135800040E606F060E1AEC27F00001FB6FFB3BD2
:10136800F00EFB17050E606F060E1AEC27F0000151
:10137800FC6F050EFD6FD890FC37FD2FFCD7060ECD
:10138800606F060E1AEC27F00001FE6F060EFF6F65
:10139800D890FE37FF2FFCD7FE51FC11FB11FA1134
:1013A800F911F811F61102019E6F000E0001606F2D
:1013B800070E1AEC27F00001F66F010E606F070E9A
:1013C8001AEC27F00001F76FD890F735F86F020E86
:1013D800606F070E1AEC27F00001F96FD890F93703
:1013E800D890F937030E606F070E1AEC27F000014A
:1013F800FA6FD890FA37D890FA37D890FA37040E9F
:10140800606F070E1AEC27F00001FB6FFB3BF00E34
:10141800FB17050E606F070E1AEC27F00001FC6F32
:10142800050EFD6FD890FC37FD2FFCD7060E606FB8
:10143800070E1AEC27F00001FE6F060EFF6FD8901A
:10144800FE37FF2FFCD7FE51FC11FB11FA11F911E1
:10145800F811F6110201AB6F000EAC6F09D0000E47
:101468000001F16F0201AC517EEC26F00201AC2BB9
:10147800AB51AC5DD8A0F3D79EC2ADF209D0010E36
:101488000001F16F0201AD517EEC26F00201AD2B97
:10149800AD51AB5DD8B0F3D7070E0001606F000EF9
:1014A8001AEC27F0E806D8A490D0CE0E0001F16F10
:1014B8007D0EF26F84EC29F0000E0001606F020EC1
:1014C8001AEC27F00001F66F010E606F020E1AEC9D
:1014D80027F00001F76FD890F735F86F020E606FAC
:1014E800020E1AEC27F00001F96FD890F937D8905E
:1014F800F937030E606F020E1AEC27F00001FA6F3D
:10150800D890FA37D890FA37D890FA35F911F811F7
:10151800F6110201AE6FAEC2F1F00001F26BBCEC45
:1015280028F0050E0001606F000E1AEC27F0E8069F
:10153800D8A452D0040E0001606F020E1AEC27F0F6
:101548000001F66F050E606F020E1AEC27F000011D
:10155800F76FD890F735F86F060E606F020E1AEC29
:1015680027F00001F96FD890F937D890F937070EAE
:10157800606F020E1AEC27F00001FA6FD890FA3764
:10158800D890FA37D890FA35F911F811F611020106
:101598009F6F9F5164EC29F0060E0001606F000EEA
:1015A8001AEC27F00009D8A408D0000E0001F26F49
:1015B8007D0EF16F99EC28F00FD0010E0001F26F4B
:1015C800F40EF16F99EC28F007D0D20E0001F16FFC
:1015D8007D0EF26F84EC29F0FBEC29F0F2C2B2F236
:1015E800F1C2B3F2030E0001F16FB20EF26F020EF8
:1015F800F36F160EF46F010EF4EC0DF00201A06FFC
:10160800A051D8A417D0A12B020EA16513D0CE0EDD
:101618000001F16F7D0EF26F84EC29F0000E0001DD
:10162800F26F010EF16FBCEC28F0FBEC29F0000E14
:101638000201A16F4BEC2AF00009D8B452D0020184
:10164800E751D8A44ED0000E0001BF6F020EC06F44
:10165800EB0EC16F7D0EC26F01C3C3F0C46B03C331
:10166800C5F0C66B05C3C7F0C86B07C3C9F0CA6B22
:1016780009C3CBF0CC6B0BC3CDF0CE6B0DC3CFF051
:10168800D06B0FC3D1F0D26B11C3D3F0D46B13C39B
:10169800D5F0D66B00C3D7F0D86B02C3D9F0DA6B9C
:1016A80004C3DBF0DC6B06C3DDF0DE6B08C3DFF0E0
:1016B800E06B0AC3E1F0E26B0CC3E3F0E46B0EC32A
:1016C800E5F0E66B10C3E7F0E86BECC2E9F0EA6B13
:1016D80009EC00F0000E0001606F020E616F2AEC49
:1016E80028F096C2F6F097C2F7F098C2F8F099C2BF
:1016F800F9F00001F61FF71FF81FF91FF62B000E6F
:10170800F723F823F923FAEC2AF00001F6516025B3
:101718000201A26F0001F75161210201A36F0001CC
:10172800F85162210201A46F0001F95163210201FD
:10173800A56FA551A41105E1300EA25D750EA35940
:10174800D8B087EF07F0A2C2F6F0A3C2F7F0A4C2A0
:10175800F8F0A5C2F9F00001F61FF71FF81FF91FEE
:10176800F62B000EF723F823F923300EF625020195
:101778009A6F750E0001F72102019B6F000E0001A0
:10178800F82102019C6F000E0001F92102019D6FF2
:101798009AC26DF09BC26EF09CC26FF09DC270F051
:1017A8000CEC26F087EF07F00001956F000195AF6C
:1017B8000CD1956D9551800A120FD8A097D0000EC4
:1017C800716F030E706F000E696F0A0E686F000E5E
:1017D800636F640E626F9551606F616B60BF6107E4
:1017E80045EC26F060C066F061C067F08DEC24F02F
:1017F800090E000166256E6F000E67216F6FC0EC41
:101808002AF0220E00016E25F66E7C0E6F21F76E0F
:101818000900F5CF83F00900F5CF84F00A00F5CF71
:1018280085F0000E696F640E686F9551666F676B7F
:1018380066BF67078DEC24F0120E000166256E6FF7
:10184800000E67216F6F000E716F030E706FC0EC92
:101858002AF0220E00016E25F66E7C0E6F21F76EBF
:101868000900F5CF80F00900F5CF81F00A00F5CF27
:1018780082F021EC1DF080C092F081C093F082C00C
:1018880094F092C080F093C081F094C082F0000E72
:101898000001716F030E706F000E636F0A0E626FA6
:1018A8009551606F616B60BF610745EC26F060C0C1
:1018B8006EF061C06FF0C0EC2AF0220E00016E25B8
:1018C800F66E7C0E6F21F76E0900F5CF83F00900E4
:1018D800F5CF84F00A00F5CF85F021EC1DF080C02B
:1018E8008FF081C090F082C091F0120000019551F4
:1018F800800A750FD8A056D0000E696F0A0E686F5F
:101908009551666F676B66BF67078DEC24F0090E0B
:10191800000166256E6F000E67216F6F000E716FF4
:10192800030E706FC0EC2AF0220E00016E25F66ED1
:101938007C0E6F21F76E0900F5CF80F00900F5CF16
:1019480081F00A00F5CF82F0000E716F030E706F00
:10195800000E636F0A0E626F9551606F616B60BF16
:10196800610745EC26F060C06EF061C06FF0C0EC16
:101978002AF0220E00016E25F66E7C0E6F21F76E9E
:101988000900F5CF83F00900F5CF84F00A00F5CF00
:1019980085F021EC1DF080C08FF081C090F082C0EE
:1019A80091F0120000019551030D220EF324F66EFA
:1019B8007C0EF420F76E0900F5CF8FF00900F5CF03
:1019C80090F00A00F5CF91F012009551800A120F9D
:1019D800D8A097D0000E716F030E706F000E696F5C
:1019E8000A0E686F000E636F640E626F9551606F28
:1019F800616B60BF610745EC26F060C066F061C0AE
:101A080067F08DEC24F0090E000166256E6F000E5C
:101A180067216F6FC0EC2AF0FB0E00016E25F66E91
:101A28007B0E6F21F76E0900F5CF83F00900F5CF23
:101A380084F00A00F5CF85F0000E696F640E686FB8
:101A48009551666F676B66BF67078DEC24F0120EC1
:101A5800000166256E6F000E67216F6F000E716FB3
:101A6800030E706FC0EC2AF0FB0E00016E25F66EB7
:101A78007B0E6F21F76E0900F5CF80F00900F5CFD6
:101A880081F00A00F5CF82F021EC1DF080C092F0C1
:101A980081C093F082C094F092C080F093C081F02E
:101AA80094C082F0000E0001716F030E706F000E7B
:101AB800636F0A0E626F9551606F616B60BF61075B
:101AC80045EC26F060C06EF061C06FF0C0EC2AF003
:101AD800FB0E00016E25F66E7B0E6F21F76E090076
:101AE800F5CF83F00900F5CF84F00A00F5CF85F033
:101AF80021EC1DF080C08FF081C090F082C091F081
:101B0800120000019551800A750FD8A056D0000E1A
:101B1800696F0A0E686F9551666F676B66BF6707D6
:101B28008DEC24F0090E000166256E6F000E67210A
:101B38006F6F000E716F030E706FC0EC2AF0FB0E12
:101B480000016E25F66E7B0E6F21F76E0900F5CF4A
:101B580080F00900F5CF81F00A00F5CF82F0000E81
:101B6800716F030E706F000E636F0A0E626F9551EE
:101B7800606F616B60BF610745EC26F060C06EF076
:101B880061C06FF0C0EC2AF0FB0E00016E25F66E06
:101B98007B0E6F21F76E0900F5CF83F00900F5CFB2
:101BA80084F00A00F5CF85F021EC1DF080C08FF09D
:101BB80081C090F082C091F0120000019551030D90
:101BC800FB0EF324F66E7B0EF420F76E0900F5CFBA
:101BD8008FF00900F5CF90F00A00F5CF91F01200D0
:101BE8000101E86F0101E851D8B413D0200E0001BB
:101BF800BF6F010EC06FBA0EC16F7F0EC26FAE0EFF
:101C0800C36F7D0EC46FF1C0C5F0C66B09EC00F060
:101C180012D0200E0001BF6F010EC06FBA0EC16F47
:101C28007F0EC26F8E0EC36F7D0EC46FF1C0C5F0FC
:101C3800C66B09EC00F0000E0101EE6F83D1020EB5
:101C4800EE19D8B404D0030EEE19D8A40ED0040EA1
:101C58000001606F010E1AEC27F0E806D8B470D1C5
:101C68000201EE51D8B46CD146D1040E0101EE192F
:101C7800D8B404D0050EEE19D8A40CD0050E000176
:101C8800606F010E1AEC27F0E806D8B459D10201AA
:101C9800ED51E8D7090E0101EE19D8A410D0000EB5
:101CA8000001606F050E1AEC27F0E806D8B448D199
:101CB800010E0001606F050E1AEC27F032D0080EF5
:101CC800EE19D8A410D0000E0001606F050E1AECB2
:101CD80027F0E806D8B434D1010E0001606F050E74
:101CE8001AEC27F01ED0070EEE19D8A407D0000E64
:101CF8000001606F050E1AEC27F013D0060EEE19DE
:101D0800D8A415D0000E0001606F050E1AEC27F05C
:101D1800E806D8A409D0010E0001606F050E1AEC80
:101D280027F0E806D8B40CD10101FD519BD70D0E60
:101D3800EE19D8A410D0020E0001606F050E1AEC3F
:101D480027F0E806D8B4FCD0030E0001606F050E3A
:101D58001AEC27F032D00C0EEE19D8A410D0020ECF
:101D68000001606F050E1AEC27F0E806D8B4E8D039
:101D7800030E0001606F050E1AEC27F01ED00B0E43
:101D8800EE19D8A407D0020E0001606F050E1AECF8
:101D980027F013D00A0EEE19D8A415D0020E0001B0
:101DA800606F050E1AEC27F0E806D8A409D0030ED8
:101DB8000001606F050E1AEC27F0E806D8B4C0D011
:101DC8000101FC514FD7110EEE19D8A410D0040E02
:101DD8000001606F050E1AEC27F0E806D8B4B0D001
:101DE800050E0001606F050E1AEC27F032D0100EB8
:101DF800EE19D8A410D0040E0001606F050E1AEC7D
:101E080027F0E806D8B49CD0050E0001606F050ED7
:101E18001AEC27F01ED00F0EEE19D8A407D0040E26
:101E28000001606F050E1AEC27F013D00E0EEE19A4
:101E3800D8A415D0040E0001606F050E1AEC27F027
:101E4800E806D8A409D0050E0001606F050E1AEC4B
:101E580027F0E806D8B474D00101FB5103D7150E5A
:101E6800EE19D8A410D0060E0001606F050E1AEC0A
:101E780027F0E806D8B464D0070E0001606F050E9D
:101E88001AEC27F032D0140EEE19D8A410D0060E92
:101E98000001606F050E1AEC27F0E806D8B450D0A0
:101EA800070E0001606F050E1AEC27F01ED0130E06
:101EB800EE19D8A407D0060E0001606F050E1AECC3
:101EC80027F013D0120EEE19D8A415D0060E000173
:101ED800606F050E1AEC27F0E806D8A409D0070EA3
:101EE8000001606F050E1AEC27F0E806D8B428D078
:101EF8000101FA51B7D6EA0E0001BF6F010EC06F9B
:101F0800F00EC16F7F0EC26F0101EE51010DF3504B
:101F18000001F225D96EF450F321DA6EDF50F56F27
:101F2800F551C36FC46B09EC00F0200E0001606F1F
:101F3800010E616FEA0E626F010E636F76EC28F096
:101F48000101EE2B0001F4510101EE5DD8A077D616
:101F5800200E00017C6F010E7D6F000E7E6F22EC5B
:101F68001BF00101E96F15D08BEC21F0090AD8A408
:101F780002D0010E1200000E1200DEEC29F002D091
:101F8800D4EC2AF00009D8A4E3D7000E1200000E02
:101F980012000101E951000AD8B4E6D7020AD8B400
:101FA800ECD7070AD8B4E9D7030AD8B4E9D7EFD7EA
:101FB800106E5B50010D400EF324D96E040EF42010
:101FC800DA6E10C0DFFF5B2A0A0E1018D8A431D1D0
:101FD800020E5B642ED15B50010D400EF324D96EC6
:101FE800040EF420DA6E000EDF6E640E016E060E2B
:101FF800026E400E036E040E046E93EC2AF0FE0E81
:102008000A6EFF0E0B6E5B500C6E0D6A0A500C26A2
:102018000B500D22400E0C24D96E040E0D20DA6EE2
:10202800000EDF6E000E5B6E0F0E0E6E0101FE6974
:10203800000E116E1CD0400E016E040E026E11507F
:10204800020DC30EF324D96E030EF420DA6EDECF30
:1020580003F0DDCF04F052EC28F001500210D8A4B0
:1020680005D011C0FEF1010E5A6E1200112A0E5051
:10207800115CD8A0E0D7E1C301F0E2C302F001ECA3
:1020880028F00150126E400E016E040E026EE1C37C
:1020980003F0E2C304F012C005F0066A55EC25F01F
:1020A80001500210D8A406D00F0E0101FE6F010ED8
:1020B8005A6E1200D7C301F0D8C302F001EC28F021
:1020C8000150126E400E016E040E026ED7C303F06B
:1020D800D8C304F012C005F0066A55EC25F001508B
:1020E8000210D8A4A6D012C013F0000E0F6E27D08D
:1020F8001350010D400EF324D96E040EF420DA6E4D
:102108002F0EDF642BD01350010D400EF324D96E2F
:10211800040EF420DA6E390EDF6401D01FD00A0EE7
:102128000F02F3500F6E1350010D400EF324D96EB9
:10213800040EF420DA6EDF50D00F0F26132A400E5B
:10214800016E040E026E01EC28F013500A6E0B6A41
:1021580001500A5C02500B58D8A0CAD7132A38D0AD
:102168005C50020D000EF324D96E030EF420DA6ED3
:102178000FC0DFFF5C50020D010EF326000EF422A3
:10218800000EF324D96E030EF420DA6E13500A6E93
:102198000B6A010E0A26000E0B22400E0A24E16E7D
:1021A800040E0B20E26EE750026E1350010D400E34
:1021B800F324E16E040EF420E26EE750D0EC24F034
:1021C800DF6E5C2A090E5C6401D01200020E132631
:1021D800400E016E040E026E01EC28F013500A6ED8
:1021E8000B6A01500A5C02500B58D8A0B9D7400EB0
:1021F800016E040E026E01EC28F013500A6E0B6A91
:1022080001500A5C02500B58D8B010D012D05C5064
:10221800020D010EF326000EF422000EF324D96EEF
:10222800030EF420DA6E000EDF6E5C2A0A0E5C6480
:10223800EED7640E5B6004D00A0E1018D8A4120002
:10224800000E5B6E120004013205D8A40FD0305185
:102258001F0B0009D8A40AD0438E030E3119D8A445
:1022680002D0010E01D0000E0101F96F04013251B4
:10227800D8A4120030511F0B020AD8A412003451FE
:102288000F0B0009D8B4120034510F0B156E030E52
:1022980015601200200E5918D8A41200438E34BFBE
:1022A80019D034510F0B156E1550020DC80EF324BA
:1022B800D96E020EF420DA6EDECF19F0DDCF1AF0F7
:1022C80034510F0B156E1550010DD20EF324D96E33
:1022D800020E18D034510F0B156E1550020D460E14
:1022E800F324D96E000EF420DA6EDECF19F0DDCFBC
:1022F8001AF034510F0B156E1550010DD50EF3243D
:10230800D96E020EF420DA6EDF50186E18B006D0BF
:10231800FB0E1914196EFF0E1A1404D0040E1910AE
:10232800196E1A501A6E34BF0AD034510F0B156E3D
:102338001550020DC80EF324D96E020E09D034517F
:102348000F0B156E1550020D460EF324D96E000EB4
:10235800F420DA6E19C0DEFF1AC0DDFF030E311952
:10236800D8A42DD019C0D9FF1AC0DAFFDFAE1AD011
:1023780034BF0AD034510F0B156E1550010DD20E13
:10238800F324D96E020E0AD0040134510F0B156ED6
:102398001550010DD50EF324D96E020EF420DA6E15
:1023A8000201DF8219C0D9FF1AC0DAFF000EDB84F0
:1023B80019C0D9FF1AC0DAFF000EDB8E1200040E16
:1023C8001918196E1A501A6E19C0D9FF1AC0DAFFF7
:1023D800DFAE1BD019C0D9FF1AC0DAFF7F0EDF1697
:1023E80019C0D9FF1AC0DAFF000EDB8C000E0E6E82
:1023F800050E0D6E19C00FF01AC010F0000E126E07
:10240800020E116EA8EC27F006D019C0D9FF1AC029
:10241800DAFF000EDB8C040E1918196E1A501A6EAA
:1024280018B206D019C0D9FF1AC0DAFFDFAE30D013
:10243800040134BF0AD034510F0B156E1550010D2D
:10244800D20EF324D96E020E0AD0040134510F0BB8
:10245800156E1550010DD50EF324D96E020EF42019
:10246800DA6E0201DF9219C0D9FF1AC0DAFF3B0EFB
:10247800DF16000E0E6E050E0D6E19C00FF01AC095
:1024880010F0000E126E020E116EA8EC27F006D0A6
:1024980019C0D9FF1AC0DAFF3B0EDF160401345108
:1024A8000F0B156E1550010D700EF324166E0F0EDE
:1024B800F420176E16C0D9FF17C0DAFFFE0EDF161C
:1024C80012000001986F6D0E00019865A6D0000EED
:1024D800716F030E706F000E696F0A0E686F000E41
:1024E800636F640E626F98C060F0616B45EC26F014
:1024F80060C066F061C067F08DEC24F0090E000141
:1025080066256E6F000E67216F6FC0EC2AF0220EF1
:1025180000016E25F66E7C0E6F21F76E0900F5CF6F
:1025280083F00900F5CF84F00A00F5CF85F0000E9E
:10253800696F640E686F98C066F0676B8DEC24F065
:10254800120E000166256E6F000E67216F6F000E78
:10255800716F030E706FC0EC2AF0220E00016E2519
:10256800F66E7C0E6F21F76E0900F5CF80F009003A
:10257800F5CF81F00A00F5CF82F021EC1DF080C084
:1025880095F081C096F082C097F0000E0001716F3F
:10259800030E706F000E636F0A0E626F98C060F0D2
:1025A800616B45EC26F060C06EF061C06FF0C0EC66
:1025B8002AF0220E00016E25F66E7C0E6F21F76E52
:1025C8000900F5CF83F00900F5CF84F00A00F5CFB4
:1025D80085F095C080F096C081F097C082F021EC1C
:1025E8001DF080C092F081C093F082C094F092C038
:1025F80080F093C081F094C082F0000E0001836FD8
:10260800000E846F3F0E856F21EC1DF080C08FF0A7
:1026180081C090F082C091F012000A0E0001986506
:1026280067D0000E716F030E706F000E636F0A0E95
:10263800626F98C060F0616B45EC26F060C06EF088
:1026480061C06FF0C0EC2AF0220E00016E25F66E14
:102658007C0E6F21F76E0900F5CF83F00900F5CFE6
:1026680084F00A00F5CF85F0000E696F0A0E686FD6
:1026780098C066F0676B8DEC24F0090E00016625A2
:102688006E6F000E67216F6F000E716F030E706F13
:10269800C0EC2AF0220E00016E25F66E7C0E6F212A
:1026A800F76E0900F5CF80F00900F5CF81F00A0038
:1026B800F5CF82F021EC1DF080C095F081C096F036
:1026C80082C097F095C080F096C081F097C082F0E4
:1026D800000E0001836F000E846F3F0E856F21ECA2
:1026E8001DF080C08FF081C090F082C091F0120080
:1026F80000019851030D220EF324F66E7C0EF4208F
:10270800F76E0900F5CF80F00900F5CF81F00A00D7
:10271800F5CF82F0000E836F000E846F3F0E856F39
:1027280021EC1DF080C08FF081C090F082C091F044
:1027380012000600FACF1EF0FBCF1FF0E9CF20F001
:10274800EACF21F0E1CF22F0E2CF23F0D9CF24F075
:10275800DACF25F0F3CF26F0F4CF27F0F6CF28F024
:10276800F7CF29F0F8CF2AF0F5CF2BF05FC02CF087
:1027780060C02DF061C02EF062C02FF09EB49DA401
:1027880089D09E94010E03012A27000E2B232C23A7
:102798002D2383A003D01D6A1D2A01D01D6A1D5058
:1027A800306E316A83A203D01D6A1D2A01D01D6ACA
:1027B8001D50326E336A83A403D01D6A1D2A01D0CE
:1027C8001D6A1D50346E356A83A603D01D6A1D2A02
:1027D80001D01D6A1D50366E376A30500201E0196B
:1027E80004E13150E119D8B40BD030043110D8A429
:1027F80007D0010E03013A27000E3B233C233D235B
:1028080030C0E0F231C0E1F232500201DE1904E1D9
:102818003350DF19D8B40BD032043310D8A407D002
:10282800010E03013627000E37233823392332C01F
:10283800DEF233C0DFF234500201DC1904E1355016
:10284800DD19D8B40BD034043510D8A407D0010E44
:1028580003013227000E33233423352334C0DCF23E
:1028680035C0DDF236500201DA1904E13750DB19C0
:10287800D8B40BD036043710D8A407D0010E030102
:102888002E27000E2F233023312336C0DAF237C02B
:10289800DBF20BD09DBA9EAA05D00DEC2BF0DCEC38
:1028A8000FF003D0A0BACAEC17F02FC062F02EC008
:1028B80061F02DC060F02CC05FF02BC0F5FF2AC07E
:1028C800F8FF29C0F7FF28C0F6FF27C0F4FF26C08D
:1028D800F3FF25C0DAFF24C0D9FF23C0E2FF22C0DE
:1028E800E1FF21C0EAFF20C0E9FF1FC0FBFF1EC0B7
:1028F800FAFF5F92110076C07AF000017B6B7C6B67
:1029080075357A3701E37B817A517F6F79C07AF028
:102918007B6B7C6B78357A3701E37B817A517E6FEC
:102928007F51D8B40BD07E517F5DD8B00ED07F5187
:1029380000087E257A6F180E7A6507D077C074F084
:1029480078C075F079C076F012007E51D8B40BD0FB
:102958007F517E5DD8B00ED07E5100087F257A6FFA
:10296800180E7A6507D074C074F075C075F076C01B
:1029780076F01200060E7D6F76BF7D8F79BF7D8D54
:10298800758FFF0E7417FF0E7517000E7617788F68
:10299800FF0E7717FF0E7817000E79177E517F5DAF
:1029A800D8B01BD0D8907737783779377E077F51E2
:1029B8007E19D8B40DD07D077DC07AF0070E7A173E
:1029C800D8B406D0EFD7D8907633753374337F2BCD
:1029D8007E517F19D8B41FD0F6D77F517E5DD8B00D
:1029E8001AD0D8907437753776377F077F517E199C
:1029F800D8B40DD07D077DC07AF0070E7A17D8B409
:102A080006D0EFD7D8907933783377337E2B7E5141
:102A18007F19D8A4F7D77DAF0CD0FF0E741BFF0E1B
:102A2800751BFF0E761B010E7427000E7523000E12
:102A380076237DAD0CD0FF0E771BFF0E781BFF0EA3
:102A4800791B010E7727000E7823000E7923000EDC
:102A58007D6F74517727755178237651792379AF33
:102A68000ED0FF0E771BFF0E781BFF0E791B010E91
:102A78007727000E7823000E7923010E7D6F77C02B
:102A880060F078C061F079C062F07FC063F07DC00B
:102A980064F0DDEC20F060C074F061C075F062C0D5
:102AA80076F01200A09A000E6A6E000E686E000E94
:102AB800706E710E0001606F0F0E616F000E636F14
:102AC800000E626F000E656F020E646F63EC2AF0F1
:102AD800160E6F6E9F0E6B6E7B0E696E000E0001F8
:102AE800686F0B0E686501D00ED06851040D000E9A
:102AF800F324D96E040EF420DA6EDE6ADE6ADE6A2A
:102B0800DD6A682BEED76D8C000E6E6E6D986D9C2D
:102B18006896000E436E000E3B6E000E3D6E000E72
:102B28003C6E68B6F5D7010E0101F66F010E020181
:102B3800EB6F000EEA6F000EE96F000E0101F86FEF
:102B4800000E0001686F020E686501D02ED0685132
:102B5800020D460EF324D96E000EF420DA6E000E34
:102B6800DE6E000EDD6E6851020DC80EF324D96EBC
:102B7800020EF420DA6E000EDE6E000EDD6E685175
:102B8800010DD50EF324D96E020EF420DA6E000E74
:102B9800DF6E6851010DD20EF324D96E020EF420B7
:102BA800DA6E000EDF6E682BCED7080E466E040E66
:102BB800476E160E706E040E0401036F300E026F1E
:102BC800080E016F040E006F008F000E5E6E000E7F
:102BD8000201CE6F000ECF6F000ED06F000ED16FC6
:102BE800000EE86F000E596E1200A09A000E6A6E71
:102BF800000E686E000E706E710E016E0F0E026E82
:102C0800000E046E000E036E000E066E020E056EB8
:102C1800AAEC2AF0160E6F6E9F0E6B6E7B0E696E15
:102C2800000E096E0B0E096401D00ED00950040D78
:102C3800000EF324D96E040EF420DA6EDE6ADE6A22
:102C4800DE6ADD6A092AEED76D8C000E6E6E6D980D
:102C58006D9C6896000E436E000E3B6E000E3D6E36
:102C6800000E3C6E68B6F5D7010E0101F66F010E35
:102C78000201EB6F000EEA6F000EE96F000E010112
:102C8800F86F000E096E020E096401D02ED00950AB
:102C9800020D460EF324D96E000EF420DA6E000EF3
:102CA800DE6E000EDD6E0950020DC80EF324D96EDB
:102CB800020EF420DA6E000EDE6E000EDD6E095094
:102CC800010DD50EF324D96E020EF420DA6E000E33
:102CD800DF6E0950010DD20EF324D96E020EF420D6
:102CE800DA6E000EDF6E092ACED7080E466E040E85
:102CF800476E160E706E040E0401036F300E026FDD
:102D0800080E016F040E006F008F000E5E6E000E3D
:102D18000201CE6F000ECF6F000ED06F000ED16F84
:102D2800000EE86F000E596E120062C066F00001D6
:102D3800676B686B6135663701E3678166516E6F53
:102D48006E51D8A409D0000E606F000E616F000E9E
:102D5800626F000E636F120065C066F0676B686B88
:102D68006435663701E3678166516D6F6D51D8A48C
:102D780009D0000E606F000E616F000E626F000ECA
:102D8800636F1200618FFF0E6017FF0E6117000E50
:102D98006217648FFF0E6317FF0E6417000E651726
:102DA800000E696F000E6A6F000E6B6F000E6C6F7D
:102DB8007F0E6E5F6D51980F6E5F180E6D6FD89015
:102DC80069376A376B376C376351605D6451615995
:102DD80065516259D8A007D06351605F6451615B47
:102DE8006551625B6981D8906037613762376D2FB2
:102DF800E6D76EAF16D06E51800A970FD8B009D0BB
:102E0800000E606F000E616F000E626F000E636F40
:102E18001200D8906C336B336A3369336E3FF9D73D
:102E280015D0170E6E650FD0000E606F000E616F23
:102E3800000E626F000E636F1200D89069376A3710
:102E48006B376C376E076E51D8A4F7D769C060F03E
:102E58006AC061F06BC062F06CC063F01200A09AA7
:102E68000201D851D911D8B408D0D8C2D9FFD9C2D3
:102E7800DAFFDFAE02D0A08A1200030EE719D8A449
:102E880002D0000EE76FE751D8A402D0A08A120042
:102E9800020EE719D8A414D0010E0001606F000ECD
:102EA800616F000E626F000E636F020E9FEC1AF0E6
:102EB80060C0D8F261C0D9F2030E0201E76F64D096
:102EC800E705D8A461D0400E526404D0400E00013A
:102ED8006C6F02D052C06CF000016C510008522493
:102EE800526E000E0301466F050E476F6CC06BF003
:102EF8000201E651D8B412D027D049C3D9FF4AC33A
:102F0800DAFF46C3E1FF47C3E2FFDFCFE7FF030174
:102F1800464B472B494B4A2B00016B0700016B516D
:102F2800D8B416D0EAD749C3D9FF4AC3DAFF46C393
:102F3800E1FF47C3E2FFDFCFE7FF0301464B472B23
:102F4800494B4A2B00016B0700016B51D8A4EBD702
:102F58005250D8A409D0400E6C19D8A402D0020E41
:102F680001D0030E0201E76F010E0001606F000E31
:102F7800616F050E626F6CC063F0020E9FEC1AF071
:102F880060C0D8F261C0D9F2A08A12005904D8B43E
:102F98006DBA06D0000E686E69806988020E596E97
:102FA80068B469A403D0689416EC2AF06DA202D024
:102FB800A19A120068B069A006D0F9EC15F0A08AB1
:102FC800040E596E689068B869A802D07BEC2AF0A4
:102FD80068AC1AD069AC0ED0000E0E6E730E0D6E72
:102FE800000E0F6E000E106E000E126E010E116EA6
:102FF800A8EC27F0689C20EC2BF05550D8A4550677
:103008005550D8B4C0EC1FF068BA69AA02D043EC96
:1030180029F068B269A20FD07F0E0E6E0D68000EFF
:103028000F6E000E106E000E126E010E116EA8ECDF
:1030380027F0000E6A6E040E596002D0A19A1200A1
:1030480069A639D0000E1C6E030E1C6401D033D063
:1030580068A631D06CCF5DF05D30E832E8320F0BF6
:10306800566E68965DB407D05650010DD20EF32403
:10307800D96E020E06D05650010DD50EF324D96E26
:10308800020EF420DA6E0201DF705650D8A403D085
:103098001FEC23F00ED0000E0E6E720E0D6E5D0E3C
:1030A8000F6E000E106E000E126E000E116EA8EC60
:1030B80027F01C2AC9D7A19A12000001A96F0001A4
:1030C800A951D8A402D0010EC26EA905D8A402D075
:1030D800050EC26E000EAF6F000EAE6F000EAD6F24
:1030E800000EAC6FADBF06D0AD5119E1200EAC5D3E
:1030F800D8B015D0C28200F0C2B2FED7C4CFAAF0B1
:103108000001AB6BAA51A16FC350AA6FA1C0ABF06D
:10311800AA51AE27AB51AF23AC4BAD2BE3D7050E6D
:10312800A16FD890AF33AE33A12FFBD7AE51AF11FB
:10313800D8A407D0000EA66F000EA76F000EA86FC8
:103148004BD0000E926F440E936F440E946F000E96
:10315800836F800E846F410E856F000E776F430E6C
:10316800786FC30E796FAEC068F0AFC069F0C1EC7C
:1031780029F068C074F069C075F06AC076F07FEC19
:1031880014F074C080F075C081F076C082F021EC34
:103198001DF080C08FF081C090F082C091F09CEC4F
:1031A8001DF08FC0A3F090C0A4F091C0A5F0A3C0FB
:1031B80074F0A4C075F0A5C076F0000E0001776F1A
:1031C800800E786F400E796F7FEC14F074C0A6F013
:1031D80075C0A7F076C0A8F0A6C09EF0A7C09FF063
:1031E800A8C0A0F012000001623563356B6F6B5107
:1031F800D8A409D0000E606F000E616F000E626FD8
:10320800000E636F1200653566356A6F6A51D8A47F
:1032180009D0000E606F000E616F000E626F000E25
:10322800636F1200628FFF0E6017FF0E6117FF0EAB
:103238006217000E6317658FFF0E6317FF0E641782
:10324800FF0E6517000E6617000E666F000E676F9B
:10325800000E686F000E696F7F0E6B5F6A51A00FDA
:103268006B5F200E6A6FD8906637673768376937A3
:103278006351605D64516159655162596651635982
:10328800D8A009D06351605F6451615B6551625B8E
:103298006651635B6681D890603761376237633700
:1032A8006A2FE1D76BAF16D06B51800A9F0FD8B049
:1032B80009D0000E606F000E616F000E626F000E85
:1032C800636F1200D89069336833673366336B3F96
:1032D800F9D715D01F0E6B650FD0000E606F000E6A
:1032E800616F000E626F000E636F1200D890663730
:1032F8006737683769376B076B51D8A4F7D766C04B
:1033080060F067C061F068C062F069C063F01200E5
:10331800800E04013019D8A41200C00E436E79D073
:103328001C0E406E7D0E416E000E456E120E446EF0
:1033380012003251D8A43DD03251020D6F0EF32441
:10334800F66E7C0EF420F76E0900F5CF40F00A0007
:10335800F5CF41F0020E4024016E000E4120026EAE
:1033680001C0F6FF02C0F7FFF86A070EF76403D042
:103378000800F55005D0F6CFE9FFF7CFEAFFEF5088
:10338800446E030E4024016E000E4120026E01C0FF
:10339800F6FF02C0F7FFF86A070EF76403D00800CB
:1033A800F55005D0F6CFE9FFF7CFEAFFEF50456EAD
:1033B8001200000E436E1200030E0401326123D086
:1033C8003251020D690EF324F66E7C0EF420F76E6E
:1033D8000900F5CF40F00A00F5CF41F040C0F6FFF4
:1033E80041C0F7FFF86A070EF76403D00800F550EC
:1033F80005D0F6CFE9FFF7CFEAFFEF50016E015095
:10340800446E456A1200000E436E1200000E436EB1
:10341800120004013351010AD8B482D7030AD8B480
:1034280088D7010AD8B4C8D7F1D720EE01F0505098
:10343800D9265150DA22DF50026E02503C5C000E51
:103448003D58D8A03CC002F002503C5E000E3D5AE8
:10345800000E016E11D00150010D380EF324D96E03
:10346800040EF420DA6E38C0E1FF39C0E2FFDFCF86
:10347800E7FF384A392A012A0250015CD8A0EBD765
:103488003C503D10D8B432D020EE01F04E50D92631
:103498004F50DA22080EDF6E20EE02F04E50D92689
:1034A8004F50DA22380EDE6E040EDD6E50C0D9FFA2
:1034B80051C0DAFFDFBC0DD04EC0D9FF4FC0DAFFD4
:1034C800480EDF6E4EC0D9FF4FC0DAFF000EDB8E0C
:1034D80012004EC0D9FF4FC0DAFF080EDF6E4EC093
:1034E800D9FF4FC0DAFF000EDB8E120020EE01F08C
:1034F8004E50D9264F50DA22080EDF6E20EE02F029
:103508004E50D9264F50DA22300EDE6E040EDD6E94
:103518004EC0D9FF4FC0DAFF040EDF6E4EC0D9FF90
:103528004FC0DAFF000EDB8E3B9E5450D8A4120029
:10353800C0EC1FF012000001686F00016051D8B4A0
:1035480007D06851020D460EF324D96E000E06D03E
:103558006851020DC80EF324D96E020EF420DA6EFB
:10356800DECF69F0DDCF6AF069516A11D8A405D0C1
:10357800000E606F000E616F120020EE02F06951BC
:10358800D9266A51DA2261C0DEFF62C0DDFF20EE73
:1035980001F06951D9266A51DA2263C0DFFF69C098
:1035A800D9FF6AC0DAFF400EDF1669C0D9FF6AC0CA
:1035B800DAFF000EDB8669C0D9FF6AC0DAFF000EA9
:1035C800DB8E6051D8B418D06851020D460EF32432
:1035D800D96E000EF420DA6EDECF64F0DDCF65F030
:1035E800040E6419666F6551676F6851020D460EC7
:1035F800F324D96E000E17D06851020DC80EF324BB
:10360800D96E020EF420DA6EDECF64F0DDCF65F0FD
:10361800040E6419666F6551676F6851020DC80E14
:10362800F324D96E020EF420DA6E66C0DEFF67C09E
:10363800DDFF69C060F06AC061F0120054EC2BF045
:1036480041D0000E0001826F000E816F0DD0C50EB3
:103658008125F66E7D0E8221F76E0800F55078EC14
:103668002BF00001814B822BC50E606F7D0E616FC0
:10367800D6EC27F000016051815D61518259D8B0C4
:1036880029D0E5D7000E846F000E836F0DD0BB0ED6
:103698008325F66E7D0E8421F76E0800F55078ECD0
:1036A8002BF00001834B842BBB0E606F7D0E616F86
:1036B800D6EC27F000016051835D61518459D8B080
:1036C80009D0E5D700017E51000AD8B4BAD7010A5B
:1036D800D8B4D8D7000E866F000E856F1BD08551E1
:1036E8007C257F6F86517D21806F7FC0F6FF80C06B
:1036F800F7FFF86A070EF76403D00800F55005D005
:10370800F6CFE9FFF7CFEAFFEF5078EC2BF0000196
:10371800854B862B7CC060F07DC061F0D6EC27F02D
:1037280000016051855D61518659D8A0D8D70D0E2A
:1037380078EC2BF00A0E78EC2BF08BEC21F01200D1
:10374800096E0150D8B407D00950020D460EF32473
:10375800D96E000E06D00950020DC80EF324D96E9A
:10376800020EF420DA6EDECF0AF0DDCF0BF00A503D
:103778000B10D8A405D0000E016E000E026E1200C8
:1037880020EE02F00A50D9260B50DA2202C0DEFFE2
:1037980003C0DDFF20EE01F00A50D9260B50DA22D3
:1037A80004C0DFFF0AC0D9FF0BC0DAFF400EDF16E6
:1037B8000AC0D9FF0BC0DAFF000EDB860AC0D9FFAA
:1037C8000BC0DAFF000EDB8E0150D8B418D00950B8
:1037D800020D460EF324D96E000EF420DA6EDECF09
:1037E80005F0DDCF06F0040E0518076E0650086ECA
:1037F8000950020D460EF324D96E000E17D0095059
:10380800020DC80EF324D96E020EF420DA6EDECF54
:1038180005F0DDCF06F0040E0518076E0650086E99
:103828000950020DC80EF324D96E020EF420DA6E88
:1038380007C0DEFF08C0DDFF0AC001F00BC002F0C0
:1038480012006D9843BE3BD03BAE0ED0020E576EB1
:103858000201E951D8B4D3EC22F0000E0201EB6F5B
:10386800000E0101F66F120020EE01F04E50D9262D
:103878004F50DA22080EDF6E20EE02F04E50D926A5
:103888004F50DA22300EDE6E040EDD6E4EC0D9FFC8
:103898004FC0DAFF0C0EDF6E4EC0D9FF4FC0DAFF03
:1038A800000EDB8E46C0D9FF47C0DAFF040EDF6E7C
:1038B80046C0D9FF47C0DAFF000EDB8E12000401B4
:1038C80030AF13D0010E576E0201EA51D8B4D3ECD1
:1038D80022F0000E0201EB6F000E0101F66F54504A
:1038E800D8A41200C0EC1FF01200020E576E20EE92
:1038F80001F04E50D9264F50DA22080EDF6E20EE26
:1039080002F04E50D9264F50DA22300EDE6E040EE9
:10391800DD6E4EC0D9FF4FC0DAFF040EDF6E4EC019
:10392800D9FF4FC0DAFF000EDB8E000E0201EB6FED
:10393800000E0101F66F5450D8A41200C0EC1FF01D
:103948001200B2C0B4F00001B56BB66BB135B43734
:1039580001E3B581B451BE6FBE51D8A409D0000EA1
:10396800B06F000EB16F000EB26F000EB36F120091
:10397800170EB46FB0C0B5F0B1C0B6F0B2C0B7F0B2
:10398800B429B86F04D0D890B733B633B533B82F4D
:10399800FAD70001B551B96FB18FFF0EB017FF0EFE
:1039A800B117000EB217B051BA6FB151BB6FB25117
:1039B800BC6FBD6B8E0EBE5FBEAF16D0BE51800A07
:1039C8008F0FD8B009D0000EB06F000EB16F000E87
:1039D800B26F000EB36F1200D890BD33BC33BB3347
:1039E800BA33BE3FF9D715D0170EBE650FD0000EFB
:1039F800B06F000EB16F000EB26F000EB36F120001
:103A0800D890BA37BB37BC37BD37BE07BE51D8A42C
:103A1800F7D7B951D8B408D0BD1FBC1FBB1FBA6DAA
:103A2800000EBB23BC23BD23BAC0B0F0BBC0B1F0AD
:103A3800BCC0B2F0BDC0B3F0120082C086F0000175
:103A4800876B886B8135863701E387818651896F5B
:103A58008951D8A407D0000E806F000E816F000E28
:103A6800826F120085C086F0876B886B8435863735
:103A780001E3878186518E6F8E51D8A407D0000E3E
:103A8800806F000E816F000E826F12008E517B0FC7
:103A9800892782C08EF085518E1B800E8E17818FEC
:103AA800848FFF0E8317FF0E8417000E8517000EF4
:103AB8008A6F000E8B6F000E8C6F070E8D6F80A1C2
:103AC80006D083518A2784518B2385518C23D89023
:103AD800823381338033D8908337843785378D2F6D
:103AE800EED7090E8D6F80A106D083518A278451A5
:103AF8008B2385518C23D890823381338033D8909F
:103B08008C338B338A338D2FEED78AC060F08BC00D
:103B180061F08CC062F089C063F08EC064F0DDECA7
:103B280020F060C080F061C081F062C082F01200B5
:103B380091C095F00001966B976B9035953701E32E
:103B4800968195519C6F9C51D8A407D0000E8F6F19
:103B5800000E906F000E916F120094C095F0966B56
:103B6800976B9335953701E3968195519D6F9D51DC
:103B7800D8A407D0000E8F6F000E906F000E916FC3
:103B88001200000E996F000E9A6F000E9B6F9D51E8
:103B9800890F9C5F91C09DF094519D1B800E9D17CD
:103BA800908FFF0E8F17FF0E9017000E9117938FAF
:103BB800FF0E9217FF0E9317000E9417180E986FAA
:103BC800D89099379A379B3792518F5D9351905976
:103BD80094519159D8A007D092518F5F9351905B1F
:103BE8009451915B9981D8908F3790379137982F5E
:103BF800E7D799C060F09AC061F09BC062F09CC0A2
:103C080063F09DC064F0DDEC20F060C08FF061C00F
:103C180090F062C091F012000001696F9D9454D039
:103C28003AC36AF03BC36BF03CC36CF03DC36DF024
:103C38006551D8A457D0000E03013A6F000E3B6FB0
:103C4800000E3C6F000E3D6F4DD036C36AF037C38F
:103C58006BF038C36CF039C36DF06551D8A442D00D
:103C6800000E0301366F000E376F000E386F000E1E
:103C7800396F38D032C36AF033C36BF034C36CF099
:103C880035C36DF06551D8A42DD0000E0301326FF5
:103C9800000E336F000E346F000E356F23D02EC325
:103CA8006AF02FC36BF030C36CF031C36DF065510F
:103CB800D8A418D0000E03012E6F000E2F6F000E2F
:103CC800306F000E316F0ED000016951010AD8B46F
:103CD800A7D7030AD8B4B9D7010AD8B4CBD7070AEB
:103CE800D8B4DDD79D846AC065F06BC066F06CC03F
:103CF80067F06DC068F01200438E710E016E0F0EF2
:103D0800026E000E046E000E036E000E066E020EAA
:103D1800056EAAEC2AF0000E016E040E026E000E6B
:103D2800046E000E036E000E066E300E056EAAECD1
:103D38002AF06D8C000E156E020E156401D016D097
:103D48001550010DD50EF324D96E020EF420DA6E4B
:103D5800000EDF6E1550010DD20EF324D96E020E3F
:103D6800F420DA6E000EDF6E152AE6D7FE0E016E1D
:103D7800020E026E000E046E000E036E000E066E3A
:103D8800020E056EAAEC2AF06D9C080E466E040E13
:103D9800476E000E506E040E516E50C04EF051C06A
:103DA8004FF032C45EF05E50D8A403D0100E596EA6
:103DB8001200000E0E6E010E0D6E5E0E0F6E000EDE
:103DC800106E000E126E010E116EA8EC27F0200E78
:103DD800596E120004013039E832030B0009D8A4E7
:103DE800120042D0438E080E596E12008CEC19F066
:103DF800120080EC1EF012005E0E406E000E416E46
:103E08004380010E446E438E120083EC22F01200B0
:103E180027EC11F0120004013451010DFE0EF324B9
:103E2800406E020EF420416E4380010E446E438EB4
:103E38001200438E3451010DFE0EF324D96E020E8A
:103E4800F420DA6E32C4DFFF1200000E0E6E020E8E
:103E58000D6E000E0F6E000E106E000E126E000E2C
:103E6800116EA8EC27F0120004013151000AD8B4F1
:103E7800CCD7010AD8B4CCD7020AD8B4C9D7060A15
:103E8800D8B4B0D7030AD8B4B1D7010AD8B4DDD7AB
:103E98000F0AD8B4B1D7010AD8B4ABD7030AD8B43B
:103EA800BAD7010AD8B4C5D7070A1200080E016E9E
:103EB800455010E1080E445CD8B00CD044C001F065
:103EC8005850D8A402D0010E04D05804D8A402D067
:103ED800020E586E0150445E000E455A20EE01F065
:103EE8004650D9264750DA2201C0DFFF380E0301B9
:103EF8004C6F040E4D6F43A01CD03AD040C0F6FF63
:103F080041C0F7FFF86A4CC3D9FF4DC3DAFF070E6B
:103F1800F76403D00800F55005D0F6CFE9FFF7CFD6
:103F2800EAFFEF50DF6E404A412A03014C4B4D2B0C
:103F380001060150D8B41200E1D740C0F6FF41C0D5
:103F4800F7FFF86A4CC3D9FF4DC3DAFF070EF764D1
:103F580003D00800F55005D0F6CFE9FFF7CFEAFF08
:103F6800EF50DF6E404A412A03014C4B4D2B0106AE
:103F78000150D8B41200E1D70101F651D8A41200BB
:103F8800010EF66F0201EB51D8A41200010EEB6F7F
:103F9800020E5718D8A415D020EE01F04650D926A5
:103FA8004750DA22000EDF6E46C0D9FF47C0DAFF5D
:103FB800480EDF6E46C0D9FF47C0DAFF000EDB8E21
:103FC80012005704D8A41200000E0101F76F20EE6A
:103FD80001F05050D9265150DA22080EDF6E20EE3B
:103FE80002F05050D9265150DA22300EDE6E040EFF
:103FF800DD6E50C0D9FF51C0DAFF040EDF6E50C02D
:10400800D9FF51C0DAFF000EDB8E010EF76F20EEEC
:1040180001F04E50D9264F50DA22080EDF6E20EEFE
:1040280002F04E50D9264F50DA22300EDE6E040EC2
:10403800DD6E4EC0D9FF4FC0DAFF800EDF6E120072
:1040480046C0D9FF47C0DAFF000EDFBC010E026E82
:10405800040E4618466E4750476E080E5918D8A4E5
:104068000BD0040132517F0B6E6E6E50D8B402D063
:10407800100E01D0040E596E5704D8A43AD020EE81
:1040880002F04650D9264750DA22380EDE6E040E6A
:10409800DD6E5AEC1FF0020E5818D8A40DD046C099
:1040A800D9FF47C0DAFF040EDF6E46C0D9FF47C00C
:1040B800DAFF000EDB8E12000250D8A40DD046C0E5
:1040C800D9FF47C0DAFF480EDF6E46C0D9FF47C0A8
:1040D800DAFF000EDB8E120046C0D9FF47C0DAFFB8
:1040E800080EDF6E46C0D9FF47C0DAFF000EDB8E30
:1040F80012003BBE3B9E000E576E1200200E0001C0
:10410800BF6F010EC06F470EC16F7E0EC26F590E92
:10411800C36F7D0EC46F000EC66F550EC56F000EBF
:10412800C86F550EC76F000ECA6F550EC96F000EC7
:10413800CC6F550ECB6F000ECE6F550ECD6F000EA7
:10414800D06F550ECF6F000ED26F550ED16F000E87
:10415800D46F550ED36F000ED66F550ED56F000E67
:10416800D86F550ED76F000EDA6F550ED96F000E47
:10417800DC6F550EDB6F000EDE6F550EDD6F000E27
:10418800E06F550EDF6F000EE26F550EE16F000E07
:10419800E46F550EE36F09EC00F0200E00017C6F10
:1041A800010E7D6F000E7E6F22EC1BF00101E86F9F
:1041B800120000016351D8B405D060516111621139
:1041C800D8A40CD0000E606F000E616F000E626FF5
:1041D8001200632BD890623361336033000E601590
:1041E800656F000E6115666FFE0E6215676F65518B
:1041F80066116711D8B40CD0ECD7632B010E602779
:10420800000E6123000E6223D8906233613360335D
:10421800000E6015656F000E6115666FFF0E621562
:10422800676F655166116711D8B406D0E6D7630782
:10423800D89060376137623761BF03D0020E63617F
:10424800F6D763A1619FD8906333635162136451B9
:10425800D8A4628F60C060F061C061F062C062F093
:104268001200958083A004D00001606B602B02D0FF
:104278000001606B60510201E06FE16B958283A2DF
:1042880004D00001606B602B02D00001606B6051AC
:104298000201DE6FDF6B958483A404D00001606B9C
:1042A800602B02D00001606B60510201DC6FDD6B96
:1042B800958683A604D00001606B602B02D00001B4
:1042C800606B60510201DA6FDB6B000E03013A6F1D
:1042D800000E3B6F000E3C6F000E3D6F000E366FF8
:1042E800000E376F000E386F000E396F000E326FF8
:1042F800000E336F000E346F000E356F000E2E6FF8
:10430800000E2F6F000E306F000E316F120000018B
:104318007A69EA0E796F600E786F000E7B6FFAEC9F
:104328002AF060C074F061C075F062C076F063C0B6
:1043380077F033D074C068F075C069F076C06AF061
:1043480077C06BF00001681F691F6A1F6B1F682B1D
:10435800000E69236A236B23FAEC2AF000016851E6
:1043680060256C6F695161216D6F6A5162216E6FB2
:104378006B5163216F6F7851706F7951716F726BE8
:10438800736B6C51705D6D5171596E5172596F51EB
:104398007359D8B002D0010E7B6F00017B51D8A4AD
:1043A80003D05A50D8B4C6D75A50D8B404D0FEC196
:1043B8007AF0000E5A6E7A511200040130511F0B28
:1043C800E806D8A412003039E832030BE806D8A46E
:1043D80012003451D8B432D03405D8A412002ED0EB
:1043E800B40E406E030E416E000E456E080E446E0C
:1043F8004380438E1200B40E406E030E416E438E0E
:10440800120036C43CF037C43DF0BC0E386E030EC3
:10441800396E000E3E6E000E3F6E3B8E1200BC0ED3
:10442800406E030E416E000E456E070E446EC10EBF
:10443800436E120032C4E5F2438E12003151000A75
:10444800D8B4CED7010AD8B4D6D7210AD8B4D9D788
:10445800010AD8B4E4D7030AD8A41200EBD7828C97
:10446800949C828E948EAC84B886000E0001606F96
:104478000E0E616F270E626F070E636F6DC064F0DA
:104488006EC065F06FC066F070C067F013EC25F081
:10449800FB0E00016025716FFF0E6121726FFF0E28
:1044A8006221736FFF0E6321746F71C060F072C078
:1044B80061F073C062F074C063F00A0E646F000E9E
:1044C800656F000E666F000E676F13EC25F060C015
:1044D80071F061C072F062C073F063C074F071C0B3
:1044E800AFFF72C0B0FFAC98AC96AB8EB898B89AD4
:1044F800B890AC9CAB9CAB88AC8A9D8A1200000E2D
:104508000401386F000E396F35D0438E0101F9056B
:10451800D8A43BD00401388338D0438E36D0438E9C
:1045280034BF0AD034510F0B016E0150020DC80E72
:10453800F324D96E020E09D034510F0B016E0150CD
:10454800020D460EF324D96E000EF420DA6EDECF8B
:1045580002F0DDCF03F002C0D9FF03C0DAFFDFAEFF
:1045680014D002C0D9FF03C0DAFFDFA40ED0010EB9
:10457800386F0BD030511F0B000AD8B4C6D7010AC8
:10458800D8B4CBD7030AD8B4CAD743AE1200380E72
:10459800406E040E416E4380020E446E1200000EFF
:1045A8000201EA6F000EE96F020E5718D8A41FD057
:1045B80020EE01F04E50D9264F50DA22080EDF6E59
:1045C80020EE02F04E50D9264F50DA22380EDE6E19
:1045D800040EDD6E4EC0D9FF4FC0DAFF480EDF6E05
:1045E8004EC0D9FF4FC0DAFF000EDB8E12004450D8
:1045F8000401365D45503759D8B004D036C444F06C
:1046080037C445F05AEC1FF020EE02F04650D92688
:104618004750DA22380EDE6E040EDD6E46C0D9FF32
:1046280047C0DAFF480EDF6E46C0D9FF47C0DAFF41
:10463800000EDB8E12002D0E556E5DC01BF0FD0EB8
:104648001B16D8A43BD05DC01BF0D8901B323F0E80
:104658001B161B50040D000EF324506E040EF4209C
:10466800516E50C04EF051C04FF0040E4E184E6EB1
:104678004F504F6E50C0D9FF51C0DAFFDF30E832DB
:104688000F0B0D0AD8A417D0300E016E040E026E5F
:1046980020EE02F05050D9265150DA22DECF03F036
:1046A800DDCF04F0000E066E080E056EDFEC28F074
:1046B800FDEC23F0120079EC27F012005D50FD0BA1
:1046C800040AD8A4120024EC20F01200066E000E92
:1046D800076E040E086E0150026E036AD890023607
:1046E80003360650046E056AD89004360536D8900D
:1046F800043605360250042603500522D8900436A5
:104708000536D89004360536045007260550082289
:1047180007C0D9FF08C0DAFFDF9E0150D8A407D030
:104728000650020DC80EF324D96E020E06D00650AC
:10473800020D460EF324D96E000EF420DA6E07C07F
:10474800DEFF08C0DDFF07C0D9FF08C0DAFFDF9C25
:1047580020EE04F00750D9260850DA22DF8C120028
:10476800000162AF16D060C066F061C067F062C039
:1047780068F0661F671F681F662B000E6723682393
:10478800000E6625606F000E6721616F800E68213C
:10479800626F65AF16D063C066F064C067F065C02D
:1047A80068F0661F671F681F662B000E6723682363
:1047B800000E6625636F000E6721646F800E682106
:1047C800656F000E601B000E611B800E621B000EE1
:1047D800631B000E641B800E651B6351605D645192
:1047E800615965516259D8B002D0D8901200D8806A
:1047F8001200000E586E000E546E000E0201EA6F91
:10480800000EE96F000E0101F76F000E576E46C0EB
:10481800D9FF47C0DAFF7F0EDF16040E4618466E32
:104828004750476E46C0D9FF47C0DAFF7F0EDF16F4
:10483800040E4618466E4750476E4EC0D9FF4FC00B
:10484800DAFF7F0EDF16000E436E000E456E000E77
:10485800446E000E3B6E000E3D6E000E3C6EEEEC9C
:104868001EF0000E0E6E030E0D6E000E0F6E000E83
:10487800106E000E126E000E116EA8EC27F025ECDB
:104888001CF01200640EF66E560EF76E000EF86EEF
:1048980003EEC3F010EE22F00900F5CFEEFFE5506D
:1048A800E150FAE107EE00F0FA0EEE6AE806FDE1E3
:1048B80006EE00F0FA0EEE6AE806FDE103EE00F0FF
:1048C800C30EEE6AE806FDE102EEC8F0380EEE6AA5
:1048D800E806FDE101EEEFF0110EEE6AE806FDE1F3
:1048E80004EE40F0640EEE6AE806FDE105EE80F0A5
:1048F800640EEE6AE806FDE100EE38F0270EEE6A77
:10490800E806FDE15F905F92000EF86E000108EF87
:1049180007F0000E00016B6F69AF06D0686D691F64
:10492800D8B0692B010E6B6F67AF06D0666D671F35
:10493800D8B0672B010E6B1B000E6D6F000E6C6FED
:1049480068516911D8B41CD0010E6A6F04D0D89090
:10495800683769376A2B69AFFAD7D8906C376D37E3
:104968006851665D69516759D8A005D06851665F7E
:104978006951675B6C81D890693368336A2FEDD7CA
:104988006B51D8B404D06C6D6D1FD8B06D2B6CC052
:1049980066F06DC067F01200066E000E046E000E21
:1049A800056E000E036E06505FEC2BF0066E02508B
:1049B8005FEC2BF0026E2F0E066406D03A0E0660EE
:1049C80003D00650D00F08D0400E066406D0470E1C
:1049D800066003D00650C90F046E2F0E026406D07D
:1049E8003A0E026003D00250D00F0AD0400E026483
:1049F80006D0470E026003D00250C90F01D0640EE2
:104A0800056E640E0518D8A403D004C003F005D0C1
:104A18000450100DF3500524036E03501200000ECD
:104A28000001686F000E696F000E6A6F000E6B6FF1
:104A38006451651166116711D8B42AD0010E6C6FE4
:104A480006D0D89064376537663767376C2B67AF01
:104A5800F8D7D890683769376A376B376451605D23
:104A6800655161596651625967516359D8A009D097
:104A78006451605F6551615B6651625B6751635B5E
:104A88006881D89067336633653364336C2FE1D718
:104A980068C060F069C061F06AC062F06BC063F022
:104AA800120033D001C0D9FF02C0DAFFDF50D8B4FA
:104AB8000FD001C0D9FF02C0DAFFDF50076E03C074
:104AC800F6FF04C0F7FF0800F5500718D8B419D04E
:104AD80003C0F6FF04C0F7FF0800F550076E086A28
:104AE800071E081E074A082A01C0D9FF02C0DAFFBC
:104AF800DF50096E09500724016E000E0820026E6F
:104B08001200014A022A034A042A0506D8A006060A
:104B18000528C8E10628D8A4C5D7000E026E000EE5
:104B2800016E1200200E0001BF6F010EC06F8B0EC8
:104B3800C16F7E0EC26F6F0EC36F7D0EC46F000E05
:104B4800C66F000EC56F000EC86F040EC76F000E4B
:104B5800CA6FA30EC96F000ECC6F0B0ECB6F000E81
:104B6800CE6F000ECD6F000ED06F1B0ECF6F000EF4
:104B7800D26F740ED16F000ED46F760ED36F09EC1E
:104B880000F0200E00017C6F010E7D6F000E7E6F1D
:104B980022EC1BF00101E86F1200200E0001BF6F2C
:104BA800010EC06F8B0EC16F7E0EC26F640EC36F95
:104BB8007D0EC46F000EC66F000EC56F000EC86F65
:104BC800000EC76F000ECA6F000EC96F000ECC6FC3
:104BD800000ECB6F000ECE6F000ECD6F000ED06FA3
:104BE800000ECF6F000ED26F000ED16F000ED46F83
:104BF800000ED36F09EC00F0200E00017C6F010E4F
:104C08007D6F000E7E6F22EC1BF00101E86F120031
:104C1800FAEC2AF060C079F061C07AF062C07BF0EB
:104C280063C07CF002D04BEC2AF079C071F07AC0F6
:104C380072F07BC073F07CC074F00001711F721FAA
:104C4800731F741F712B000E722373237423FAECE5
:104C58002AF0000171516025756F72516121766FDC
:104C680073516221776F74516321786F6D51755D4F
:104C78006E5176596F51775970517859D8B01200E2
:104C8800D2D7000E0001656F61AF06D0606D611F5D
:104C9800D8B0612B010E656F63AF04D0626D631FDE
:104CA800D8B0632B62516311D8B418D0010E646F69
:104CB80004D0D89062376337642B63AFFAD7625158
:104CC800605D63516159D8A004D06251605F63513F
:104CD800615BD89063336233642FF1D76551D8B4E0
:104CE80004D0606D611FD8B0612B60C060F061C0F6
:104CF80061F012000101E96F0001F151D8B412D03E
:104D0800200EBF6F010EC06F920EC16F7F0EC26F73
:104D18003E0EC36F7D0EC46FE9C1C5F0C66B09ECCA
:104D280000F012D0200E0001BF6F010EC06F740E8C
:104D3800C16F7F0EC26F3E0EC36F7D0EC46FE9C197
:104D4800C5F0C66B09EC00F0200E00017C6F010E67
:104D58007D6F000E7E6F22EC1BF00101E86F1200E0
:104D680000017151721173117411D8B424D0010E5D
:104D7800756F06D0D8907137723773377437752BC3
:104D880074AFF8D771516D5D72516E5973516F5987
:104D980074517059D8A008D071516D5F72516E5B13
:104DA80073516F5B7451705BD89074337333723383
:104DB8007133752FE7D76DC06DF06EC06EF06FC0A0
:104DC8006FF070C070F01200000E0301BC6F4B0E44
:104DD800BD6F000EBE6F000EBF6F000EC06F000EDD
:104DE800C16F080EC26F000E536E1A0E096E010EC7
:104DF800A3EC29F01E0E096E020EA3EC29F0000E9A
:104E0800016E400E026E050E036E400E046E020E19
:104E1800A4EC1BF001C0F3F102C0F4F1000E020192
:104E2800D86F000ED96F000EE76F12000001646F93
:104E380000016051D8B419D060C061F06451020D0E
:104E4800010EF326000EF422000EF324D96E030E91
:104E5800F420DA6EDF50626F612B02D0D890623393
:104E6800612FFCD7000162510DD06451020D010E73
:104E7800F326000EF422000EF324D96E030EF4205C
:104E8800DA6EDF50010B636F635112008E0E000162
:104E9800706F06D0D8906B336A3369336833702BE0
:104EA800000E68156C6F000E69156D6F000E6A159F
:104EB8006E6FFF0E6B156F6F6C516D116E116F1168
:104EC800D8A4E8D768C060F069C061F06AC062F031
:104ED80070C063F0000E646FDDEC20F060C068F015
:104EE80061C069F062C06AF01200020E5718D8A4B7
:104EF80003D019EC1AF01200000E576E0101F75199
:104F0800D8A41FD020EE01F04E50D9264F50DA22F7
:104F1800080EDF6E20EE02F04E50D9264F50DA22EE
:104F2800300EDE6E040EDD6E4EC0D9FF4FC0DAFFC4
:104F38000C0EDF6E4EC0D9FF4FC0DAFF000EDB8EBD
:104F48001200000EF76F120006D0E8EC26F01200EF
:104F5800E1EC21F012000DC013F00EC014F0145053
:104F6800000AD8B404D07F0AD8A4120018D013506D
:104F7800010AD8B4EAD7030AD8B41200010AD8B48F
:104F8800E7D7060AD8B41200770AD8B41200010A83
:104F9800D8B41200070AD8B41200010A120013503C
:104FA800FF0A120060C064F061C065F003D0000120
:104FB800644B652B64C0F6FF65C0F7FFF86A070EFF
:104FC800F76403D00800F55005D0F6CFE9FFF7CF16
:104FD800EAFFEF500009D8A4EAD760C062F061C0C8
:104FE80063F00001621F631F624B632B64516225EB
:104FF800606F65516321616F120001C005F002C046
:1050080006F002D0054A062A05C0F6FF06C0F7FFDB
:10501800F86A070EF76403D00800F55005D0F6CFFC
:10502800E9FFF7CFEAFFEF500009D8A4EBD701C09A
:1050380003F002C004F0031E041E034A042A0550AC
:105048000324016E06500420026E1200A09A020189
:10505800E751D8B402D0A08A1200000E0001646F94
:1050680060C062F061C063F0642B6429D8B409D0D1
:1050780062C0D9FF63C0DAFF624B632BDF50D8A44C
:10508800F3D760C049F361C04AF364C052F0010E1F
:105098000201E66F010EE76FA08A120004D0014AF0
:1050A800022A034A042A01C0D9FF02C0DAFFDF50EE
:1050B800056E03C0F6FF04C0F7FF0800F5500008AE
:1050C8000524066E0650D8A407D001C0D9FF02C037
:1050D800DAFFDF50D8A4E3D70650016E026A01BE9A
:1050E8000206120060C064F061C065F003D00001E0
:1050F800644B652B64C0D9FF65C0DAFFDF50D8B4B4
:1051080006D0F5D70001644B652B624B632B62C058
:10511800D9FF63C0DAFF64C0E1FF65C0E2FFDFCFFB
:10512800E7FFE750D8B41200EDD7200E0001BF6F9B
:10513800010EC06FE40EC16F7F0EC26F4C0EC36FBD
:105148007D0EC46FF1C0C5F0F2C0C6F009EC00F0E6
:10515800200E00017C6F010E7D6F000E7E6F22EC29
:105168001BF00001F36FF3510101E86FE96B1200C6
:10517800200E0001BF6F010EC06FE40EC16F7F0EDD
:10518800C26FA70EC36F7D0EC46FF1C0C5F0F2C029
:10519800C6F009EC00F0200E00017C6F010E7D6F57
:1051A800000E7E6F22EC1BF00001F36FF35101013A
:1051B800E86FE96B120003C009F004C00AF001C0EF
:1051C80007F002C008F010D009C0D9FF0AC0DAFF02
:1051D800DF500B6E094A0A2A07C0D9FF08C0DAFF58
:1051E8000BC0DFFF074A082A0506D8A006060528CF
:1051F800EBE10628D8B41200E7D7010E0201F36FDD
:10520800F29EB80EB16E000ECF6E000ECE6E050E79
:10521800BF6EDC0EBE6E000E03012A6F000E2B6FF0
:10522800000E2C6F000E2D6F9E94F10ECD6E0B0E9E
:10523800BD6E9D849F84D08EF28E12000001835132
:1052480084118511D8B406D0000E831B000E841B70
:10525800800E851B80C074F081C075F082C076F026
:1052680083C077F084C078F085C079F07FEC14F0C3
:1052780074C080F075C081F076C082F0120070A012
:105288001DD050C0D9FF51C0DAFF800EDE18D8A457
:1052980014D046C0D9FF47C0DAFF840EDE18D8A460
:1052A8000CD050C0D9FF51C0DAFF0C0EDF6E50C0D1
:1052B800D9FF51C0DAFF000EDB8E7090689A120099
:1052C8000101E96F200E0001BF6F010EC06FF50EDE
:1052D800C16F7F0EC26F2E0EC36F7D0EC46FE9C102
:1052E800C5F0C66B09EC00F0200E00017C6F010EC2
:1052F8007D6F000E7E6F22EC1BF00101E86F12003B
:10530800200E0001BF6F010EC06FEA0EC16F7F0E45
:10531800C26F9F0EC36F7D0EC46FF1C0C5F0F2C09F
:10532800C6F009EC00F0200E00017C6F010E7D6FC5
:10533800000E7E6F22EC1BF00101E86F12000C6E6C
:1053480009A405D0000E016E0C506AEC23F009A2E6
:1053580005D0010E016E0C506AEC23F00C50010DC3
:10536800700EF3240A6E0F0EF4200B6E0AC0D9FFDC
:105378000BC0DAFF09C0DFFF1200000E00016B6FDF
:1053880069AF06D0686D691FD8B0692B010E6B6FC5
:1053980068C060F069C061F0626B8E0E636F6BC0AD
:1053A80064F0DDEC20F060C068F061C069F062C0B4
:1053B8006AF01200840E00017C6F7D0E7D6F000E76
:1053C8007E6F22EC1BF00001876F0BD08BEC21F075
:1053D8000009D8A402D0010E1200000E1200000E1F
:1053E800120000018751000AD8B4F0D7F8D7200E70
:1053F8000001BF6F010EC06FED0EC16F7F0EC26F4F
:10540800C00EC36F7D0EC46F09EC00F0200E0001C2
:105418007C6F010E7D6F000E7E6F22EC1BF0010188
:10542800E86F1200000E0101F86F000E0E6E740E88
:105438000D6E000E0F6E000E106E000E126E000E36
:10544800116EA8EC27F06D92699401D0689468B445
:10545800FDD7000E0201E86F12005950D8A41200BF
:1054680082A41200000E6D6E000E696E160E6F6E2D
:105478009F0E6B6E7B0E696ED08EA28AA08AF28E0A
:1054880001D06D866DA6FDD7010E596E12005950D8
:10549800D8B482A403D031EC2AF006D05904D8B489
:1054A80082B402D071EC2BF01F0E596402D06DA2A9
:1054B80002D0000E120033EC17F0010E120060C08B
:1054C80066F061C067F009D066C0D9FF67C0DAFF2F
:1054D80062C0DFFF0001664B672B00016407D8A09C
:1054E80065076429F1E16529D8B41200EDD769840C
:1054F80068986D82010E0101F86F000E0201E86FD5
:10550800000E0E6E750E0D6E000E0F6E000E106EF4
:10551800000E126E000E116EA8EC27F0120001C0EA
:1055280005F002C006F004D0054A062A034A042AF8
:1055380003C0D9FF04C0DAFF05C0E1FF06C0E2FFDF
:10554800DFCFE7FFE750D8B41200EED701C007F06D
:1055580002C008F008D007C0D9FF08C0DAFF03C0AE
:10556800DFFF074A082A0506D8A006060528F3E142
:105578000628D8B41200EFD700016E517003F3CF9C
:1055880072F0F4CF73F06E517103F35073276F51BB
:105598007003F350732772C06EF073C06FF012007F
:1055A800B50E00017C6F7D0E7D6F010E7E6F22ECC3
:1055B8001BF00001876F0F0E8719D8A402D0010EC7
:1055C8001200000E12000001605161116211D8B47E
:1055D80006D0000E601B000E611B800E621B60C0AF
:1055E80060F061C061F062C062F012009D942AC34D
:1055F80064F02BC365F02CC366F02DC367F09D845F
:1056080064C060F065C061F066C062F067C063F0B6
:1056180012009EBA02D0000E1200ABCF02F0AECF3D
:1056280003F002C001F0060E0116D8B403D0AB98FF
:1056380000F0AB8803501200010E0201CE27000EC5
:10564800CF23D023D1230101F851D8A4120002019D
:10565800E82BE851D8A41200E8691200857F377F4B
:10566800537F697FC87FAF7EFA7F5E7F057F7E7F2D
:105678009B7FA37F457FC17F277F0100000000013A
:10568800626F000E0001616F3A0E626105D02F0E45
:10569800626502D0010E616F61C060F06031120076
:1056A8009D9A0101FE69000E5B6E000E5C6E000E95
:1056B8005A6E9D8A1200016E7B0E016004D0600E46
:1056C800016401D0019A01501200C2900D0EC16E02
:1056D800BE0EC06E9E9C9D9C1200000E6D6E000E4C
:1056E800696E000E596E12000001606F9EA8FED709
:0656F80060C0ADFF1200CE
:107BD20000010000000A00000064000000E8030049
:107BE2000010270000A086010040420F00809698F6
:107BF2000000E1F50500CA9A3B00803F00204100E9
:107C0200C842007A44401C4650C34724744997181E
:107C12004BBCBE4C6B6E4E03155079AD60F349718F
:107C220000803FCDCC3DD7233C12833AB7D138C632
:107C32002737388635C0D633CC2B32708930E7DB14
:107C42002EE53C1E42A20D010000001000000000C3
:107C52000100000010000000000100000010000000
:107C620000000100000010CA7DE87CB47C717C0930
:107C7200024300020100C0320904000001020201B5
:107C82000005240010010424020205240600010557
:107C92002401000107058103080002090401000212
:107CA2000A000000070502024000000705820240A8
:107CB20000003403430044004300200052005300FC
:107CC2002D00320033003200200045006D007500A7
:107CD2006C006100740069006F006E0020004400B7
:107CE20065006D006F0034034D006900630072008F
:107CF2006F00630068006900700020005400650096
:107D0200630068006E006F006C006F00670079000E
:107D1200200049006E0063002E00120100020200E2
:107D22000008D8040A0000010102000172616469BE
:107D32006F20736574207366205346007365742048
:107D420063682073746174757300726164696F2073
:107D520073657420627700736574206170706B655F
:107D6200790073657420617070657569007365745C
:107D7200206465766575690067657420646E637456
:107D820072006A6F696E206F746161007478207589
:107D92006E636E6600676574206164720073657459
:107DA20020616472007365742064720074782063C9
:107DB2006E66007265736574007379732000736177
:107DC2007665006D61632000040309046F66660036
:107DD2006F6E0048504850434D434D45454B5957EF
:107DE20052434849445348534C726573706F7374DD
:107DF200613A202532582025325820253258202534
:107E02003258202532582025325820253258202534
:107E1200325820253258202532582020256420202F
:107E2200256420202564202025642020256420202C
:107E3200256420202564202025642020256420201C
:107E420025640A0D00257320252E3278252E3278DE
:107E5200252E3278252E3278252E3278252E32782C
:107E6200252E3278252E3278252E3278252E32781C
:107E7200252E3278252E3278252E3278252E32780C
:107E8200252E3278252E327800257320252E327841
:107E9200252E3278252E3278252E3278252E3278EC
:107EA200252E3278252E3278252E327800667261A0
:107EB2006D655F636F756E7465725F6572725F7216
:107EC200656A6F696E5F6E65656465640025733A05
:107ED200256C753B256C753B256C753B256C7523B4
:107EE2000030313233343536373839414243444534
:107EF20046003031323334353637383961626364A3
:107F0200656600696E76616C69645F646174615F65
:107F12006C656E003C3D3E804E23256C64232573C8
:107F220023257523006163636570746564524E3264
:107F32003930332000696E76616C69645F706172FA
:107F4200616D006B6579735F6E6F745F696E6974E2
:107F5200006E6F745F6A6F696E6564006D61635F66
:107F6200706175736564006E6F5F667265655F63ED
:107F720068002573202564206F6666006D61635F6B
:107F820074785F6F6B0025733A25753B2575230066
:107F92002573202564206F6E006D61635F72782007
:107FA200006D61635F6572720025733A256C7523FB
